{
  "contractName": "CardAuction",
  "abi": [
    {
      "anonymous": false,
      "inputs": [
        {
          "indexed": true,
          "internalType": "address",
          "name": "_owner",
          "type": "address"
        },
        {
          "indexed": true,
          "internalType": "address",
          "name": "_approved",
          "type": "address"
        },
        {
          "indexed": true,
          "internalType": "uint256",
          "name": "_tokenId",
          "type": "uint256"
        }
      ],
      "name": "Approval",
      "type": "event"
    },
    {
      "anonymous": false,
      "inputs": [
        {
          "indexed": true,
          "internalType": "address",
          "name": "_owner",
          "type": "address"
        },
        {
          "indexed": true,
          "internalType": "address",
          "name": "_operator",
          "type": "address"
        },
        {
          "indexed": false,
          "internalType": "bool",
          "name": "_approved",
          "type": "bool"
        }
      ],
      "name": "ApprovalForAll",
      "type": "event"
    },
    {
      "anonymous": false,
      "inputs": [
        {
          "indexed": true,
          "internalType": "uint256",
          "name": "auctionId",
          "type": "uint256"
        },
        {
          "indexed": true,
          "internalType": "uint256",
          "name": "cardId",
          "type": "uint256"
        },
        {
          "indexed": false,
          "internalType": "uint256",
          "name": "salePrice",
          "type": "uint256"
        },
        {
          "indexed": true,
          "internalType": "address",
          "name": "to",
          "type": "address"
        },
        {
          "indexed": false,
          "internalType": "bool",
          "name": "completed",
          "type": "bool"
        }
      ],
      "name": "AuctionClosed",
      "type": "event"
    },
    {
      "anonymous": false,
      "inputs": [
        {
          "indexed": true,
          "internalType": "uint256",
          "name": "auctionId",
          "type": "uint256"
        },
        {
          "indexed": true,
          "internalType": "uint256",
          "name": "cardId",
          "type": "uint256"
        },
        {
          "indexed": false,
          "internalType": "uint256",
          "name": "startingBid",
          "type": "uint256"
        },
        {
          "indexed": false,
          "internalType": "uint256",
          "name": "expireDate",
          "type": "uint256"
        },
        {
          "indexed": true,
          "internalType": "address",
          "name": "owner",
          "type": "address"
        }
      ],
      "name": "AuctionOpened",
      "type": "event"
    },
    {
      "anonymous": false,
      "inputs": [
        {
          "indexed": true,
          "internalType": "uint256",
          "name": "auctionId",
          "type": "uint256"
        },
        {
          "indexed": true,
          "internalType": "uint256",
          "name": "cardId",
          "type": "uint256"
        },
        {
          "indexed": false,
          "internalType": "uint256",
          "name": "bid",
          "type": "uint256"
        },
        {
          "indexed": true,
          "internalType": "address",
          "name": "bidder",
          "type": "address"
        },
        {
          "indexed": false,
          "internalType": "uint256",
          "name": "expireDate",
          "type": "uint256"
        }
      ],
      "name": "BidPlaced",
      "type": "event"
    },
    {
      "anonymous": false,
      "inputs": [
        {
          "indexed": false,
          "internalType": "uint256",
          "name": "cardId",
          "type": "uint256"
        },
        {
          "indexed": false,
          "internalType": "uint256",
          "name": "cardType",
          "type": "uint256"
        },
        {
          "indexed": false,
          "internalType": "uint256",
          "name": "playerId",
          "type": "uint256"
        },
        {
          "indexed": false,
          "internalType": "uint256",
          "name": "attributeHash",
          "type": "uint256"
        },
        {
          "indexed": true,
          "internalType": "address",
          "name": "owner",
          "type": "address"
        }
      ],
      "name": "CardCreated",
      "type": "event"
    },
    {
      "anonymous": false,
      "inputs": [
        {
          "indexed": true,
          "internalType": "address",
          "name": "owner",
          "type": "address"
        }
      ],
      "name": "CardPackPurchased",
      "type": "event"
    },
    {
      "anonymous": false,
      "inputs": [
        {
          "indexed": true,
          "internalType": "address",
          "name": "previousOwner",
          "type": "address"
        },
        {
          "indexed": true,
          "internalType": "address",
          "name": "newOwner",
          "type": "address"
        }
      ],
      "name": "OwnershipTransferred",
      "type": "event"
    },
    {
      "anonymous": false,
      "inputs": [
        {
          "indexed": true,
          "internalType": "address",
          "name": "_from",
          "type": "address"
        },
        {
          "indexed": true,
          "internalType": "address",
          "name": "_to",
          "type": "address"
        },
        {
          "indexed": true,
          "internalType": "uint256",
          "name": "_tokenId",
          "type": "uint256"
        }
      ],
      "name": "Transfer",
      "type": "event"
    },
    {
      "inputs": [
        {
          "internalType": "address",
          "name": "_approved",
          "type": "address"
        },
        {
          "internalType": "uint256",
          "name": "_tokenId",
          "type": "uint256"
        }
      ],
      "name": "approve",
      "outputs": [],
      "stateMutability": "payable",
      "type": "function",
      "payable": true
    },
    {
      "inputs": [
        {
          "internalType": "uint256",
          "name": "",
          "type": "uint256"
        }
      ],
      "name": "auctionExpireDate",
      "outputs": [
        {
          "internalType": "uint256",
          "name": "",
          "type": "uint256"
        }
      ],
      "stateMutability": "view",
      "type": "function",
      "constant": true
    },
    {
      "inputs": [],
      "name": "auctionId",
      "outputs": [
        {
          "internalType": "uint256",
          "name": "",
          "type": "uint256"
        }
      ],
      "stateMutability": "view",
      "type": "function",
      "constant": true
    },
    {
      "inputs": [
        {
          "internalType": "address",
          "name": "_owner",
          "type": "address"
        }
      ],
      "name": "balanceOf",
      "outputs": [
        {
          "internalType": "uint256",
          "name": "",
          "type": "uint256"
        }
      ],
      "stateMutability": "view",
      "type": "function",
      "constant": true
    },
    {
      "inputs": [
        {
          "internalType": "uint256",
          "name": "",
          "type": "uint256"
        }
      ],
      "name": "cardIdToOwner",
      "outputs": [
        {
          "internalType": "address",
          "name": "",
          "type": "address"
        }
      ],
      "stateMutability": "view",
      "type": "function",
      "constant": true
    },
    {
      "inputs": [
        {
          "internalType": "uint256",
          "name": "",
          "type": "uint256"
        }
      ],
      "name": "cardIsAtIndex",
      "outputs": [
        {
          "internalType": "uint256",
          "name": "",
          "type": "uint256"
        }
      ],
      "stateMutability": "view",
      "type": "function",
      "constant": true
    },
    {
      "inputs": [
        {
          "internalType": "uint256",
          "name": "",
          "type": "uint256"
        }
      ],
      "name": "cardIsForSale",
      "outputs": [
        {
          "internalType": "bool",
          "name": "",
          "type": "bool"
        }
      ],
      "stateMutability": "view",
      "type": "function",
      "constant": true
    },
    {
      "inputs": [
        {
          "internalType": "uint256",
          "name": "",
          "type": "uint256"
        }
      ],
      "name": "cardToAuctionId",
      "outputs": [
        {
          "internalType": "uint256",
          "name": "",
          "type": "uint256"
        }
      ],
      "stateMutability": "view",
      "type": "function",
      "constant": true
    },
    {
      "inputs": [
        {
          "internalType": "uint256",
          "name": "",
          "type": "uint256"
        }
      ],
      "name": "cardToCurrentBid",
      "outputs": [
        {
          "internalType": "uint256",
          "name": "",
          "type": "uint256"
        }
      ],
      "stateMutability": "view",
      "type": "function",
      "constant": true
    },
    {
      "inputs": [
        {
          "internalType": "uint256",
          "name": "",
          "type": "uint256"
        }
      ],
      "name": "cards",
      "outputs": [
        {
          "internalType": "uint256",
          "name": "cardId",
          "type": "uint256"
        },
        {
          "internalType": "uint256",
          "name": "playerId",
          "type": "uint256"
        },
        {
          "internalType": "uint256",
          "name": "attributeHash",
          "type": "uint256"
        },
        {
          "internalType": "uint256",
          "name": "cardType",
          "type": "uint256"
        }
      ],
      "stateMutability": "view",
      "type": "function",
      "constant": true
    },
    {
      "inputs": [
        {
          "internalType": "address",
          "name": "",
          "type": "address"
        }
      ],
      "name": "existingUser",
      "outputs": [
        {
          "internalType": "bool",
          "name": "",
          "type": "bool"
        }
      ],
      "stateMutability": "view",
      "type": "function",
      "constant": true
    },
    {
      "inputs": [
        {
          "internalType": "uint256",
          "name": "_tokenId",
          "type": "uint256"
        }
      ],
      "name": "getApproved",
      "outputs": [
        {
          "internalType": "address",
          "name": "",
          "type": "address"
        }
      ],
      "stateMutability": "view",
      "type": "function",
      "constant": true
    },
    {
      "inputs": [
        {
          "internalType": "address",
          "name": "_owner",
          "type": "address"
        },
        {
          "internalType": "address",
          "name": "_operator",
          "type": "address"
        }
      ],
      "name": "isApprovedForAll",
      "outputs": [
        {
          "internalType": "bool",
          "name": "",
          "type": "bool"
        }
      ],
      "stateMutability": "view",
      "type": "function",
      "constant": true
    },
    {
      "inputs": [
        {
          "internalType": "uint256",
          "name": "",
          "type": "uint256"
        }
      ],
      "name": "leadingBidder",
      "outputs": [
        {
          "internalType": "address",
          "name": "",
          "type": "address"
        }
      ],
      "stateMutability": "view",
      "type": "function",
      "constant": true
    },
    {
      "inputs": [],
      "name": "maxAuctionDuration",
      "outputs": [
        {
          "internalType": "uint256",
          "name": "",
          "type": "uint256"
        }
      ],
      "stateMutability": "view",
      "type": "function",
      "constant": true
    },
    {
      "inputs": [
        {
          "internalType": "address",
          "name": "_to",
          "type": "address"
        },
        {
          "internalType": "uint256",
          "name": "_playerId",
          "type": "uint256"
        },
        {
          "internalType": "uint256",
          "name": "_type",
          "type": "uint256"
        },
        {
          "internalType": "uint256",
          "name": "_attributes",
          "type": "uint256"
        }
      ],
      "name": "mintCustomCard",
      "outputs": [],
      "stateMutability": "nonpayable",
      "type": "function"
    },
    {
      "inputs": [],
      "name": "owner",
      "outputs": [
        {
          "internalType": "address",
          "name": "",
          "type": "address"
        }
      ],
      "stateMutability": "view",
      "type": "function",
      "constant": true
    },
    {
      "inputs": [
        {
          "internalType": "address",
          "name": "",
          "type": "address"
        }
      ],
      "name": "ownerCardCount",
      "outputs": [
        {
          "internalType": "uint256",
          "name": "",
          "type": "uint256"
        }
      ],
      "stateMutability": "view",
      "type": "function",
      "constant": true
    },
    {
      "inputs": [
        {
          "internalType": "uint256",
          "name": "_tokenId",
          "type": "uint256"
        }
      ],
      "name": "ownerOf",
      "outputs": [
        {
          "internalType": "address",
          "name": "",
          "type": "address"
        }
      ],
      "stateMutability": "view",
      "type": "function",
      "constant": true
    },
    {
      "inputs": [],
      "name": "purchaseCardPack",
      "outputs": [],
      "stateMutability": "payable",
      "type": "function",
      "payable": true
    },
    {
      "inputs": [],
      "name": "renounceOwnership",
      "outputs": [],
      "stateMutability": "nonpayable",
      "type": "function"
    },
    {
      "inputs": [
        {
          "internalType": "address",
          "name": "_from",
          "type": "address"
        },
        {
          "internalType": "address",
          "name": "_to",
          "type": "address"
        },
        {
          "internalType": "uint256",
          "name": "_tokenId",
          "type": "uint256"
        }
      ],
      "name": "safeTransferFrom",
      "outputs": [],
      "stateMutability": "payable",
      "type": "function",
      "payable": true
    },
    {
      "inputs": [
        {
          "internalType": "address",
          "name": "_from",
          "type": "address"
        },
        {
          "internalType": "address",
          "name": "_to",
          "type": "address"
        },
        {
          "internalType": "uint256",
          "name": "_tokenId",
          "type": "uint256"
        },
        {
          "internalType": "bytes",
          "name": "_data",
          "type": "bytes"
        }
      ],
      "name": "safeTransferFrom",
      "outputs": [],
      "stateMutability": "payable",
      "type": "function",
      "payable": true
    },
    {
      "inputs": [
        {
          "internalType": "address",
          "name": "_operator",
          "type": "address"
        },
        {
          "internalType": "bool",
          "name": "_approved",
          "type": "bool"
        }
      ],
      "name": "setApprovalForAll",
      "outputs": [],
      "stateMutability": "nonpayable",
      "type": "function"
    },
    {
      "inputs": [
        {
          "internalType": "uint256",
          "name": "_fee",
          "type": "uint256"
        }
      ],
      "name": "setCardPackFee",
      "outputs": [],
      "stateMutability": "nonpayable",
      "type": "function"
    },
    {
      "inputs": [
        {
          "internalType": "uint256",
          "name": "_quantity",
          "type": "uint256"
        }
      ],
      "name": "setCardPackQuantity",
      "outputs": [],
      "stateMutability": "nonpayable",
      "type": "function"
    },
    {
      "inputs": [
        {
          "internalType": "uint256",
          "name": "_newOdds",
          "type": "uint256"
        }
      ],
      "name": "setExotixCardOdds",
      "outputs": [],
      "stateMutability": "nonpayable",
      "type": "function"
    },
    {
      "inputs": [
        {
          "internalType": "uint256",
          "name": "_newOdds",
          "type": "uint256"
        }
      ],
      "name": "setLegendaryCardOdds",
      "outputs": [],
      "stateMutability": "nonpayable",
      "type": "function"
    },
    {
      "inputs": [
        {
          "internalType": "uint256",
          "name": "_newOdds",
          "type": "uint256"
        }
      ],
      "name": "setRareCardOdds",
      "outputs": [],
      "stateMutability": "nonpayable",
      "type": "function"
    },
    {
      "inputs": [
        {
          "internalType": "uint256",
          "name": "_count",
          "type": "uint256"
        }
      ],
      "name": "setTotalPlayers",
      "outputs": [],
      "stateMutability": "nonpayable",
      "type": "function"
    },
    {
      "inputs": [
        {
          "internalType": "address",
          "name": "_from",
          "type": "address"
        },
        {
          "internalType": "address",
          "name": "_to",
          "type": "address"
        },
        {
          "internalType": "uint256",
          "name": "_tokenId",
          "type": "uint256"
        }
      ],
      "name": "transferFrom",
      "outputs": [],
      "stateMutability": "payable",
      "type": "function",
      "payable": true
    },
    {
      "inputs": [
        {
          "internalType": "address",
          "name": "newOwner",
          "type": "address"
        }
      ],
      "name": "transferOwnership",
      "outputs": [],
      "stateMutability": "nonpayable",
      "type": "function"
    },
    {
      "inputs": [
        {
          "internalType": "address",
          "name": "",
          "type": "address"
        },
        {
          "internalType": "uint256",
          "name": "",
          "type": "uint256"
        }
      ],
      "name": "userOwnedCards",
      "outputs": [
        {
          "internalType": "uint256",
          "name": "",
          "type": "uint256"
        }
      ],
      "stateMutability": "view",
      "type": "function",
      "constant": true
    },
    {
      "inputs": [
        {
          "internalType": "uint256",
          "name": "_cardId",
          "type": "uint256"
        },
        {
          "internalType": "uint256",
          "name": "_startingBid",
          "type": "uint256"
        },
        {
          "internalType": "uint256",
          "name": "_duration",
          "type": "uint256"
        }
      ],
      "name": "createCardAuction",
      "outputs": [],
      "stateMutability": "nonpayable",
      "type": "function"
    },
    {
      "inputs": [
        {
          "internalType": "uint256",
          "name": "_cardId",
          "type": "uint256"
        }
      ],
      "name": "placeBid",
      "outputs": [],
      "stateMutability": "payable",
      "type": "function",
      "payable": true
    },
    {
      "inputs": [
        {
          "internalType": "uint256",
          "name": "_cardId",
          "type": "uint256"
        }
      ],
      "name": "endAuction",
      "outputs": [],
      "stateMutability": "nonpayable",
      "type": "function"
    }
  ],
  "bytecode": "0x60806040526000600155600060025560bd6003556611c37937e08000600855600a6009556003600a556019600b556064600c5562093a806011553480156200004657600080fd5b50620000676200005b6200006d60201b60201c565b6200007560201b60201c565b62000139565b600033905090565b60008060009054906101000a900473ffffffffffffffffffffffffffffffffffffffff169050816000806101000a81548173ffffffffffffffffffffffffffffffffffffffff021916908373ffffffffffffffffffffffffffffffffffffffff1602179055508173ffffffffffffffffffffffffffffffffffffffff168173ffffffffffffffffffffffffffffffffffffffff167f8be0079c531659141344cd1fd0a4f28419497f9722a3daafe3b4186f6b6457e060405160405180910390a35050565b613db580620001496000396000f3fe60806040526004361061020f5760003560e01c80638dc1076811610118578063b88d4fde116100a0578063c75f384b1161006f578063c75f384b146107ba578063e25d13a8146107e3578063e985e9c51461080c578063f2fde38b14610849578063feb2c4df146108725761020f565b8063b88d4fde146106fb578063b9a2de3a14610717578063bb77e35514610740578063bca978fb1461077d5761020f565b80639bf822e3116100e75780639bf822e3146105f2578063a22cb4651461062f578063a3d2065f14610658578063a6e156c614610695578063b780acc5146106d25761020f565b80638dc107681461051c5780639979ef451461055c5780639aa6c9ff146105785780639b3ce46e146105b55761020f565b806342842e0e1161019b57806370a082311161016a57806370a0823114610437578063715018a614610474578063804c4b251461048b578063828c730c146104c85780638da5cb5b146104f15761020f565b806342842e0e1461038a57806348c9581e146103a6578063552788da146103d15780636352211e146103fa5761020f565b806323b872dd116101e257806323b872dd146102d55780632cfae8d3146102f157806336185bdf146102fb57806341845a1414610324578063419941401461034d5761020f565b8063081812fc14610214578063095ea7b31461025157806310782f8f1461026d5780631647d5a014610298575b600080fd5b34801561022057600080fd5b5061023b60048036038101906102369190613314565b61089b565b6040516102489190613812565b60405180910390f35b61026b6004803603810190610266919061324c565b61097d565b005b34801561027957600080fd5b50610282610c78565b60405161028f9190613a54565b60405180910390f35b3480156102a457600080fd5b506102bf60048036038101906102ba9190613314565b610c7e565b6040516102cc9190613a54565b60405180910390f35b6102ef60048036038101906102ea9190613141565b610c96565b005b6102f9610eb8565b005b34801561030757600080fd5b50610322600480360381019061031d9190613314565b610f49565b005b34801561033057600080fd5b5061034b60048036038101906103469190613314565b610fcf565b005b34801561035957600080fd5b50610374600480360381019061036f9190613314565b611055565b6040516103819190613812565b60405180910390f35b6103a4600480360381019061039f9190613141565b611088565b005b3480156103b257600080fd5b506103bb6110a8565b6040516103c89190613a54565b60405180910390f35b3480156103dd57600080fd5b506103f860048036038101906103f39190613314565b6110ae565b005b34801561040657600080fd5b50610421600480360381019061041c9190613314565b611134565b60405161042e9190613812565b60405180910390f35b34801561044357600080fd5b5061045e600480360381019061045991906130dc565b611171565b60405161046b9190613a54565b60405180910390f35b34801561048057600080fd5b506104896111ba565b005b34801561049757600080fd5b506104b260048036038101906104ad91906130dc565b611242565b6040516104bf9190613a54565b60405180910390f35b3480156104d457600080fd5b506104ef60048036038101906104ea9190613288565b61125a565b005b3480156104fd57600080fd5b5061050661130a565b6040516105139190613812565b60405180910390f35b34801561052857600080fd5b50610543600480360381019061053e9190613314565b611333565b6040516105539493929190613ac1565b60405180910390f35b61057660048036038101906105719190613314565b611373565b005b34801561058457600080fd5b5061059f600480360381019061059a9190613314565b611677565b6040516105ac9190613a54565b60405180910390f35b3480156105c157600080fd5b506105dc60048036038101906105d7919061324c565b61168f565b6040516105e99190613a54565b60405180910390f35b3480156105fe57600080fd5b5061061960048036038101906106149190613314565b6116c0565b6040516106269190613a54565b60405180910390f35b34801561063b57600080fd5b5061065660048036038101906106519190613210565b6116d8565b005b34801561066457600080fd5b5061067f600480360381019061067a91906130dc565b6117d5565b60405161068c9190613879565b60405180910390f35b3480156106a157600080fd5b506106bc60048036038101906106b79190613314565b6117f5565b6040516106c99190613879565b60405180910390f35b3480156106de57600080fd5b506106f960048036038101906106f49190613314565b611815565b005b61071560048036038101906107109190613190565b61189b565b005b34801561072357600080fd5b5061073e60048036038101906107399190613314565b6118f2565b005b34801561074c57600080fd5b5061076760048036038101906107629190613314565b611b5e565b6040516107749190613812565b60405180910390f35b34801561078957600080fd5b506107a4600480360381019061079f9190613314565b611b91565b6040516107b19190613a54565b60405180910390f35b3480156107c657600080fd5b506107e160048036038101906107dc9190613314565b611ba9565b005b3480156107ef57600080fd5b5061080a60048036038101906108059190613314565b611c2f565b005b34801561081857600080fd5b50610833600480360381019061082e9190613105565b611cb5565b6040516108409190613879565b60405180910390f35b34801561085557600080fd5b50610870600480360381019061086b91906130dc565b611d49565b005b34801561087e57600080fd5b506108996004803603810190610894919061333d565b611e41565b005b600081600073ffffffffffffffffffffffffffffffffffffffff166005600083815260200190815260200160002060009054906101000a900473ffffffffffffffffffffffffffffffffffffffff1673ffffffffffffffffffffffffffffffffffffffff161415610941576040517f08c379a0000000000000000000000000000000000000000000000000000000008152600401610938906138b4565b60405180910390fd5b600f600084815260200190815260200160002060009054906101000a900473ffffffffffffffffffffffffffffffffffffffff16915050919050565b8060006005600083815260200190815260200160002060009054906101000a900473ffffffffffffffffffffffffffffffffffffffff1690503373ffffffffffffffffffffffffffffffffffffffff168173ffffffffffffffffffffffffffffffffffffffff161480610a765750601060008273ffffffffffffffffffffffffffffffffffffffff1673ffffffffffffffffffffffffffffffffffffffff16815260200190815260200160002060003373ffffffffffffffffffffffffffffffffffffffff1673ffffffffffffffffffffffffffffffffffffffff16815260200190815260200160002060009054906101000a900460ff165b610a7f57600080fd5b82600073ffffffffffffffffffffffffffffffffffffffff166005600083815260200190815260200160002060009054906101000a900473ffffffffffffffffffffffffffffffffffffffff1673ffffffffffffffffffffffffffffffffffffffff161415610b23576040517f08c379a0000000000000000000000000000000000000000000000000000000008152600401610b1a906138b4565b60405180910390fd5b6005600085815260200190815260200160002060009054906101000a900473ffffffffffffffffffffffffffffffffffffffff1673ffffffffffffffffffffffffffffffffffffffff163373ffffffffffffffffffffffffffffffffffffffff1614610bc4576040517f08c379a0000000000000000000000000000000000000000000000000000000008152600401610bbb90613a34565b60405180910390fd5b84600f600086815260200190815260200160002060006101000a81548173ffffffffffffffffffffffffffffffffffffffff021916908373ffffffffffffffffffffffffffffffffffffffff160217905550838573ffffffffffffffffffffffffffffffffffffffff163373ffffffffffffffffffffffffffffffffffffffff167f8c5be1e5ebec7d5bd14f71427d1e84f3dd0314c0f7b2291e5b200ac8c7c3b92560405160405180910390a45050505050565b60125481565b60146020528060005260406000206000915090505481565b8060006005600083815260200190815260200160002060009054906101000a900473ffffffffffffffffffffffffffffffffffffffff1690503373ffffffffffffffffffffffffffffffffffffffff168173ffffffffffffffffffffffffffffffffffffffff161480610d6757503373ffffffffffffffffffffffffffffffffffffffff16600f600084815260200190815260200160002060009054906101000a900473ffffffffffffffffffffffffffffffffffffffff1673ffffffffffffffffffffffffffffffffffffffff16145b80610df85750601060008273ffffffffffffffffffffffffffffffffffffffff1673ffffffffffffffffffffffffffffffffffffffff16815260200190815260200160002060003373ffffffffffffffffffffffffffffffffffffffff1673ffffffffffffffffffffffffffffffffffffffff16815260200190815260200160002060009054906101000a900460ff165b610e0157600080fd5b82600073ffffffffffffffffffffffffffffffffffffffff166005600083815260200190815260200160002060009054906101000a900473ffffffffffffffffffffffffffffffffffffffff1673ffffffffffffffffffffffffffffffffffffffff161415610ea5576040517f08c379a0000000000000000000000000000000000000000000000000000000008152600401610e9c906138b4565b60405180910390fd5b610eb086868661208c565b505050505050565b6008543414610efc576040517f08c379a0000000000000000000000000000000000000000000000000000000008152600401610ef3906138d4565b60405180910390fd5b610f04612174565b3373ffffffffffffffffffffffffffffffffffffffff167f1c3899f94ecc08f5f95b67284618b3ca13d80b66fbc5b7f07c6b8bd30f61fcbf60405160405180910390a2565b610f51612245565b73ffffffffffffffffffffffffffffffffffffffff16610f6f61130a565b73ffffffffffffffffffffffffffffffffffffffff1614610fc5576040517f08c379a0000000000000000000000000000000000000000000000000000000008152600401610fbc906139b4565b60405180910390fd5b80600b8190555050565b610fd7612245565b73ffffffffffffffffffffffffffffffffffffffff16610ff561130a565b73ffffffffffffffffffffffffffffffffffffffff161461104b576040517f08c379a0000000000000000000000000000000000000000000000000000000008152600401611042906139b4565b60405180910390fd5b80600a8190555050565b60056020528060005260406000206000915054906101000a900473ffffffffffffffffffffffffffffffffffffffff1681565b6110a38383836040518060200160405280600081525061224d565b505050565b60115481565b6110b6612245565b73ffffffffffffffffffffffffffffffffffffffff166110d461130a565b73ffffffffffffffffffffffffffffffffffffffff161461112a576040517f08c379a0000000000000000000000000000000000000000000000000000000008152600401611121906139b4565b60405180910390fd5b8060088190555050565b60006005600083815260200190815260200160002060009054906101000a900473ffffffffffffffffffffffffffffffffffffffff169050919050565b6000600d60008373ffffffffffffffffffffffffffffffffffffffff1673ffffffffffffffffffffffffffffffffffffffff168152602001908152602001600020549050919050565b6111c2612245565b73ffffffffffffffffffffffffffffffffffffffff166111e061130a565b73ffffffffffffffffffffffffffffffffffffffff1614611236576040517f08c379a000000000000000000000000000000000000000000000000000000000815260040161122d906139b4565b60405180910390fd5b6112406000612622565b565b600d6020528060005260406000206000915090505481565b611262612245565b73ffffffffffffffffffffffffffffffffffffffff1661128061130a565b73ffffffffffffffffffffffffffffffffffffffff16146112d6576040517f08c379a00000000000000000000000000000000000000000000000000000000081526004016112cd906139b4565b60405180910390fd5b60006112e38484846126e6565b90506112ef85826127c7565b600180546112fd9190613b33565b6001819055505050505050565b60008060009054906101000a900473ffffffffffffffffffffffffffffffffffffffff16905090565b6004818154811061134357600080fd5b90600052602060002090600402016000915090508060000154908060010154908060020154908060030154905084565b3373ffffffffffffffffffffffffffffffffffffffff166005600083815260200190815260200160002060009054906101000a900473ffffffffffffffffffffffffffffffffffffffff1673ffffffffffffffffffffffffffffffffffffffff161415611415576040517f08c379a000000000000000000000000000000000000000000000000000000000815260040161140c90613974565b60405180910390fd5b6013600082815260200190815260200160002060009054906101000a900460ff16611475576040517f08c379a000000000000000000000000000000000000000000000000000000000815260040161146c90613914565b60405180910390fd5b601460008281526020019081526020016000205434116114ca576040517f08c379a00000000000000000000000000000000000000000000000000000000081526004016114c1906138f4565b60405180910390fd5b60006015600083815260200190815260200160002060009054906101000a900473ffffffffffffffffffffffffffffffffffffffff169050600073ffffffffffffffffffffffffffffffffffffffff168173ffffffffffffffffffffffffffffffffffffffff1614611591578073ffffffffffffffffffffffffffffffffffffffff166108fc60146000858152602001908152602001600020549081150290604051600060405180830381858888f1935050505015801561158f573d6000803e3d6000fd5b505b346014600084815260200190815260200160002081905550336015600084815260200190815260200160002060006101000a81548173ffffffffffffffffffffffffffffffffffffffff021916908373ffffffffffffffffffffffffffffffffffffffff1602179055503373ffffffffffffffffffffffffffffffffffffffff168260176000858152602001908152602001600020547f0596870c910fd22e7d7060a9123ea11d885af76b24003b78da44bf03a5d0eceb34601660008881526020019081526020016000205460405161166b929190613a98565b60405180910390a45050565b60176020528060005260406000206000915090505481565b600660205281600052604060002081815481106116ab57600080fd5b90600052602060002001600091509150505481565b60076020528060005260406000206000915090505481565b80601060003373ffffffffffffffffffffffffffffffffffffffff1673ffffffffffffffffffffffffffffffffffffffff16815260200190815260200160002060008473ffffffffffffffffffffffffffffffffffffffff1673ffffffffffffffffffffffffffffffffffffffff16815260200190815260200160002060006101000a81548160ff0219169083151502179055508173ffffffffffffffffffffffffffffffffffffffff163373ffffffffffffffffffffffffffffffffffffffff167f17307eab39ab6107e8899845ad3d59bd9653f200f220920489ca2b5937696c31836040516117c99190613879565b60405180910390a35050565b600e6020528060005260406000206000915054906101000a900460ff1681565b60136020528060005260406000206000915054906101000a900460ff1681565b61181d612245565b73ffffffffffffffffffffffffffffffffffffffff1661183b61130a565b73ffffffffffffffffffffffffffffffffffffffff1614611891576040517f08c379a0000000000000000000000000000000000000000000000000000000008152600401611888906139b4565b60405180910390fd5b8060038190555050565b6118eb85858585858080601f016020809104026020016040519081016040528093929190818152602001838380828437600081840152601f19601f8201169050808301925050505050505061224d565b5050505050565b426016600083815260200190815260200160002054111561191257600080fd5b600073ffffffffffffffffffffffffffffffffffffffff166015600083815260200190815260200160002060009054906101000a900473ffffffffffffffffffffffffffffffffffffffff1673ffffffffffffffffffffffffffffffffffffffff161461198357611982816129be565b5b6015600082815260200190815260200160002060009054906101000a900473ffffffffffffffffffffffffffffffffffffffff1673ffffffffffffffffffffffffffffffffffffffff168160176000848152602001908152602001600020547f774455444039da9400b7ba984f8cc1d8ac5e70c742d01a325cc97979802c15246014600086815260200190815260200160002054600073ffffffffffffffffffffffffffffffffffffffff166015600088815260200190815260200160002060009054906101000a900473ffffffffffffffffffffffffffffffffffffffff1673ffffffffffffffffffffffffffffffffffffffff161415604051611a89929190613a6f565b60405180910390a460006013600083815260200190815260200160002060006101000a81548160ff0219169083151502179055506000601460008381526020019081526020016000208190555060006015600083815260200190815260200160002060006101000a81548173ffffffffffffffffffffffffffffffffffffffff021916908373ffffffffffffffffffffffffffffffffffffffff160217905550600060166000838152602001908152602001600020819055506000601760008381526020019081526020016000208190555050565b60156020528060005260406000206000915054906101000a900473ffffffffffffffffffffffffffffffffffffffff1681565b60166020528060005260406000206000915090505481565b611bb1612245565b73ffffffffffffffffffffffffffffffffffffffff16611bcf61130a565b73ffffffffffffffffffffffffffffffffffffffff1614611c25576040517f08c379a0000000000000000000000000000000000000000000000000000000008152600401611c1c906139b4565b60405180910390fd5b80600c8190555050565b611c37612245565b73ffffffffffffffffffffffffffffffffffffffff16611c5561130a565b73ffffffffffffffffffffffffffffffffffffffff1614611cab576040517f08c379a0000000000000000000000000000000000000000000000000000000008152600401611ca2906139b4565b60405180910390fd5b8060098190555050565b6000601060008473ffffffffffffffffffffffffffffffffffffffff1673ffffffffffffffffffffffffffffffffffffffff16815260200190815260200160002060008373ffffffffffffffffffffffffffffffffffffffff1673ffffffffffffffffffffffffffffffffffffffff16815260200190815260200160002060009054906101000a900460ff16905092915050565b611d51612245565b73ffffffffffffffffffffffffffffffffffffffff16611d6f61130a565b73ffffffffffffffffffffffffffffffffffffffff1614611dc5576040517f08c379a0000000000000000000000000000000000000000000000000000000008152600401611dbc906139b4565b60405180910390fd5b600073ffffffffffffffffffffffffffffffffffffffff168173ffffffffffffffffffffffffffffffffffffffff161415611e35576040517f08c379a0000000000000000000000000000000000000000000000000000000008152600401611e2c90613894565b60405180910390fd5b611e3e81612622565b50565b80601154811115611e87576040517f08c379a0000000000000000000000000000000000000000000000000000000008152600401611e7e906139d4565b60405180910390fd5b8360006005600083815260200190815260200160002060009054906101000a900473ffffffffffffffffffffffffffffffffffffffff1690503373ffffffffffffffffffffffffffffffffffffffff168173ffffffffffffffffffffffffffffffffffffffff1614611f2e576040517f08c379a0000000000000000000000000000000000000000000000000000000008152600401611f2590613a14565b60405180910390fd5b6013600087815260200190815260200160002060009054906101000a900460ff1615611f8f576040517f08c379a0000000000000000000000000000000000000000000000000000000008152600401611f8690613994565b60405180910390fd5b601254601760008881526020019081526020016000208190555060016013600088815260200190815260200160002060006101000a81548160ff0219169083151502179055508460146000888152602001908152602001600020819055508342611ff99190613b33565b60166000888152602001908152602001600020819055503373ffffffffffffffffffffffffffffffffffffffff16866012547f7dfee34cc48a7ad6a025da536d05885e750c439dbd20d390192dec1f2f4c04708888426120599190613b33565b604051612067929190613a98565b60405180910390a4600160125461207e9190613b33565b601281905550505050505050565b600f600082815260200190815260200160002060006101000a81549073ffffffffffffffffffffffffffffffffffffffff0219169055816005600083815260200190815260200160002060006101000a81548173ffffffffffffffffffffffffffffffffffffffff021916908373ffffffffffffffffffffffffffffffffffffffff160217905550808273ffffffffffffffffffffffffffffffffffffffff168473ffffffffffffffffffffffffffffffffffffffff167fddf252ad1be2c89b69c2b068fc378daa952ba7f163c4a11628f55a4df523b3ef60405160405180910390a4505050565b6000612184600c54826003612cd6565b9050612194600b54826002612cd6565b90506121a4600a54826001612cd6565b90506121b281600954612d4b565b600954600d60003373ffffffffffffffffffffffffffffffffffffffff1673ffffffffffffffffffffffffffffffffffffffff168152602001908152602001600020546121ff9190613b33565b600d60003373ffffffffffffffffffffffffffffffffffffffff1673ffffffffffffffffffffffffffffffffffffffff1681526020019081526020016000208190555050565b600033905090565b8160006005600083815260200190815260200160002060009054906101000a900473ffffffffffffffffffffffffffffffffffffffff1690503373ffffffffffffffffffffffffffffffffffffffff168173ffffffffffffffffffffffffffffffffffffffff16148061231e57503373ffffffffffffffffffffffffffffffffffffffff16600f600084815260200190815260200160002060009054906101000a900473ffffffffffffffffffffffffffffffffffffffff1673ffffffffffffffffffffffffffffffffffffffff16145b806123af5750601060008273ffffffffffffffffffffffffffffffffffffffff1673ffffffffffffffffffffffffffffffffffffffff16815260200190815260200160002060003373ffffffffffffffffffffffffffffffffffffffff1673ffffffffffffffffffffffffffffffffffffffff16815260200190815260200160002060009054906101000a900460ff165b6123b857600080fd5b83600073ffffffffffffffffffffffffffffffffffffffff166005600083815260200190815260200160002060009054906101000a900473ffffffffffffffffffffffffffffffffffffffff1673ffffffffffffffffffffffffffffffffffffffff16141561245c576040517f08c379a0000000000000000000000000000000000000000000000000000000008152600401612453906138b4565b60405180910390fd5b600073ffffffffffffffffffffffffffffffffffffffff168673ffffffffffffffffffffffffffffffffffffffff1614156124cc576040517f08c379a00000000000000000000000000000000000000000000000000000000081526004016124c3906139f4565b60405180910390fd5b6124d787878761208c565b6124f68673ffffffffffffffffffffffffffffffffffffffff16612dab565b156126195760008673ffffffffffffffffffffffffffffffffffffffff1663150b7a02338a89896040518563ffffffff1660e01b815260040161253c949392919061382d565b602060405180830381600087803b15801561255657600080fd5b505af115801561256a573d6000803e3d6000fd5b505050506040513d601f19601f8201168201806040525081019061258e91906132eb565b905063150b7a0260e01b7bffffffffffffffffffffffffffffffffffffffffffffffffffffffff1916817bffffffffffffffffffffffffffffffffffffffffffffffffffffffff191614612617576040517f08c379a000000000000000000000000000000000000000000000000000000000815260040161260e90613954565b60405180910390fd5b505b50505050505050565b60008060009054906101000a900473ffffffffffffffffffffffffffffffffffffffff169050816000806101000a81548173ffffffffffffffffffffffffffffffffffffffff021916908373ffffffffffffffffffffffffffffffffffffffff1602179055508173ffffffffffffffffffffffffffffffffffffffff168173ffffffffffffffffffffffffffffffffffffffff167f8be0079c531659141344cd1fd0a4f28419497f9722a3daafe3b4186f6b6457e060405160405180910390a35050565b6000806040518060800160405280600154815260200186815260200184815260200185815250905060048190806001815401808255809150506001900390600052602060002090600402016000909190919091506000820151816000015560208201518160010155604082015181600201556060820151816003015550503373ffffffffffffffffffffffffffffffffffffffff167fa47f2b648fe6fee6023b9227628b751649f165f204c8a6e75d3146aca5b1b8a66001548688876040516127b29493929190613ac1565b60405180910390a26001549150509392505050565b600073ffffffffffffffffffffffffffffffffffffffff168273ffffffffffffffffffffffffffffffffffffffff161415612837576040517f08c379a000000000000000000000000000000000000000000000000000000000815260040161282e906139f4565b60405180910390fd5b600073ffffffffffffffffffffffffffffffffffffffff166005600083815260200190815260200160002060009054906101000a900473ffffffffffffffffffffffffffffffffffffffff1673ffffffffffffffffffffffffffffffffffffffff16146128d9576040517f08c379a00000000000000000000000000000000000000000000000000000000081526004016128d090613934565b60405180910390fd5b816005600083815260200190815260200160002060006101000a81548173ffffffffffffffffffffffffffffffffffffffff021916908373ffffffffffffffffffffffffffffffffffffffff1602179055506001600d60008473ffffffffffffffffffffffffffffffffffffffff1673ffffffffffffffffffffffffffffffffffffffff168152602001908152602001600020546129779190613b33565b600d60008473ffffffffffffffffffffffffffffffffffffffff1673ffffffffffffffffffffffffffffffffffffffff168152602001908152602001600020819055505050565b60006005600083815260200190815260200160002060009054906101000a900473ffffffffffffffffffffffffffffffffffffffff169050600660006015600085815260200190815260200160002060009054906101000a900473ffffffffffffffffffffffffffffffffffffffff1673ffffffffffffffffffffffffffffffffffffffff1673ffffffffffffffffffffffffffffffffffffffff168152602001908152602001600020829080600181540180825580915050600190039060005260206000200160009091909190915055600660006015600085815260200190815260200160002060009054906101000a900473ffffffffffffffffffffffffffffffffffffffff1673ffffffffffffffffffffffffffffffffffffffff1673ffffffffffffffffffffffffffffffffffffffff16815260200190815260200160002080549050600760008481526020019081526020016000208190555060006007600084815260200190815260200160002054905064e8d4a50fff600660006005600087815260200190815260200160002060009054906101000a900473ffffffffffffffffffffffffffffffffffffffff1673ffffffffffffffffffffffffffffffffffffffff1673ffffffffffffffffffffffffffffffffffffffff1681526020019081526020016000208281548110612be4577f4e487b7100000000000000000000000000000000000000000000000000000000600052603260045260246000fd5b90600052602060002001819055506015600084815260200190815260200160002060009054906101000a900473ffffffffffffffffffffffffffffffffffffffff166005600085815260200190815260200160002060006101000a81548173ffffffffffffffffffffffffffffffffffffffff021916908373ffffffffffffffffffffffffffffffffffffffff1602179055508173ffffffffffffffffffffffffffffffffffffffff166108fc60146000868152602001908152602001600020549081150290604051600060405180830381858888f19350505050158015612cd0573d6000803e3d6000fd5b50505050565b600080839050600085612ce7612df6565b612cf19190613c83565b1415612d40576000600354612d04612df6565b612d0e9190613c83565b90506001600254612d1f9190613b33565b600281905550612d2f8185612e2d565b600185612d3c9190613b33565b9150505b809150509392505050565b60008290505b81811015612da6576000600354612d66612df6565b612d709190613c83565b90506001600254612d819190613b33565b600281905550612d92816000612e2d565b508080612d9e90613c30565b915050612d51565b505050565b60008060007fc5d2460186f7233c927e7db2dcc703c0e500b653ca82273b7bfad8045d85a47060001b9050833f91506000801b8214158015612ded5750808214155b92505050919050565b60004442600254604051602001612e0f939291906137d5565b6040516020818303038152906040528051906020012060001c905090565b6000612e37612df6565b905060006040518060800160405280600154815260200185815260200183815260200184815250905060048190806001815401808255809150506001900390600052602060002090600402016000909190919091506000820151816000015560208201518160010155604082015181600201556060820151816003015550503373ffffffffffffffffffffffffffffffffffffffff167fa47f2b648fe6fee6023b9227628b751649f165f204c8a6e75d3146aca5b1b8a6600154858786604051612f049493929190613ac1565b60405180910390a23360056000600154815260200190815260200160002060006101000a81548173ffffffffffffffffffffffffffffffffffffffff021916908373ffffffffffffffffffffffffffffffffffffffff160217905550600660003373ffffffffffffffffffffffffffffffffffffffff1673ffffffffffffffffffffffffffffffffffffffff1681526020019081526020016000206001549080600181540180825580915050600190039060005260206000200160009091909190915055600660003373ffffffffffffffffffffffffffffffffffffffff1673ffffffffffffffffffffffffffffffffffffffff1681526020019081526020016000208054905060076000600154815260200190815260200160002081905550600180546130329190613b33565b60018190555050505050565b60008135905061304d81613d23565b92915050565b60008135905061306281613d3a565b92915050565b60008151905061307781613d51565b92915050565b60008083601f84011261308f57600080fd5b8235905067ffffffffffffffff8111156130a857600080fd5b6020830191508360018202830111156130c057600080fd5b9250929050565b6000813590506130d681613d68565b92915050565b6000602082840312156130ee57600080fd5b60006130fc8482850161303e565b91505092915050565b6000806040838503121561311857600080fd5b60006131268582860161303e565b92505060206131378582860161303e565b9150509250929050565b60008060006060848603121561315657600080fd5b60006131648682870161303e565b93505060206131758682870161303e565b9250506040613186868287016130c7565b9150509250925092565b6000806000806000608086880312156131a857600080fd5b60006131b68882890161303e565b95505060206131c78882890161303e565b94505060406131d8888289016130c7565b935050606086013567ffffffffffffffff8111156131f557600080fd5b6132018882890161307d565b92509250509295509295909350565b6000806040838503121561322357600080fd5b60006132318582860161303e565b925050602061324285828601613053565b9150509250929050565b6000806040838503121561325f57600080fd5b600061326d8582860161303e565b925050602061327e858286016130c7565b9150509250929050565b6000806000806080858703121561329e57600080fd5b60006132ac8782880161303e565b94505060206132bd878288016130c7565b93505060406132ce878288016130c7565b92505060606132df878288016130c7565b91505092959194509250565b6000602082840312156132fd57600080fd5b600061330b84828501613068565b91505092915050565b60006020828403121561332657600080fd5b6000613334848285016130c7565b91505092915050565b60008060006060848603121561335257600080fd5b6000613360868287016130c7565b9350506020613371868287016130c7565b9250506040613382868287016130c7565b9150509250925092565b61339581613b89565b82525050565b6133a481613b9b565b82525050565b60006133b582613b06565b6133bf8185613b11565b93506133cf818560208601613bfd565b6133d881613d12565b840191505092915050565b60006133f0602683613b22565b91507f4f776e61626c653a206e6577206f776e657220697320746865207a65726f206160008301527f64647265737300000000000000000000000000000000000000000000000000006020830152604082019050919050565b6000613456600c83613b22565b91507f494e56414c4944204341524400000000000000000000000000000000000000006000830152602082019050919050565b6000613496602083613b22565b91507f56414c55452053454e54204e4f5420455155414c20544f2043415244204645456000830152602082019050919050565b60006134d6601a83613b22565b91507f424944204c4f574552205448414e2043555252454e54204249440000000000006000830152602082019050919050565b6000613516601183613b22565b91507f43415244204e4f5420464f522053414c450000000000000000000000000000006000830152602082019050919050565b6000613556601383613b22565b91507f4341524420414c524541445920455849535453000000000000000000000000006000830152602082019050919050565b6000613596601283613b22565b91507f43414e4e4f542052454345495645204e465400000000000000000000000000006000830152602082019050919050565b60006135d6601c83613b22565b91507f43414e204e4f5420424944204f4e20434152445320594f55204f574e000000006000830152602082019050919050565b6000613616601b83613b22565b91507f4341524420414c524541445920555020464f522041554354494f4e00000000006000830152602082019050919050565b6000613656602083613b22565b91507f4f776e61626c653a2063616c6c6572206973206e6f7420746865206f776e65726000830152602082019050919050565b6000613696601883613b22565b91507f424944204455524154494f4e204e4f5420414c4c4f57454400000000000000006000830152602082019050919050565b60006136d6600c83613b22565b91507f5a45524f204144445245535300000000000000000000000000000000000000006000830152602082019050919050565b6000613716602783613b22565b91507f4f4e4c592043415244204f574e45522043414e20504f535420495420464f522060008301527f41554354494f4e000000000000000000000000000000000000000000000000006020830152604082019050919050565b600061377c601783613b22565b91507f4e4f542043555252454e5420544f4b454e204f574e45520000000000000000006000830152602082019050919050565b6137b881613bf3565b82525050565b6137cf6137ca82613bf3565b613c79565b82525050565b60006137e182866137be565b6020820191506137f182856137be565b60208201915061380182846137be565b602082019150819050949350505050565b6000602082019050613827600083018461338c565b92915050565b6000608082019050613842600083018761338c565b61384f602083018661338c565b61385c60408301856137af565b818103606083015261386e81846133aa565b905095945050505050565b600060208201905061388e600083018461339b565b92915050565b600060208201905081810360008301526138ad816133e3565b9050919050565b600060208201905081810360008301526138cd81613449565b9050919050565b600060208201905081810360008301526138ed81613489565b9050919050565b6000602082019050818103600083015261390d816134c9565b9050919050565b6000602082019050818103600083015261392d81613509565b9050919050565b6000602082019050818103600083015261394d81613549565b9050919050565b6000602082019050818103600083015261396d81613589565b9050919050565b6000602082019050818103600083015261398d816135c9565b9050919050565b600060208201905081810360008301526139ad81613609565b9050919050565b600060208201905081810360008301526139cd81613649565b9050919050565b600060208201905081810360008301526139ed81613689565b9050919050565b60006020820190508181036000830152613a0d816136c9565b9050919050565b60006020820190508181036000830152613a2d81613709565b9050919050565b60006020820190508181036000830152613a4d8161376f565b9050919050565b6000602082019050613a6960008301846137af565b92915050565b6000604082019050613a8460008301856137af565b613a91602083018461339b565b9392505050565b6000604082019050613aad60008301856137af565b613aba60208301846137af565b9392505050565b6000608082019050613ad660008301876137af565b613ae360208301866137af565b613af060408301856137af565b613afd60608301846137af565b95945050505050565b600081519050919050565b600082825260208201905092915050565b600082825260208201905092915050565b6000613b3e82613bf3565b9150613b4983613bf3565b9250827fffffffffffffffffffffffffffffffffffffffffffffffffffffffffffffffff03821115613b7e57613b7d613cb4565b5b828201905092915050565b6000613b9482613bd3565b9050919050565b60008115159050919050565b60007fffffffff0000000000000000000000000000000000000000000000000000000082169050919050565b600073ffffffffffffffffffffffffffffffffffffffff82169050919050565b6000819050919050565b60005b83811015613c1b578082015181840152602081019050613c00565b83811115613c2a576000848401525b50505050565b6000613c3b82613bf3565b91507fffffffffffffffffffffffffffffffffffffffffffffffffffffffffffffffff821415613c6e57613c6d613cb4565b5b600182019050919050565b6000819050919050565b6000613c8e82613bf3565b9150613c9983613bf3565b925082613ca957613ca8613ce3565b5b828206905092915050565b7f4e487b7100000000000000000000000000000000000000000000000000000000600052601160045260246000fd5b7f4e487b7100000000000000000000000000000000000000000000000000000000600052601260045260246000fd5b6000601f19601f8301169050919050565b613d2c81613b89565b8114613d3757600080fd5b50565b613d4381613b9b565b8114613d4e57600080fd5b50565b613d5a81613ba7565b8114613d6557600080fd5b50565b613d7181613bf3565b8114613d7c57600080fd5b5056fea264697066735822122004c059461762755e06efadbd189453e3274a5400ad5268f4757c3671937e517564736f6c63430008000033",
  "immutableReferences": {},
  "source": "// SPDX-License-Identifier: UNLICENSED\npragma solidity ^0.8.0;\n\nimport \"./card-ownership.sol\";\n\n// abstract contract Aion {\n//     uint256 public serviceFee;\n//     function ScheduleCall(uint256 blocknumber, address to, uint256 value, uint256 gaslimit, uint256 gasprice, bytes memory data, bool schedType) virtual public payable returns (uint,address);\n//     function cancellScheduledTx(uint256 blocknumber, address from, address to, uint256 value, uint256 gaslimit, uint256 gasprice, uint256 fee, bytes memory data, uint256 aionId, bool schedType) virtual public payable returns(bool);\n// }\n\ncontract CardAuction is CardOwnership {\n\n    // Aion aion;\n    uint public maxAuctionDuration = 604800;\n    uint public auctionId;\n    mapping(uint => bool) public cardIsForSale;\n    mapping(uint => uint) public cardToCurrentBid;\n    mapping(uint => address) public leadingBidder;\n    mapping(uint => uint) public auctionExpireDate;\n    mapping(uint => uint) public cardToAuctionId;\n    \n    event AuctionOpened(uint indexed auctionId, uint indexed cardId, uint startingBid, uint expireDate, address indexed owner);\n    event BidPlaced(uint indexed auctionId, uint indexed cardId, uint bid, address indexed bidder, uint expireDate);\n    event AuctionClosed(uint indexed auctionId, uint indexed cardId, uint salePrice, address indexed to, bool completed);\n\n    modifier onlyCardOwner(uint _cardId) {\n        address owner = cardIdToOwner[_cardId];\n        require(owner == msg.sender, 'ONLY CARD OWNER CAN POST IT FOR AUCTION');\n        _;\n    }\n\n    modifier checkAuctionDuration(uint _duration) {\n        require(_duration <= maxAuctionDuration, 'BID DURATION NOT ALLOWED');\n        _;\n    }\n\n    // Keeping for possible scheduler integration\n    //\n    // function createCardAuction(uint _cardId, uint _startingBid, uint _duration) external checkAuctionDuration(_duration) onlyCardOwner(_cardId) {\n    //     require(!cardIsForSale[_cardId], 'CARD ALREADY UP FOR AUCTION');\n    //     aion = Aion(0xFcFB45679539667f7ed55FA59A15c8Cad73d9a4E);\n    //     bytes memory data = abi.encodeWithSelector(bytes4(keccak256('endAuction(uint)')), _cardId);\n    //     uint callCost = 500000*1e9 + aion.serviceFee();\n    //     aion.ScheduleCall{value: callCost}(block.timestamp + _duration, address(this), 0, 500000, 1e9, data, true);        \n\n    //     cardIsForSale[_cardId] = true;\n    //     cardToCurrentBid[_cardId] = _startingBid;\n    //     auctionExpireDate[_cardId] = block.timestamp + _duration;\n    //     // emit AuctionOpened(_cardId, _startingBid, block.timestamp + _duration);\n    //     AuctionOpened(auctionId, _cardId, _startingBid, block.timestamp + _duration, msg.sender);\n    // }\n\n    function createCardAuction(uint _cardId, uint _startingBid, uint _duration) external checkAuctionDuration(_duration) onlyCardOwner(_cardId) {\n        require(!cardIsForSale[_cardId], 'CARD ALREADY UP FOR AUCTION');\n\n        cardToAuctionId[_cardId] = auctionId;\n        cardIsForSale[_cardId] = true;\n        cardToCurrentBid[_cardId] = _startingBid;\n        auctionExpireDate[_cardId] = block.timestamp + _duration;\n        emit AuctionOpened(auctionId, _cardId, _startingBid, block.timestamp + _duration, msg.sender);\n        auctionId = auctionId + 1;\n    }\n\n    function placeBid(uint _cardId) external payable {\n        require(cardIdToOwner[_cardId] != msg.sender, 'CAN NOT BID ON CARDS YOU OWN');\n        require(cardIsForSale[_cardId], 'CARD NOT FOR SALE');\n        require(msg.value > cardToCurrentBid[_cardId], 'BID LOWER THAN CURRENT BID');\n\n        address payable outbidAddress = payable(leadingBidder[_cardId]);\n        if(outbidAddress != address(0)){\n            outbidAddress.transfer(cardToCurrentBid[_cardId]);\n        }\n        cardToCurrentBid[_cardId] = msg.value;\n        leadingBidder[_cardId] = msg.sender;\n        emit BidPlaced(cardToAuctionId[_cardId], _cardId, msg.value, msg.sender, auctionExpireDate[_cardId]);\n    }\n\n    function endAuction(uint _cardId) public {\n        require(auctionExpireDate[_cardId] <= block.timestamp);\n\n        if(leadingBidder[_cardId] != address(0)) {\n            transferCard(_cardId);\n        }\n        AuctionClosed(cardToAuctionId[_cardId], _cardId, cardToCurrentBid[_cardId], leadingBidder[_cardId], leadingBidder[_cardId] != address(0));\n        cardIsForSale[_cardId] = false;\n        cardToCurrentBid[_cardId] = 0;\n        leadingBidder[_cardId] = address(0);\n        auctionExpireDate[_cardId] = 0;\n        cardToAuctionId[_cardId] = 0;\n    }\n\n    function transferCard(uint _cardId) private {\n        address payable beneficiary = payable(cardIdToOwner[_cardId]);\n\n        userOwnedCards[leadingBidder[_cardId]].push(_cardId);\n        cardIsAtIndex[_cardId] = userOwnedCards[leadingBidder[_cardId]].length;\n        uint cardIndex = cardIsAtIndex[_cardId];\n        userOwnedCards[cardIdToOwner[_cardId]][cardIndex] = 999999999999;\n        cardIdToOwner[_cardId] = leadingBidder[_cardId];\n        beneficiary.transfer(cardToCurrentBid[_cardId]);\n    }\n}",
  "sourcePath": "/Users/tkma4fr/Development/solidity-app/contracts/card-auction.sol",
  "compiler": {
    "name": "solc",
    "version": "0.8.0+commit.c7dfd78e.Emscripten.clang"
  },
  "schemaVersion": "3.4.2",
  "updatedAt": "2021-10-11T19:17:40.027Z",
  "networkType": "ethereum",
  "devdoc": {
    "kind": "dev",
    "methods": {
      "approve(address,uint256)": {
        "details": "The zero address indicates there is no approved address.  Throws unless `msg.sender` is the current NFT owner, or an authorized  operator of the current owner.",
        "params": {
          "_approved": "The new approved NFT controller",
          "_tokenId": "The NFT to approve"
        }
      },
      "balanceOf(address)": {
        "details": "NFTs assigned to the zero address are considered invalid, and this  function throws for queries about the zero address.",
        "params": {
          "_owner": "An address for whom to query the balance"
        },
        "returns": {
          "_0": "The number of NFTs owned by `_owner`, possibly zero"
        }
      },
      "getApproved(uint256)": {
        "details": "Throws if `_tokenId` is not a valid NFT.",
        "params": {
          "_tokenId": "The NFT to find the approved address for"
        },
        "returns": {
          "_0": "The approved address for this NFT, or the zero address if there is none"
        }
      },
      "isApprovedForAll(address,address)": {
        "params": {
          "_operator": "The address that acts on behalf of the owner",
          "_owner": "The address that owns the NFTs"
        },
        "returns": {
          "_0": "True if `_operator` is an approved operator for `_owner`, false otherwise"
        }
      },
      "owner()": {
        "details": "Returns the address of the current owner."
      },
      "ownerOf(uint256)": {
        "details": "NFTs assigned to zero address are considered invalid, and queries  about them do throw.",
        "params": {
          "_tokenId": "The identifier for an NFT"
        },
        "returns": {
          "_0": "The address of the owner of the NFT"
        }
      },
      "renounceOwnership()": {
        "details": "Leaves the contract without owner. It will not be possible to call `onlyOwner` functions anymore. Can only be called by the current owner. NOTE: Renouncing ownership will leave the contract without an owner, thereby removing any functionality that is only available to the owner."
      },
      "safeTransferFrom(address,address,uint256)": {
        "details": "This works identically to the other function with an extra data parameter,  except this function just sets data to \"\".",
        "params": {
          "_from": "The current owner of the NFT",
          "_to": "The new owner",
          "_tokenId": "The NFT to transfer"
        }
      },
      "setApprovalForAll(address,bool)": {
        "details": "Emits the ApprovalForAll event. The contract MUST allow  multiple operators per owner.",
        "params": {
          "_approved": "True if the operator is approved, false to revoke approval",
          "_operator": "Address to add to the set of authorized operators"
        }
      },
      "transferFrom(address,address,uint256)": {
        "details": "Throws unless `msg.sender` is the current owner, an authorized  operator, or the approved address for this NFT. Throws if `_from` is  not the current owner. Throws if `_to` is the zero address. Throws if  `_tokenId` is not a valid NFT.",
        "params": {
          "_from": "The current owner of the NFT",
          "_to": "The new owner",
          "_tokenId": "The NFT to transfer"
        }
      },
      "transferOwnership(address)": {
        "details": "Transfers ownership of the contract to a new account (`newOwner`). Can only be called by the current owner."
      }
    },
    "version": 1
  },
  "userdoc": {
    "kind": "user",
    "methods": {
      "approve(address,uint256)": {
        "notice": "Change or reaffirm the approved address for an NFT"
      },
      "balanceOf(address)": {
        "notice": "Count all NFTs assigned to an owner"
      },
      "getApproved(uint256)": {
        "notice": "Get the approved address for a single NFT"
      },
      "isApprovedForAll(address,address)": {
        "notice": "Query if an address is an authorized operator for another address"
      },
      "ownerOf(uint256)": {
        "notice": "Find the owner of an NFT"
      },
      "safeTransferFrom(address,address,uint256)": {
        "notice": "Transfers the ownership of an NFT from one address to another address"
      },
      "setApprovalForAll(address,bool)": {
        "notice": "Enable or disable approval for a third party (\"operator\") to manage  all of `msg.sender`'s assets"
      },
      "transferFrom(address,address,uint256)": {
        "notice": "Transfer ownership of an NFT -- THE CALLER IS RESPONSIBLE  TO CONFIRM THAT `_to` IS CAPABLE OF RECEIVING NFTS OR ELSE  THEY MAY BE PERMANENTLY LOST"
      }
    },
    "version": 1
  }
}