{
  "contractName": "CardAuction",
  "abi": [
    {
      "anonymous": false,
      "inputs": [
        {
          "indexed": true,
          "internalType": "address",
          "name": "_owner",
          "type": "address"
        },
        {
          "indexed": true,
          "internalType": "address",
          "name": "_approved",
          "type": "address"
        },
        {
          "indexed": true,
          "internalType": "uint256",
          "name": "_tokenId",
          "type": "uint256"
        }
      ],
      "name": "Approval",
      "type": "event"
    },
    {
      "anonymous": false,
      "inputs": [
        {
          "indexed": true,
          "internalType": "address",
          "name": "_owner",
          "type": "address"
        },
        {
          "indexed": true,
          "internalType": "address",
          "name": "_operator",
          "type": "address"
        },
        {
          "indexed": false,
          "internalType": "bool",
          "name": "_approved",
          "type": "bool"
        }
      ],
      "name": "ApprovalForAll",
      "type": "event"
    },
    {
      "anonymous": false,
      "inputs": [
        {
          "indexed": true,
          "internalType": "uint256",
          "name": "auctionId",
          "type": "uint256"
        },
        {
          "indexed": true,
          "internalType": "uint256",
          "name": "cardId",
          "type": "uint256"
        },
        {
          "indexed": false,
          "internalType": "uint256",
          "name": "salePrice",
          "type": "uint256"
        },
        {
          "indexed": true,
          "internalType": "address",
          "name": "to",
          "type": "address"
        },
        {
          "indexed": false,
          "internalType": "bool",
          "name": "completed",
          "type": "bool"
        }
      ],
      "name": "AuctionClosed",
      "type": "event"
    },
    {
      "anonymous": false,
      "inputs": [
        {
          "indexed": true,
          "internalType": "uint256",
          "name": "auctionId",
          "type": "uint256"
        },
        {
          "indexed": true,
          "internalType": "uint256",
          "name": "cardId",
          "type": "uint256"
        },
        {
          "indexed": false,
          "internalType": "uint256",
          "name": "startingBid",
          "type": "uint256"
        },
        {
          "indexed": false,
          "internalType": "uint256",
          "name": "expireDate",
          "type": "uint256"
        },
        {
          "indexed": true,
          "internalType": "address",
          "name": "owner",
          "type": "address"
        }
      ],
      "name": "AuctionOpened",
      "type": "event"
    },
    {
      "anonymous": false,
      "inputs": [
        {
          "indexed": true,
          "internalType": "uint256",
          "name": "auctionId",
          "type": "uint256"
        },
        {
          "indexed": true,
          "internalType": "uint256",
          "name": "cardId",
          "type": "uint256"
        },
        {
          "indexed": false,
          "internalType": "uint256",
          "name": "bid",
          "type": "uint256"
        },
        {
          "indexed": true,
          "internalType": "address",
          "name": "bidder",
          "type": "address"
        },
        {
          "indexed": false,
          "internalType": "uint256",
          "name": "expireDate",
          "type": "uint256"
        }
      ],
      "name": "BidPlaced",
      "type": "event"
    },
    {
      "anonymous": false,
      "inputs": [
        {
          "indexed": false,
          "internalType": "uint256",
          "name": "cardId",
          "type": "uint256"
        },
        {
          "indexed": false,
          "internalType": "uint256",
          "name": "cardType",
          "type": "uint256"
        },
        {
          "indexed": false,
          "internalType": "uint256",
          "name": "playerId",
          "type": "uint256"
        },
        {
          "indexed": false,
          "internalType": "uint256",
          "name": "attributeHash",
          "type": "uint256"
        },
        {
          "indexed": true,
          "internalType": "address",
          "name": "owner",
          "type": "address"
        }
      ],
      "name": "CardCreated",
      "type": "event"
    },
    {
      "anonymous": false,
      "inputs": [
        {
          "indexed": true,
          "internalType": "address",
          "name": "owner",
          "type": "address"
        }
      ],
      "name": "CardPackPurchased",
      "type": "event"
    },
    {
      "anonymous": false,
      "inputs": [
        {
          "indexed": true,
          "internalType": "address",
          "name": "previousOwner",
          "type": "address"
        },
        {
          "indexed": true,
          "internalType": "address",
          "name": "newOwner",
          "type": "address"
        }
      ],
      "name": "OwnershipTransferred",
      "type": "event"
    },
    {
      "anonymous": false,
      "inputs": [
        {
          "indexed": true,
          "internalType": "address",
          "name": "_from",
          "type": "address"
        },
        {
          "indexed": true,
          "internalType": "address",
          "name": "_to",
          "type": "address"
        },
        {
          "indexed": true,
          "internalType": "uint256",
          "name": "_tokenId",
          "type": "uint256"
        }
      ],
      "name": "Transfer",
      "type": "event"
    },
    {
      "inputs": [
        {
          "internalType": "address",
          "name": "_approved",
          "type": "address"
        },
        {
          "internalType": "uint256",
          "name": "_tokenId",
          "type": "uint256"
        }
      ],
      "name": "approve",
      "outputs": [],
      "stateMutability": "payable",
      "type": "function",
      "payable": true
    },
    {
      "inputs": [
        {
          "internalType": "uint256",
          "name": "",
          "type": "uint256"
        }
      ],
      "name": "auctionExpireDate",
      "outputs": [
        {
          "internalType": "uint256",
          "name": "",
          "type": "uint256"
        }
      ],
      "stateMutability": "view",
      "type": "function",
      "constant": true
    },
    {
      "inputs": [],
      "name": "auctionId",
      "outputs": [
        {
          "internalType": "uint256",
          "name": "",
          "type": "uint256"
        }
      ],
      "stateMutability": "view",
      "type": "function",
      "constant": true
    },
    {
      "inputs": [
        {
          "internalType": "address",
          "name": "_owner",
          "type": "address"
        }
      ],
      "name": "balanceOf",
      "outputs": [
        {
          "internalType": "uint256",
          "name": "",
          "type": "uint256"
        }
      ],
      "stateMutability": "view",
      "type": "function",
      "constant": true
    },
    {
      "inputs": [
        {
          "internalType": "uint256",
          "name": "",
          "type": "uint256"
        }
      ],
      "name": "cardIdToOwner",
      "outputs": [
        {
          "internalType": "address",
          "name": "",
          "type": "address"
        }
      ],
      "stateMutability": "view",
      "type": "function",
      "constant": true
    },
    {
      "inputs": [
        {
          "internalType": "uint256",
          "name": "",
          "type": "uint256"
        }
      ],
      "name": "cardIsAtIndex",
      "outputs": [
        {
          "internalType": "uint256",
          "name": "",
          "type": "uint256"
        }
      ],
      "stateMutability": "view",
      "type": "function",
      "constant": true
    },
    {
      "inputs": [
        {
          "internalType": "uint256",
          "name": "",
          "type": "uint256"
        }
      ],
      "name": "cardIsForSale",
      "outputs": [
        {
          "internalType": "bool",
          "name": "",
          "type": "bool"
        }
      ],
      "stateMutability": "view",
      "type": "function",
      "constant": true
    },
    {
      "inputs": [
        {
          "internalType": "uint256",
          "name": "",
          "type": "uint256"
        }
      ],
      "name": "cardToAuctionId",
      "outputs": [
        {
          "internalType": "uint256",
          "name": "",
          "type": "uint256"
        }
      ],
      "stateMutability": "view",
      "type": "function",
      "constant": true
    },
    {
      "inputs": [
        {
          "internalType": "uint256",
          "name": "",
          "type": "uint256"
        }
      ],
      "name": "cardToCurrentBid",
      "outputs": [
        {
          "internalType": "uint256",
          "name": "",
          "type": "uint256"
        }
      ],
      "stateMutability": "view",
      "type": "function",
      "constant": true
    },
    {
      "inputs": [
        {
          "internalType": "uint256",
          "name": "",
          "type": "uint256"
        }
      ],
      "name": "cards",
      "outputs": [
        {
          "internalType": "uint256",
          "name": "cardId",
          "type": "uint256"
        },
        {
          "internalType": "uint256",
          "name": "playerId",
          "type": "uint256"
        },
        {
          "internalType": "uint256",
          "name": "attributeHash",
          "type": "uint256"
        },
        {
          "internalType": "uint256",
          "name": "cardType",
          "type": "uint256"
        }
      ],
      "stateMutability": "view",
      "type": "function",
      "constant": true
    },
    {
      "inputs": [
        {
          "internalType": "address",
          "name": "",
          "type": "address"
        }
      ],
      "name": "existingUser",
      "outputs": [
        {
          "internalType": "bool",
          "name": "",
          "type": "bool"
        }
      ],
      "stateMutability": "view",
      "type": "function",
      "constant": true
    },
    {
      "inputs": [
        {
          "internalType": "uint256",
          "name": "_tokenId",
          "type": "uint256"
        }
      ],
      "name": "getApproved",
      "outputs": [
        {
          "internalType": "address",
          "name": "",
          "type": "address"
        }
      ],
      "stateMutability": "view",
      "type": "function",
      "constant": true
    },
    {
      "inputs": [
        {
          "internalType": "address",
          "name": "_address",
          "type": "address"
        }
      ],
      "name": "getUserOwnedCards",
      "outputs": [
        {
          "internalType": "uint256[]",
          "name": "",
          "type": "uint256[]"
        }
      ],
      "stateMutability": "view",
      "type": "function",
      "constant": true
    },
    {
      "inputs": [
        {
          "internalType": "address",
          "name": "_owner",
          "type": "address"
        },
        {
          "internalType": "address",
          "name": "_operator",
          "type": "address"
        }
      ],
      "name": "isApprovedForAll",
      "outputs": [
        {
          "internalType": "bool",
          "name": "",
          "type": "bool"
        }
      ],
      "stateMutability": "view",
      "type": "function",
      "constant": true
    },
    {
      "inputs": [
        {
          "internalType": "uint256",
          "name": "",
          "type": "uint256"
        }
      ],
      "name": "leadingBidder",
      "outputs": [
        {
          "internalType": "address",
          "name": "",
          "type": "address"
        }
      ],
      "stateMutability": "view",
      "type": "function",
      "constant": true
    },
    {
      "inputs": [],
      "name": "maxAuctionDuration",
      "outputs": [
        {
          "internalType": "uint256",
          "name": "",
          "type": "uint256"
        }
      ],
      "stateMutability": "view",
      "type": "function",
      "constant": true
    },
    {
      "inputs": [
        {
          "internalType": "address",
          "name": "_to",
          "type": "address"
        },
        {
          "internalType": "uint256",
          "name": "_playerId",
          "type": "uint256"
        },
        {
          "internalType": "uint256",
          "name": "_type",
          "type": "uint256"
        },
        {
          "internalType": "uint256",
          "name": "_attributes",
          "type": "uint256"
        }
      ],
      "name": "mintCustomCard",
      "outputs": [],
      "stateMutability": "nonpayable",
      "type": "function"
    },
    {
      "inputs": [],
      "name": "owner",
      "outputs": [
        {
          "internalType": "address",
          "name": "",
          "type": "address"
        }
      ],
      "stateMutability": "view",
      "type": "function",
      "constant": true
    },
    {
      "inputs": [
        {
          "internalType": "address",
          "name": "",
          "type": "address"
        }
      ],
      "name": "ownerCardCount",
      "outputs": [
        {
          "internalType": "uint256",
          "name": "",
          "type": "uint256"
        }
      ],
      "stateMutability": "view",
      "type": "function",
      "constant": true
    },
    {
      "inputs": [
        {
          "internalType": "uint256",
          "name": "_tokenId",
          "type": "uint256"
        }
      ],
      "name": "ownerOf",
      "outputs": [
        {
          "internalType": "address",
          "name": "",
          "type": "address"
        }
      ],
      "stateMutability": "view",
      "type": "function",
      "constant": true
    },
    {
      "inputs": [],
      "name": "purchaseCardPack",
      "outputs": [],
      "stateMutability": "payable",
      "type": "function",
      "payable": true
    },
    {
      "inputs": [],
      "name": "renounceOwnership",
      "outputs": [],
      "stateMutability": "nonpayable",
      "type": "function"
    },
    {
      "inputs": [
        {
          "internalType": "address",
          "name": "_from",
          "type": "address"
        },
        {
          "internalType": "address",
          "name": "_to",
          "type": "address"
        },
        {
          "internalType": "uint256",
          "name": "_tokenId",
          "type": "uint256"
        }
      ],
      "name": "safeTransferFrom",
      "outputs": [],
      "stateMutability": "payable",
      "type": "function",
      "payable": true
    },
    {
      "inputs": [
        {
          "internalType": "address",
          "name": "_from",
          "type": "address"
        },
        {
          "internalType": "address",
          "name": "_to",
          "type": "address"
        },
        {
          "internalType": "uint256",
          "name": "_tokenId",
          "type": "uint256"
        },
        {
          "internalType": "bytes",
          "name": "_data",
          "type": "bytes"
        }
      ],
      "name": "safeTransferFrom",
      "outputs": [],
      "stateMutability": "payable",
      "type": "function",
      "payable": true
    },
    {
      "inputs": [
        {
          "internalType": "address",
          "name": "_operator",
          "type": "address"
        },
        {
          "internalType": "bool",
          "name": "_approved",
          "type": "bool"
        }
      ],
      "name": "setApprovalForAll",
      "outputs": [],
      "stateMutability": "nonpayable",
      "type": "function"
    },
    {
      "inputs": [
        {
          "internalType": "uint256",
          "name": "_fee",
          "type": "uint256"
        }
      ],
      "name": "setCardPackFee",
      "outputs": [],
      "stateMutability": "nonpayable",
      "type": "function"
    },
    {
      "inputs": [
        {
          "internalType": "uint256",
          "name": "_quantity",
          "type": "uint256"
        }
      ],
      "name": "setCardPackQuantity",
      "outputs": [],
      "stateMutability": "nonpayable",
      "type": "function"
    },
    {
      "inputs": [
        {
          "internalType": "uint256",
          "name": "_newOdds",
          "type": "uint256"
        }
      ],
      "name": "setExotixCardOdds",
      "outputs": [],
      "stateMutability": "nonpayable",
      "type": "function"
    },
    {
      "inputs": [
        {
          "internalType": "uint256",
          "name": "_newOdds",
          "type": "uint256"
        }
      ],
      "name": "setLegendaryCardOdds",
      "outputs": [],
      "stateMutability": "nonpayable",
      "type": "function"
    },
    {
      "inputs": [
        {
          "internalType": "uint256",
          "name": "_newOdds",
          "type": "uint256"
        }
      ],
      "name": "setRareCardOdds",
      "outputs": [],
      "stateMutability": "nonpayable",
      "type": "function"
    },
    {
      "inputs": [
        {
          "internalType": "uint256",
          "name": "_count",
          "type": "uint256"
        }
      ],
      "name": "setTotalPlayers",
      "outputs": [],
      "stateMutability": "nonpayable",
      "type": "function"
    },
    {
      "inputs": [
        {
          "internalType": "address",
          "name": "_from",
          "type": "address"
        },
        {
          "internalType": "address",
          "name": "_to",
          "type": "address"
        },
        {
          "internalType": "uint256",
          "name": "_tokenId",
          "type": "uint256"
        }
      ],
      "name": "transferFrom",
      "outputs": [],
      "stateMutability": "payable",
      "type": "function",
      "payable": true
    },
    {
      "inputs": [
        {
          "internalType": "address",
          "name": "newOwner",
          "type": "address"
        }
      ],
      "name": "transferOwnership",
      "outputs": [],
      "stateMutability": "nonpayable",
      "type": "function"
    },
    {
      "inputs": [
        {
          "internalType": "address",
          "name": "",
          "type": "address"
        },
        {
          "internalType": "uint256",
          "name": "",
          "type": "uint256"
        }
      ],
      "name": "userOwnedCards",
      "outputs": [
        {
          "internalType": "uint256",
          "name": "",
          "type": "uint256"
        }
      ],
      "stateMutability": "view",
      "type": "function",
      "constant": true
    },
    {
      "inputs": [
        {
          "internalType": "uint256",
          "name": "_cardId",
          "type": "uint256"
        },
        {
          "internalType": "uint256",
          "name": "_startingBid",
          "type": "uint256"
        },
        {
          "internalType": "uint256",
          "name": "_duration",
          "type": "uint256"
        }
      ],
      "name": "createCardAuction",
      "outputs": [],
      "stateMutability": "nonpayable",
      "type": "function"
    },
    {
      "inputs": [
        {
          "internalType": "uint256",
          "name": "_cardId",
          "type": "uint256"
        }
      ],
      "name": "placeBid",
      "outputs": [],
      "stateMutability": "payable",
      "type": "function",
      "payable": true
    },
    {
      "inputs": [
        {
          "internalType": "uint256",
          "name": "_cardId",
          "type": "uint256"
        }
      ],
      "name": "endAuction",
      "outputs": [],
      "stateMutability": "nonpayable",
      "type": "function"
    }
  ],
  "bytecode": "0x60806040526000600155600060025560bd6003556611c37937e08000600855600a6009556003600a556019600b556064600c5562093a806011553480156200004657600080fd5b50620000676200005b6200006d60201b60201c565b6200007560201b60201c565b62000139565b600033905090565b60008060009054906101000a900473ffffffffffffffffffffffffffffffffffffffff169050816000806101000a81548173ffffffffffffffffffffffffffffffffffffffff021916908373ffffffffffffffffffffffffffffffffffffffff1602179055508173ffffffffffffffffffffffffffffffffffffffff168173ffffffffffffffffffffffffffffffffffffffff167f8be0079c531659141344cd1fd0a4f28419497f9722a3daafe3b4186f6b6457e060405160405180910390a35050565b613f7480620001496000396000f3fe60806040526004361061021a5760003560e01c80638da5cb5b11610123578063b780acc5116100ab578063c75f384b1161006f578063c75f384b14610802578063e25d13a81461082b578063e985e9c514610854578063f2fde38b14610891578063feb2c4df146108ba5761021a565b8063b780acc51461071a578063b88d4fde14610743578063b9a2de3a1461075f578063bb77e35514610788578063bca978fb146107c55761021a565b80639b3ce46e116100f25780639b3ce46e146105fd5780639bf822e31461063a578063a22cb46514610677578063a3d2065f146106a0578063a6e156c6146106dd5761021a565b80638da5cb5b146105395780638dc10768146105645780639979ef45146105a45780639aa6c9ff146105c05761021a565b806341994140116101a65780636352211e116101755780636352211e1461044257806370a082311461047f578063715018a6146104bc578063804c4b25146104d3578063828c730c146105105761021a565b8063419941401461039557806342842e0e146103d257806348c9581e146103ee578063552788da146104195761021a565b806319a35567116101ed57806319a35567146102e057806323b872dd1461031d5780632cfae8d31461033957806336185bdf1461034357806341845a141461036c5761021a565b8063081812fc1461021f578063095ea7b31461025c57806310782f8f146102785780631647d5a0146102a3575b600080fd5b34801561022b57600080fd5b50610246600480360381019061024191906133f3565b6108e3565b6040516102539190613976565b60405180910390f35b6102766004803603810190610271919061332b565b6109c5565b005b34801561028457600080fd5b5061028d610cc0565b60405161029a9190613bda565b60405180910390f35b3480156102af57600080fd5b506102ca60048036038101906102c591906133f3565b610cc6565b6040516102d79190613bda565b60405180910390f35b3480156102ec57600080fd5b50610307600480360381019061030291906131bb565b610cde565b60405161031491906139dd565b60405180910390f35b61033760048036038101906103329190613220565b610d75565b005b610341610f97565b005b34801561034f57600080fd5b5061036a600480360381019061036591906133f3565b611028565b005b34801561037857600080fd5b50610393600480360381019061038e91906133f3565b6110ae565b005b3480156103a157600080fd5b506103bc60048036038101906103b791906133f3565b611134565b6040516103c99190613976565b60405180910390f35b6103ec60048036038101906103e79190613220565b611167565b005b3480156103fa57600080fd5b50610403611187565b6040516104109190613bda565b60405180910390f35b34801561042557600080fd5b50610440600480360381019061043b91906133f3565b61118d565b005b34801561044e57600080fd5b50610469600480360381019061046491906133f3565b611213565b6040516104769190613976565b60405180910390f35b34801561048b57600080fd5b506104a660048036038101906104a191906131bb565b611250565b6040516104b39190613bda565b60405180910390f35b3480156104c857600080fd5b506104d1611299565b005b3480156104df57600080fd5b506104fa60048036038101906104f591906131bb565b611321565b6040516105079190613bda565b60405180910390f35b34801561051c57600080fd5b5061053760048036038101906105329190613367565b611339565b005b34801561054557600080fd5b5061054e6113e9565b60405161055b9190613976565b60405180910390f35b34801561057057600080fd5b5061058b600480360381019061058691906133f3565b611412565b60405161059b9493929190613c47565b60405180910390f35b6105be60048036038101906105b991906133f3565b611452565b005b3480156105cc57600080fd5b506105e760048036038101906105e291906133f3565b611756565b6040516105f49190613bda565b60405180910390f35b34801561060957600080fd5b50610624600480360381019061061f919061332b565b61176e565b6040516106319190613bda565b60405180910390f35b34801561064657600080fd5b50610661600480360381019061065c91906133f3565b61179f565b60405161066e9190613bda565b60405180910390f35b34801561068357600080fd5b5061069e600480360381019061069991906132ef565b6117b7565b005b3480156106ac57600080fd5b506106c760048036038101906106c291906131bb565b6118b4565b6040516106d491906139ff565b60405180910390f35b3480156106e957600080fd5b5061070460048036038101906106ff91906133f3565b6118d4565b60405161071191906139ff565b60405180910390f35b34801561072657600080fd5b50610741600480360381019061073c91906133f3565b6118f4565b005b61075d6004803603810190610758919061326f565b61197a565b005b34801561076b57600080fd5b50610786600480360381019061078191906133f3565b6119d1565b005b34801561079457600080fd5b506107af60048036038101906107aa91906133f3565b611c3d565b6040516107bc9190613976565b60405180910390f35b3480156107d157600080fd5b506107ec60048036038101906107e791906133f3565b611c70565b6040516107f99190613bda565b60405180910390f35b34801561080e57600080fd5b50610829600480360381019061082491906133f3565b611c88565b005b34801561083757600080fd5b50610852600480360381019061084d91906133f3565b611d0e565b005b34801561086057600080fd5b5061087b600480360381019061087691906131e4565b611d94565b60405161088891906139ff565b60405180910390f35b34801561089d57600080fd5b506108b860048036038101906108b391906131bb565b611e28565b005b3480156108c657600080fd5b506108e160048036038101906108dc919061341c565b611f20565b005b600081600073ffffffffffffffffffffffffffffffffffffffff166005600083815260200190815260200160002060009054906101000a900473ffffffffffffffffffffffffffffffffffffffff1673ffffffffffffffffffffffffffffffffffffffff161415610989576040517f08c379a000000000000000000000000000000000000000000000000000000000815260040161098090613a3a565b60405180910390fd5b600f600084815260200190815260200160002060009054906101000a900473ffffffffffffffffffffffffffffffffffffffff16915050919050565b8060006005600083815260200190815260200160002060009054906101000a900473ffffffffffffffffffffffffffffffffffffffff1690503373ffffffffffffffffffffffffffffffffffffffff168173ffffffffffffffffffffffffffffffffffffffff161480610abe5750601060008273ffffffffffffffffffffffffffffffffffffffff1673ffffffffffffffffffffffffffffffffffffffff16815260200190815260200160002060003373ffffffffffffffffffffffffffffffffffffffff1673ffffffffffffffffffffffffffffffffffffffff16815260200190815260200160002060009054906101000a900460ff165b610ac757600080fd5b82600073ffffffffffffffffffffffffffffffffffffffff166005600083815260200190815260200160002060009054906101000a900473ffffffffffffffffffffffffffffffffffffffff1673ffffffffffffffffffffffffffffffffffffffff161415610b6b576040517f08c379a0000000000000000000000000000000000000000000000000000000008152600401610b6290613a3a565b60405180910390fd5b6005600085815260200190815260200160002060009054906101000a900473ffffffffffffffffffffffffffffffffffffffff1673ffffffffffffffffffffffffffffffffffffffff163373ffffffffffffffffffffffffffffffffffffffff1614610c0c576040517f08c379a0000000000000000000000000000000000000000000000000000000008152600401610c0390613bba565b60405180910390fd5b84600f600086815260200190815260200160002060006101000a81548173ffffffffffffffffffffffffffffffffffffffff021916908373ffffffffffffffffffffffffffffffffffffffff160217905550838573ffffffffffffffffffffffffffffffffffffffff163373ffffffffffffffffffffffffffffffffffffffff167f8c5be1e5ebec7d5bd14f71427d1e84f3dd0314c0f7b2291e5b200ac8c7c3b92560405160405180910390a45050505050565b60125481565b60146020528060005260406000206000915090505481565b6060600660008373ffffffffffffffffffffffffffffffffffffffff1673ffffffffffffffffffffffffffffffffffffffff168152602001908152602001600020805480602002602001604051908101604052809291908181526020018280548015610d6957602002820191906000526020600020905b815481526020019060010190808311610d55575b50505050509050919050565b8060006005600083815260200190815260200160002060009054906101000a900473ffffffffffffffffffffffffffffffffffffffff1690503373ffffffffffffffffffffffffffffffffffffffff168173ffffffffffffffffffffffffffffffffffffffff161480610e4657503373ffffffffffffffffffffffffffffffffffffffff16600f600084815260200190815260200160002060009054906101000a900473ffffffffffffffffffffffffffffffffffffffff1673ffffffffffffffffffffffffffffffffffffffff16145b80610ed75750601060008273ffffffffffffffffffffffffffffffffffffffff1673ffffffffffffffffffffffffffffffffffffffff16815260200190815260200160002060003373ffffffffffffffffffffffffffffffffffffffff1673ffffffffffffffffffffffffffffffffffffffff16815260200190815260200160002060009054906101000a900460ff165b610ee057600080fd5b82600073ffffffffffffffffffffffffffffffffffffffff166005600083815260200190815260200160002060009054906101000a900473ffffffffffffffffffffffffffffffffffffffff1673ffffffffffffffffffffffffffffffffffffffff161415610f84576040517f08c379a0000000000000000000000000000000000000000000000000000000008152600401610f7b90613a3a565b60405180910390fd5b610f8f86868661216b565b505050505050565b6008543414610fdb576040517f08c379a0000000000000000000000000000000000000000000000000000000008152600401610fd290613a5a565b60405180910390fd5b610fe3612253565b3373ffffffffffffffffffffffffffffffffffffffff167f1c3899f94ecc08f5f95b67284618b3ca13d80b66fbc5b7f07c6b8bd30f61fcbf60405160405180910390a2565b611030612324565b73ffffffffffffffffffffffffffffffffffffffff1661104e6113e9565b73ffffffffffffffffffffffffffffffffffffffff16146110a4576040517f08c379a000000000000000000000000000000000000000000000000000000000815260040161109b90613b3a565b60405180910390fd5b80600b8190555050565b6110b6612324565b73ffffffffffffffffffffffffffffffffffffffff166110d46113e9565b73ffffffffffffffffffffffffffffffffffffffff161461112a576040517f08c379a000000000000000000000000000000000000000000000000000000000815260040161112190613b3a565b60405180910390fd5b80600a8190555050565b60056020528060005260406000206000915054906101000a900473ffffffffffffffffffffffffffffffffffffffff1681565b6111828383836040518060200160405280600081525061232c565b505050565b60115481565b611195612324565b73ffffffffffffffffffffffffffffffffffffffff166111b36113e9565b73ffffffffffffffffffffffffffffffffffffffff1614611209576040517f08c379a000000000000000000000000000000000000000000000000000000000815260040161120090613b3a565b60405180910390fd5b8060088190555050565b60006005600083815260200190815260200160002060009054906101000a900473ffffffffffffffffffffffffffffffffffffffff169050919050565b6000600d60008373ffffffffffffffffffffffffffffffffffffffff1673ffffffffffffffffffffffffffffffffffffffff168152602001908152602001600020549050919050565b6112a1612324565b73ffffffffffffffffffffffffffffffffffffffff166112bf6113e9565b73ffffffffffffffffffffffffffffffffffffffff1614611315576040517f08c379a000000000000000000000000000000000000000000000000000000000815260040161130c90613b3a565b60405180910390fd5b61131f6000612701565b565b600d6020528060005260406000206000915090505481565b611341612324565b73ffffffffffffffffffffffffffffffffffffffff1661135f6113e9565b73ffffffffffffffffffffffffffffffffffffffff16146113b5576040517f08c379a00000000000000000000000000000000000000000000000000000000081526004016113ac90613b3a565b60405180910390fd5b60006113c28484846127c5565b90506113ce85826128a6565b600180546113dc9190613cf2565b6001819055505050505050565b60008060009054906101000a900473ffffffffffffffffffffffffffffffffffffffff16905090565b6004818154811061142257600080fd5b90600052602060002090600402016000915090508060000154908060010154908060020154908060030154905084565b3373ffffffffffffffffffffffffffffffffffffffff166005600083815260200190815260200160002060009054906101000a900473ffffffffffffffffffffffffffffffffffffffff1673ffffffffffffffffffffffffffffffffffffffff1614156114f4576040517f08c379a00000000000000000000000000000000000000000000000000000000081526004016114eb90613afa565b60405180910390fd5b6013600082815260200190815260200160002060009054906101000a900460ff16611554576040517f08c379a000000000000000000000000000000000000000000000000000000000815260040161154b90613a9a565b60405180910390fd5b601460008281526020019081526020016000205434116115a9576040517f08c379a00000000000000000000000000000000000000000000000000000000081526004016115a090613a7a565b60405180910390fd5b60006015600083815260200190815260200160002060009054906101000a900473ffffffffffffffffffffffffffffffffffffffff169050600073ffffffffffffffffffffffffffffffffffffffff168173ffffffffffffffffffffffffffffffffffffffff1614611670578073ffffffffffffffffffffffffffffffffffffffff166108fc60146000858152602001908152602001600020549081150290604051600060405180830381858888f1935050505015801561166e573d6000803e3d6000fd5b505b346014600084815260200190815260200160002081905550336015600084815260200190815260200160002060006101000a81548173ffffffffffffffffffffffffffffffffffffffff021916908373ffffffffffffffffffffffffffffffffffffffff1602179055503373ffffffffffffffffffffffffffffffffffffffff168260176000858152602001908152602001600020547f0596870c910fd22e7d7060a9123ea11d885af76b24003b78da44bf03a5d0eceb34601660008881526020019081526020016000205460405161174a929190613c1e565b60405180910390a45050565b60176020528060005260406000206000915090505481565b6006602052816000526040600020818154811061178a57600080fd5b90600052602060002001600091509150505481565b60076020528060005260406000206000915090505481565b80601060003373ffffffffffffffffffffffffffffffffffffffff1673ffffffffffffffffffffffffffffffffffffffff16815260200190815260200160002060008473ffffffffffffffffffffffffffffffffffffffff1673ffffffffffffffffffffffffffffffffffffffff16815260200190815260200160002060006101000a81548160ff0219169083151502179055508173ffffffffffffffffffffffffffffffffffffffff163373ffffffffffffffffffffffffffffffffffffffff167f17307eab39ab6107e8899845ad3d59bd9653f200f220920489ca2b5937696c31836040516118a891906139ff565b60405180910390a35050565b600e6020528060005260406000206000915054906101000a900460ff1681565b60136020528060005260406000206000915054906101000a900460ff1681565b6118fc612324565b73ffffffffffffffffffffffffffffffffffffffff1661191a6113e9565b73ffffffffffffffffffffffffffffffffffffffff1614611970576040517f08c379a000000000000000000000000000000000000000000000000000000000815260040161196790613b3a565b60405180910390fd5b8060038190555050565b6119ca85858585858080601f016020809104026020016040519081016040528093929190818152602001838380828437600081840152601f19601f8201169050808301925050505050505061232c565b5050505050565b42601660008381526020019081526020016000205411156119f157600080fd5b600073ffffffffffffffffffffffffffffffffffffffff166015600083815260200190815260200160002060009054906101000a900473ffffffffffffffffffffffffffffffffffffffff1673ffffffffffffffffffffffffffffffffffffffff1614611a6257611a6181612a9d565b5b6015600082815260200190815260200160002060009054906101000a900473ffffffffffffffffffffffffffffffffffffffff1673ffffffffffffffffffffffffffffffffffffffff168160176000848152602001908152602001600020547f774455444039da9400b7ba984f8cc1d8ac5e70c742d01a325cc97979802c15246014600086815260200190815260200160002054600073ffffffffffffffffffffffffffffffffffffffff166015600088815260200190815260200160002060009054906101000a900473ffffffffffffffffffffffffffffffffffffffff1673ffffffffffffffffffffffffffffffffffffffff161415604051611b68929190613bf5565b60405180910390a460006013600083815260200190815260200160002060006101000a81548160ff0219169083151502179055506000601460008381526020019081526020016000208190555060006015600083815260200190815260200160002060006101000a81548173ffffffffffffffffffffffffffffffffffffffff021916908373ffffffffffffffffffffffffffffffffffffffff160217905550600060166000838152602001908152602001600020819055506000601760008381526020019081526020016000208190555050565b60156020528060005260406000206000915054906101000a900473ffffffffffffffffffffffffffffffffffffffff1681565b60166020528060005260406000206000915090505481565b611c90612324565b73ffffffffffffffffffffffffffffffffffffffff16611cae6113e9565b73ffffffffffffffffffffffffffffffffffffffff1614611d04576040517f08c379a0000000000000000000000000000000000000000000000000000000008152600401611cfb90613b3a565b60405180910390fd5b80600c8190555050565b611d16612324565b73ffffffffffffffffffffffffffffffffffffffff16611d346113e9565b73ffffffffffffffffffffffffffffffffffffffff1614611d8a576040517f08c379a0000000000000000000000000000000000000000000000000000000008152600401611d8190613b3a565b60405180910390fd5b8060098190555050565b6000601060008473ffffffffffffffffffffffffffffffffffffffff1673ffffffffffffffffffffffffffffffffffffffff16815260200190815260200160002060008373ffffffffffffffffffffffffffffffffffffffff1673ffffffffffffffffffffffffffffffffffffffff16815260200190815260200160002060009054906101000a900460ff16905092915050565b611e30612324565b73ffffffffffffffffffffffffffffffffffffffff16611e4e6113e9565b73ffffffffffffffffffffffffffffffffffffffff1614611ea4576040517f08c379a0000000000000000000000000000000000000000000000000000000008152600401611e9b90613b3a565b60405180910390fd5b600073ffffffffffffffffffffffffffffffffffffffff168173ffffffffffffffffffffffffffffffffffffffff161415611f14576040517f08c379a0000000000000000000000000000000000000000000000000000000008152600401611f0b90613a1a565b60405180910390fd5b611f1d81612701565b50565b80601154811115611f66576040517f08c379a0000000000000000000000000000000000000000000000000000000008152600401611f5d90613b5a565b60405180910390fd5b8360006005600083815260200190815260200160002060009054906101000a900473ffffffffffffffffffffffffffffffffffffffff1690503373ffffffffffffffffffffffffffffffffffffffff168173ffffffffffffffffffffffffffffffffffffffff161461200d576040517f08c379a000000000000000000000000000000000000000000000000000000000815260040161200490613b9a565b60405180910390fd5b6013600087815260200190815260200160002060009054906101000a900460ff161561206e576040517f08c379a000000000000000000000000000000000000000000000000000000000815260040161206590613b1a565b60405180910390fd5b601254601760008881526020019081526020016000208190555060016013600088815260200190815260200160002060006101000a81548160ff02191690831515021790555084601460008881526020019081526020016000208190555083426120d89190613cf2565b60166000888152602001908152602001600020819055503373ffffffffffffffffffffffffffffffffffffffff16866012547f7dfee34cc48a7ad6a025da536d05885e750c439dbd20d390192dec1f2f4c04708888426121389190613cf2565b604051612146929190613c1e565b60405180910390a4600160125461215d9190613cf2565b601281905550505050505050565b600f600082815260200190815260200160002060006101000a81549073ffffffffffffffffffffffffffffffffffffffff0219169055816005600083815260200190815260200160002060006101000a81548173ffffffffffffffffffffffffffffffffffffffff021916908373ffffffffffffffffffffffffffffffffffffffff160217905550808273ffffffffffffffffffffffffffffffffffffffff168473ffffffffffffffffffffffffffffffffffffffff167fddf252ad1be2c89b69c2b068fc378daa952ba7f163c4a11628f55a4df523b3ef60405160405180910390a4505050565b6000612263600c54826003612db5565b9050612273600b54826002612db5565b9050612283600a54826001612db5565b905061229181600954612e2a565b600954600d60003373ffffffffffffffffffffffffffffffffffffffff1673ffffffffffffffffffffffffffffffffffffffff168152602001908152602001600020546122de9190613cf2565b600d60003373ffffffffffffffffffffffffffffffffffffffff1673ffffffffffffffffffffffffffffffffffffffff1681526020019081526020016000208190555050565b600033905090565b8160006005600083815260200190815260200160002060009054906101000a900473ffffffffffffffffffffffffffffffffffffffff1690503373ffffffffffffffffffffffffffffffffffffffff168173ffffffffffffffffffffffffffffffffffffffff1614806123fd57503373ffffffffffffffffffffffffffffffffffffffff16600f600084815260200190815260200160002060009054906101000a900473ffffffffffffffffffffffffffffffffffffffff1673ffffffffffffffffffffffffffffffffffffffff16145b8061248e5750601060008273ffffffffffffffffffffffffffffffffffffffff1673ffffffffffffffffffffffffffffffffffffffff16815260200190815260200160002060003373ffffffffffffffffffffffffffffffffffffffff1673ffffffffffffffffffffffffffffffffffffffff16815260200190815260200160002060009054906101000a900460ff165b61249757600080fd5b83600073ffffffffffffffffffffffffffffffffffffffff166005600083815260200190815260200160002060009054906101000a900473ffffffffffffffffffffffffffffffffffffffff1673ffffffffffffffffffffffffffffffffffffffff16141561253b576040517f08c379a000000000000000000000000000000000000000000000000000000000815260040161253290613a3a565b60405180910390fd5b600073ffffffffffffffffffffffffffffffffffffffff168673ffffffffffffffffffffffffffffffffffffffff1614156125ab576040517f08c379a00000000000000000000000000000000000000000000000000000000081526004016125a290613b7a565b60405180910390fd5b6125b687878761216b565b6125d58673ffffffffffffffffffffffffffffffffffffffff16612e8a565b156126f85760008673ffffffffffffffffffffffffffffffffffffffff1663150b7a02338a89896040518563ffffffff1660e01b815260040161261b9493929190613991565b602060405180830381600087803b15801561263557600080fd5b505af1158015612649573d6000803e3d6000fd5b505050506040513d601f19601f8201168201806040525081019061266d91906133ca565b905063150b7a0260e01b7bffffffffffffffffffffffffffffffffffffffffffffffffffffffff1916817bffffffffffffffffffffffffffffffffffffffffffffffffffffffff1916146126f6576040517f08c379a00000000000000000000000000000000000000000000000000000000081526004016126ed90613ada565b60405180910390fd5b505b50505050505050565b60008060009054906101000a900473ffffffffffffffffffffffffffffffffffffffff169050816000806101000a81548173ffffffffffffffffffffffffffffffffffffffff021916908373ffffffffffffffffffffffffffffffffffffffff1602179055508173ffffffffffffffffffffffffffffffffffffffff168173ffffffffffffffffffffffffffffffffffffffff167f8be0079c531659141344cd1fd0a4f28419497f9722a3daafe3b4186f6b6457e060405160405180910390a35050565b6000806040518060800160405280600154815260200186815260200184815260200185815250905060048190806001815401808255809150506001900390600052602060002090600402016000909190919091506000820151816000015560208201518160010155604082015181600201556060820151816003015550503373ffffffffffffffffffffffffffffffffffffffff167fa47f2b648fe6fee6023b9227628b751649f165f204c8a6e75d3146aca5b1b8a66001548688876040516128919493929190613c47565b60405180910390a26001549150509392505050565b600073ffffffffffffffffffffffffffffffffffffffff168273ffffffffffffffffffffffffffffffffffffffff161415612916576040517f08c379a000000000000000000000000000000000000000000000000000000000815260040161290d90613b7a565b60405180910390fd5b600073ffffffffffffffffffffffffffffffffffffffff166005600083815260200190815260200160002060009054906101000a900473ffffffffffffffffffffffffffffffffffffffff1673ffffffffffffffffffffffffffffffffffffffff16146129b8576040517f08c379a00000000000000000000000000000000000000000000000000000000081526004016129af90613aba565b60405180910390fd5b816005600083815260200190815260200160002060006101000a81548173ffffffffffffffffffffffffffffffffffffffff021916908373ffffffffffffffffffffffffffffffffffffffff1602179055506001600d60008473ffffffffffffffffffffffffffffffffffffffff1673ffffffffffffffffffffffffffffffffffffffff16815260200190815260200160002054612a569190613cf2565b600d60008473ffffffffffffffffffffffffffffffffffffffff1673ffffffffffffffffffffffffffffffffffffffff168152602001908152602001600020819055505050565b60006005600083815260200190815260200160002060009054906101000a900473ffffffffffffffffffffffffffffffffffffffff169050600660006015600085815260200190815260200160002060009054906101000a900473ffffffffffffffffffffffffffffffffffffffff1673ffffffffffffffffffffffffffffffffffffffff1673ffffffffffffffffffffffffffffffffffffffff168152602001908152602001600020829080600181540180825580915050600190039060005260206000200160009091909190915055600660006015600085815260200190815260200160002060009054906101000a900473ffffffffffffffffffffffffffffffffffffffff1673ffffffffffffffffffffffffffffffffffffffff1673ffffffffffffffffffffffffffffffffffffffff16815260200190815260200160002080549050600760008481526020019081526020016000208190555060006007600084815260200190815260200160002054905064e8d4a50fff600660006005600087815260200190815260200160002060009054906101000a900473ffffffffffffffffffffffffffffffffffffffff1673ffffffffffffffffffffffffffffffffffffffff1673ffffffffffffffffffffffffffffffffffffffff1681526020019081526020016000208281548110612cc3577f4e487b7100000000000000000000000000000000000000000000000000000000600052603260045260246000fd5b90600052602060002001819055506015600084815260200190815260200160002060009054906101000a900473ffffffffffffffffffffffffffffffffffffffff166005600085815260200190815260200160002060006101000a81548173ffffffffffffffffffffffffffffffffffffffff021916908373ffffffffffffffffffffffffffffffffffffffff1602179055508173ffffffffffffffffffffffffffffffffffffffff166108fc60146000868152602001908152602001600020549081150290604051600060405180830381858888f19350505050158015612daf573d6000803e3d6000fd5b50505050565b600080839050600085612dc6612ed5565b612dd09190613e42565b1415612e1f576000600354612de3612ed5565b612ded9190613e42565b90506001600254612dfe9190613cf2565b600281905550612e0e8185612f0c565b600185612e1b9190613cf2565b9150505b809150509392505050565b60008290505b81811015612e85576000600354612e45612ed5565b612e4f9190613e42565b90506001600254612e609190613cf2565b600281905550612e71816000612f0c565b508080612e7d90613def565b915050612e30565b505050565b60008060007fc5d2460186f7233c927e7db2dcc703c0e500b653ca82273b7bfad8045d85a47060001b9050833f91506000801b8214158015612ecc5750808214155b92505050919050565b60004442600254604051602001612eee93929190613939565b6040516020818303038152906040528051906020012060001c905090565b6000612f16612ed5565b905060006040518060800160405280600154815260200185815260200183815260200184815250905060048190806001815401808255809150506001900390600052602060002090600402016000909190919091506000820151816000015560208201518160010155604082015181600201556060820151816003015550503373ffffffffffffffffffffffffffffffffffffffff167fa47f2b648fe6fee6023b9227628b751649f165f204c8a6e75d3146aca5b1b8a6600154858786604051612fe39493929190613c47565b60405180910390a23360056000600154815260200190815260200160002060006101000a81548173ffffffffffffffffffffffffffffffffffffffff021916908373ffffffffffffffffffffffffffffffffffffffff160217905550600660003373ffffffffffffffffffffffffffffffffffffffff1673ffffffffffffffffffffffffffffffffffffffff1681526020019081526020016000206001549080600181540180825580915050600190039060005260206000200160009091909190915055600660003373ffffffffffffffffffffffffffffffffffffffff1673ffffffffffffffffffffffffffffffffffffffff1681526020019081526020016000208054905060076000600154815260200190815260200160002081905550600180546131119190613cf2565b60018190555050505050565b60008135905061312c81613ee2565b92915050565b60008135905061314181613ef9565b92915050565b60008151905061315681613f10565b92915050565b60008083601f84011261316e57600080fd5b8235905067ffffffffffffffff81111561318757600080fd5b60208301915083600182028301111561319f57600080fd5b9250929050565b6000813590506131b581613f27565b92915050565b6000602082840312156131cd57600080fd5b60006131db8482850161311d565b91505092915050565b600080604083850312156131f757600080fd5b60006132058582860161311d565b92505060206132168582860161311d565b9150509250929050565b60008060006060848603121561323557600080fd5b60006132438682870161311d565b93505060206132548682870161311d565b9250506040613265868287016131a6565b9150509250925092565b60008060008060006080868803121561328757600080fd5b60006132958882890161311d565b95505060206132a68882890161311d565b94505060406132b7888289016131a6565b935050606086013567ffffffffffffffff8111156132d457600080fd5b6132e08882890161315c565b92509250509295509295909350565b6000806040838503121561330257600080fd5b60006133108582860161311d565b925050602061332185828601613132565b9150509250929050565b6000806040838503121561333e57600080fd5b600061334c8582860161311d565b925050602061335d858286016131a6565b9150509250929050565b6000806000806080858703121561337d57600080fd5b600061338b8782880161311d565b945050602061339c878288016131a6565b93505060406133ad878288016131a6565b92505060606133be878288016131a6565b91505092959194509250565b6000602082840312156133dc57600080fd5b60006133ea84828501613147565b91505092915050565b60006020828403121561340557600080fd5b6000613413848285016131a6565b91505092915050565b60008060006060848603121561343157600080fd5b600061343f868287016131a6565b9350506020613450868287016131a6565b9250506040613461868287016131a6565b9150509250925092565b60006134778383613904565b60208301905092915050565b61348c81613d48565b82525050565b600061349d82613c9c565b6134a78185613cbf565b93506134b283613c8c565b8060005b838110156134e35781516134ca888261346b565b97506134d583613cb2565b9250506001810190506134b6565b5085935050505092915050565b6134f981613d5a565b82525050565b600061350a82613ca7565b6135148185613cd0565b9350613524818560208601613dbc565b61352d81613ed1565b840191505092915050565b6000613545602683613ce1565b91507f4f776e61626c653a206e6577206f776e657220697320746865207a65726f206160008301527f64647265737300000000000000000000000000000000000000000000000000006020830152604082019050919050565b60006135ab600c83613ce1565b91507f494e56414c4944204341524400000000000000000000000000000000000000006000830152602082019050919050565b60006135eb602083613ce1565b91507f56414c55452053454e54204e4f5420455155414c20544f2043415244204645456000830152602082019050919050565b600061362b601a83613ce1565b91507f424944204c4f574552205448414e2043555252454e54204249440000000000006000830152602082019050919050565b600061366b601183613ce1565b91507f43415244204e4f5420464f522053414c450000000000000000000000000000006000830152602082019050919050565b60006136ab601383613ce1565b91507f4341524420414c524541445920455849535453000000000000000000000000006000830152602082019050919050565b60006136eb601283613ce1565b91507f43414e4e4f542052454345495645204e465400000000000000000000000000006000830152602082019050919050565b600061372b601c83613ce1565b91507f43414e204e4f5420424944204f4e20434152445320594f55204f574e000000006000830152602082019050919050565b600061376b601b83613ce1565b91507f4341524420414c524541445920555020464f522041554354494f4e00000000006000830152602082019050919050565b60006137ab602083613ce1565b91507f4f776e61626c653a2063616c6c6572206973206e6f7420746865206f776e65726000830152602082019050919050565b60006137eb601883613ce1565b91507f424944204455524154494f4e204e4f5420414c4c4f57454400000000000000006000830152602082019050919050565b600061382b600c83613ce1565b91507f5a45524f204144445245535300000000000000000000000000000000000000006000830152602082019050919050565b600061386b602783613ce1565b91507f4f4e4c592043415244204f574e45522043414e20504f535420495420464f522060008301527f41554354494f4e000000000000000000000000000000000000000000000000006020830152604082019050919050565b60006138d1601783613ce1565b91507f4e4f542043555252454e5420544f4b454e204f574e45520000000000000000006000830152602082019050919050565b61390d81613db2565b82525050565b61391c81613db2565b82525050565b61393361392e82613db2565b613e38565b82525050565b60006139458286613922565b6020820191506139558285613922565b6020820191506139658284613922565b602082019150819050949350505050565b600060208201905061398b6000830184613483565b92915050565b60006080820190506139a66000830187613483565b6139b36020830186613483565b6139c06040830185613913565b81810360608301526139d281846134ff565b905095945050505050565b600060208201905081810360008301526139f78184613492565b905092915050565b6000602082019050613a1460008301846134f0565b92915050565b60006020820190508181036000830152613a3381613538565b9050919050565b60006020820190508181036000830152613a538161359e565b9050919050565b60006020820190508181036000830152613a73816135de565b9050919050565b60006020820190508181036000830152613a938161361e565b9050919050565b60006020820190508181036000830152613ab38161365e565b9050919050565b60006020820190508181036000830152613ad38161369e565b9050919050565b60006020820190508181036000830152613af3816136de565b9050919050565b60006020820190508181036000830152613b138161371e565b9050919050565b60006020820190508181036000830152613b338161375e565b9050919050565b60006020820190508181036000830152613b538161379e565b9050919050565b60006020820190508181036000830152613b73816137de565b9050919050565b60006020820190508181036000830152613b938161381e565b9050919050565b60006020820190508181036000830152613bb38161385e565b9050919050565b60006020820190508181036000830152613bd3816138c4565b9050919050565b6000602082019050613bef6000830184613913565b92915050565b6000604082019050613c0a6000830185613913565b613c1760208301846134f0565b9392505050565b6000604082019050613c336000830185613913565b613c406020830184613913565b9392505050565b6000608082019050613c5c6000830187613913565b613c696020830186613913565b613c766040830185613913565b613c836060830184613913565b95945050505050565b6000819050602082019050919050565b600081519050919050565b600081519050919050565b6000602082019050919050565b600082825260208201905092915050565b600082825260208201905092915050565b600082825260208201905092915050565b6000613cfd82613db2565b9150613d0883613db2565b9250827fffffffffffffffffffffffffffffffffffffffffffffffffffffffffffffffff03821115613d3d57613d3c613e73565b5b828201905092915050565b6000613d5382613d92565b9050919050565b60008115159050919050565b60007fffffffff0000000000000000000000000000000000000000000000000000000082169050919050565b600073ffffffffffffffffffffffffffffffffffffffff82169050919050565b6000819050919050565b60005b83811015613dda578082015181840152602081019050613dbf565b83811115613de9576000848401525b50505050565b6000613dfa82613db2565b91507fffffffffffffffffffffffffffffffffffffffffffffffffffffffffffffffff821415613e2d57613e2c613e73565b5b600182019050919050565b6000819050919050565b6000613e4d82613db2565b9150613e5883613db2565b925082613e6857613e67613ea2565b5b828206905092915050565b7f4e487b7100000000000000000000000000000000000000000000000000000000600052601160045260246000fd5b7f4e487b7100000000000000000000000000000000000000000000000000000000600052601260045260246000fd5b6000601f19601f8301169050919050565b613eeb81613d48565b8114613ef657600080fd5b50565b613f0281613d5a565b8114613f0d57600080fd5b50565b613f1981613d66565b8114613f2457600080fd5b50565b613f3081613db2565b8114613f3b57600080fd5b5056fea2646970667358221220b621cea3e16c7f0cab16ce36b7321a94ef148e4e968a7526b427f53acda53ff464736f6c63430008000033",
  "immutableReferences": {},
  "source": "// SPDX-License-Identifier: UNLICENSED\npragma solidity ^0.8.0;\n\nimport \"./card-ownership.sol\";\n\n// abstract contract Aion {\n//     uint256 public serviceFee;\n//     function ScheduleCall(uint256 blocknumber, address to, uint256 value, uint256 gaslimit, uint256 gasprice, bytes memory data, bool schedType) virtual public payable returns (uint,address);\n//     function cancellScheduledTx(uint256 blocknumber, address from, address to, uint256 value, uint256 gaslimit, uint256 gasprice, uint256 fee, bytes memory data, uint256 aionId, bool schedType) virtual public payable returns(bool);\n// }\n\ncontract CardAuction is CardOwnership {\n\n    // Aion aion;\n    uint public maxAuctionDuration = 604800;\n    uint public auctionId;\n    mapping(uint => bool) public cardIsForSale;\n    mapping(uint => uint) public cardToCurrentBid;\n    mapping(uint => address) public leadingBidder;\n    mapping(uint => uint) public auctionExpireDate;\n    mapping(uint => uint) public cardToAuctionId;\n    \n    event AuctionOpened(uint indexed auctionId, uint indexed cardId, uint startingBid, uint expireDate, address indexed owner);\n    event BidPlaced(uint indexed auctionId, uint indexed cardId, uint bid, address indexed bidder, uint expireDate);\n    event AuctionClosed(uint indexed auctionId, uint indexed cardId, uint salePrice, address indexed to, bool completed);\n\n    modifier onlyCardOwner(uint _cardId) {\n        address owner = cardIdToOwner[_cardId];\n        require(owner == msg.sender, 'ONLY CARD OWNER CAN POST IT FOR AUCTION');\n        _;\n    }\n\n    modifier checkAuctionDuration(uint _duration) {\n        require(_duration <= maxAuctionDuration, 'BID DURATION NOT ALLOWED');\n        _;\n    }\n\n    // Keeping for possible scheduler integration\n    //\n    // function createCardAuction(uint _cardId, uint _startingBid, uint _duration) external checkAuctionDuration(_duration) onlyCardOwner(_cardId) {\n    //     require(!cardIsForSale[_cardId], 'CARD ALREADY UP FOR AUCTION');\n    //     aion = Aion(0xFcFB45679539667f7ed55FA59A15c8Cad73d9a4E);\n    //     bytes memory data = abi.encodeWithSelector(bytes4(keccak256('endAuction(uint)')), _cardId);\n    //     uint callCost = 500000*1e9 + aion.serviceFee();\n    //     aion.ScheduleCall{value: callCost}(block.timestamp + _duration, address(this), 0, 500000, 1e9, data, true);        \n\n    //     cardIsForSale[_cardId] = true;\n    //     cardToCurrentBid[_cardId] = _startingBid;\n    //     auctionExpireDate[_cardId] = block.timestamp + _duration;\n    //     // emit AuctionOpened(_cardId, _startingBid, block.timestamp + _duration);\n    //     AuctionOpened(auctionId, _cardId, _startingBid, block.timestamp + _duration, msg.sender);\n    // }\n\n    function createCardAuction(uint _cardId, uint _startingBid, uint _duration) external checkAuctionDuration(_duration) onlyCardOwner(_cardId) {\n        require(!cardIsForSale[_cardId], 'CARD ALREADY UP FOR AUCTION');\n\n        cardToAuctionId[_cardId] = auctionId;\n        cardIsForSale[_cardId] = true;\n        cardToCurrentBid[_cardId] = _startingBid;\n        auctionExpireDate[_cardId] = block.timestamp + _duration;\n        emit AuctionOpened(auctionId, _cardId, _startingBid, block.timestamp + _duration, msg.sender);\n        auctionId = auctionId + 1;\n    }\n\n    function placeBid(uint _cardId) external payable {\n        require(cardIdToOwner[_cardId] != msg.sender, 'CAN NOT BID ON CARDS YOU OWN');\n        require(cardIsForSale[_cardId], 'CARD NOT FOR SALE');\n        require(msg.value > cardToCurrentBid[_cardId], 'BID LOWER THAN CURRENT BID');\n\n        address payable outbidAddress = payable(leadingBidder[_cardId]);\n        if(outbidAddress != address(0)){\n            outbidAddress.transfer(cardToCurrentBid[_cardId]);\n        }\n        cardToCurrentBid[_cardId] = msg.value;\n        leadingBidder[_cardId] = msg.sender;\n        emit BidPlaced(cardToAuctionId[_cardId], _cardId, msg.value, msg.sender, auctionExpireDate[_cardId]);\n    }\n\n    function endAuction(uint _cardId) public {\n        require(auctionExpireDate[_cardId] <= block.timestamp);\n\n        if(leadingBidder[_cardId] != address(0)) {\n            transferCard(_cardId);\n        }\n        AuctionClosed(cardToAuctionId[_cardId], _cardId, cardToCurrentBid[_cardId], leadingBidder[_cardId], leadingBidder[_cardId] != address(0));\n        cardIsForSale[_cardId] = false;\n        cardToCurrentBid[_cardId] = 0;\n        leadingBidder[_cardId] = address(0);\n        auctionExpireDate[_cardId] = 0;\n        cardToAuctionId[_cardId] = 0;\n    }\n\n    function transferCard(uint _cardId) private {\n        address payable beneficiary = payable(cardIdToOwner[_cardId]);\n\n        userOwnedCards[leadingBidder[_cardId]].push(_cardId);\n        cardIsAtIndex[_cardId] = userOwnedCards[leadingBidder[_cardId]].length;\n        uint cardIndex = cardIsAtIndex[_cardId];\n        userOwnedCards[cardIdToOwner[_cardId]][cardIndex] = 999999999999;\n        cardIdToOwner[_cardId] = leadingBidder[_cardId];\n        beneficiary.transfer(cardToCurrentBid[_cardId]);\n    }\n}",
  "sourcePath": "/Users/tkma4fr/Development/solidity-app/contracts/card-auction.sol",
  "compiler": {
    "name": "solc",
    "version": "0.8.0+commit.c7dfd78e.Emscripten.clang"
  },
  "schemaVersion": "3.4.2",
  "updatedAt": "2021-10-12T01:53:49.476Z",
  "networkType": "ethereum",
  "devdoc": {
    "kind": "dev",
    "methods": {
      "approve(address,uint256)": {
        "details": "The zero address indicates there is no approved address.  Throws unless `msg.sender` is the current NFT owner, or an authorized  operator of the current owner.",
        "params": {
          "_approved": "The new approved NFT controller",
          "_tokenId": "The NFT to approve"
        }
      },
      "balanceOf(address)": {
        "details": "NFTs assigned to the zero address are considered invalid, and this  function throws for queries about the zero address.",
        "params": {
          "_owner": "An address for whom to query the balance"
        },
        "returns": {
          "_0": "The number of NFTs owned by `_owner`, possibly zero"
        }
      },
      "getApproved(uint256)": {
        "details": "Throws if `_tokenId` is not a valid NFT.",
        "params": {
          "_tokenId": "The NFT to find the approved address for"
        },
        "returns": {
          "_0": "The approved address for this NFT, or the zero address if there is none"
        }
      },
      "isApprovedForAll(address,address)": {
        "params": {
          "_operator": "The address that acts on behalf of the owner",
          "_owner": "The address that owns the NFTs"
        },
        "returns": {
          "_0": "True if `_operator` is an approved operator for `_owner`, false otherwise"
        }
      },
      "owner()": {
        "details": "Returns the address of the current owner."
      },
      "ownerOf(uint256)": {
        "details": "NFTs assigned to zero address are considered invalid, and queries  about them do throw.",
        "params": {
          "_tokenId": "The identifier for an NFT"
        },
        "returns": {
          "_0": "The address of the owner of the NFT"
        }
      },
      "renounceOwnership()": {
        "details": "Leaves the contract without owner. It will not be possible to call `onlyOwner` functions anymore. Can only be called by the current owner. NOTE: Renouncing ownership will leave the contract without an owner, thereby removing any functionality that is only available to the owner."
      },
      "safeTransferFrom(address,address,uint256)": {
        "details": "This works identically to the other function with an extra data parameter,  except this function just sets data to \"\".",
        "params": {
          "_from": "The current owner of the NFT",
          "_to": "The new owner",
          "_tokenId": "The NFT to transfer"
        }
      },
      "setApprovalForAll(address,bool)": {
        "details": "Emits the ApprovalForAll event. The contract MUST allow  multiple operators per owner.",
        "params": {
          "_approved": "True if the operator is approved, false to revoke approval",
          "_operator": "Address to add to the set of authorized operators"
        }
      },
      "transferFrom(address,address,uint256)": {
        "details": "Throws unless `msg.sender` is the current owner, an authorized  operator, or the approved address for this NFT. Throws if `_from` is  not the current owner. Throws if `_to` is the zero address. Throws if  `_tokenId` is not a valid NFT.",
        "params": {
          "_from": "The current owner of the NFT",
          "_to": "The new owner",
          "_tokenId": "The NFT to transfer"
        }
      },
      "transferOwnership(address)": {
        "details": "Transfers ownership of the contract to a new account (`newOwner`). Can only be called by the current owner."
      }
    },
    "version": 1
  },
  "userdoc": {
    "kind": "user",
    "methods": {
      "approve(address,uint256)": {
        "notice": "Change or reaffirm the approved address for an NFT"
      },
      "balanceOf(address)": {
        "notice": "Count all NFTs assigned to an owner"
      },
      "getApproved(uint256)": {
        "notice": "Get the approved address for a single NFT"
      },
      "isApprovedForAll(address,address)": {
        "notice": "Query if an address is an authorized operator for another address"
      },
      "ownerOf(uint256)": {
        "notice": "Find the owner of an NFT"
      },
      "safeTransferFrom(address,address,uint256)": {
        "notice": "Transfers the ownership of an NFT from one address to another address"
      },
      "setApprovalForAll(address,bool)": {
        "notice": "Enable or disable approval for a third party (\"operator\") to manage  all of `msg.sender`'s assets"
      },
      "transferFrom(address,address,uint256)": {
        "notice": "Transfer ownership of an NFT -- THE CALLER IS RESPONSIBLE  TO CONFIRM THAT `_to` IS CAPABLE OF RECEIVING NFTS OR ELSE  THEY MAY BE PERMANENTLY LOST"
      }
    },
    "version": 1
  }
}