{
  "contractName": "CardGame",
  "abi": [
    {
      "anonymous": false,
      "inputs": [
        {
          "indexed": true,
          "internalType": "address",
          "name": "_owner",
          "type": "address"
        },
        {
          "indexed": true,
          "internalType": "address",
          "name": "_approved",
          "type": "address"
        },
        {
          "indexed": true,
          "internalType": "uint256",
          "name": "_tokenId",
          "type": "uint256"
        }
      ],
      "name": "Approval",
      "type": "event"
    },
    {
      "anonymous": false,
      "inputs": [
        {
          "indexed": true,
          "internalType": "address",
          "name": "_owner",
          "type": "address"
        },
        {
          "indexed": true,
          "internalType": "address",
          "name": "_operator",
          "type": "address"
        },
        {
          "indexed": false,
          "internalType": "bool",
          "name": "_approved",
          "type": "bool"
        }
      ],
      "name": "ApprovalForAll",
      "type": "event"
    },
    {
      "anonymous": false,
      "inputs": [
        {
          "indexed": true,
          "internalType": "uint256",
          "name": "auctionId",
          "type": "uint256"
        },
        {
          "indexed": true,
          "internalType": "uint256",
          "name": "cardId",
          "type": "uint256"
        },
        {
          "indexed": false,
          "internalType": "uint256",
          "name": "salePrice",
          "type": "uint256"
        },
        {
          "indexed": true,
          "internalType": "address",
          "name": "to",
          "type": "address"
        },
        {
          "indexed": false,
          "internalType": "bool",
          "name": "completed",
          "type": "bool"
        }
      ],
      "name": "AuctionClosed",
      "type": "event"
    },
    {
      "anonymous": false,
      "inputs": [
        {
          "indexed": true,
          "internalType": "uint256",
          "name": "auctionId",
          "type": "uint256"
        },
        {
          "indexed": true,
          "internalType": "uint256",
          "name": "cardId",
          "type": "uint256"
        },
        {
          "indexed": false,
          "internalType": "uint256",
          "name": "startingBid",
          "type": "uint256"
        },
        {
          "indexed": false,
          "internalType": "uint256",
          "name": "expireDate",
          "type": "uint256"
        },
        {
          "indexed": true,
          "internalType": "address",
          "name": "owner",
          "type": "address"
        }
      ],
      "name": "AuctionOpened",
      "type": "event"
    },
    {
      "anonymous": false,
      "inputs": [
        {
          "indexed": true,
          "internalType": "uint256",
          "name": "auctionId",
          "type": "uint256"
        },
        {
          "indexed": true,
          "internalType": "uint256",
          "name": "cardId",
          "type": "uint256"
        },
        {
          "indexed": false,
          "internalType": "uint256",
          "name": "bid",
          "type": "uint256"
        },
        {
          "indexed": true,
          "internalType": "address",
          "name": "bidder",
          "type": "address"
        }
      ],
      "name": "BidPlaced",
      "type": "event"
    },
    {
      "anonymous": false,
      "inputs": [
        {
          "indexed": false,
          "internalType": "uint256",
          "name": "cardId",
          "type": "uint256"
        },
        {
          "indexed": false,
          "internalType": "uint256",
          "name": "cardType",
          "type": "uint256"
        },
        {
          "indexed": false,
          "internalType": "uint256",
          "name": "playerId",
          "type": "uint256"
        },
        {
          "indexed": false,
          "internalType": "uint256",
          "name": "attributeHash",
          "type": "uint256"
        },
        {
          "indexed": true,
          "internalType": "address",
          "name": "owner",
          "type": "address"
        }
      ],
      "name": "CardCreated",
      "type": "event"
    },
    {
      "anonymous": false,
      "inputs": [
        {
          "indexed": true,
          "internalType": "address",
          "name": "owner",
          "type": "address"
        }
      ],
      "name": "CardPackPurchased",
      "type": "event"
    },
    {
      "anonymous": false,
      "inputs": [
        {
          "indexed": false,
          "internalType": "uint256",
          "name": "gameId",
          "type": "uint256"
        },
        {
          "indexed": false,
          "internalType": "uint256",
          "name": "playerCount",
          "type": "uint256"
        },
        {
          "indexed": false,
          "internalType": "uint256",
          "name": "cardCount",
          "type": "uint256"
        },
        {
          "indexed": false,
          "internalType": "uint256",
          "name": "entryFee",
          "type": "uint256"
        }
      ],
      "name": "GameCreated",
      "type": "event"
    },
    {
      "anonymous": false,
      "inputs": [
        {
          "indexed": false,
          "internalType": "uint256",
          "name": "gameId",
          "type": "uint256"
        },
        {
          "indexed": true,
          "internalType": "address",
          "name": "player",
          "type": "address"
        }
      ],
      "name": "GameJoined",
      "type": "event"
    },
    {
      "anonymous": false,
      "inputs": [
        {
          "indexed": true,
          "internalType": "address",
          "name": "previousOwner",
          "type": "address"
        },
        {
          "indexed": true,
          "internalType": "address",
          "name": "newOwner",
          "type": "address"
        }
      ],
      "name": "OwnershipTransferred",
      "type": "event"
    },
    {
      "anonymous": false,
      "inputs": [
        {
          "indexed": true,
          "internalType": "address",
          "name": "_from",
          "type": "address"
        },
        {
          "indexed": true,
          "internalType": "address",
          "name": "_to",
          "type": "address"
        },
        {
          "indexed": true,
          "internalType": "uint256",
          "name": "_tokenId",
          "type": "uint256"
        }
      ],
      "name": "Transfer",
      "type": "event"
    },
    {
      "inputs": [
        {
          "internalType": "address",
          "name": "_approved",
          "type": "address"
        },
        {
          "internalType": "uint256",
          "name": "_tokenId",
          "type": "uint256"
        }
      ],
      "name": "approve",
      "outputs": [],
      "stateMutability": "payable",
      "type": "function",
      "payable": true
    },
    {
      "inputs": [],
      "name": "auctionId",
      "outputs": [
        {
          "internalType": "uint256",
          "name": "",
          "type": "uint256"
        }
      ],
      "stateMutability": "view",
      "type": "function",
      "constant": true
    },
    {
      "inputs": [
        {
          "internalType": "uint256",
          "name": "",
          "type": "uint256"
        }
      ],
      "name": "auctionIdToAuction",
      "outputs": [
        {
          "internalType": "uint256",
          "name": "auctionId",
          "type": "uint256"
        },
        {
          "internalType": "uint256",
          "name": "currentBid",
          "type": "uint256"
        },
        {
          "internalType": "address",
          "name": "leadingBidder",
          "type": "address"
        },
        {
          "internalType": "uint256",
          "name": "expireDate",
          "type": "uint256"
        },
        {
          "internalType": "uint256",
          "name": "cardId",
          "type": "uint256"
        },
        {
          "internalType": "uint256",
          "name": "bidCount",
          "type": "uint256"
        }
      ],
      "stateMutability": "view",
      "type": "function",
      "constant": true
    },
    {
      "inputs": [
        {
          "internalType": "address",
          "name": "_owner",
          "type": "address"
        }
      ],
      "name": "balanceOf",
      "outputs": [
        {
          "internalType": "uint256",
          "name": "",
          "type": "uint256"
        }
      ],
      "stateMutability": "view",
      "type": "function",
      "constant": true
    },
    {
      "inputs": [
        {
          "internalType": "uint256",
          "name": "_cardId",
          "type": "uint256"
        }
      ],
      "name": "cancelAuction",
      "outputs": [],
      "stateMutability": "nonpayable",
      "type": "function"
    },
    {
      "inputs": [
        {
          "internalType": "uint256",
          "name": "",
          "type": "uint256"
        }
      ],
      "name": "cardIdToCard",
      "outputs": [
        {
          "internalType": "uint256",
          "name": "cardId",
          "type": "uint256"
        },
        {
          "internalType": "uint256",
          "name": "playerId",
          "type": "uint256"
        },
        {
          "internalType": "uint256",
          "name": "attributeHash",
          "type": "uint256"
        },
        {
          "internalType": "uint256",
          "name": "cardType",
          "type": "uint256"
        },
        {
          "internalType": "bool",
          "name": "inUse",
          "type": "bool"
        }
      ],
      "stateMutability": "view",
      "type": "function",
      "constant": true
    },
    {
      "inputs": [
        {
          "internalType": "uint256",
          "name": "",
          "type": "uint256"
        }
      ],
      "name": "cardIdToOwner",
      "outputs": [
        {
          "internalType": "address",
          "name": "",
          "type": "address"
        }
      ],
      "stateMutability": "view",
      "type": "function",
      "constant": true
    },
    {
      "inputs": [
        {
          "internalType": "uint256",
          "name": "",
          "type": "uint256"
        }
      ],
      "name": "cardIsAtIndex",
      "outputs": [
        {
          "internalType": "uint256",
          "name": "",
          "type": "uint256"
        }
      ],
      "stateMutability": "view",
      "type": "function",
      "constant": true
    },
    {
      "inputs": [
        {
          "internalType": "uint256",
          "name": "",
          "type": "uint256"
        }
      ],
      "name": "cardIsForSale",
      "outputs": [
        {
          "internalType": "bool",
          "name": "",
          "type": "bool"
        }
      ],
      "stateMutability": "view",
      "type": "function",
      "constant": true
    },
    {
      "inputs": [
        {
          "internalType": "uint256",
          "name": "",
          "type": "uint256"
        }
      ],
      "name": "cardToAuctionId",
      "outputs": [
        {
          "internalType": "uint256",
          "name": "",
          "type": "uint256"
        }
      ],
      "stateMutability": "view",
      "type": "function",
      "constant": true
    },
    {
      "inputs": [
        {
          "internalType": "uint256",
          "name": "_cardId",
          "type": "uint256"
        },
        {
          "internalType": "uint256",
          "name": "_startingBid",
          "type": "uint256"
        },
        {
          "internalType": "uint256",
          "name": "_duration",
          "type": "uint256"
        }
      ],
      "name": "createCardAuction",
      "outputs": [],
      "stateMutability": "nonpayable",
      "type": "function"
    },
    {
      "inputs": [
        {
          "internalType": "uint256",
          "name": "_cardId",
          "type": "uint256"
        }
      ],
      "name": "endAuction",
      "outputs": [],
      "stateMutability": "nonpayable",
      "type": "function"
    },
    {
      "inputs": [
        {
          "internalType": "address",
          "name": "",
          "type": "address"
        }
      ],
      "name": "existingUser",
      "outputs": [
        {
          "internalType": "bool",
          "name": "",
          "type": "bool"
        }
      ],
      "stateMutability": "view",
      "type": "function",
      "constant": true
    },
    {
      "inputs": [],
      "name": "gameId",
      "outputs": [
        {
          "internalType": "uint256",
          "name": "",
          "type": "uint256"
        }
      ],
      "stateMutability": "view",
      "type": "function",
      "constant": true
    },
    {
      "inputs": [
        {
          "internalType": "uint256",
          "name": "",
          "type": "uint256"
        }
      ],
      "name": "gameIdToGame",
      "outputs": [
        {
          "internalType": "uint256",
          "name": "gameId",
          "type": "uint256"
        },
        {
          "internalType": "uint256",
          "name": "numberOfPlayers",
          "type": "uint256"
        },
        {
          "internalType": "uint256",
          "name": "numberOfCardsPerPlayer",
          "type": "uint256"
        },
        {
          "internalType": "uint256",
          "name": "entryFee",
          "type": "uint256"
        },
        {
          "internalType": "bool",
          "name": "open",
          "type": "bool"
        },
        {
          "internalType": "bool",
          "name": "active",
          "type": "bool"
        },
        {
          "internalType": "address",
          "name": "winner",
          "type": "address"
        }
      ],
      "stateMutability": "view",
      "type": "function",
      "constant": true
    },
    {
      "inputs": [
        {
          "internalType": "uint256",
          "name": "_tokenId",
          "type": "uint256"
        }
      ],
      "name": "getApproved",
      "outputs": [
        {
          "internalType": "address",
          "name": "",
          "type": "address"
        }
      ],
      "stateMutability": "view",
      "type": "function",
      "constant": true
    },
    {
      "inputs": [
        {
          "internalType": "address",
          "name": "_address",
          "type": "address"
        }
      ],
      "name": "getUserOwnedCards",
      "outputs": [
        {
          "internalType": "uint256[]",
          "name": "",
          "type": "uint256[]"
        }
      ],
      "stateMutability": "view",
      "type": "function",
      "constant": true
    },
    {
      "inputs": [
        {
          "internalType": "address",
          "name": "_owner",
          "type": "address"
        },
        {
          "internalType": "address",
          "name": "_operator",
          "type": "address"
        }
      ],
      "name": "isApprovedForAll",
      "outputs": [
        {
          "internalType": "bool",
          "name": "",
          "type": "bool"
        }
      ],
      "stateMutability": "view",
      "type": "function",
      "constant": true
    },
    {
      "inputs": [],
      "name": "maxAuctionDuration",
      "outputs": [
        {
          "internalType": "uint256",
          "name": "",
          "type": "uint256"
        }
      ],
      "stateMutability": "view",
      "type": "function",
      "constant": true
    },
    {
      "inputs": [
        {
          "internalType": "address",
          "name": "_to",
          "type": "address"
        },
        {
          "internalType": "uint256",
          "name": "_playerId",
          "type": "uint256"
        },
        {
          "internalType": "uint256",
          "name": "_type",
          "type": "uint256"
        },
        {
          "internalType": "uint256",
          "name": "_attributes",
          "type": "uint256"
        }
      ],
      "name": "mintCustomCard",
      "outputs": [],
      "stateMutability": "nonpayable",
      "type": "function"
    },
    {
      "inputs": [],
      "name": "owner",
      "outputs": [
        {
          "internalType": "address",
          "name": "",
          "type": "address"
        }
      ],
      "stateMutability": "view",
      "type": "function",
      "constant": true
    },
    {
      "inputs": [
        {
          "internalType": "address",
          "name": "",
          "type": "address"
        }
      ],
      "name": "ownerCardCount",
      "outputs": [
        {
          "internalType": "uint256",
          "name": "",
          "type": "uint256"
        }
      ],
      "stateMutability": "view",
      "type": "function",
      "constant": true
    },
    {
      "inputs": [
        {
          "internalType": "uint256",
          "name": "_tokenId",
          "type": "uint256"
        }
      ],
      "name": "ownerOf",
      "outputs": [
        {
          "internalType": "address",
          "name": "",
          "type": "address"
        }
      ],
      "stateMutability": "view",
      "type": "function",
      "constant": true
    },
    {
      "inputs": [
        {
          "internalType": "uint256",
          "name": "_cardId",
          "type": "uint256"
        }
      ],
      "name": "placeBid",
      "outputs": [],
      "stateMutability": "payable",
      "type": "function",
      "payable": true
    },
    {
      "inputs": [],
      "name": "purchaseCardPack",
      "outputs": [],
      "stateMutability": "payable",
      "type": "function",
      "payable": true
    },
    {
      "inputs": [],
      "name": "renounceOwnership",
      "outputs": [],
      "stateMutability": "nonpayable",
      "type": "function"
    },
    {
      "inputs": [
        {
          "internalType": "address",
          "name": "_from",
          "type": "address"
        },
        {
          "internalType": "address",
          "name": "_to",
          "type": "address"
        },
        {
          "internalType": "uint256",
          "name": "_tokenId",
          "type": "uint256"
        }
      ],
      "name": "safeTransferFrom",
      "outputs": [],
      "stateMutability": "payable",
      "type": "function",
      "payable": true
    },
    {
      "inputs": [
        {
          "internalType": "address",
          "name": "_from",
          "type": "address"
        },
        {
          "internalType": "address",
          "name": "_to",
          "type": "address"
        },
        {
          "internalType": "uint256",
          "name": "_tokenId",
          "type": "uint256"
        },
        {
          "internalType": "bytes",
          "name": "_data",
          "type": "bytes"
        }
      ],
      "name": "safeTransferFrom",
      "outputs": [],
      "stateMutability": "payable",
      "type": "function",
      "payable": true
    },
    {
      "inputs": [
        {
          "internalType": "address",
          "name": "_operator",
          "type": "address"
        },
        {
          "internalType": "bool",
          "name": "_approved",
          "type": "bool"
        }
      ],
      "name": "setApprovalForAll",
      "outputs": [],
      "stateMutability": "nonpayable",
      "type": "function"
    },
    {
      "inputs": [
        {
          "internalType": "uint256",
          "name": "_fee",
          "type": "uint256"
        }
      ],
      "name": "setCardPackFee",
      "outputs": [],
      "stateMutability": "nonpayable",
      "type": "function"
    },
    {
      "inputs": [
        {
          "internalType": "uint256",
          "name": "_quantity",
          "type": "uint256"
        }
      ],
      "name": "setCardPackQuantity",
      "outputs": [],
      "stateMutability": "nonpayable",
      "type": "function"
    },
    {
      "inputs": [
        {
          "internalType": "uint256",
          "name": "_newOdds",
          "type": "uint256"
        }
      ],
      "name": "setExotixCardOdds",
      "outputs": [],
      "stateMutability": "nonpayable",
      "type": "function"
    },
    {
      "inputs": [
        {
          "internalType": "uint256",
          "name": "_newOdds",
          "type": "uint256"
        }
      ],
      "name": "setLegendaryCardOdds",
      "outputs": [],
      "stateMutability": "nonpayable",
      "type": "function"
    },
    {
      "inputs": [
        {
          "internalType": "address",
          "name": "_newOwner",
          "type": "address"
        }
      ],
      "name": "setOwner",
      "outputs": [],
      "stateMutability": "nonpayable",
      "type": "function"
    },
    {
      "inputs": [
        {
          "internalType": "uint256",
          "name": "_newOdds",
          "type": "uint256"
        }
      ],
      "name": "setRareCardOdds",
      "outputs": [],
      "stateMutability": "nonpayable",
      "type": "function"
    },
    {
      "inputs": [
        {
          "internalType": "uint256",
          "name": "_count",
          "type": "uint256"
        }
      ],
      "name": "setTotalPlayers",
      "outputs": [],
      "stateMutability": "nonpayable",
      "type": "function"
    },
    {
      "inputs": [
        {
          "internalType": "address",
          "name": "_from",
          "type": "address"
        },
        {
          "internalType": "address",
          "name": "_to",
          "type": "address"
        },
        {
          "internalType": "uint256",
          "name": "_tokenId",
          "type": "uint256"
        }
      ],
      "name": "transferFrom",
      "outputs": [],
      "stateMutability": "payable",
      "type": "function",
      "payable": true
    },
    {
      "inputs": [
        {
          "internalType": "address",
          "name": "newOwner",
          "type": "address"
        }
      ],
      "name": "transferOwnership",
      "outputs": [],
      "stateMutability": "nonpayable",
      "type": "function"
    },
    {
      "inputs": [
        {
          "internalType": "address",
          "name": "",
          "type": "address"
        },
        {
          "internalType": "uint256",
          "name": "",
          "type": "uint256"
        }
      ],
      "name": "userOwnedCards",
      "outputs": [
        {
          "internalType": "uint256",
          "name": "",
          "type": "uint256"
        }
      ],
      "stateMutability": "view",
      "type": "function",
      "constant": true
    },
    {
      "inputs": [
        {
          "internalType": "uint256",
          "name": "amount",
          "type": "uint256"
        }
      ],
      "name": "withdraw",
      "outputs": [],
      "stateMutability": "nonpayable",
      "type": "function"
    },
    {
      "inputs": [
        {
          "internalType": "uint256",
          "name": "_playerCount",
          "type": "uint256"
        },
        {
          "internalType": "uint256",
          "name": "_cardCount",
          "type": "uint256"
        },
        {
          "internalType": "uint256",
          "name": "_entryFee",
          "type": "uint256"
        }
      ],
      "name": "createGame",
      "outputs": [],
      "stateMutability": "nonpayable",
      "type": "function"
    },
    {
      "inputs": [
        {
          "internalType": "uint256",
          "name": "_gameId",
          "type": "uint256"
        },
        {
          "internalType": "uint256[]",
          "name": "_cardIds",
          "type": "uint256[]"
        }
      ],
      "name": "joinGame",
      "outputs": [],
      "stateMutability": "payable",
      "type": "function",
      "payable": true
    },
    {
      "inputs": [
        {
          "internalType": "uint256[]",
          "name": "_gameIds",
          "type": "uint256[]"
        }
      ],
      "name": "closeGames",
      "outputs": [],
      "stateMutability": "nonpayable",
      "type": "function"
    },
    {
      "inputs": [
        {
          "internalType": "uint256[]",
          "name": "_gameIds",
          "type": "uint256[]"
        }
      ],
      "name": "endGames",
      "outputs": [],
      "stateMutability": "nonpayable",
      "type": "function"
    },
    {
      "inputs": [
        {
          "internalType": "uint256",
          "name": "_gameId",
          "type": "uint256"
        }
      ],
      "name": "getPlayersByGameId",
      "outputs": [
        {
          "internalType": "address[]",
          "name": "",
          "type": "address[]"
        }
      ],
      "stateMutability": "view",
      "type": "function",
      "constant": true
    },
    {
      "inputs": [
        {
          "internalType": "uint256",
          "name": "_gameId",
          "type": "uint256"
        },
        {
          "internalType": "address",
          "name": "_user",
          "type": "address"
        }
      ],
      "name": "getCardEntriesByPlayer",
      "outputs": [
        {
          "internalType": "uint256[]",
          "name": "",
          "type": "uint256[]"
        }
      ],
      "stateMutability": "view",
      "type": "function",
      "constant": true
    }
  ],
  "bytecode": "0x6080604052600060025560be6003556008600455602860055560646006556611c37937e08000600b55600a600c55733bff843835cabb198912e10629843fc65e336c84600f60006101000a81548173ffffffffffffffffffffffffffffffffffffffff021916908373ffffffffffffffffffffffffffffffffffffffff16021790555062093a8060125560016013553480156200009b57600080fd5b50620000bc620000b0620000c260201b60201c565b620000ca60201b60201c565b6200018e565b600033905090565b60008060009054906101000a900473ffffffffffffffffffffffffffffffffffffffff169050816000806101000a81548173ffffffffffffffffffffffffffffffffffffffff021916908373ffffffffffffffffffffffffffffffffffffffff1602179055508173ffffffffffffffffffffffffffffffffffffffff168173ffffffffffffffffffffffffffffffffffffffff167f8be0079c531659141344cd1fd0a4f28419497f9722a3daafe3b4186f6b6457e060405160405180910390a35050565b615d48806200019e6000396000f3fe60806040526004361061027d5760003560e01c80638da5cb5b1161014f578063b780acc5116100c1578063d7c81b551161007a578063d7c81b55146109c0578063d82d6301146109eb578063e25d13a814610a14578063e985e9c514610a3d578063f2fde38b14610a7a578063feb2c4df14610aa35761027d565b8063b780acc5146108c3578063b88d4fde146108ec578063b9a2de3a14610908578063c274152114610931578063c44d503d1461095a578063c75f384b146109975761027d565b80639bf822e3116101135780639bf822e314610765578063a0dd6b34146107a2578063a22cb465146107e3578063a3d2065f1461080c578063a6e156c614610849578063b3df5268146108865761027d565b80638da5cb5b1461067b57806396b5a755146106a65780639979ef45146106cf5780639aa6c9ff146106eb5780639b3ce46e146107285761027d565b806336185bdf116101f3578063552788da116101ac578063552788da1461055b5780636352211e1461058457806370a08231146105c1578063715018a6146105fe578063804c4b2514610615578063828c730c146106525761027d565b806336185bdf146104425780633727dbf91461046b57806341845a14146104ae57806341994140146104d757806342842e0e1461051457806348c9581e146105305761027d565b806319a355671161024557806319a35567146103715780631b94a04e146103ae57806323b872dd146103ca578063245767fa146103e65780632cfae8d31461040f5780632e1a7d4d146104195761027d565b80630254837614610282578063081812fc146102c4578063095ea7b31461030157806310782f8f1461031d57806313af403514610348575b600080fd5b34801561028e57600080fd5b506102a960048036038101906102a49190614b2b565b610acc565b6040516102bb969594939291906157ff565b60405180910390f35b3480156102d057600080fd5b506102eb60048036038101906102e69190614b2b565b610b28565b6040516102f8919061542c565b60405180910390f35b61031b60048036038101906103169190614a22565b610c0a565b005b34801561032957600080fd5b50610332610f05565b60405161033f9190615792565b60405180910390f35b34801561035457600080fd5b5061036f600480360381019061036a91906148b2565b610f0b565b005b34801561037d57600080fd5b50610398600480360381019061039391906148b2565b610fcb565b6040516103a591906154b5565b60405180910390f35b6103c860048036038101906103c39190614b90565b611062565b005b6103e460048036038101906103df9190614917565b611537565b005b3480156103f257600080fd5b5061040d60048036038101906104089190614ac1565b611759565b005b610417611867565b005b34801561042557600080fd5b50610440600480360381019061043b9190614b2b565b6118f8565b005b34801561044e57600080fd5b5061046960048036038101906104649190614b2b565b6119e6565b005b34801561047757600080fd5b50610492600480360381019061048d9190614b2b565b611a6c565b6040516104a597969594939291906158f8565b60405180910390f35b3480156104ba57600080fd5b506104d560048036038101906104d09190614b2b565b611ae8565b005b3480156104e357600080fd5b506104fe60048036038101906104f99190614b2b565b611b6e565b60405161050b919061542c565b60405180910390f35b61052e60048036038101906105299190614917565b611ba1565b005b34801561053c57600080fd5b50610545611bc1565b6040516105529190615792565b60405180910390f35b34801561056757600080fd5b50610582600480360381019061057d9190614b2b565b611bc7565b005b34801561059057600080fd5b506105ab60048036038101906105a69190614b2b565b611c4d565b6040516105b8919061542c565b60405180910390f35b3480156105cd57600080fd5b506105e860048036038101906105e391906148b2565b611c8a565b6040516105f59190615792565b60405180910390f35b34801561060a57600080fd5b50610613611cd3565b005b34801561062157600080fd5b5061063c600480360381019061063791906148b2565b611d5b565b6040516106499190615792565b60405180910390f35b34801561065e57600080fd5b5061067960048036038101906106749190614a5e565b611d73565b005b34801561068757600080fd5b50610690611e23565b60405161069d919061542c565b60405180910390f35b3480156106b257600080fd5b506106cd60048036038101906106c89190614b2b565b611e4c565b005b6106e960048036038101906106e49190614b2b565b6120b4565b005b3480156106f757600080fd5b50610712600480360381019061070d9190614b2b565b61245c565b60405161071f9190615792565b60405180910390f35b34801561073457600080fd5b5061074f600480360381019061074a9190614a22565b612474565b60405161075c9190615792565b60405180910390f35b34801561077157600080fd5b5061078c60048036038101906107879190614b2b565b6124a5565b6040516107999190615792565b60405180910390f35b3480156107ae57600080fd5b506107c960048036038101906107c49190614b2b565b6124bd565b6040516107da9594939291906158a5565b60405180910390f35b3480156107ef57600080fd5b5061080a600480360381019061080591906149e6565b612500565b005b34801561081857600080fd5b50610833600480360381019061082e91906148b2565b6125fd565b60405161084091906154d7565b60405180910390f35b34801561085557600080fd5b50610870600480360381019061086b9190614b2b565b61261d565b60405161087d91906154d7565b60405180910390f35b34801561089257600080fd5b506108ad60048036038101906108a89190614b54565b61263d565b6040516108ba91906154b5565b60405180910390f35b3480156108cf57600080fd5b506108ea60048036038101906108e59190614b2b565b6126e6565b005b61090660048036038101906109019190614966565b61276c565b005b34801561091457600080fd5b5061092f600480360381019061092a9190614b2b565b6127c3565b005b34801561093d57600080fd5b5061095860048036038101906109539190614be4565b612aca565b005b34801561096657600080fd5b50610981600480360381019061097c9190614b2b565b612d4a565b60405161098e9190615493565b60405180910390f35b3480156109a357600080fd5b506109be60048036038101906109b99190614b2b565b612dee565b005b3480156109cc57600080fd5b506109d5612e74565b6040516109e29190615792565b60405180910390f35b3480156109f757600080fd5b50610a126004803603810190610a0d9190614ac1565b612e7a565b005b348015610a2057600080fd5b50610a3b6004803603810190610a369190614b2b565b612f88565b005b348015610a4957600080fd5b50610a646004803603810190610a5f91906148db565b61300e565b604051610a7191906154d7565b60405180910390f35b348015610a8657600080fd5b50610aa16004803603810190610a9c91906148b2565b6130a2565b005b348015610aaf57600080fd5b50610aca6004803603810190610ac59190614be4565b61319a565b005b60166020528060005260406000206000915090508060000154908060010154908060020160009054906101000a900473ffffffffffffffffffffffffffffffffffffffff16908060030154908060040154908060050154905086565b600081600073ffffffffffffffffffffffffffffffffffffffff166007600083815260200190815260200160002060009054906101000a900473ffffffffffffffffffffffffffffffffffffffff1673ffffffffffffffffffffffffffffffffffffffff161415610bce576040517f08c379a0000000000000000000000000000000000000000000000000000000008152600401610bc590615552565b60405180910390fd5b6010600084815260200190815260200160002060009054906101000a900473ffffffffffffffffffffffffffffffffffffffff16915050919050565b8060006007600083815260200190815260200160002060009054906101000a900473ffffffffffffffffffffffffffffffffffffffff1690503373ffffffffffffffffffffffffffffffffffffffff168173ffffffffffffffffffffffffffffffffffffffff161480610d035750601160008273ffffffffffffffffffffffffffffffffffffffff1673ffffffffffffffffffffffffffffffffffffffff16815260200190815260200160002060003373ffffffffffffffffffffffffffffffffffffffff1673ffffffffffffffffffffffffffffffffffffffff16815260200190815260200160002060009054906101000a900460ff165b610d0c57600080fd5b82600073ffffffffffffffffffffffffffffffffffffffff166007600083815260200190815260200160002060009054906101000a900473ffffffffffffffffffffffffffffffffffffffff1673ffffffffffffffffffffffffffffffffffffffff161415610db0576040517f08c379a0000000000000000000000000000000000000000000000000000000008152600401610da790615552565b60405180910390fd5b6007600085815260200190815260200160002060009054906101000a900473ffffffffffffffffffffffffffffffffffffffff1673ffffffffffffffffffffffffffffffffffffffff163373ffffffffffffffffffffffffffffffffffffffff1614610e51576040517f08c379a0000000000000000000000000000000000000000000000000000000008152600401610e4890615752565b60405180910390fd5b846010600086815260200190815260200160002060006101000a81548173ffffffffffffffffffffffffffffffffffffffff021916908373ffffffffffffffffffffffffffffffffffffffff160217905550838573ffffffffffffffffffffffffffffffffffffffff163373ffffffffffffffffffffffffffffffffffffffff167f8c5be1e5ebec7d5bd14f71427d1e84f3dd0314c0f7b2291e5b200ac8c7c3b92560405160405180910390a45050505050565b60135481565b610f13613526565b73ffffffffffffffffffffffffffffffffffffffff16610f31611e23565b73ffffffffffffffffffffffffffffffffffffffff1614610f87576040517f08c379a0000000000000000000000000000000000000000000000000000000008152600401610f7e90615692565b60405180910390fd5b80600f60006101000a81548173ffffffffffffffffffffffffffffffffffffffff021916908373ffffffffffffffffffffffffffffffffffffffff16021790555050565b6060600860008373ffffffffffffffffffffffffffffffffffffffff1673ffffffffffffffffffffffffffffffffffffffff16815260200190815260200160002080548060200260200160405190810160405280929190818152602001828054801561105657602002820191906000526020600020905b815481526020019060010190808311611042575b50505050509050919050565b8133600080601860008581526020019081526020016000206004018054806020026020016040519081016040528092919081815260200182805480156110fd57602002820191906000526020600020905b8160009054906101000a900473ffffffffffffffffffffffffffffffffffffffff1673ffffffffffffffffffffffffffffffffffffffff16815260200190600101908083116110b3575b5050505050905060005b815181101561119c578373ffffffffffffffffffffffffffffffffffffffff16828281518110611160577f4e487b7100000000000000000000000000000000000000000000000000000000600052603260045260246000fd5b602002602001015173ffffffffffffffffffffffffffffffffffffffff16141561118957600192505b808061119490615b94565b915050611107565b5081156111de576040517f08c379a00000000000000000000000000000000000000000000000000000000081526004016111d590615652565b60405180910390fd5b843360006001905060005b835181101561127357600a600085838151811061122f577f4e487b7100000000000000000000000000000000000000000000000000000000600052603260045260246000fd5b6020026020010151815260200190815260200160002060040160009054906101000a900460ff161561126057600091505b808061126b90615b94565b9150506111e9565b50806112b4576040517f08c379a00000000000000000000000000000000000000000000000000000000081526004016112ab906155d2565b60405180910390fd5b34601860008b8152602001908152602001600020600301541461130c576040517f08c379a000000000000000000000000000000000000000000000000000000000815260040161130390615572565b60405180910390fd5b87601960008b815260200190815260200160002060003373ffffffffffffffffffffffffffffffffffffffff1673ffffffffffffffffffffffffffffffffffffffff168152602001908152602001600020908051906020019061137092919061468a565b5060005b88518110156113ff576001600a60008b84815181106113bc577f4e487b7100000000000000000000000000000000000000000000000000000000600052603260045260246000fd5b6020026020010151815260200190815260200160002060040160006101000a81548160ff02191690831515021790555080806113f790615b94565b915050611374565b50601860008a8152602001908152602001600020600401339080600181540180825580915050600190039060005260206000200160009091909190916101000a81548173ffffffffffffffffffffffffffffffffffffffff021916908373ffffffffffffffffffffffffffffffffffffffff160217905550601860008a815260200190815260200160002060010154601860008b81526020019081526020016000206004018054905014156114de576000601860008b815260200190815260200160002060050160006101000a81548160ff0219169083151502179055505b3373ffffffffffffffffffffffffffffffffffffffff167f45c4f9cbafe186141862608c493f28b823fde4c2142bedc3f5169961a73fdd228a6040516115249190615792565b60405180910390a2505050505050505050565b8060006007600083815260200190815260200160002060009054906101000a900473ffffffffffffffffffffffffffffffffffffffff1690503373ffffffffffffffffffffffffffffffffffffffff168173ffffffffffffffffffffffffffffffffffffffff16148061160857503373ffffffffffffffffffffffffffffffffffffffff166010600084815260200190815260200160002060009054906101000a900473ffffffffffffffffffffffffffffffffffffffff1673ffffffffffffffffffffffffffffffffffffffff16145b806116995750601160008273ffffffffffffffffffffffffffffffffffffffff1673ffffffffffffffffffffffffffffffffffffffff16815260200190815260200160002060003373ffffffffffffffffffffffffffffffffffffffff1673ffffffffffffffffffffffffffffffffffffffff16815260200190815260200160002060009054906101000a900460ff165b6116a257600080fd5b82600073ffffffffffffffffffffffffffffffffffffffff166007600083815260200190815260200160002060009054906101000a900473ffffffffffffffffffffffffffffffffffffffff1673ffffffffffffffffffffffffffffffffffffffff161415611746576040517f08c379a000000000000000000000000000000000000000000000000000000000815260040161173d90615552565b60405180910390fd5b61175186868661352e565b505050505050565b611761613526565b73ffffffffffffffffffffffffffffffffffffffff1661177f611e23565b73ffffffffffffffffffffffffffffffffffffffff16146117d5576040517f08c379a00000000000000000000000000000000000000000000000000000000081526004016117cc90615692565b60405180910390fd5b60005b815181101561186357600060186000848481518110611820577f4e487b7100000000000000000000000000000000000000000000000000000000600052603260045260246000fd5b6020026020010151815260200190815260200160002060050160016101000a81548160ff021916908315150217905550808061185b90615b94565b9150506117d8565b5050565b600b5434146118ab576040517f08c379a00000000000000000000000000000000000000000000000000000000081526004016118a290615592565b60405180910390fd5b6118b36137bb565b3373ffffffffffffffffffffffffffffffffffffffff167f1c3899f94ecc08f5f95b67284618b3ca13d80b66fbc5b7f07c6b8bd30f61fcbf60405160405180910390a2565b611900613526565b73ffffffffffffffffffffffffffffffffffffffff1661191e611e23565b73ffffffffffffffffffffffffffffffffffffffff1614611974576040517f08c379a000000000000000000000000000000000000000000000000000000000815260040161196b90615692565b60405180910390fd5b6000600f60009054906101000a900473ffffffffffffffffffffffffffffffffffffffff1690508073ffffffffffffffffffffffffffffffffffffffff166108fc839081150290604051600060405180830381858888f193505050501580156119e1573d6000803e3d6000fd5b505050565b6119ee613526565b73ffffffffffffffffffffffffffffffffffffffff16611a0c611e23565b73ffffffffffffffffffffffffffffffffffffffff1614611a62576040517f08c379a0000000000000000000000000000000000000000000000000000000008152600401611a5990615692565b60405180910390fd5b8060058190555050565b60186020528060005260406000206000915090508060000154908060010154908060020154908060030154908060050160009054906101000a900460ff16908060050160019054906101000a900460ff16908060050160029054906101000a900473ffffffffffffffffffffffffffffffffffffffff16905087565b611af0613526565b73ffffffffffffffffffffffffffffffffffffffff16611b0e611e23565b73ffffffffffffffffffffffffffffffffffffffff1614611b64576040517f08c379a0000000000000000000000000000000000000000000000000000000008152600401611b5b90615692565b60405180910390fd5b8060048190555050565b60076020528060005260406000206000915054906101000a900473ffffffffffffffffffffffffffffffffffffffff1681565b611bbc83838360405180602001604052806000815250613877565b505050565b60125481565b611bcf613526565b73ffffffffffffffffffffffffffffffffffffffff16611bed611e23565b73ffffffffffffffffffffffffffffffffffffffff1614611c43576040517f08c379a0000000000000000000000000000000000000000000000000000000008152600401611c3a90615692565b60405180910390fd5b80600b8190555050565b60006007600083815260200190815260200160002060009054906101000a900473ffffffffffffffffffffffffffffffffffffffff169050919050565b6000600d60008373ffffffffffffffffffffffffffffffffffffffff1673ffffffffffffffffffffffffffffffffffffffff168152602001908152602001600020549050919050565b611cdb613526565b73ffffffffffffffffffffffffffffffffffffffff16611cf9611e23565b73ffffffffffffffffffffffffffffffffffffffff1614611d4f576040517f08c379a0000000000000000000000000000000000000000000000000000000008152600401611d4690615692565b60405180910390fd5b611d596000613c4c565b565b600d6020528060005260406000206000915090505481565b611d7b613526565b73ffffffffffffffffffffffffffffffffffffffff16611d99611e23565b73ffffffffffffffffffffffffffffffffffffffff1614611def576040517f08c379a0000000000000000000000000000000000000000000000000000000008152600401611de690615692565b60405180910390fd5b6000611dfc848484613d10565b9050611e088582613e05565b60018054611e169190615a63565b6001819055505050505050565b60008060009054906101000a900473ffffffffffffffffffffffffffffffffffffffff16905090565b8060006007600083815260200190815260200160002060009054906101000a900473ffffffffffffffffffffffffffffffffffffffff1690503373ffffffffffffffffffffffffffffffffffffffff168173ffffffffffffffffffffffffffffffffffffffff1614611ef3576040517f08c379a0000000000000000000000000000000000000000000000000000000008152600401611eea90615712565b60405180910390fd5b600060166000601560008781526020019081526020016000205481526020019081526020016000206040518060c001604052908160008201548152602001600182015481526020016002820160009054906101000a900473ffffffffffffffffffffffffffffffffffffffff1673ffffffffffffffffffffffffffffffffffffffff1673ffffffffffffffffffffffffffffffffffffffff16815260200160038201548152602001600482015481526020016005820154815250509050600073ffffffffffffffffffffffffffffffffffffffff16816040015173ffffffffffffffffffffffffffffffffffffffff1614612023576040517f08c379a000000000000000000000000000000000000000000000000000000000815260040161201a90615512565b60405180910390fd5b42816060015111612069576040517f08c379a000000000000000000000000000000000000000000000000000000000815260040161206090615732565b60405180910390fd5b60006014600086815260200190815260200160002060006101000a81548160ff0219169083151502179055506000601560008681526020019081526020016000208190555050505050565b600060166000601560008581526020019081526020016000205481526020019081526020016000206040518060c001604052908160008201548152602001600182015481526020016002820160009054906101000a900473ffffffffffffffffffffffffffffffffffffffff1673ffffffffffffffffffffffffffffffffffffffff1673ffffffffffffffffffffffffffffffffffffffff168152602001600382015481526020016004820154815260200160058201548152505090503373ffffffffffffffffffffffffffffffffffffffff166007600084815260200190815260200160002060009054906101000a900473ffffffffffffffffffffffffffffffffffffffff1673ffffffffffffffffffffffffffffffffffffffff161415612213576040517f08c379a000000000000000000000000000000000000000000000000000000000815260040161220a90615672565b60405180910390fd5b6014600083815260200190815260200160002060009054906101000a900460ff16612273576040517f08c379a000000000000000000000000000000000000000000000000000000000815260040161226a906155f2565b60405180910390fd5b806020015134116122b9576040517f08c379a00000000000000000000000000000000000000000000000000000000081526004016122b0906155b2565b60405180910390fd5b600081604001519050600073ffffffffffffffffffffffffffffffffffffffff168173ffffffffffffffffffffffffffffffffffffffff1614612342578073ffffffffffffffffffffffffffffffffffffffff166108fc83602001519081150290604051600060405180830381858888f19350505050158015612340573d6000803e3d6000fd5b505b33601660008460000151815260200190815260200160002060020160006101000a81548173ffffffffffffffffffffffffffffffffffffffff021916908373ffffffffffffffffffffffffffffffffffffffff1602179055503460166000846000015181526020019081526020016000206001018190555060016016600084600001518152602001908152602001600020600501546123e19190615a63565b6016600084600001518152602001908152602001600020600501819055503373ffffffffffffffffffffffffffffffffffffffff16826080015183600001517f379fe8bc550443c6867a021184bb0e5a961f3fcd271160873847410c7bdd0e283460405161244f9190615792565b60405180910390a4505050565b60156020528060005260406000206000915090505481565b6008602052816000526040600020818154811061249057600080fd5b90600052602060002001600091509150505481565b60096020528060005260406000206000915090505481565b600a6020528060005260406000206000915090508060000154908060010154908060020154908060030154908060040160009054906101000a900460ff16905085565b80601160003373ffffffffffffffffffffffffffffffffffffffff1673ffffffffffffffffffffffffffffffffffffffff16815260200190815260200160002060008473ffffffffffffffffffffffffffffffffffffffff1673ffffffffffffffffffffffffffffffffffffffff16815260200190815260200160002060006101000a81548160ff0219169083151502179055508173ffffffffffffffffffffffffffffffffffffffff163373ffffffffffffffffffffffffffffffffffffffff167f17307eab39ab6107e8899845ad3d59bd9653f200f220920489ca2b5937696c31836040516125f191906154d7565b60405180910390a35050565b600e6020528060005260406000206000915054906101000a900460ff1681565b60146020528060005260406000206000915054906101000a900460ff1681565b60606019600084815260200190815260200160002060008373ffffffffffffffffffffffffffffffffffffffff1673ffffffffffffffffffffffffffffffffffffffff1681526020019081526020016000208054806020026020016040519081016040528092919081815260200182805480156126d957602002820191906000526020600020905b8154815260200190600101908083116126c5575b5050505050905092915050565b6126ee613526565b73ffffffffffffffffffffffffffffffffffffffff1661270c611e23565b73ffffffffffffffffffffffffffffffffffffffff1614612762576040517f08c379a000000000000000000000000000000000000000000000000000000000815260040161275990615692565b60405180910390fd5b8060038190555050565b6127bc85858585858080601f016020809104026020016040519081016040528093929190818152602001838380828437600081840152601f19601f82011690508083019250505050505050613877565b5050505050565b8060006007600083815260200190815260200160002060009054906101000a900473ffffffffffffffffffffffffffffffffffffffff1690503373ffffffffffffffffffffffffffffffffffffffff168173ffffffffffffffffffffffffffffffffffffffff161461286a576040517f08c379a000000000000000000000000000000000000000000000000000000000815260040161286190615712565b60405180910390fd5b600060166000601560008781526020019081526020016000205481526020019081526020016000206040518060c001604052908160008201548152602001600182015481526020016002820160009054906101000a900473ffffffffffffffffffffffffffffffffffffffff1673ffffffffffffffffffffffffffffffffffffffff1673ffffffffffffffffffffffffffffffffffffffff16815260200160038201548152602001600482015481526020016005820154815250509050428160600151111561296e576040517f08c379a0000000000000000000000000000000000000000000000000000000008152600401612965906154f2565b60405180910390fd5b600073ffffffffffffffffffffffffffffffffffffffff16816040015173ffffffffffffffffffffffffffffffffffffffff16146129ba576129b984826040015183602001516140c8565b5b806040015173ffffffffffffffffffffffffffffffffffffffff16816080015182600001517f774455444039da9400b7ba984f8cc1d8ac5e70c742d01a325cc97979802c15248460200151600073ffffffffffffffffffffffffffffffffffffffff16866040015173ffffffffffffffffffffffffffffffffffffffff161415604051612a489291906157ad565b60405180910390a460006014600086815260200190815260200160002060006101000a81548160ff0219169083151502179055506000600a600086815260200190815260200160002060040160006101000a81548160ff0219169083151502179055506000601560008681526020019081526020016000208190555050505050565b612ad2613526565b73ffffffffffffffffffffffffffffffffffffffff16612af0611e23565b73ffffffffffffffffffffffffffffffffffffffff1614612b46576040517f08c379a0000000000000000000000000000000000000000000000000000000008152600401612b3d90615692565b60405180910390fd5b60405180610100016040528060175481526020018481526020018381526020018281526020018467ffffffffffffffff811115612bac577f4e487b7100000000000000000000000000000000000000000000000000000000600052604160045260246000fd5b604051908082528060200260200182016040528015612bda5781602001602082028036833780820191505090505b508152602001600115158152602001600115158152602001600073ffffffffffffffffffffffffffffffffffffffff16815250601860006017548152602001908152602001600020600082015181600001556020820151816001015560408201518160020155606082015181600301556080820151816004019080519060200190612c669291906146d7565b5060a08201518160050160006101000a81548160ff02191690831515021790555060c08201518160050160016101000a81548160ff02191690831515021790555060e08201518160050160026101000a81548173ffffffffffffffffffffffffffffffffffffffff021916908373ffffffffffffffffffffffffffffffffffffffff1602179055509050507f80b55cf2f646df8d85b80ac067c88c4aa6354a860d6cb55c7e234cf23861627f601754848484604051612d289493929190615860565b60405180910390a16001601754612d3f9190615a63565b601781905550505050565b606060186000838152602001908152602001600020600401805480602002602001604051908101604052809291908181526020018280548015612de257602002820191906000526020600020905b8160009054906101000a900473ffffffffffffffffffffffffffffffffffffffff1673ffffffffffffffffffffffffffffffffffffffff1681526020019060010190808311612d98575b50505050509050919050565b612df6613526565b73ffffffffffffffffffffffffffffffffffffffff16612e14611e23565b73ffffffffffffffffffffffffffffffffffffffff1614612e6a576040517f08c379a0000000000000000000000000000000000000000000000000000000008152600401612e6190615692565b60405180910390fd5b8060068190555050565b60175481565b612e82613526565b73ffffffffffffffffffffffffffffffffffffffff16612ea0611e23565b73ffffffffffffffffffffffffffffffffffffffff1614612ef6576040517f08c379a0000000000000000000000000000000000000000000000000000000008152600401612eed90615692565b60405180910390fd5b60005b8151811015612f8457600060186000848481518110612f41577f4e487b7100000000000000000000000000000000000000000000000000000000600052603260045260246000fd5b6020026020010151815260200190815260200160002060050160006101000a81548160ff0219169083151502179055508080612f7c90615b94565b915050612ef9565b5050565b612f90613526565b73ffffffffffffffffffffffffffffffffffffffff16612fae611e23565b73ffffffffffffffffffffffffffffffffffffffff1614613004576040517f08c379a0000000000000000000000000000000000000000000000000000000008152600401612ffb90615692565b60405180910390fd5b80600c8190555050565b6000601160008473ffffffffffffffffffffffffffffffffffffffff1673ffffffffffffffffffffffffffffffffffffffff16815260200190815260200160002060008373ffffffffffffffffffffffffffffffffffffffff1673ffffffffffffffffffffffffffffffffffffffff16815260200190815260200160002060009054906101000a900460ff16905092915050565b6130aa613526565b73ffffffffffffffffffffffffffffffffffffffff166130c8611e23565b73ffffffffffffffffffffffffffffffffffffffff161461311e576040517f08c379a000000000000000000000000000000000000000000000000000000000815260040161311590615692565b60405180910390fd5b600073ffffffffffffffffffffffffffffffffffffffff168173ffffffffffffffffffffffffffffffffffffffff16141561318e576040517f08c379a000000000000000000000000000000000000000000000000000000000815260040161318590615532565b60405180910390fd5b61319781613c4c565b50565b806012548111156131e0576040517f08c379a00000000000000000000000000000000000000000000000000000000081526004016131d7906156b2565b60405180910390fd5b8360006007600083815260200190815260200160002060009054906101000a900473ffffffffffffffffffffffffffffffffffffffff1690503373ffffffffffffffffffffffffffffffffffffffff168173ffffffffffffffffffffffffffffffffffffffff1614613287576040517f08c379a000000000000000000000000000000000000000000000000000000000815260040161327e90615712565b60405180910390fd5b6014600087815260200190815260200160002060009054906101000a900460ff16156132e8576040517f08c379a00000000000000000000000000000000000000000000000000000000081526004016132df906156d2565b60405180910390fd5b600a600087815260200190815260200160002060040160009054906101000a900460ff161561334c576040517f08c379a000000000000000000000000000000000000000000000000000000000815260040161334390615772565b60405180910390fd5b60006040518060c001604052806013548152602001878152602001600073ffffffffffffffffffffffffffffffffffffffff16815260200186426133909190615a63565b81526020018881526020016000815250905080601660006013548152602001908152602001600020600082015181600001556020820151816001015560408201518160020160006101000a81548173ffffffffffffffffffffffffffffffffffffffff021916908373ffffffffffffffffffffffffffffffffffffffff160217905550606082015181600301556080820151816004015560a082015181600501559050506001600a600089815260200190815260200160002060040160006101000a81548160ff021916908315150217905550601354601560008981526020019081526020016000208190555060016014600089815260200190815260200160002060006101000a81548160ff0219169083151502179055503373ffffffffffffffffffffffffffffffffffffffff16876013547f7dfee34cc48a7ad6a025da536d05885e750c439dbd20d390192dec1f2f4c04708989426134f29190615a63565b6040516135009291906157d6565b60405180910390a460016013546135179190615a63565b60138190555050505050505050565b600033905090565b6010600082815260200190815260200160002060006101000a81549073ffffffffffffffffffffffffffffffffffffffff021916905560006009600083815260200190815260200160002054905066038d7ea4c67fff600860006007600086815260200190815260200160002060009054906101000a900473ffffffffffffffffffffffffffffffffffffffff1673ffffffffffffffffffffffffffffffffffffffff1673ffffffffffffffffffffffffffffffffffffffff168152602001908152602001600020828154811061362e577f4e487b7100000000000000000000000000000000000000000000000000000000600052603260045260246000fd5b9060005260206000200181905550826007600084815260200190815260200160002060006101000a81548173ffffffffffffffffffffffffffffffffffffffff021916908373ffffffffffffffffffffffffffffffffffffffff160217905550600860008473ffffffffffffffffffffffffffffffffffffffff1673ffffffffffffffffffffffffffffffffffffffff1681526020019081526020016000208290806001815401808255809150506001900390600052602060002001600090919091909150556001600860008573ffffffffffffffffffffffffffffffffffffffff1673ffffffffffffffffffffffffffffffffffffffff168152602001908152602001600020805490506137439190615ab9565b6009600084815260200190815260200160002081905550818373ffffffffffffffffffffffffffffffffffffffff168573ffffffffffffffffffffffffffffffffffffffff167fddf252ad1be2c89b69c2b068fc378daa952ba7f163c4a11628f55a4df523b3ef60405160405180910390a450505050565b60005b600c548110156137e4576137d181614344565b80806137dc90615b94565b9150506137be565b50600c54600d60003373ffffffffffffffffffffffffffffffffffffffff1673ffffffffffffffffffffffffffffffffffffffff168152602001908152602001600020546138329190615a63565b600d60003373ffffffffffffffffffffffffffffffffffffffff1673ffffffffffffffffffffffffffffffffffffffff16815260200190815260200160002081905550565b8160006007600083815260200190815260200160002060009054906101000a900473ffffffffffffffffffffffffffffffffffffffff1690503373ffffffffffffffffffffffffffffffffffffffff168173ffffffffffffffffffffffffffffffffffffffff16148061394857503373ffffffffffffffffffffffffffffffffffffffff166010600084815260200190815260200160002060009054906101000a900473ffffffffffffffffffffffffffffffffffffffff1673ffffffffffffffffffffffffffffffffffffffff16145b806139d95750601160008273ffffffffffffffffffffffffffffffffffffffff1673ffffffffffffffffffffffffffffffffffffffff16815260200190815260200160002060003373ffffffffffffffffffffffffffffffffffffffff1673ffffffffffffffffffffffffffffffffffffffff16815260200190815260200160002060009054906101000a900460ff165b6139e257600080fd5b83600073ffffffffffffffffffffffffffffffffffffffff166007600083815260200190815260200160002060009054906101000a900473ffffffffffffffffffffffffffffffffffffffff1673ffffffffffffffffffffffffffffffffffffffff161415613a86576040517f08c379a0000000000000000000000000000000000000000000000000000000008152600401613a7d90615552565b60405180910390fd5b600073ffffffffffffffffffffffffffffffffffffffff168673ffffffffffffffffffffffffffffffffffffffff161415613af6576040517f08c379a0000000000000000000000000000000000000000000000000000000008152600401613aed906156f2565b60405180910390fd5b613b0187878761352e565b613b208673ffffffffffffffffffffffffffffffffffffffff1661459c565b15613c435760008673ffffffffffffffffffffffffffffffffffffffff1663150b7a02338a89896040518563ffffffff1660e01b8152600401613b669493929190615447565b602060405180830381600087803b158015613b8057600080fd5b505af1158015613b94573d6000803e3d6000fd5b505050506040513d601f19601f82011682018060405250810190613bb89190614b02565b905063150b7a0260e01b7bffffffffffffffffffffffffffffffffffffffffffffffffffffffff1916817bffffffffffffffffffffffffffffffffffffffffffffffffffffffff191614613c41576040517f08c379a0000000000000000000000000000000000000000000000000000000008152600401613c3890615632565b60405180910390fd5b505b50505050505050565b60008060009054906101000a900473ffffffffffffffffffffffffffffffffffffffff169050816000806101000a81548173ffffffffffffffffffffffffffffffffffffffff021916908373ffffffffffffffffffffffffffffffffffffffff1602179055508173ffffffffffffffffffffffffffffffffffffffff168173ffffffffffffffffffffffffffffffffffffffff167f8be0079c531659141344cd1fd0a4f28419497f9722a3daafe3b4186f6b6457e060405160405180910390a35050565b6000806040518060a00160405280600154815260200186815260200184815260200185815260200160001515815250905080600a600060015481526020019081526020016000206000820151816000015560208201518160010155604082015181600201556060820151816003015560808201518160040160006101000a81548160ff0219169083151502179055509050503373ffffffffffffffffffffffffffffffffffffffff167fa47f2b648fe6fee6023b9227628b751649f165f204c8a6e75d3146aca5b1b8a6600154868887604051613df09493929190615860565b60405180910390a26001549150509392505050565b600073ffffffffffffffffffffffffffffffffffffffff168273ffffffffffffffffffffffffffffffffffffffff161415613e75576040517f08c379a0000000000000000000000000000000000000000000000000000000008152600401613e6c906156f2565b60405180910390fd5b600073ffffffffffffffffffffffffffffffffffffffff166007600083815260200190815260200160002060009054906101000a900473ffffffffffffffffffffffffffffffffffffffff1673ffffffffffffffffffffffffffffffffffffffff1614613f17576040517f08c379a0000000000000000000000000000000000000000000000000000000008152600401613f0e90615612565b60405180910390fd5b816007600083815260200190815260200160002060006101000a81548173ffffffffffffffffffffffffffffffffffffffff021916908373ffffffffffffffffffffffffffffffffffffffff160217905550600860008373ffffffffffffffffffffffffffffffffffffffff1673ffffffffffffffffffffffffffffffffffffffff1681526020019081526020016000208190806001815401808255809150506001900390600052602060002001600090919091909150556001600860008473ffffffffffffffffffffffffffffffffffffffff1673ffffffffffffffffffffffffffffffffffffffff1681526020019081526020016000208054905061401e9190615ab9565b60096000838152602001908152602001600020819055506001600d60008473ffffffffffffffffffffffffffffffffffffffff1673ffffffffffffffffffffffffffffffffffffffff168152602001908152602001600020546140819190615a63565b600d60008473ffffffffffffffffffffffffffffffffffffffff1673ffffffffffffffffffffffffffffffffffffffff168152602001908152602001600020819055505050565b60006007600085815260200190815260200160002060009054906101000a900473ffffffffffffffffffffffffffffffffffffffff16905060006009600086815260200190815260200160002054905066038d7ea4c67fff600860006007600089815260200190815260200160002060009054906101000a900473ffffffffffffffffffffffffffffffffffffffff1673ffffffffffffffffffffffffffffffffffffffff1673ffffffffffffffffffffffffffffffffffffffff16815260200190815260200160002082815481106141ca577f4e487b7100000000000000000000000000000000000000000000000000000000600052603260045260246000fd5b9060005260206000200181905550600860008573ffffffffffffffffffffffffffffffffffffffff1673ffffffffffffffffffffffffffffffffffffffff1681526020019081526020016000208590806001815401808255809150506001900390600052602060002001600090919091909150556001600860008673ffffffffffffffffffffffffffffffffffffffff1673ffffffffffffffffffffffffffffffffffffffff1681526020019081526020016000208054905061428d9190615ab9565b6009600087815260200190815260200160002081905550836007600087815260200190815260200160002060006101000a81548173ffffffffffffffffffffffffffffffffffffffff021916908373ffffffffffffffffffffffffffffffffffffffff1602179055508173ffffffffffffffffffffffffffffffffffffffff166108fc849081150290604051600060405180830381858888f1935050505015801561433c573d6000803e3d6000fd5b505050505050565b600061434f826145e7565b905060008190506000600354836143669190615be7565b9050600061437384614622565b905060006040518060a00160405280600154815260200184815260200185815260200183815260200160001515815250905080600a600060015481526020019081526020016000206000820151816000015560208201518160010155604082015181600201556060820151816003015560808201518160040160006101000a81548160ff0219169083151502179055509050503373ffffffffffffffffffffffffffffffffffffffff167fa47f2b648fe6fee6023b9227628b751649f165f204c8a6e75d3146aca5b1b8a66001548486886040516144549493929190615860565b60405180910390a23360076000600154815260200190815260200160002060006101000a81548173ffffffffffffffffffffffffffffffffffffffff021916908373ffffffffffffffffffffffffffffffffffffffff160217905550600860003373ffffffffffffffffffffffffffffffffffffffff1673ffffffffffffffffffffffffffffffffffffffff16815260200190815260200160002060015490806001815401808255809150506001900390600052602060002001600090919091909150556001600860003373ffffffffffffffffffffffffffffffffffffffff1673ffffffffffffffffffffffffffffffffffffffff168152602001908152602001600020805490506145679190615ab9565b600960006001548152602001908152602001600020819055506001805461458e9190615a63565b600181905550505050505050565b60008060007fc5d2460186f7233c927e7db2dcc703c0e500b653ca82273b7bfad8045d85a47060001b9050833f91506000801b82141580156145de5750808214155b92505050919050565b600044426002548460405160200161460294939291906153de565b6040516020818303038152906040528051906020012060001c9050919050565b600080600654836146339190615be7565b14156146425760039050614685565b6000600554836146529190615be7565b14156146615760029050614685565b6000600454836146719190615be7565b14156146805760019050614685565b600090505b919050565b8280548282559060005260206000209081019282156146c6579160200282015b828111156146c55782518255916020019190600101906146aa565b5b5090506146d39190614761565b5090565b828054828255906000526020600020908101928215614750579160200282015b8281111561474f5782518260006101000a81548173ffffffffffffffffffffffffffffffffffffffff021916908373ffffffffffffffffffffffffffffffffffffffff160217905550916020019190600101906146f7565b5b50905061475d9190614761565b5090565b5b8082111561477a576000816000905550600101614762565b5090565b600061479161478c84615998565b615967565b905080838252602082019050828560208602820111156147b057600080fd5b60005b858110156147e057816147c6888261489d565b8452602084019350602083019250506001810190506147b3565b5050509392505050565b6000813590506147f981615cb6565b92915050565b600082601f83011261481057600080fd5b813561482084826020860161477e565b91505092915050565b60008135905061483881615ccd565b92915050565b60008151905061484d81615ce4565b92915050565b60008083601f84011261486557600080fd5b8235905067ffffffffffffffff81111561487e57600080fd5b60208301915083600182028301111561489657600080fd5b9250929050565b6000813590506148ac81615cfb565b92915050565b6000602082840312156148c457600080fd5b60006148d2848285016147ea565b91505092915050565b600080604083850312156148ee57600080fd5b60006148fc858286016147ea565b925050602061490d858286016147ea565b9150509250929050565b60008060006060848603121561492c57600080fd5b600061493a868287016147ea565b935050602061494b868287016147ea565b925050604061495c8682870161489d565b9150509250925092565b60008060008060006080868803121561497e57600080fd5b600061498c888289016147ea565b955050602061499d888289016147ea565b94505060406149ae8882890161489d565b935050606086013567ffffffffffffffff8111156149cb57600080fd5b6149d788828901614853565b92509250509295509295909350565b600080604083850312156149f957600080fd5b6000614a07858286016147ea565b9250506020614a1885828601614829565b9150509250929050565b60008060408385031215614a3557600080fd5b6000614a43858286016147ea565b9250506020614a548582860161489d565b9150509250929050565b60008060008060808587031215614a7457600080fd5b6000614a82878288016147ea565b9450506020614a938782880161489d565b9350506040614aa48782880161489d565b9250506060614ab58782880161489d565b91505092959194509250565b600060208284031215614ad357600080fd5b600082013567ffffffffffffffff811115614aed57600080fd5b614af9848285016147ff565b91505092915050565b600060208284031215614b1457600080fd5b6000614b228482850161483e565b91505092915050565b600060208284031215614b3d57600080fd5b6000614b4b8482850161489d565b91505092915050565b60008060408385031215614b6757600080fd5b6000614b758582860161489d565b9250506020614b86858286016147ea565b9150509250929050565b60008060408385031215614ba357600080fd5b6000614bb18582860161489d565b925050602083013567ffffffffffffffff811115614bce57600080fd5b614bda858286016147ff565b9150509250929050565b600080600060608486031215614bf957600080fd5b6000614c078682870161489d565b9350506020614c188682870161489d565b9250506040614c298682870161489d565b9150509250925092565b6000614c3f8383614c63565b60208301905092915050565b6000614c5783836153a9565b60208301905092915050565b614c6c81615aed565b82525050565b614c7b81615aed565b82525050565b6000614c8c826159e4565b614c968185615a1f565b9350614ca1836159c4565b8060005b83811015614cd2578151614cb98882614c33565b9750614cc483615a05565b925050600181019050614ca5565b5085935050505092915050565b6000614cea826159ef565b614cf48185615a30565b9350614cff836159d4565b8060005b83811015614d30578151614d178882614c4b565b9750614d2283615a12565b925050600181019050614d03565b5085935050505092915050565b614d4681615aff565b82525050565b6000614d57826159fa565b614d618185615a41565b9350614d71818560208601615b61565b614d7a81615ca5565b840191505092915050565b6000614d92601883615a52565b91507f41554354494f4e204e4f54205945542046494e495348454400000000000000006000830152602082019050919050565b6000614dd2602683615a52565b91507f43414e4e4f542043414e43454c20414e2041554354494f4e205448415420484160008301527f53204249445300000000000000000000000000000000000000000000000000006020830152604082019050919050565b6000614e38602683615a52565b91507f4f776e61626c653a206e6577206f776e657220697320746865207a65726f206160008301527f64647265737300000000000000000000000000000000000000000000000000006020830152604082019050919050565b6000614e9e600c83615a52565b91507f494e56414c4944204341524400000000000000000000000000000000000000006000830152602082019050919050565b6000614ede601183615a52565b91507f494e56414c494420454e545259204645450000000000000000000000000000006000830152602082019050919050565b6000614f1e602083615a52565b91507f56414c55452053454e54204e4f5420455155414c20544f2043415244204645456000830152602082019050919050565b6000614f5e601a83615a52565b91507f424944204c4f574552205448414e2043555252454e54204249440000000000006000830152602082019050919050565b6000614f9e603183615a52565b91507f594f55204841564520454e54455245442041204341524420544841542049532060008301527f414c524541445920494e20412047414d450000000000000000000000000000006020830152604082019050919050565b6000615004601183615a52565b91507f43415244204e4f5420464f522053414c450000000000000000000000000000006000830152602082019050919050565b6000615044601383615a52565b91507f4341524420414c524541445920455849535453000000000000000000000000006000830152602082019050919050565b6000615084601283615a52565b91507f43414e4e4f542052454345495645204e465400000000000000000000000000006000830152602082019050919050565b60006150c4602183615a52565b91507f594f55204841564520414c5245414459204a4f494e454420544849532047414d60008301527f45000000000000000000000000000000000000000000000000000000000000006020830152604082019050919050565b600061512a601c83615a52565b91507f43414e204e4f5420424944204f4e20434152445320594f55204f574e000000006000830152602082019050919050565b600061516a602083615a52565b91507f4f776e61626c653a2063616c6c6572206973206e6f7420746865206f776e65726000830152602082019050919050565b60006151aa601883615a52565b91507f424944204455524154494f4e204e4f5420414c4c4f57454400000000000000006000830152602082019050919050565b60006151ea602083615a52565b91507f434152442049532043555252454e544c5920555020464f522041554354494f4e6000830152602082019050919050565b600061522a600c83615a52565b91507f5a45524f204144445245535300000000000000000000000000000000000000006000830152602082019050919050565b600061526a602783615a52565b91507f4f4e4c592043415244204f574e45522043414e20504f535420495420464f522060008301527f41554354494f4e000000000000000000000000000000000000000000000000006020830152604082019050919050565b60006152d0602d83615a52565b91507f43414e4e4f542043414e43454c20414e2041554354494f4e204146544552204960008301527f54204841532045585049524544000000000000000000000000000000000000006020830152604082019050919050565b6000615336601783615a52565b91507f4e4f542043555252454e5420544f4b454e204f574e45520000000000000000006000830152602082019050919050565b6000615376601883615a52565b91507f434152442049532043555252454e544c5920494e2055534500000000000000006000830152602082019050919050565b6153b281615b57565b82525050565b6153c181615b57565b82525050565b6153d86153d382615b57565b615bdd565b82525050565b60006153ea82876153c7565b6020820191506153fa82866153c7565b60208201915061540a82856153c7565b60208201915061541a82846153c7565b60208201915081905095945050505050565b60006020820190506154416000830184614c72565b92915050565b600060808201905061545c6000830187614c72565b6154696020830186614c72565b61547660408301856153b8565b81810360608301526154888184614d4c565b905095945050505050565b600060208201905081810360008301526154ad8184614c81565b905092915050565b600060208201905081810360008301526154cf8184614cdf565b905092915050565b60006020820190506154ec6000830184614d3d565b92915050565b6000602082019050818103600083015261550b81614d85565b9050919050565b6000602082019050818103600083015261552b81614dc5565b9050919050565b6000602082019050818103600083015261554b81614e2b565b9050919050565b6000602082019050818103600083015261556b81614e91565b9050919050565b6000602082019050818103600083015261558b81614ed1565b9050919050565b600060208201905081810360008301526155ab81614f11565b9050919050565b600060208201905081810360008301526155cb81614f51565b9050919050565b600060208201905081810360008301526155eb81614f91565b9050919050565b6000602082019050818103600083015261560b81614ff7565b9050919050565b6000602082019050818103600083015261562b81615037565b9050919050565b6000602082019050818103600083015261564b81615077565b9050919050565b6000602082019050818103600083015261566b816150b7565b9050919050565b6000602082019050818103600083015261568b8161511d565b9050919050565b600060208201905081810360008301526156ab8161515d565b9050919050565b600060208201905081810360008301526156cb8161519d565b9050919050565b600060208201905081810360008301526156eb816151dd565b9050919050565b6000602082019050818103600083015261570b8161521d565b9050919050565b6000602082019050818103600083015261572b8161525d565b9050919050565b6000602082019050818103600083015261574b816152c3565b9050919050565b6000602082019050818103600083015261576b81615329565b9050919050565b6000602082019050818103600083015261578b81615369565b9050919050565b60006020820190506157a760008301846153b8565b92915050565b60006040820190506157c260008301856153b8565b6157cf6020830184614d3d565b9392505050565b60006040820190506157eb60008301856153b8565b6157f860208301846153b8565b9392505050565b600060c08201905061581460008301896153b8565b61582160208301886153b8565b61582e6040830187614c72565b61583b60608301866153b8565b61584860808301856153b8565b61585560a08301846153b8565b979650505050505050565b600060808201905061587560008301876153b8565b61588260208301866153b8565b61588f60408301856153b8565b61589c60608301846153b8565b95945050505050565b600060a0820190506158ba60008301886153b8565b6158c760208301876153b8565b6158d460408301866153b8565b6158e160608301856153b8565b6158ee6080830184614d3d565b9695505050505050565b600060e08201905061590d600083018a6153b8565b61591a60208301896153b8565b61592760408301886153b8565b61593460608301876153b8565b6159416080830186614d3d565b61594e60a0830185614d3d565b61595b60c0830184614c72565b98975050505050505050565b6000604051905081810181811067ffffffffffffffff8211171561598e5761598d615c76565b5b8060405250919050565b600067ffffffffffffffff8211156159b3576159b2615c76565b5b602082029050602081019050919050565b6000819050602082019050919050565b6000819050602082019050919050565b600081519050919050565b600081519050919050565b600081519050919050565b6000602082019050919050565b6000602082019050919050565b600082825260208201905092915050565b600082825260208201905092915050565b600082825260208201905092915050565b600082825260208201905092915050565b6000615a6e82615b57565b9150615a7983615b57565b9250827fffffffffffffffffffffffffffffffffffffffffffffffffffffffffffffffff03821115615aae57615aad615c18565b5b828201905092915050565b6000615ac482615b57565b9150615acf83615b57565b925082821015615ae257615ae1615c18565b5b828203905092915050565b6000615af882615b37565b9050919050565b60008115159050919050565b60007fffffffff0000000000000000000000000000000000000000000000000000000082169050919050565b600073ffffffffffffffffffffffffffffffffffffffff82169050919050565b6000819050919050565b60005b83811015615b7f578082015181840152602081019050615b64565b83811115615b8e576000848401525b50505050565b6000615b9f82615b57565b91507fffffffffffffffffffffffffffffffffffffffffffffffffffffffffffffffff821415615bd257615bd1615c18565b5b600182019050919050565b6000819050919050565b6000615bf282615b57565b9150615bfd83615b57565b925082615c0d57615c0c615c47565b5b828206905092915050565b7f4e487b7100000000000000000000000000000000000000000000000000000000600052601160045260246000fd5b7f4e487b7100000000000000000000000000000000000000000000000000000000600052601260045260246000fd5b7f4e487b7100000000000000000000000000000000000000000000000000000000600052604160045260246000fd5b6000601f19601f8301169050919050565b615cbf81615aed565b8114615cca57600080fd5b50565b615cd681615aff565b8114615ce157600080fd5b50565b615ced81615b0b565b8114615cf857600080fd5b50565b615d0481615b57565b8114615d0f57600080fd5b5056fea264697066735822122040f6a7896998bfbc5b385d5084406ab88c1fdb2c4412946fb31d73eddb2a41f164736f6c63430008000033",
  "immutableReferences": {},
  "source": "// SPDX-License-Identifier: UNLICENSED\npragma solidity ^0.8.0;\n\nimport \"./card-auction.sol\";\n\ncontract CardGame is CardAuction {\n\n    uint public gameId;\n    mapping(uint => Game) public gameIdToGame;\n    mapping(uint => mapping(address => uint[])) gameIdToPlayerCards;\n    mapping(uint => bool) cardIsPlayable;\n\n    struct Game {\n        uint gameId;\n        uint numberOfPlayers;\n        uint numberOfCardsPerPlayer;\n        uint entryFee;\n        address[] players;\n        bool open;\n        bool active; \n        address winner;\n    }\n\n    event GameCreated(uint gameId, uint playerCount, uint cardCount, uint entryFee);\n    event GameJoined(uint gameId, address indexed player);\n\n    modifier checkPlayersInGame(uint _gameId, address _player) {\n        bool playerInGame = false;\n        address[] memory players = gameIdToGame[_gameId].players;\n        for(uint i = 0; i < players.length; i++){\n            if(players[i] == _player) {\n                playerInGame = true;\n            }\n        }\n        require(!playerInGame, \"YOU HAVE ALREADY JOINED THIS GAME\");\n        _;\n    }\n\n    modifier checkCardAvailability(uint[] memory _cardIds, address _player) {\n        bool canPlay = true;\n        for(uint i = 0; i < _cardIds.length; i++) {\n            if(cardIdToCard[_cardIds[i]].inUse) {\n                canPlay = false;\n            }\n        }\n        require(canPlay, \"YOU HAVE ENTERED A CARD THAT IS ALREADY IN A GAME\");\n        _;\n    }\n\n    function createGame(uint _playerCount, uint _cardCount, uint _entryFee) external onlyOwner {\n        gameIdToGame[gameId] = Game(gameId, _playerCount, _cardCount, _entryFee, new address[](_playerCount), true, true, address(0));\n        emit GameCreated(gameId, _playerCount, _cardCount, _entryFee);\n        gameId = gameId + 1;\n    }\n\n    function joinGame(uint _gameId, uint[] memory _cardIds) external payable checkPlayersInGame(_gameId, msg.sender) checkCardAvailability(_cardIds, msg.sender) {\n        require(gameIdToGame[_gameId].entryFee == msg.value, \"INVALID ENTRY FEE\");\n\n        gameIdToPlayerCards[_gameId][msg.sender] = _cardIds;\n        for(uint i = 0; i < _cardIds.length; i++) {\n            cardIdToCard[_cardIds[i]].inUse = true;\n        }\n        gameIdToGame[_gameId].players.push(msg.sender);\n        if(gameIdToGame[_gameId].players.length == gameIdToGame[_gameId].numberOfPlayers) {\n            gameIdToGame[_gameId].open = false;\n        }\n        emit GameJoined(_gameId, msg.sender);\n    }\n\n    function closeGames(uint[] memory _gameIds) external onlyOwner {\n        for(uint i = 0; i < _gameIds.length; i++) {\n            gameIdToGame[_gameIds[i]].open = false;\n        }\n    }\n\n    function endGames(uint[] memory _gameIds) external onlyOwner {\n        for(uint i = 0; i < _gameIds.length; i++) {\n            gameIdToGame[_gameIds[i]].active = false;\n        }\n    }\n\n    function getPlayersByGameId(uint _gameId) external view returns(address[] memory) {\n        return gameIdToGame[_gameId].players;\n    }\n\n    function getCardEntriesByPlayer(uint _gameId, address _user) external view returns(uint[] memory) {\n        return gameIdToPlayerCards[_gameId][_user];\n    }\n}",
  "sourcePath": "/Users/tkma4fr/Development/solidity-app/contracts/card-game.sol",
  "compiler": {
    "name": "solc",
    "version": "0.8.0+commit.c7dfd78e.Emscripten.clang"
  },
  "schemaVersion": "3.4.2",
  "updatedAt": "2021-10-20T23:01:46.465Z",
  "networkType": "ethereum",
  "devdoc": {
    "kind": "dev",
    "methods": {
      "approve(address,uint256)": {
        "details": "The zero address indicates there is no approved address.  Throws unless `msg.sender` is the current NFT owner, or an authorized  operator of the current owner.",
        "params": {
          "_approved": "The new approved NFT controller",
          "_tokenId": "The NFT to approve"
        }
      },
      "balanceOf(address)": {
        "details": "NFTs assigned to the zero address are considered invalid, and this  function throws for queries about the zero address.",
        "params": {
          "_owner": "An address for whom to query the balance"
        },
        "returns": {
          "_0": "The number of NFTs owned by `_owner`, possibly zero"
        }
      },
      "getApproved(uint256)": {
        "details": "Throws if `_tokenId` is not a valid NFT.",
        "params": {
          "_tokenId": "The NFT to find the approved address for"
        },
        "returns": {
          "_0": "The approved address for this NFT, or the zero address if there is none"
        }
      },
      "isApprovedForAll(address,address)": {
        "params": {
          "_operator": "The address that acts on behalf of the owner",
          "_owner": "The address that owns the NFTs"
        },
        "returns": {
          "_0": "True if `_operator` is an approved operator for `_owner`, false otherwise"
        }
      },
      "owner()": {
        "details": "Returns the address of the current owner."
      },
      "ownerOf(uint256)": {
        "details": "NFTs assigned to zero address are considered invalid, and queries  about them do throw.",
        "params": {
          "_tokenId": "The identifier for an NFT"
        },
        "returns": {
          "_0": "The address of the owner of the NFT"
        }
      },
      "renounceOwnership()": {
        "details": "Leaves the contract without owner. It will not be possible to call `onlyOwner` functions anymore. Can only be called by the current owner. NOTE: Renouncing ownership will leave the contract without an owner, thereby removing any functionality that is only available to the owner."
      },
      "safeTransferFrom(address,address,uint256)": {
        "details": "This works identically to the other function with an extra data parameter,  except this function just sets data to \"\".",
        "params": {
          "_from": "The current owner of the NFT",
          "_to": "The new owner",
          "_tokenId": "The NFT to transfer"
        }
      },
      "setApprovalForAll(address,bool)": {
        "details": "Emits the ApprovalForAll event. The contract MUST allow  multiple operators per owner.",
        "params": {
          "_approved": "True if the operator is approved, false to revoke approval",
          "_operator": "Address to add to the set of authorized operators"
        }
      },
      "transferFrom(address,address,uint256)": {
        "details": "Throws unless `msg.sender` is the current owner, an authorized  operator, or the approved address for this NFT. Throws if `_from` is  not the current owner. Throws if `_to` is the zero address. Throws if  `_tokenId` is not a valid NFT.",
        "params": {
          "_from": "The current owner of the NFT",
          "_to": "The new owner",
          "_tokenId": "The NFT to transfer"
        }
      },
      "transferOwnership(address)": {
        "details": "Transfers ownership of the contract to a new account (`newOwner`). Can only be called by the current owner."
      }
    },
    "version": 1
  },
  "userdoc": {
    "kind": "user",
    "methods": {
      "approve(address,uint256)": {
        "notice": "Change or reaffirm the approved address for an NFT"
      },
      "balanceOf(address)": {
        "notice": "Count all NFTs assigned to an owner"
      },
      "getApproved(uint256)": {
        "notice": "Get the approved address for a single NFT"
      },
      "isApprovedForAll(address,address)": {
        "notice": "Query if an address is an authorized operator for another address"
      },
      "ownerOf(uint256)": {
        "notice": "Find the owner of an NFT"
      },
      "safeTransferFrom(address,address,uint256)": {
        "notice": "Transfers the ownership of an NFT from one address to another address"
      },
      "setApprovalForAll(address,bool)": {
        "notice": "Enable or disable approval for a third party (\"operator\") to manage  all of `msg.sender`'s assets"
      },
      "transferFrom(address,address,uint256)": {
        "notice": "Transfer ownership of an NFT -- THE CALLER IS RESPONSIBLE  TO CONFIRM THAT `_to` IS CAPABLE OF RECEIVING NFTS OR ELSE  THEY MAY BE PERMANENTLY LOST"
      }
    },
    "version": 1
  }
}