{
  "contractName": "CardAuction",
  "abi": [
    {
      "anonymous": false,
      "inputs": [
        {
          "indexed": true,
          "internalType": "address",
          "name": "_owner",
          "type": "address"
        },
        {
          "indexed": true,
          "internalType": "address",
          "name": "_approved",
          "type": "address"
        },
        {
          "indexed": true,
          "internalType": "uint256",
          "name": "_tokenId",
          "type": "uint256"
        }
      ],
      "name": "Approval",
      "type": "event"
    },
    {
      "anonymous": false,
      "inputs": [
        {
          "indexed": true,
          "internalType": "address",
          "name": "_owner",
          "type": "address"
        },
        {
          "indexed": true,
          "internalType": "address",
          "name": "_operator",
          "type": "address"
        },
        {
          "indexed": false,
          "internalType": "bool",
          "name": "_approved",
          "type": "bool"
        }
      ],
      "name": "ApprovalForAll",
      "type": "event"
    },
    {
      "anonymous": false,
      "inputs": [
        {
          "indexed": false,
          "internalType": "uint256",
          "name": "cardId",
          "type": "uint256"
        },
        {
          "indexed": true,
          "internalType": "address",
          "name": "owner",
          "type": "address"
        }
      ],
      "name": "AuctionCancelled",
      "type": "event"
    },
    {
      "anonymous": false,
      "inputs": [
        {
          "indexed": true,
          "internalType": "uint256",
          "name": "auctionId",
          "type": "uint256"
        },
        {
          "indexed": true,
          "internalType": "uint256",
          "name": "cardId",
          "type": "uint256"
        },
        {
          "indexed": false,
          "internalType": "uint256",
          "name": "salePrice",
          "type": "uint256"
        },
        {
          "indexed": true,
          "internalType": "address",
          "name": "to",
          "type": "address"
        },
        {
          "indexed": false,
          "internalType": "bool",
          "name": "completed",
          "type": "bool"
        }
      ],
      "name": "AuctionClosed",
      "type": "event"
    },
    {
      "anonymous": false,
      "inputs": [
        {
          "indexed": true,
          "internalType": "uint256",
          "name": "auctionId",
          "type": "uint256"
        },
        {
          "indexed": true,
          "internalType": "uint256",
          "name": "cardId",
          "type": "uint256"
        },
        {
          "indexed": false,
          "internalType": "uint256",
          "name": "startingBid",
          "type": "uint256"
        },
        {
          "indexed": false,
          "internalType": "uint256",
          "name": "expireDate",
          "type": "uint256"
        },
        {
          "indexed": true,
          "internalType": "address",
          "name": "owner",
          "type": "address"
        }
      ],
      "name": "AuctionOpened",
      "type": "event"
    },
    {
      "anonymous": false,
      "inputs": [
        {
          "indexed": true,
          "internalType": "uint256",
          "name": "auctionId",
          "type": "uint256"
        },
        {
          "indexed": true,
          "internalType": "uint256",
          "name": "cardId",
          "type": "uint256"
        },
        {
          "indexed": false,
          "internalType": "uint256",
          "name": "bid",
          "type": "uint256"
        },
        {
          "indexed": true,
          "internalType": "address",
          "name": "bidder",
          "type": "address"
        }
      ],
      "name": "BidPlaced",
      "type": "event"
    },
    {
      "anonymous": false,
      "inputs": [
        {
          "indexed": false,
          "internalType": "uint256",
          "name": "cardId",
          "type": "uint256"
        },
        {
          "indexed": false,
          "internalType": "uint256",
          "name": "cardType",
          "type": "uint256"
        },
        {
          "indexed": false,
          "internalType": "uint256",
          "name": "playerId",
          "type": "uint256"
        },
        {
          "indexed": false,
          "internalType": "uint256",
          "name": "attributeHash",
          "type": "uint256"
        },
        {
          "indexed": true,
          "internalType": "address",
          "name": "owner",
          "type": "address"
        }
      ],
      "name": "CardCreated",
      "type": "event"
    },
    {
      "anonymous": false,
      "inputs": [
        {
          "indexed": true,
          "internalType": "address",
          "name": "owner",
          "type": "address"
        }
      ],
      "name": "CardPackPurchased",
      "type": "event"
    },
    {
      "anonymous": false,
      "inputs": [
        {
          "indexed": true,
          "internalType": "address",
          "name": "previousOwner",
          "type": "address"
        },
        {
          "indexed": true,
          "internalType": "address",
          "name": "newOwner",
          "type": "address"
        }
      ],
      "name": "OwnershipTransferred",
      "type": "event"
    },
    {
      "anonymous": false,
      "inputs": [
        {
          "indexed": true,
          "internalType": "address",
          "name": "_from",
          "type": "address"
        },
        {
          "indexed": true,
          "internalType": "address",
          "name": "_to",
          "type": "address"
        },
        {
          "indexed": true,
          "internalType": "uint256",
          "name": "_tokenId",
          "type": "uint256"
        }
      ],
      "name": "Transfer",
      "type": "event"
    },
    {
      "inputs": [
        {
          "internalType": "address",
          "name": "_approved",
          "type": "address"
        },
        {
          "internalType": "uint256",
          "name": "_tokenId",
          "type": "uint256"
        }
      ],
      "name": "approve",
      "outputs": [],
      "stateMutability": "payable",
      "type": "function",
      "payable": true
    },
    {
      "inputs": [],
      "name": "auctionId",
      "outputs": [
        {
          "internalType": "uint256",
          "name": "",
          "type": "uint256"
        }
      ],
      "stateMutability": "view",
      "type": "function",
      "constant": true
    },
    {
      "inputs": [
        {
          "internalType": "uint256",
          "name": "",
          "type": "uint256"
        }
      ],
      "name": "auctionIdToAuction",
      "outputs": [
        {
          "internalType": "uint256",
          "name": "auctionId",
          "type": "uint256"
        },
        {
          "internalType": "bool",
          "name": "open",
          "type": "bool"
        },
        {
          "internalType": "uint256",
          "name": "currentBid",
          "type": "uint256"
        },
        {
          "internalType": "address",
          "name": "leadingBidder",
          "type": "address"
        },
        {
          "internalType": "uint256",
          "name": "expireDate",
          "type": "uint256"
        },
        {
          "internalType": "uint256",
          "name": "cardId",
          "type": "uint256"
        },
        {
          "internalType": "uint256",
          "name": "bidCount",
          "type": "uint256"
        }
      ],
      "stateMutability": "view",
      "type": "function",
      "constant": true
    },
    {
      "inputs": [
        {
          "internalType": "address",
          "name": "_owner",
          "type": "address"
        }
      ],
      "name": "balanceOf",
      "outputs": [
        {
          "internalType": "uint256",
          "name": "",
          "type": "uint256"
        }
      ],
      "stateMutability": "view",
      "type": "function",
      "constant": true
    },
    {
      "inputs": [
        {
          "internalType": "uint256",
          "name": "",
          "type": "uint256"
        }
      ],
      "name": "cardIdToAuctionId",
      "outputs": [
        {
          "internalType": "uint256",
          "name": "",
          "type": "uint256"
        }
      ],
      "stateMutability": "view",
      "type": "function",
      "constant": true
    },
    {
      "inputs": [
        {
          "internalType": "uint256",
          "name": "",
          "type": "uint256"
        }
      ],
      "name": "cardIdToCard",
      "outputs": [
        {
          "internalType": "uint256",
          "name": "cardId",
          "type": "uint256"
        },
        {
          "internalType": "uint256",
          "name": "playerId",
          "type": "uint256"
        },
        {
          "internalType": "uint256",
          "name": "attributeHash",
          "type": "uint256"
        },
        {
          "internalType": "uint256",
          "name": "cardType",
          "type": "uint256"
        },
        {
          "internalType": "bool",
          "name": "inUse",
          "type": "bool"
        }
      ],
      "stateMutability": "view",
      "type": "function",
      "constant": true
    },
    {
      "inputs": [
        {
          "internalType": "uint256",
          "name": "",
          "type": "uint256"
        }
      ],
      "name": "cardIdToOwner",
      "outputs": [
        {
          "internalType": "address",
          "name": "",
          "type": "address"
        }
      ],
      "stateMutability": "view",
      "type": "function",
      "constant": true
    },
    {
      "inputs": [
        {
          "internalType": "uint256",
          "name": "",
          "type": "uint256"
        }
      ],
      "name": "cardIsAtIndex",
      "outputs": [
        {
          "internalType": "uint256",
          "name": "",
          "type": "uint256"
        }
      ],
      "stateMutability": "view",
      "type": "function",
      "constant": true
    },
    {
      "inputs": [
        {
          "internalType": "uint256",
          "name": "",
          "type": "uint256"
        }
      ],
      "name": "cardIsForSale",
      "outputs": [
        {
          "internalType": "bool",
          "name": "",
          "type": "bool"
        }
      ],
      "stateMutability": "view",
      "type": "function",
      "constant": true
    },
    {
      "inputs": [
        {
          "internalType": "address",
          "name": "",
          "type": "address"
        }
      ],
      "name": "existingUser",
      "outputs": [
        {
          "internalType": "bool",
          "name": "",
          "type": "bool"
        }
      ],
      "stateMutability": "view",
      "type": "function",
      "constant": true
    },
    {
      "inputs": [
        {
          "internalType": "uint256",
          "name": "_tokenId",
          "type": "uint256"
        }
      ],
      "name": "getApproved",
      "outputs": [
        {
          "internalType": "address",
          "name": "",
          "type": "address"
        }
      ],
      "stateMutability": "view",
      "type": "function",
      "constant": true
    },
    {
      "inputs": [
        {
          "internalType": "address",
          "name": "_address",
          "type": "address"
        }
      ],
      "name": "getUserOwnedCards",
      "outputs": [
        {
          "internalType": "uint256[]",
          "name": "",
          "type": "uint256[]"
        }
      ],
      "stateMutability": "view",
      "type": "function",
      "constant": true
    },
    {
      "inputs": [
        {
          "internalType": "address",
          "name": "_owner",
          "type": "address"
        },
        {
          "internalType": "address",
          "name": "_operator",
          "type": "address"
        }
      ],
      "name": "isApprovedForAll",
      "outputs": [
        {
          "internalType": "bool",
          "name": "",
          "type": "bool"
        }
      ],
      "stateMutability": "view",
      "type": "function",
      "constant": true
    },
    {
      "inputs": [],
      "name": "maxAuctionDuration",
      "outputs": [
        {
          "internalType": "uint256",
          "name": "",
          "type": "uint256"
        }
      ],
      "stateMutability": "view",
      "type": "function",
      "constant": true
    },
    {
      "inputs": [
        {
          "internalType": "address",
          "name": "_to",
          "type": "address"
        },
        {
          "internalType": "uint256",
          "name": "_playerId",
          "type": "uint256"
        },
        {
          "internalType": "uint256",
          "name": "_type",
          "type": "uint256"
        },
        {
          "internalType": "uint256",
          "name": "_attributes",
          "type": "uint256"
        }
      ],
      "name": "mintCustomCard",
      "outputs": [],
      "stateMutability": "nonpayable",
      "type": "function"
    },
    {
      "inputs": [],
      "name": "owner",
      "outputs": [
        {
          "internalType": "address",
          "name": "",
          "type": "address"
        }
      ],
      "stateMutability": "view",
      "type": "function",
      "constant": true
    },
    {
      "inputs": [
        {
          "internalType": "address",
          "name": "",
          "type": "address"
        }
      ],
      "name": "ownerCardCount",
      "outputs": [
        {
          "internalType": "uint256",
          "name": "",
          "type": "uint256"
        }
      ],
      "stateMutability": "view",
      "type": "function",
      "constant": true
    },
    {
      "inputs": [
        {
          "internalType": "uint256",
          "name": "_tokenId",
          "type": "uint256"
        }
      ],
      "name": "ownerOf",
      "outputs": [
        {
          "internalType": "address",
          "name": "",
          "type": "address"
        }
      ],
      "stateMutability": "view",
      "type": "function",
      "constant": true
    },
    {
      "inputs": [],
      "name": "purchaseCardPack",
      "outputs": [],
      "stateMutability": "payable",
      "type": "function",
      "payable": true
    },
    {
      "inputs": [],
      "name": "renounceOwnership",
      "outputs": [],
      "stateMutability": "nonpayable",
      "type": "function"
    },
    {
      "inputs": [
        {
          "internalType": "address",
          "name": "_from",
          "type": "address"
        },
        {
          "internalType": "address",
          "name": "_to",
          "type": "address"
        },
        {
          "internalType": "uint256",
          "name": "_tokenId",
          "type": "uint256"
        }
      ],
      "name": "safeTransferFrom",
      "outputs": [],
      "stateMutability": "payable",
      "type": "function",
      "payable": true
    },
    {
      "inputs": [
        {
          "internalType": "address",
          "name": "_from",
          "type": "address"
        },
        {
          "internalType": "address",
          "name": "_to",
          "type": "address"
        },
        {
          "internalType": "uint256",
          "name": "_tokenId",
          "type": "uint256"
        },
        {
          "internalType": "bytes",
          "name": "_data",
          "type": "bytes"
        }
      ],
      "name": "safeTransferFrom",
      "outputs": [],
      "stateMutability": "payable",
      "type": "function",
      "payable": true
    },
    {
      "inputs": [
        {
          "internalType": "address",
          "name": "_operator",
          "type": "address"
        },
        {
          "internalType": "bool",
          "name": "_approved",
          "type": "bool"
        }
      ],
      "name": "setApprovalForAll",
      "outputs": [],
      "stateMutability": "nonpayable",
      "type": "function"
    },
    {
      "inputs": [
        {
          "internalType": "uint256",
          "name": "_fee",
          "type": "uint256"
        }
      ],
      "name": "setCardPackFee",
      "outputs": [],
      "stateMutability": "nonpayable",
      "type": "function"
    },
    {
      "inputs": [
        {
          "internalType": "uint256",
          "name": "_quantity",
          "type": "uint256"
        }
      ],
      "name": "setCardPackQuantity",
      "outputs": [],
      "stateMutability": "nonpayable",
      "type": "function"
    },
    {
      "inputs": [
        {
          "internalType": "uint256",
          "name": "_newOdds",
          "type": "uint256"
        }
      ],
      "name": "setExotixCardOdds",
      "outputs": [],
      "stateMutability": "nonpayable",
      "type": "function"
    },
    {
      "inputs": [
        {
          "internalType": "uint256",
          "name": "_newOdds",
          "type": "uint256"
        }
      ],
      "name": "setLegendaryCardOdds",
      "outputs": [],
      "stateMutability": "nonpayable",
      "type": "function"
    },
    {
      "inputs": [
        {
          "internalType": "address",
          "name": "_newOwner",
          "type": "address"
        }
      ],
      "name": "setOwner",
      "outputs": [],
      "stateMutability": "nonpayable",
      "type": "function"
    },
    {
      "inputs": [
        {
          "internalType": "uint256",
          "name": "_newOdds",
          "type": "uint256"
        }
      ],
      "name": "setRareCardOdds",
      "outputs": [],
      "stateMutability": "nonpayable",
      "type": "function"
    },
    {
      "inputs": [
        {
          "internalType": "uint256",
          "name": "_count",
          "type": "uint256"
        }
      ],
      "name": "setTotalPlayers",
      "outputs": [],
      "stateMutability": "nonpayable",
      "type": "function"
    },
    {
      "inputs": [
        {
          "internalType": "address",
          "name": "_from",
          "type": "address"
        },
        {
          "internalType": "address",
          "name": "_to",
          "type": "address"
        },
        {
          "internalType": "uint256",
          "name": "_tokenId",
          "type": "uint256"
        }
      ],
      "name": "transferFrom",
      "outputs": [],
      "stateMutability": "payable",
      "type": "function",
      "payable": true
    },
    {
      "inputs": [
        {
          "internalType": "address",
          "name": "newOwner",
          "type": "address"
        }
      ],
      "name": "transferOwnership",
      "outputs": [],
      "stateMutability": "nonpayable",
      "type": "function"
    },
    {
      "inputs": [
        {
          "internalType": "address",
          "name": "",
          "type": "address"
        },
        {
          "internalType": "uint256",
          "name": "",
          "type": "uint256"
        }
      ],
      "name": "userOwnedCards",
      "outputs": [
        {
          "internalType": "uint256",
          "name": "",
          "type": "uint256"
        }
      ],
      "stateMutability": "view",
      "type": "function",
      "constant": true
    },
    {
      "inputs": [
        {
          "internalType": "uint256",
          "name": "amount",
          "type": "uint256"
        }
      ],
      "name": "withdraw",
      "outputs": [],
      "stateMutability": "nonpayable",
      "type": "function"
    },
    {
      "inputs": [
        {
          "internalType": "uint256",
          "name": "_cardId",
          "type": "uint256"
        },
        {
          "internalType": "uint256",
          "name": "_startingBid",
          "type": "uint256"
        },
        {
          "internalType": "uint256",
          "name": "_duration",
          "type": "uint256"
        }
      ],
      "name": "createCardAuction",
      "outputs": [],
      "stateMutability": "nonpayable",
      "type": "function"
    },
    {
      "inputs": [
        {
          "internalType": "uint256",
          "name": "_cardId",
          "type": "uint256"
        }
      ],
      "name": "placeBid",
      "outputs": [],
      "stateMutability": "payable",
      "type": "function",
      "payable": true
    },
    {
      "inputs": [
        {
          "internalType": "uint256",
          "name": "_cardId",
          "type": "uint256"
        }
      ],
      "name": "endAuction",
      "outputs": [],
      "stateMutability": "nonpayable",
      "type": "function"
    },
    {
      "inputs": [
        {
          "internalType": "uint256",
          "name": "_cardId",
          "type": "uint256"
        }
      ],
      "name": "cancelAuction",
      "outputs": [],
      "stateMutability": "nonpayable",
      "type": "function"
    },
    {
      "inputs": [
        {
          "internalType": "uint256",
          "name": "_cardId",
          "type": "uint256"
        }
      ],
      "name": "setCardIsInUse",
      "outputs": [],
      "stateMutability": "nonpayable",
      "type": "function"
    }
  ],
  "bytecode": "0x6080604052600060025560be6003556008600455602860055560646006556611c37937e08000600b55600a600c55733bff843835cabb198912e10629843fc65e336c84600f60006101000a81548173ffffffffffffffffffffffffffffffffffffffff021916908373ffffffffffffffffffffffffffffffffffffffff16021790555062093a8060125560006013553480156200009b57600080fd5b50620000bc620000b0620000c260201b60201c565b620000ca60201b60201c565b6200018e565b600033905090565b60008060009054906101000a900473ffffffffffffffffffffffffffffffffffffffff169050816000806101000a81548173ffffffffffffffffffffffffffffffffffffffff021916908373ffffffffffffffffffffffffffffffffffffffff1602179055508173ffffffffffffffffffffffffffffffffffffffff168173ffffffffffffffffffffffffffffffffffffffff167f8be0079c531659141344cd1fd0a4f28419497f9722a3daafe3b4186f6b6457e060405160405180910390a35050565b61507c806200019e6000396000f3fe6080604052600436106102305760003560e01c8063804c4b251161012e578063a6e156c6116100ab578063d200e5f21161006f578063d200e5f214610835578063e25d13a814610872578063e985e9c51461089b578063f2fde38b146108d8578063feb2c4df1461090157610230565b8063a6e156c614610761578063b780acc51461079e578063b88d4fde146107c7578063b9a2de3a146107e3578063c75f384b1461080c57610230565b80639b3ce46e116100f25780639b3ce46e146106405780639bf822e31461067d578063a0dd6b34146106ba578063a22cb465146106fb578063a3d2065f1461072457610230565b8063804c4b251461056a578063828c730c146105a75780638da5cb5b146105d057806396b5a755146105fb5780639979ef451461062457610230565b80632e1a7d4d116101bc57806348c9581e1161018057806348c9581e14610485578063552788da146104b05780636352211e146104d957806370a0823114610516578063715018a61461055357610230565b80632e1a7d4d146103b157806336185bdf146103da57806341845a1414610403578063419941401461042c57806342842e0e1461046957610230565b806313af40351161020357806313af4035146102fc57806319a355671461032557806321f0c5511461036257806323b872dd1461038b5780632cfae8d3146103a757610230565b80630254837614610235578063081812fc14610278578063095ea7b3146102b557806310782f8f146102d1575b600080fd5b34801561024157600080fd5b5061025c600480360381019061025791906141c8565b61092a565b60405161026f9796959493929190614c30565b60405180910390f35b34801561028457600080fd5b5061029f600480360381019061029a91906141c8565b610999565b6040516102ac91906148e8565b60405180910390f35b6102cf60048036038101906102ca9190614100565b610a7b565b005b3480156102dd57600080fd5b506102e6610d76565b6040516102f39190614bec565b60405180910390f35b34801561030857600080fd5b50610323600480360381019061031e9190613f90565b610d7c565b005b34801561033157600080fd5b5061034c60048036038101906103479190613f90565b610e3c565b604051610359919061494f565b60405180910390f35b34801561036e57600080fd5b50610389600480360381019061038491906141c8565b610ed3565b005b6103a560048036038101906103a09190613ff5565b610f05565b005b6103af611127565b005b3480156103bd57600080fd5b506103d860048036038101906103d391906141c8565b6111b8565b005b3480156103e657600080fd5b5061040160048036038101906103fc91906141c8565b6112a6565b005b34801561040f57600080fd5b5061042a600480360381019061042591906141c8565b61132c565b005b34801561043857600080fd5b50610453600480360381019061044e91906141c8565b6113b2565b60405161046091906148e8565b60405180910390f35b610483600480360381019061047e9190613ff5565b6113e5565b005b34801561049157600080fd5b5061049a611405565b6040516104a79190614bec565b60405180910390f35b3480156104bc57600080fd5b506104d760048036038101906104d291906141c8565b61140b565b005b3480156104e557600080fd5b5061050060048036038101906104fb91906141c8565b611491565b60405161050d91906148e8565b60405180910390f35b34801561052257600080fd5b5061053d60048036038101906105389190613f90565b6114ce565b60405161054a9190614bec565b60405180910390f35b34801561055f57600080fd5b50610568611517565b005b34801561057657600080fd5b50610591600480360381019061058c9190613f90565b61159f565b60405161059e9190614bec565b60405180910390f35b3480156105b357600080fd5b506105ce60048036038101906105c9919061413c565b6115b7565b005b3480156105dc57600080fd5b506105e5611667565b6040516105f291906148e8565b60405180910390f35b34801561060757600080fd5b50610622600480360381019061061d91906141c8565b611690565b005b61063e600480360381019061063991906141c8565b611a80565b005b34801561064c57600080fd5b5061066760048036038101906106629190614100565b611e87565b6040516106749190614bec565b60405180910390f35b34801561068957600080fd5b506106a4600480360381019061069f91906141c8565b611eb8565b6040516106b19190614bec565b60405180910390f35b3480156106c657600080fd5b506106e160048036038101906106dc91906141c8565b611ed0565b6040516106f2959493929190614d0d565b60405180910390f35b34801561070757600080fd5b50610722600480360381019061071d91906140c4565b611f13565b005b34801561073057600080fd5b5061074b60048036038101906107469190613f90565b612010565b6040516107589190614971565b60405180910390f35b34801561076d57600080fd5b50610788600480360381019061078391906141c8565b612030565b6040516107959190614971565b60405180910390f35b3480156107aa57600080fd5b506107c560048036038101906107c091906141c8565b612050565b005b6107e160048036038101906107dc9190614044565b6120d6565b005b3480156107ef57600080fd5b5061080a600480360381019061080591906141c8565b61212d565b005b34801561081857600080fd5b50610833600480360381019061082e91906141c8565b61253f565b005b34801561084157600080fd5b5061085c600480360381019061085791906141c8565b6125c5565b6040516108699190614bec565b60405180910390f35b34801561087e57600080fd5b50610899600480360381019061089491906141c8565b6125dd565b005b3480156108a757600080fd5b506108c260048036038101906108bd9190613fb9565b612663565b6040516108cf9190614971565b60405180910390f35b3480156108e457600080fd5b506108ff60048036038101906108fa9190613f90565b6126f7565b005b34801561090d57600080fd5b50610928600480360381019061092391906141f1565b6127ef565b005b60166020528060005260406000206000915090508060000154908060010160009054906101000a900460ff16908060020154908060030160009054906101000a900473ffffffffffffffffffffffffffffffffffffffff16908060040154908060050154908060060154905087565b600081600073ffffffffffffffffffffffffffffffffffffffff166007600083815260200190815260200160002060009054906101000a900473ffffffffffffffffffffffffffffffffffffffff1673ffffffffffffffffffffffffffffffffffffffff161415610a3f576040517f08c379a0000000000000000000000000000000000000000000000000000000008152600401610a36906149ec565b60405180910390fd5b6010600084815260200190815260200160002060009054906101000a900473ffffffffffffffffffffffffffffffffffffffff16915050919050565b8060006007600083815260200190815260200160002060009054906101000a900473ffffffffffffffffffffffffffffffffffffffff1690503373ffffffffffffffffffffffffffffffffffffffff168173ffffffffffffffffffffffffffffffffffffffff161480610b745750601160008273ffffffffffffffffffffffffffffffffffffffff1673ffffffffffffffffffffffffffffffffffffffff16815260200190815260200160002060003373ffffffffffffffffffffffffffffffffffffffff1673ffffffffffffffffffffffffffffffffffffffff16815260200190815260200160002060009054906101000a900460ff165b610b7d57600080fd5b82600073ffffffffffffffffffffffffffffffffffffffff166007600083815260200190815260200160002060009054906101000a900473ffffffffffffffffffffffffffffffffffffffff1673ffffffffffffffffffffffffffffffffffffffff161415610c21576040517f08c379a0000000000000000000000000000000000000000000000000000000008152600401610c18906149ec565b60405180910390fd5b6007600085815260200190815260200160002060009054906101000a900473ffffffffffffffffffffffffffffffffffffffff1673ffffffffffffffffffffffffffffffffffffffff163373ffffffffffffffffffffffffffffffffffffffff1614610cc2576040517f08c379a0000000000000000000000000000000000000000000000000000000008152600401610cb990614b8c565b60405180910390fd5b846010600086815260200190815260200160002060006101000a81548173ffffffffffffffffffffffffffffffffffffffff021916908373ffffffffffffffffffffffffffffffffffffffff160217905550838573ffffffffffffffffffffffffffffffffffffffff163373ffffffffffffffffffffffffffffffffffffffff167f8c5be1e5ebec7d5bd14f71427d1e84f3dd0314c0f7b2291e5b200ac8c7c3b92560405160405180910390a45050505050565b60135481565b610d84612ba4565b73ffffffffffffffffffffffffffffffffffffffff16610da2611667565b73ffffffffffffffffffffffffffffffffffffffff1614610df8576040517f08c379a0000000000000000000000000000000000000000000000000000000008152600401610def90614acc565b60405180910390fd5b80600f60006101000a81548173ffffffffffffffffffffffffffffffffffffffff021916908373ffffffffffffffffffffffffffffffffffffffff16021790555050565b6060600860008373ffffffffffffffffffffffffffffffffffffffff1673ffffffffffffffffffffffffffffffffffffffff168152602001908152602001600020805480602002602001604051908101604052809291908181526020018280548015610ec757602002820191906000526020600020905b815481526020019060010190808311610eb3575b50505050509050919050565b6001600a600083815260200190815260200160002060040160006101000a81548160ff02191690831515021790555050565b8060006007600083815260200190815260200160002060009054906101000a900473ffffffffffffffffffffffffffffffffffffffff1690503373ffffffffffffffffffffffffffffffffffffffff168173ffffffffffffffffffffffffffffffffffffffff161480610fd657503373ffffffffffffffffffffffffffffffffffffffff166010600084815260200190815260200160002060009054906101000a900473ffffffffffffffffffffffffffffffffffffffff1673ffffffffffffffffffffffffffffffffffffffff16145b806110675750601160008273ffffffffffffffffffffffffffffffffffffffff1673ffffffffffffffffffffffffffffffffffffffff16815260200190815260200160002060003373ffffffffffffffffffffffffffffffffffffffff1673ffffffffffffffffffffffffffffffffffffffff16815260200190815260200160002060009054906101000a900460ff165b61107057600080fd5b82600073ffffffffffffffffffffffffffffffffffffffff166007600083815260200190815260200160002060009054906101000a900473ffffffffffffffffffffffffffffffffffffffff1673ffffffffffffffffffffffffffffffffffffffff161415611114576040517f08c379a000000000000000000000000000000000000000000000000000000000815260040161110b906149ec565b60405180910390fd5b61111f868686612bac565b505050505050565b600b54341461116b576040517f08c379a000000000000000000000000000000000000000000000000000000000815260040161116290614a0c565b60405180910390fd5b611173612e39565b3373ffffffffffffffffffffffffffffffffffffffff167f1c3899f94ecc08f5f95b67284618b3ca13d80b66fbc5b7f07c6b8bd30f61fcbf60405160405180910390a2565b6111c0612ba4565b73ffffffffffffffffffffffffffffffffffffffff166111de611667565b73ffffffffffffffffffffffffffffffffffffffff1614611234576040517f08c379a000000000000000000000000000000000000000000000000000000000815260040161122b90614acc565b60405180910390fd5b6000600f60009054906101000a900473ffffffffffffffffffffffffffffffffffffffff1690508073ffffffffffffffffffffffffffffffffffffffff166108fc839081150290604051600060405180830381858888f193505050501580156112a1573d6000803e3d6000fd5b505050565b6112ae612ba4565b73ffffffffffffffffffffffffffffffffffffffff166112cc611667565b73ffffffffffffffffffffffffffffffffffffffff1614611322576040517f08c379a000000000000000000000000000000000000000000000000000000000815260040161131990614acc565b60405180910390fd5b8060058190555050565b611334612ba4565b73ffffffffffffffffffffffffffffffffffffffff16611352611667565b73ffffffffffffffffffffffffffffffffffffffff16146113a8576040517f08c379a000000000000000000000000000000000000000000000000000000000815260040161139f90614acc565b60405180910390fd5b8060048190555050565b60076020528060005260406000206000915054906101000a900473ffffffffffffffffffffffffffffffffffffffff1681565b61140083838360405180602001604052806000815250612ef5565b505050565b60125481565b611413612ba4565b73ffffffffffffffffffffffffffffffffffffffff16611431611667565b73ffffffffffffffffffffffffffffffffffffffff1614611487576040517f08c379a000000000000000000000000000000000000000000000000000000000815260040161147e90614acc565b60405180910390fd5b80600b8190555050565b60006007600083815260200190815260200160002060009054906101000a900473ffffffffffffffffffffffffffffffffffffffff169050919050565b6000600d60008373ffffffffffffffffffffffffffffffffffffffff1673ffffffffffffffffffffffffffffffffffffffff168152602001908152602001600020549050919050565b61151f612ba4565b73ffffffffffffffffffffffffffffffffffffffff1661153d611667565b73ffffffffffffffffffffffffffffffffffffffff1614611593576040517f08c379a000000000000000000000000000000000000000000000000000000000815260040161158a90614acc565b60405180910390fd5b61159d60006132ca565b565b600d6020528060005260406000206000915090505481565b6115bf612ba4565b73ffffffffffffffffffffffffffffffffffffffff166115dd611667565b73ffffffffffffffffffffffffffffffffffffffff1614611633576040517f08c379a000000000000000000000000000000000000000000000000000000000815260040161162a90614acc565b60405180910390fd5b600061164084848461338e565b905061164c8582613483565b6001805461165a9190614dc6565b6001819055505050505050565b60008060009054906101000a900473ffffffffffffffffffffffffffffffffffffffff16905090565b8060006007600083815260200190815260200160002060009054906101000a900473ffffffffffffffffffffffffffffffffffffffff1690503373ffffffffffffffffffffffffffffffffffffffff168173ffffffffffffffffffffffffffffffffffffffff1614611737576040517f08c379a000000000000000000000000000000000000000000000000000000000815260040161172e90614b4c565b60405180910390fd5b600060166000601560008781526020019081526020016000205481526020019081526020016000206040518060e0016040529081600082015481526020016001820160009054906101000a900460ff16151515158152602001600282015481526020016003820160009054906101000a900473ffffffffffffffffffffffffffffffffffffffff1673ffffffffffffffffffffffffffffffffffffffff1673ffffffffffffffffffffffffffffffffffffffff16815260200160048201548152602001600582015481526020016006820154815250509050600073ffffffffffffffffffffffffffffffffffffffff16816060015173ffffffffffffffffffffffffffffffffffffffff1614611882576040517f08c379a0000000000000000000000000000000000000000000000000000000008152600401611879906149ac565b60405180910390fd5b428160800151116118c8576040517f08c379a00000000000000000000000000000000000000000000000000000000081526004016118bf90614b6c565b60405180910390fd5b806020015161190c576040517f08c379a000000000000000000000000000000000000000000000000000000000815260040161190390614bcc565b60405180910390fd5b60006014600086815260200190815260200160002060006101000a81548160ff0219169083151502179055506000600a600086815260200190815260200160002060040160006101000a81548160ff02191690831515021790555060008160200190151590811515815250508060166000836000015181526020019081526020016000206000820151816000015560208201518160010160006101000a81548160ff0219169083151502179055506040820151816002015560608201518160030160006101000a81548173ffffffffffffffffffffffffffffffffffffffff021916908373ffffffffffffffffffffffffffffffffffffffff1602179055506080820151816004015560a0820151816005015560c082015181600601559050503373ffffffffffffffffffffffffffffffffffffffff167f10ac9f0bb365b5d22d7bec500408692f23fdf83eadfec71615ef88b4c1134f0e85604051611a729190614bec565b60405180910390a250505050565b600060166000601560008581526020019081526020016000205481526020019081526020016000206040518060e0016040529081600082015481526020016001820160009054906101000a900460ff16151515158152602001600282015481526020016003820160009054906101000a900473ffffffffffffffffffffffffffffffffffffffff1673ffffffffffffffffffffffffffffffffffffffff1673ffffffffffffffffffffffffffffffffffffffff168152602001600482015481526020016005820154815260200160068201548152505090503373ffffffffffffffffffffffffffffffffffffffff166007600084815260200190815260200160002060009054906101000a900473ffffffffffffffffffffffffffffffffffffffff1673ffffffffffffffffffffffffffffffffffffffff161415611bfa576040517f08c379a0000000000000000000000000000000000000000000000000000000008152600401611bf190614aac565b60405180910390fd5b6014600083815260200190815260200160002060009054906101000a900460ff16611c5a576040517f08c379a0000000000000000000000000000000000000000000000000000000008152600401611c5190614a4c565b60405180910390fd5b80604001513411611ca0576040517f08c379a0000000000000000000000000000000000000000000000000000000008152600401611c9790614a2c565b60405180910390fd5b8060200151611ce4576040517f08c379a0000000000000000000000000000000000000000000000000000000008152600401611cdb90614bcc565b60405180910390fd5b600081606001519050600073ffffffffffffffffffffffffffffffffffffffff168173ffffffffffffffffffffffffffffffffffffffff1614611d6d578073ffffffffffffffffffffffffffffffffffffffff166108fc83604001519081150290604051600060405180830381858888f19350505050158015611d6b573d6000803e3d6000fd5b505b33601660008460000151815260200190815260200160002060030160006101000a81548173ffffffffffffffffffffffffffffffffffffffff021916908373ffffffffffffffffffffffffffffffffffffffff160217905550346016600084600001518152602001908152602001600020600201819055506001601660008460000151815260200190815260200160002060060154611e0c9190614dc6565b6016600084600001518152602001908152602001600020600601819055503373ffffffffffffffffffffffffffffffffffffffff168260a0015183600001517f379fe8bc550443c6867a021184bb0e5a961f3fcd271160873847410c7bdd0e2834604051611e7a9190614bec565b60405180910390a4505050565b60086020528160005260406000208181548110611ea357600080fd5b90600052602060002001600091509150505481565b60096020528060005260406000206000915090505481565b600a6020528060005260406000206000915090508060000154908060010154908060020154908060030154908060040160009054906101000a900460ff16905085565b80601160003373ffffffffffffffffffffffffffffffffffffffff1673ffffffffffffffffffffffffffffffffffffffff16815260200190815260200160002060008473ffffffffffffffffffffffffffffffffffffffff1673ffffffffffffffffffffffffffffffffffffffff16815260200190815260200160002060006101000a81548160ff0219169083151502179055508173ffffffffffffffffffffffffffffffffffffffff163373ffffffffffffffffffffffffffffffffffffffff167f17307eab39ab6107e8899845ad3d59bd9653f200f220920489ca2b5937696c31836040516120049190614971565b60405180910390a35050565b600e6020528060005260406000206000915054906101000a900460ff1681565b60146020528060005260406000206000915054906101000a900460ff1681565b612058612ba4565b73ffffffffffffffffffffffffffffffffffffffff16612076611667565b73ffffffffffffffffffffffffffffffffffffffff16146120cc576040517f08c379a00000000000000000000000000000000000000000000000000000000081526004016120c390614acc565b60405180910390fd5b8060038190555050565b61212685858585858080601f016020809104026020016040519081016040528093929190818152602001838380828437600081840152601f19601f82011690508083019250505050505050612ef5565b5050505050565b8060006007600083815260200190815260200160002060009054906101000a900473ffffffffffffffffffffffffffffffffffffffff1690503373ffffffffffffffffffffffffffffffffffffffff168173ffffffffffffffffffffffffffffffffffffffff16146121d4576040517f08c379a00000000000000000000000000000000000000000000000000000000081526004016121cb90614b4c565b60405180910390fd5b600060166000601560008781526020019081526020016000205481526020019081526020016000206040518060e0016040529081600082015481526020016001820160009054906101000a900460ff16151515158152602001600282015481526020016003820160009054906101000a900473ffffffffffffffffffffffffffffffffffffffff1673ffffffffffffffffffffffffffffffffffffffff1673ffffffffffffffffffffffffffffffffffffffff1681526020016004820154815260200160058201548152602001600682015481525050905042816080015111156122f3576040517f08c379a00000000000000000000000000000000000000000000000000000000081526004016122ea9061498c565b60405180910390fd5b8060200151612337576040517f08c379a000000000000000000000000000000000000000000000000000000000815260040161232e90614bcc565b60405180910390fd5b600073ffffffffffffffffffffffffffffffffffffffff16816060015173ffffffffffffffffffffffffffffffffffffffff1614612383576123828482606001518360400151613746565b5b806060015173ffffffffffffffffffffffffffffffffffffffff168160a0015182600001517f774455444039da9400b7ba984f8cc1d8ac5e70c742d01a325cc97979802c15248460400151600073ffffffffffffffffffffffffffffffffffffffff16866060015173ffffffffffffffffffffffffffffffffffffffff161415604051612411929190614c07565b60405180910390a460008160200190151590811515815250508060166000836000015181526020019081526020016000206000820151816000015560208201518160010160006101000a81548160ff0219169083151502179055506040820151816002015560608201518160030160006101000a81548173ffffffffffffffffffffffffffffffffffffffff021916908373ffffffffffffffffffffffffffffffffffffffff1602179055506080820151816004015560a0820151816005015560c0820151816006015590505060006014600086815260200190815260200160002060006101000a81548160ff0219169083151502179055506000600a600086815260200190815260200160002060040160006101000a81548160ff02191690831515021790555050505050565b612547612ba4565b73ffffffffffffffffffffffffffffffffffffffff16612565611667565b73ffffffffffffffffffffffffffffffffffffffff16146125bb576040517f08c379a00000000000000000000000000000000000000000000000000000000081526004016125b290614acc565b60405180910390fd5b8060068190555050565b60156020528060005260406000206000915090505481565b6125e5612ba4565b73ffffffffffffffffffffffffffffffffffffffff16612603611667565b73ffffffffffffffffffffffffffffffffffffffff1614612659576040517f08c379a000000000000000000000000000000000000000000000000000000000815260040161265090614acc565b60405180910390fd5b80600c8190555050565b6000601160008473ffffffffffffffffffffffffffffffffffffffff1673ffffffffffffffffffffffffffffffffffffffff16815260200190815260200160002060008373ffffffffffffffffffffffffffffffffffffffff1673ffffffffffffffffffffffffffffffffffffffff16815260200190815260200160002060009054906101000a900460ff16905092915050565b6126ff612ba4565b73ffffffffffffffffffffffffffffffffffffffff1661271d611667565b73ffffffffffffffffffffffffffffffffffffffff1614612773576040517f08c379a000000000000000000000000000000000000000000000000000000000815260040161276a90614acc565b60405180910390fd5b600073ffffffffffffffffffffffffffffffffffffffff168173ffffffffffffffffffffffffffffffffffffffff1614156127e3576040517f08c379a00000000000000000000000000000000000000000000000000000000081526004016127da906149cc565b60405180910390fd5b6127ec816132ca565b50565b80601254811115612835576040517f08c379a000000000000000000000000000000000000000000000000000000000815260040161282c90614aec565b60405180910390fd5b8360006007600083815260200190815260200160002060009054906101000a900473ffffffffffffffffffffffffffffffffffffffff1690503373ffffffffffffffffffffffffffffffffffffffff168173ffffffffffffffffffffffffffffffffffffffff16146128dc576040517f08c379a00000000000000000000000000000000000000000000000000000000081526004016128d390614b4c565b60405180910390fd5b6014600087815260200190815260200160002060009054906101000a900460ff161561293d576040517f08c379a000000000000000000000000000000000000000000000000000000000815260040161293490614b0c565b60405180910390fd5b600a600087815260200190815260200160002060040160009054906101000a900460ff16156129a1576040517f08c379a000000000000000000000000000000000000000000000000000000000815260040161299890614bac565b60405180910390fd5b60006040518060e001604052806013548152602001600115158152602001878152602001600073ffffffffffffffffffffffffffffffffffffffff16815260200186426129ee9190614dc6565b815260200188815260200160008152509050806016600060135481526020019081526020016000206000820151816000015560208201518160010160006101000a81548160ff0219169083151502179055506040820151816002015560608201518160030160006101000a81548173ffffffffffffffffffffffffffffffffffffffff021916908373ffffffffffffffffffffffffffffffffffffffff1602179055506080820151816004015560a0820151816005015560c082015181600601559050506001600a600089815260200190815260200160002060040160006101000a81548160ff021916908315150217905550601354601560008981526020019081526020016000208190555060016014600089815260200190815260200160002060006101000a81548160ff0219169083151502179055503373ffffffffffffffffffffffffffffffffffffffff16876013547f7dfee34cc48a7ad6a025da536d05885e750c439dbd20d390192dec1f2f4c0470898942612b709190614dc6565b604051612b7e929190614c9f565b60405180910390a46001601354612b959190614dc6565b60138190555050505050505050565b600033905090565b6010600082815260200190815260200160002060006101000a81549073ffffffffffffffffffffffffffffffffffffffff021916905560006009600083815260200190815260200160002054905066038d7ea4c67fff600860006007600086815260200190815260200160002060009054906101000a900473ffffffffffffffffffffffffffffffffffffffff1673ffffffffffffffffffffffffffffffffffffffff1673ffffffffffffffffffffffffffffffffffffffff1681526020019081526020016000208281548110612cac577f4e487b7100000000000000000000000000000000000000000000000000000000600052603260045260246000fd5b9060005260206000200181905550826007600084815260200190815260200160002060006101000a81548173ffffffffffffffffffffffffffffffffffffffff021916908373ffffffffffffffffffffffffffffffffffffffff160217905550600860008473ffffffffffffffffffffffffffffffffffffffff1673ffffffffffffffffffffffffffffffffffffffff1681526020019081526020016000208290806001815401808255809150506001900390600052602060002001600090919091909150556001600860008573ffffffffffffffffffffffffffffffffffffffff1673ffffffffffffffffffffffffffffffffffffffff16815260200190815260200160002080549050612dc19190614e1c565b6009600084815260200190815260200160002081905550818373ffffffffffffffffffffffffffffffffffffffff168573ffffffffffffffffffffffffffffffffffffffff167fddf252ad1be2c89b69c2b068fc378daa952ba7f163c4a11628f55a4df523b3ef60405160405180910390a450505050565b60005b600c54811015612e6257612e4f81613bac565b8080612e5a90614ef7565b915050612e3c565b50600c54600d60003373ffffffffffffffffffffffffffffffffffffffff1673ffffffffffffffffffffffffffffffffffffffff16815260200190815260200160002054612eb09190614dc6565b600d60003373ffffffffffffffffffffffffffffffffffffffff1673ffffffffffffffffffffffffffffffffffffffff16815260200190815260200160002081905550565b8160006007600083815260200190815260200160002060009054906101000a900473ffffffffffffffffffffffffffffffffffffffff1690503373ffffffffffffffffffffffffffffffffffffffff168173ffffffffffffffffffffffffffffffffffffffff161480612fc657503373ffffffffffffffffffffffffffffffffffffffff166010600084815260200190815260200160002060009054906101000a900473ffffffffffffffffffffffffffffffffffffffff1673ffffffffffffffffffffffffffffffffffffffff16145b806130575750601160008273ffffffffffffffffffffffffffffffffffffffff1673ffffffffffffffffffffffffffffffffffffffff16815260200190815260200160002060003373ffffffffffffffffffffffffffffffffffffffff1673ffffffffffffffffffffffffffffffffffffffff16815260200190815260200160002060009054906101000a900460ff165b61306057600080fd5b83600073ffffffffffffffffffffffffffffffffffffffff166007600083815260200190815260200160002060009054906101000a900473ffffffffffffffffffffffffffffffffffffffff1673ffffffffffffffffffffffffffffffffffffffff161415613104576040517f08c379a00000000000000000000000000000000000000000000000000000000081526004016130fb906149ec565b60405180910390fd5b600073ffffffffffffffffffffffffffffffffffffffff168673ffffffffffffffffffffffffffffffffffffffff161415613174576040517f08c379a000000000000000000000000000000000000000000000000000000000815260040161316b90614b2c565b60405180910390fd5b61317f878787612bac565b61319e8673ffffffffffffffffffffffffffffffffffffffff16613e04565b156132c15760008673ffffffffffffffffffffffffffffffffffffffff1663150b7a02338a89896040518563ffffffff1660e01b81526004016131e49493929190614903565b602060405180830381600087803b1580156131fe57600080fd5b505af1158015613212573d6000803e3d6000fd5b505050506040513d601f19601f82011682018060405250810190613236919061419f565b905063150b7a0260e01b7bffffffffffffffffffffffffffffffffffffffffffffffffffffffff1916817bffffffffffffffffffffffffffffffffffffffffffffffffffffffff1916146132bf576040517f08c379a00000000000000000000000000000000000000000000000000000000081526004016132b690614a8c565b60405180910390fd5b505b50505050505050565b60008060009054906101000a900473ffffffffffffffffffffffffffffffffffffffff169050816000806101000a81548173ffffffffffffffffffffffffffffffffffffffff021916908373ffffffffffffffffffffffffffffffffffffffff1602179055508173ffffffffffffffffffffffffffffffffffffffff168173ffffffffffffffffffffffffffffffffffffffff167f8be0079c531659141344cd1fd0a4f28419497f9722a3daafe3b4186f6b6457e060405160405180910390a35050565b6000806040518060a00160405280600154815260200186815260200184815260200185815260200160001515815250905080600a600060015481526020019081526020016000206000820151816000015560208201518160010155604082015181600201556060820151816003015560808201518160040160006101000a81548160ff0219169083151502179055509050503373ffffffffffffffffffffffffffffffffffffffff167fa47f2b648fe6fee6023b9227628b751649f165f204c8a6e75d3146aca5b1b8a660015486888760405161346e9493929190614cc8565b60405180910390a26001549150509392505050565b600073ffffffffffffffffffffffffffffffffffffffff168273ffffffffffffffffffffffffffffffffffffffff1614156134f3576040517f08c379a00000000000000000000000000000000000000000000000000000000081526004016134ea90614b2c565b60405180910390fd5b600073ffffffffffffffffffffffffffffffffffffffff166007600083815260200190815260200160002060009054906101000a900473ffffffffffffffffffffffffffffffffffffffff1673ffffffffffffffffffffffffffffffffffffffff1614613595576040517f08c379a000000000000000000000000000000000000000000000000000000000815260040161358c90614a6c565b60405180910390fd5b816007600083815260200190815260200160002060006101000a81548173ffffffffffffffffffffffffffffffffffffffff021916908373ffffffffffffffffffffffffffffffffffffffff160217905550600860008373ffffffffffffffffffffffffffffffffffffffff1673ffffffffffffffffffffffffffffffffffffffff1681526020019081526020016000208190806001815401808255809150506001900390600052602060002001600090919091909150556001600860008473ffffffffffffffffffffffffffffffffffffffff1673ffffffffffffffffffffffffffffffffffffffff1681526020019081526020016000208054905061369c9190614e1c565b60096000838152602001908152602001600020819055506001600d60008473ffffffffffffffffffffffffffffffffffffffff1673ffffffffffffffffffffffffffffffffffffffff168152602001908152602001600020546136ff9190614dc6565b600d60008473ffffffffffffffffffffffffffffffffffffffff1673ffffffffffffffffffffffffffffffffffffffff168152602001908152602001600020819055505050565b60006007600085815260200190815260200160002060009054906101000a900473ffffffffffffffffffffffffffffffffffffffff1690506001600d60006007600088815260200190815260200160002060009054906101000a900473ffffffffffffffffffffffffffffffffffffffff1673ffffffffffffffffffffffffffffffffffffffff1673ffffffffffffffffffffffffffffffffffffffff168152602001908152602001600020546137fd9190614e1c565b600d60006007600088815260200190815260200160002060009054906101000a900473ffffffffffffffffffffffffffffffffffffffff1673ffffffffffffffffffffffffffffffffffffffff1673ffffffffffffffffffffffffffffffffffffffff1681526020019081526020016000208190555060006009600086815260200190815260200160002054905066038d7ea4c67fff600860006007600089815260200190815260200160002060009054906101000a900473ffffffffffffffffffffffffffffffffffffffff1673ffffffffffffffffffffffffffffffffffffffff1673ffffffffffffffffffffffffffffffffffffffff168152602001908152602001600020828154811061393d577f4e487b7100000000000000000000000000000000000000000000000000000000600052603260045260246000fd5b9060005260206000200181905550600860008573ffffffffffffffffffffffffffffffffffffffff1673ffffffffffffffffffffffffffffffffffffffff1681526020019081526020016000208590806001815401808255809150506001900390600052602060002001600090919091909150556001600860008673ffffffffffffffffffffffffffffffffffffffff1673ffffffffffffffffffffffffffffffffffffffff16815260200190815260200160002080549050613a009190614e1c565b6009600087815260200190815260200160002081905550836007600087815260200190815260200160002060006101000a81548173ffffffffffffffffffffffffffffffffffffffff021916908373ffffffffffffffffffffffffffffffffffffffff1602179055506001600d60006007600089815260200190815260200160002060009054906101000a900473ffffffffffffffffffffffffffffffffffffffff1673ffffffffffffffffffffffffffffffffffffffff1673ffffffffffffffffffffffffffffffffffffffff16815260200190815260200160002054613ae89190614dc6565b600d60006007600089815260200190815260200160002060009054906101000a900473ffffffffffffffffffffffffffffffffffffffff1673ffffffffffffffffffffffffffffffffffffffff1673ffffffffffffffffffffffffffffffffffffffff168152602001908152602001600020819055508173ffffffffffffffffffffffffffffffffffffffff166108fc849081150290604051600060405180830381858888f19350505050158015613ba4573d6000803e3d6000fd5b505050505050565b6000613bb782613e4f565b90506000819050600060035483613bce9190614f4a565b90506000613bdb84613e8a565b905060006040518060a00160405280600154815260200184815260200185815260200183815260200160001515815250905080600a600060015481526020019081526020016000206000820151816000015560208201518160010155604082015181600201556060820151816003015560808201518160040160006101000a81548160ff0219169083151502179055509050503373ffffffffffffffffffffffffffffffffffffffff167fa47f2b648fe6fee6023b9227628b751649f165f204c8a6e75d3146aca5b1b8a6600154848688604051613cbc9493929190614cc8565b60405180910390a23360076000600154815260200190815260200160002060006101000a81548173ffffffffffffffffffffffffffffffffffffffff021916908373ffffffffffffffffffffffffffffffffffffffff160217905550600860003373ffffffffffffffffffffffffffffffffffffffff1673ffffffffffffffffffffffffffffffffffffffff16815260200190815260200160002060015490806001815401808255809150506001900390600052602060002001600090919091909150556001600860003373ffffffffffffffffffffffffffffffffffffffff1673ffffffffffffffffffffffffffffffffffffffff16815260200190815260200160002080549050613dcf9190614e1c565b6009600060015481526020019081526020016000208190555060018054613df69190614dc6565b600181905550505050505050565b60008060007fc5d2460186f7233c927e7db2dcc703c0e500b653ca82273b7bfad8045d85a47060001b9050833f91506000801b8214158015613e465750808214155b92505050919050565b6000444260025484604051602001613e6a949392919061489a565b6040516020818303038152906040528051906020012060001c9050919050565b60008060065483613e9b9190614f4a565b1415613eaa5760039050613eed565b600060055483613eba9190614f4a565b1415613ec95760029050613eed565b600060045483613ed99190614f4a565b1415613ee85760019050613eed565b600090505b919050565b600081359050613f0181614fea565b92915050565b600081359050613f1681615001565b92915050565b600081519050613f2b81615018565b92915050565b60008083601f840112613f4357600080fd5b8235905067ffffffffffffffff811115613f5c57600080fd5b602083019150836001820283011115613f7457600080fd5b9250929050565b600081359050613f8a8161502f565b92915050565b600060208284031215613fa257600080fd5b6000613fb084828501613ef2565b91505092915050565b60008060408385031215613fcc57600080fd5b6000613fda85828601613ef2565b9250506020613feb85828601613ef2565b9150509250929050565b60008060006060848603121561400a57600080fd5b600061401886828701613ef2565b935050602061402986828701613ef2565b925050604061403a86828701613f7b565b9150509250925092565b60008060008060006080868803121561405c57600080fd5b600061406a88828901613ef2565b955050602061407b88828901613ef2565b945050604061408c88828901613f7b565b935050606086013567ffffffffffffffff8111156140a957600080fd5b6140b588828901613f31565b92509250509295509295909350565b600080604083850312156140d757600080fd5b60006140e585828601613ef2565b92505060206140f685828601613f07565b9150509250929050565b6000806040838503121561411357600080fd5b600061412185828601613ef2565b925050602061413285828601613f7b565b9150509250929050565b6000806000806080858703121561415257600080fd5b600061416087828801613ef2565b945050602061417187828801613f7b565b935050604061418287828801613f7b565b925050606061419387828801613f7b565b91505092959194509250565b6000602082840312156141b157600080fd5b60006141bf84828501613f1c565b91505092915050565b6000602082840312156141da57600080fd5b60006141e884828501613f7b565b91505092915050565b60008060006060848603121561420657600080fd5b600061421486828701613f7b565b935050602061422586828701613f7b565b925050604061423686828701613f7b565b9150509250925092565b600061424c8383614865565b60208301905092915050565b61426181614e50565b82525050565b600061427282614d70565b61427c8185614d93565b935061428783614d60565b8060005b838110156142b857815161429f8882614240565b97506142aa83614d86565b92505060018101905061428b565b5085935050505092915050565b6142ce81614e62565b82525050565b60006142df82614d7b565b6142e98185614da4565b93506142f9818560208601614ec4565b61430281614fd9565b840191505092915050565b600061431a601883614db5565b91507f41554354494f4e204e4f54205945542046494e495348454400000000000000006000830152602082019050919050565b600061435a602683614db5565b91507f43414e4e4f542043414e43454c20414e2041554354494f4e205448415420484160008301527f53204249445300000000000000000000000000000000000000000000000000006020830152604082019050919050565b60006143c0602683614db5565b91507f4f776e61626c653a206e6577206f776e657220697320746865207a65726f206160008301527f64647265737300000000000000000000000000000000000000000000000000006020830152604082019050919050565b6000614426600c83614db5565b91507f494e56414c4944204341524400000000000000000000000000000000000000006000830152602082019050919050565b6000614466602083614db5565b91507f56414c55452053454e54204e4f5420455155414c20544f2043415244204645456000830152602082019050919050565b60006144a6601a83614db5565b91507f424944204c4f574552205448414e2043555252454e54204249440000000000006000830152602082019050919050565b60006144e6601183614db5565b91507f43415244204e4f5420464f522053414c450000000000000000000000000000006000830152602082019050919050565b6000614526601383614db5565b91507f4341524420414c524541445920455849535453000000000000000000000000006000830152602082019050919050565b6000614566601283614db5565b91507f43414e4e4f542052454345495645204e465400000000000000000000000000006000830152602082019050919050565b60006145a6601c83614db5565b91507f43414e204e4f5420424944204f4e20434152445320594f55204f574e000000006000830152602082019050919050565b60006145e6602083614db5565b91507f4f776e61626c653a2063616c6c6572206973206e6f7420746865206f776e65726000830152602082019050919050565b6000614626601883614db5565b91507f424944204455524154494f4e204e4f5420414c4c4f57454400000000000000006000830152602082019050919050565b6000614666602083614db5565b91507f434152442049532043555252454e544c5920555020464f522041554354494f4e6000830152602082019050919050565b60006146a6600c83614db5565b91507f5a45524f204144445245535300000000000000000000000000000000000000006000830152602082019050919050565b60006146e6602783614db5565b91507f4f4e4c592043415244204f574e45522043414e20504f535420495420464f522060008301527f41554354494f4e000000000000000000000000000000000000000000000000006020830152604082019050919050565b600061474c602d83614db5565b91507f43414e4e4f542043414e43454c20414e2041554354494f4e204146544552204960008301527f54204841532045585049524544000000000000000000000000000000000000006020830152604082019050919050565b60006147b2601783614db5565b91507f4e4f542043555252454e5420544f4b454e204f574e45520000000000000000006000830152602082019050919050565b60006147f2601883614db5565b91507f434152442049532043555252454e544c5920494e2055534500000000000000006000830152602082019050919050565b6000614832601e83614db5565b91507f544849532041554354494f4e204953204e4f204c4f4e474552204f50454e00006000830152602082019050919050565b61486e81614eba565b82525050565b61487d81614eba565b82525050565b61489461488f82614eba565b614f40565b82525050565b60006148a68287614883565b6020820191506148b68286614883565b6020820191506148c68285614883565b6020820191506148d68284614883565b60208201915081905095945050505050565b60006020820190506148fd6000830184614258565b92915050565b60006080820190506149186000830187614258565b6149256020830186614258565b6149326040830185614874565b818103606083015261494481846142d4565b905095945050505050565b600060208201905081810360008301526149698184614267565b905092915050565b600060208201905061498660008301846142c5565b92915050565b600060208201905081810360008301526149a58161430d565b9050919050565b600060208201905081810360008301526149c58161434d565b9050919050565b600060208201905081810360008301526149e5816143b3565b9050919050565b60006020820190508181036000830152614a0581614419565b9050919050565b60006020820190508181036000830152614a2581614459565b9050919050565b60006020820190508181036000830152614a4581614499565b9050919050565b60006020820190508181036000830152614a65816144d9565b9050919050565b60006020820190508181036000830152614a8581614519565b9050919050565b60006020820190508181036000830152614aa581614559565b9050919050565b60006020820190508181036000830152614ac581614599565b9050919050565b60006020820190508181036000830152614ae5816145d9565b9050919050565b60006020820190508181036000830152614b0581614619565b9050919050565b60006020820190508181036000830152614b2581614659565b9050919050565b60006020820190508181036000830152614b4581614699565b9050919050565b60006020820190508181036000830152614b65816146d9565b9050919050565b60006020820190508181036000830152614b858161473f565b9050919050565b60006020820190508181036000830152614ba5816147a5565b9050919050565b60006020820190508181036000830152614bc5816147e5565b9050919050565b60006020820190508181036000830152614be581614825565b9050919050565b6000602082019050614c016000830184614874565b92915050565b6000604082019050614c1c6000830185614874565b614c2960208301846142c5565b9392505050565b600060e082019050614c45600083018a614874565b614c5260208301896142c5565b614c5f6040830188614874565b614c6c6060830187614258565b614c796080830186614874565b614c8660a0830185614874565b614c9360c0830184614874565b98975050505050505050565b6000604082019050614cb46000830185614874565b614cc16020830184614874565b9392505050565b6000608082019050614cdd6000830187614874565b614cea6020830186614874565b614cf76040830185614874565b614d046060830184614874565b95945050505050565b600060a082019050614d226000830188614874565b614d2f6020830187614874565b614d3c6040830186614874565b614d496060830185614874565b614d5660808301846142c5565b9695505050505050565b6000819050602082019050919050565b600081519050919050565b600081519050919050565b6000602082019050919050565b600082825260208201905092915050565b600082825260208201905092915050565b600082825260208201905092915050565b6000614dd182614eba565b9150614ddc83614eba565b9250827fffffffffffffffffffffffffffffffffffffffffffffffffffffffffffffffff03821115614e1157614e10614f7b565b5b828201905092915050565b6000614e2782614eba565b9150614e3283614eba565b925082821015614e4557614e44614f7b565b5b828203905092915050565b6000614e5b82614e9a565b9050919050565b60008115159050919050565b60007fffffffff0000000000000000000000000000000000000000000000000000000082169050919050565b600073ffffffffffffffffffffffffffffffffffffffff82169050919050565b6000819050919050565b60005b83811015614ee2578082015181840152602081019050614ec7565b83811115614ef1576000848401525b50505050565b6000614f0282614eba565b91507fffffffffffffffffffffffffffffffffffffffffffffffffffffffffffffffff821415614f3557614f34614f7b565b5b600182019050919050565b6000819050919050565b6000614f5582614eba565b9150614f6083614eba565b925082614f7057614f6f614faa565b5b828206905092915050565b7f4e487b7100000000000000000000000000000000000000000000000000000000600052601160045260246000fd5b7f4e487b7100000000000000000000000000000000000000000000000000000000600052601260045260246000fd5b6000601f19601f8301169050919050565b614ff381614e50565b8114614ffe57600080fd5b50565b61500a81614e62565b811461501557600080fd5b50565b61502181614e6e565b811461502c57600080fd5b50565b61503881614eba565b811461504357600080fd5b5056fea2646970667358221220a66071279abc0df10ad427c360cef296b9d13f669c9797bf9d20020fd3cc7bc264736f6c63430008000033",
  "immutableReferences": {},
  "source": "// SPDX-License-Identifier: UNLICENSED\npragma solidity ^0.8.0;\n\nimport \"./card-ownership.sol\";\n\n// abstract contract Aion {\n//     uint256 public serviceFee;\n//     function ScheduleCall(uint256 blocknumber, address to, uint256 value, uint256 gaslimit, uint256 gasprice, bytes memory data, bool schedType) virtual public payable returns (uint,address);\n//     function cancellScheduledTx(uint256 blocknumber, address from, address to, uint256 value, uint256 gaslimit, uint256 gasprice, uint256 fee, bytes memory data, uint256 aionId, bool schedType) virtual public payable returns(bool);\n// }\n\ncontract CardAuction is CardOwnership {\n\n    // Aion aion;\n    uint public maxAuctionDuration = 604800;\n    uint public auctionId = 0;\n    mapping(uint => bool) public cardIsForSale;\n    mapping(uint => uint) public cardIdToAuctionId;\n    mapping(uint => Auction) public auctionIdToAuction;\n\n    struct Auction {\n        uint auctionId;\n        bool open;\n        uint currentBid;\n        address leadingBidder;\n        uint expireDate;\n        uint cardId;\n        uint bidCount;\n    }\n    \n    event AuctionOpened(uint indexed auctionId, uint indexed cardId, uint startingBid, uint expireDate, address indexed owner);\n    event BidPlaced(uint indexed auctionId, uint indexed cardId, uint bid, address indexed bidder);\n    event AuctionClosed(uint indexed auctionId, uint indexed cardId, uint salePrice, address indexed to, bool completed);\n    event AuctionCancelled(uint cardId, address indexed owner);\n\n    modifier onlyCardOwner(uint _cardId) {\n        address owner = cardIdToOwner[_cardId];\n        require(owner == msg.sender, 'ONLY CARD OWNER CAN POST IT FOR AUCTION');\n        _;\n    }\n\n    modifier checkAuctionDuration(uint _duration) {\n        require(_duration <= maxAuctionDuration, 'BID DURATION NOT ALLOWED');\n        _;\n    }\n\n    // Keeping for possible scheduler integration\n    //\n    // function createCardAuction(uint _cardId, uint _startingBid, uint _duration) external checkAuctionDuration(_duration) onlyCardOwner(_cardId) {\n    //     require(!cardIsForSale[_cardId], 'CARD ALREADY UP FOR AUCTION');\n    //     aion = Aion(0xFcFB45679539667f7ed55FA59A15c8Cad73d9a4E);\n    //     bytes memory data = abi.encodeWithSelector(bytes4(keccak256('endAuction(uint)')), _cardId);\n    //     uint callCost = 500000*1e9 + aion.serviceFee();\n    //     aion.ScheduleCall{value: callCost}(block.timestamp + _duration, address(this), 0, 500000, 1e9, data, true);        \n\n    //     cardIsForSale[_cardId] = true;\n    //     cardToCurrentBid[_cardId] = _startingBid;\n    //     auctionExpireDate[_cardId] = block.timestamp + _duration;\n    //     // emit AuctionOpened(_cardId, _startingBid, block.timestamp + _duration);\n    //     AuctionOpened(auctionId, _cardId, _startingBid, block.timestamp + _duration, msg.sender);\n    // }\n\n    function createCardAuction(uint _cardId, uint _startingBid, uint _duration) external checkAuctionDuration(_duration) onlyCardOwner(_cardId) {\n        require(!cardIsForSale[_cardId], 'CARD IS CURRENTLY UP FOR AUCTION');\n        require(!cardIdToCard[_cardId].inUse, \"CARD IS CURRENTLY IN USE\");\n\n        Auction memory auction = Auction(auctionId, true, _startingBid, address(0), block.timestamp + _duration, _cardId, 0);\n        auctionIdToAuction[auctionId] = auction;\n\n        cardIdToCard[_cardId].inUse = true;\n        cardIdToAuctionId[_cardId] = auctionId;\n        cardIsForSale[_cardId] = true;\n        emit AuctionOpened(auctionId, _cardId, _startingBid, block.timestamp + _duration, msg.sender);\n        auctionId = auctionId + 1;\n    }\n\n    function placeBid(uint _cardId) external payable {\n        Auction memory auction = auctionIdToAuction[cardIdToAuctionId[_cardId]];\n        require(cardIdToOwner[_cardId] != msg.sender, 'CAN NOT BID ON CARDS YOU OWN');\n        require(cardIsForSale[_cardId], 'CARD NOT FOR SALE');\n        require(msg.value > auction.currentBid, 'BID LOWER THAN CURRENT BID');\n        require(auction.open, \"THIS AUCTION IS NO LONGER OPEN\");\n\n        address payable outbidAddress = payable(auction.leadingBidder);\n\n        if(outbidAddress != address(0)){\n            outbidAddress.transfer(auction.currentBid);\n        }\n\n        auctionIdToAuction[auction.auctionId].leadingBidder = msg.sender;\n        auctionIdToAuction[auction.auctionId].currentBid = msg.value;\n        auctionIdToAuction[auction.auctionId].bidCount = auctionIdToAuction[auction.auctionId].bidCount + 1;\n\n        emit BidPlaced(auction.auctionId, auction.cardId, msg.value, msg.sender);\n    }\n\n    function endAuction(uint _cardId) public onlyCardOwner(_cardId) {\n        Auction memory auction = auctionIdToAuction[cardIdToAuctionId[_cardId]];\n        require(auction.expireDate <= block.timestamp, \"AUCTION NOT YET FINISHED\");\n        require(auction.open, \"THIS AUCTION IS NO LONGER OPEN\");\n\n        if(auction.leadingBidder != address(0)) {\n            transferCard(_cardId, auction.leadingBidder, auction.currentBid);\n        }\n        AuctionClosed(auction.auctionId, auction.cardId, auction.currentBid, auction.leadingBidder, auction.leadingBidder != address(0));\n        auction.open = false;\n        auctionIdToAuction[auction.auctionId] = auction;\n        cardIsForSale[_cardId] = false;\n        cardIdToCard[_cardId].inUse = false;\n    }\n\n    function cancelAuction(uint _cardId) public onlyCardOwner(_cardId) {\n        Auction memory auction = auctionIdToAuction[cardIdToAuctionId[_cardId]];\n        require(auction.leadingBidder == address(0), \"CANNOT CANCEL AN AUCTION THAT HAS BIDS\");\n        require(auction.expireDate > block.timestamp, \"CANNOT CANCEL AN AUCTION AFTER IT HAS EXPIRED\");\n        require(auction.open, \"THIS AUCTION IS NO LONGER OPEN\");\n\n        cardIsForSale[_cardId] = false;\n        cardIdToCard[_cardId].inUse = false;\n        auction.open = false;\n        auctionIdToAuction[auction.auctionId] = auction;\n        emit AuctionCancelled(_cardId, msg.sender);\n    }\n\n    function transferCard(uint _cardId, address _winner, uint _price) private {\n        address payable beneficiary = payable(cardIdToOwner[_cardId]);\n\n        ownerCardCount[cardIdToOwner[_cardId]] = ownerCardCount[cardIdToOwner[_cardId]] - 1;\n        uint cardIndex = cardIsAtIndex[_cardId];\n        userOwnedCards[cardIdToOwner[_cardId]][cardIndex] = 999999999999999;\n\n        userOwnedCards[_winner].push(_cardId);\n        cardIsAtIndex[_cardId] = userOwnedCards[_winner].length - 1;\n        cardIdToOwner[_cardId] = _winner;\n        ownerCardCount[cardIdToOwner[_cardId]] = ownerCardCount[cardIdToOwner[_cardId]] + 1;\n        beneficiary.transfer(_price);\n    }\n\n    function setCardIsInUse(uint _cardId) external {\n        cardIdToCard[_cardId].inUse = true;\n    }\n\n}",
  "sourcePath": "/Users/tkma4fr/Development/solidity-app/contracts/card-auction.sol",
  "compiler": {
    "name": "solc",
    "version": "0.8.0+commit.c7dfd78e.Emscripten.clang"
  },
  "schemaVersion": "3.4.2",
  "updatedAt": "2021-10-22T15:56:41.555Z",
  "networkType": "ethereum",
  "devdoc": {
    "kind": "dev",
    "methods": {
      "approve(address,uint256)": {
        "details": "The zero address indicates there is no approved address.  Throws unless `msg.sender` is the current NFT owner, or an authorized  operator of the current owner.",
        "params": {
          "_approved": "The new approved NFT controller",
          "_tokenId": "The NFT to approve"
        }
      },
      "balanceOf(address)": {
        "details": "NFTs assigned to the zero address are considered invalid, and this  function throws for queries about the zero address.",
        "params": {
          "_owner": "An address for whom to query the balance"
        },
        "returns": {
          "_0": "The number of NFTs owned by `_owner`, possibly zero"
        }
      },
      "getApproved(uint256)": {
        "details": "Throws if `_tokenId` is not a valid NFT.",
        "params": {
          "_tokenId": "The NFT to find the approved address for"
        },
        "returns": {
          "_0": "The approved address for this NFT, or the zero address if there is none"
        }
      },
      "isApprovedForAll(address,address)": {
        "params": {
          "_operator": "The address that acts on behalf of the owner",
          "_owner": "The address that owns the NFTs"
        },
        "returns": {
          "_0": "True if `_operator` is an approved operator for `_owner`, false otherwise"
        }
      },
      "owner()": {
        "details": "Returns the address of the current owner."
      },
      "ownerOf(uint256)": {
        "details": "NFTs assigned to zero address are considered invalid, and queries  about them do throw.",
        "params": {
          "_tokenId": "The identifier for an NFT"
        },
        "returns": {
          "_0": "The address of the owner of the NFT"
        }
      },
      "renounceOwnership()": {
        "details": "Leaves the contract without owner. It will not be possible to call `onlyOwner` functions anymore. Can only be called by the current owner. NOTE: Renouncing ownership will leave the contract without an owner, thereby removing any functionality that is only available to the owner."
      },
      "safeTransferFrom(address,address,uint256)": {
        "details": "This works identically to the other function with an extra data parameter,  except this function just sets data to \"\".",
        "params": {
          "_from": "The current owner of the NFT",
          "_to": "The new owner",
          "_tokenId": "The NFT to transfer"
        }
      },
      "setApprovalForAll(address,bool)": {
        "details": "Emits the ApprovalForAll event. The contract MUST allow  multiple operators per owner.",
        "params": {
          "_approved": "True if the operator is approved, false to revoke approval",
          "_operator": "Address to add to the set of authorized operators"
        }
      },
      "transferFrom(address,address,uint256)": {
        "details": "Throws unless `msg.sender` is the current owner, an authorized  operator, or the approved address for this NFT. Throws if `_from` is  not the current owner. Throws if `_to` is the zero address. Throws if  `_tokenId` is not a valid NFT.",
        "params": {
          "_from": "The current owner of the NFT",
          "_to": "The new owner",
          "_tokenId": "The NFT to transfer"
        }
      },
      "transferOwnership(address)": {
        "details": "Transfers ownership of the contract to a new account (`newOwner`). Can only be called by the current owner."
      }
    },
    "version": 1
  },
  "userdoc": {
    "kind": "user",
    "methods": {
      "approve(address,uint256)": {
        "notice": "Change or reaffirm the approved address for an NFT"
      },
      "balanceOf(address)": {
        "notice": "Count all NFTs assigned to an owner"
      },
      "getApproved(uint256)": {
        "notice": "Get the approved address for a single NFT"
      },
      "isApprovedForAll(address,address)": {
        "notice": "Query if an address is an authorized operator for another address"
      },
      "ownerOf(uint256)": {
        "notice": "Find the owner of an NFT"
      },
      "safeTransferFrom(address,address,uint256)": {
        "notice": "Transfers the ownership of an NFT from one address to another address"
      },
      "setApprovalForAll(address,bool)": {
        "notice": "Enable or disable approval for a third party (\"operator\") to manage  all of `msg.sender`'s assets"
      },
      "transferFrom(address,address,uint256)": {
        "notice": "Transfer ownership of an NFT -- THE CALLER IS RESPONSIBLE  TO CONFIRM THAT `_to` IS CAPABLE OF RECEIVING NFTS OR ELSE  THEY MAY BE PERMANENTLY LOST"
      }
    },
    "version": 1
  }
}