{
  "contractName": "CardAuction",
  "abi": [
    {
      "anonymous": false,
      "inputs": [
        {
          "indexed": true,
          "internalType": "address",
          "name": "_owner",
          "type": "address"
        },
        {
          "indexed": true,
          "internalType": "address",
          "name": "_approved",
          "type": "address"
        },
        {
          "indexed": true,
          "internalType": "uint256",
          "name": "_tokenId",
          "type": "uint256"
        }
      ],
      "name": "Approval",
      "type": "event"
    },
    {
      "anonymous": false,
      "inputs": [
        {
          "indexed": true,
          "internalType": "address",
          "name": "_owner",
          "type": "address"
        },
        {
          "indexed": true,
          "internalType": "address",
          "name": "_operator",
          "type": "address"
        },
        {
          "indexed": false,
          "internalType": "bool",
          "name": "_approved",
          "type": "bool"
        }
      ],
      "name": "ApprovalForAll",
      "type": "event"
    },
    {
      "anonymous": false,
      "inputs": [
        {
          "indexed": true,
          "internalType": "uint256",
          "name": "auctionId",
          "type": "uint256"
        },
        {
          "indexed": true,
          "internalType": "uint256",
          "name": "cardId",
          "type": "uint256"
        },
        {
          "indexed": false,
          "internalType": "uint256",
          "name": "salePrice",
          "type": "uint256"
        },
        {
          "indexed": true,
          "internalType": "address",
          "name": "to",
          "type": "address"
        },
        {
          "indexed": false,
          "internalType": "bool",
          "name": "completed",
          "type": "bool"
        }
      ],
      "name": "AuctionClosed",
      "type": "event"
    },
    {
      "anonymous": false,
      "inputs": [
        {
          "indexed": true,
          "internalType": "uint256",
          "name": "auctionId",
          "type": "uint256"
        },
        {
          "indexed": true,
          "internalType": "uint256",
          "name": "cardId",
          "type": "uint256"
        },
        {
          "indexed": false,
          "internalType": "uint256",
          "name": "startingBid",
          "type": "uint256"
        },
        {
          "indexed": false,
          "internalType": "uint256",
          "name": "expireDate",
          "type": "uint256"
        },
        {
          "indexed": true,
          "internalType": "address",
          "name": "owner",
          "type": "address"
        }
      ],
      "name": "AuctionOpened",
      "type": "event"
    },
    {
      "anonymous": false,
      "inputs": [
        {
          "indexed": true,
          "internalType": "uint256",
          "name": "auctionId",
          "type": "uint256"
        },
        {
          "indexed": true,
          "internalType": "uint256",
          "name": "cardId",
          "type": "uint256"
        },
        {
          "indexed": false,
          "internalType": "uint256",
          "name": "bid",
          "type": "uint256"
        },
        {
          "indexed": true,
          "internalType": "address",
          "name": "bidder",
          "type": "address"
        }
      ],
      "name": "BidPlaced",
      "type": "event"
    },
    {
      "anonymous": false,
      "inputs": [
        {
          "indexed": false,
          "internalType": "uint256",
          "name": "cardId",
          "type": "uint256"
        },
        {
          "indexed": false,
          "internalType": "uint256",
          "name": "cardType",
          "type": "uint256"
        },
        {
          "indexed": false,
          "internalType": "uint256",
          "name": "playerId",
          "type": "uint256"
        },
        {
          "indexed": false,
          "internalType": "uint256",
          "name": "attributeHash",
          "type": "uint256"
        },
        {
          "indexed": true,
          "internalType": "address",
          "name": "owner",
          "type": "address"
        }
      ],
      "name": "CardCreated",
      "type": "event"
    },
    {
      "anonymous": false,
      "inputs": [
        {
          "indexed": true,
          "internalType": "address",
          "name": "owner",
          "type": "address"
        }
      ],
      "name": "CardPackPurchased",
      "type": "event"
    },
    {
      "anonymous": false,
      "inputs": [
        {
          "indexed": true,
          "internalType": "address",
          "name": "previousOwner",
          "type": "address"
        },
        {
          "indexed": true,
          "internalType": "address",
          "name": "newOwner",
          "type": "address"
        }
      ],
      "name": "OwnershipTransferred",
      "type": "event"
    },
    {
      "anonymous": false,
      "inputs": [
        {
          "indexed": true,
          "internalType": "address",
          "name": "_from",
          "type": "address"
        },
        {
          "indexed": true,
          "internalType": "address",
          "name": "_to",
          "type": "address"
        },
        {
          "indexed": true,
          "internalType": "uint256",
          "name": "_tokenId",
          "type": "uint256"
        }
      ],
      "name": "Transfer",
      "type": "event"
    },
    {
      "inputs": [
        {
          "internalType": "address",
          "name": "_approved",
          "type": "address"
        },
        {
          "internalType": "uint256",
          "name": "_tokenId",
          "type": "uint256"
        }
      ],
      "name": "approve",
      "outputs": [],
      "stateMutability": "payable",
      "type": "function",
      "payable": true
    },
    {
      "inputs": [],
      "name": "auctionId",
      "outputs": [
        {
          "internalType": "uint256",
          "name": "",
          "type": "uint256"
        }
      ],
      "stateMutability": "view",
      "type": "function",
      "constant": true
    },
    {
      "inputs": [
        {
          "internalType": "uint256",
          "name": "",
          "type": "uint256"
        }
      ],
      "name": "auctionIdToAuction",
      "outputs": [
        {
          "internalType": "uint256",
          "name": "auctionId",
          "type": "uint256"
        },
        {
          "internalType": "uint256",
          "name": "currentBid",
          "type": "uint256"
        },
        {
          "internalType": "address",
          "name": "leadingBidder",
          "type": "address"
        },
        {
          "internalType": "uint256",
          "name": "expireDate",
          "type": "uint256"
        },
        {
          "internalType": "uint256",
          "name": "cardId",
          "type": "uint256"
        },
        {
          "internalType": "uint256",
          "name": "bidCount",
          "type": "uint256"
        }
      ],
      "stateMutability": "view",
      "type": "function",
      "constant": true
    },
    {
      "inputs": [
        {
          "internalType": "address",
          "name": "_owner",
          "type": "address"
        }
      ],
      "name": "balanceOf",
      "outputs": [
        {
          "internalType": "uint256",
          "name": "",
          "type": "uint256"
        }
      ],
      "stateMutability": "view",
      "type": "function",
      "constant": true
    },
    {
      "inputs": [
        {
          "internalType": "uint256",
          "name": "",
          "type": "uint256"
        }
      ],
      "name": "cardIdToOwner",
      "outputs": [
        {
          "internalType": "address",
          "name": "",
          "type": "address"
        }
      ],
      "stateMutability": "view",
      "type": "function",
      "constant": true
    },
    {
      "inputs": [
        {
          "internalType": "uint256",
          "name": "",
          "type": "uint256"
        }
      ],
      "name": "cardIsAtIndex",
      "outputs": [
        {
          "internalType": "uint256",
          "name": "",
          "type": "uint256"
        }
      ],
      "stateMutability": "view",
      "type": "function",
      "constant": true
    },
    {
      "inputs": [
        {
          "internalType": "uint256",
          "name": "",
          "type": "uint256"
        }
      ],
      "name": "cardIsForSale",
      "outputs": [
        {
          "internalType": "bool",
          "name": "",
          "type": "bool"
        }
      ],
      "stateMutability": "view",
      "type": "function",
      "constant": true
    },
    {
      "inputs": [
        {
          "internalType": "uint256",
          "name": "",
          "type": "uint256"
        }
      ],
      "name": "cardToAuctionId",
      "outputs": [
        {
          "internalType": "uint256",
          "name": "",
          "type": "uint256"
        }
      ],
      "stateMutability": "view",
      "type": "function",
      "constant": true
    },
    {
      "inputs": [
        {
          "internalType": "uint256",
          "name": "",
          "type": "uint256"
        }
      ],
      "name": "cards",
      "outputs": [
        {
          "internalType": "uint256",
          "name": "cardId",
          "type": "uint256"
        },
        {
          "internalType": "uint256",
          "name": "playerId",
          "type": "uint256"
        },
        {
          "internalType": "uint256",
          "name": "attributeHash",
          "type": "uint256"
        },
        {
          "internalType": "uint256",
          "name": "cardType",
          "type": "uint256"
        }
      ],
      "stateMutability": "view",
      "type": "function",
      "constant": true
    },
    {
      "inputs": [
        {
          "internalType": "address",
          "name": "",
          "type": "address"
        }
      ],
      "name": "existingUser",
      "outputs": [
        {
          "internalType": "bool",
          "name": "",
          "type": "bool"
        }
      ],
      "stateMutability": "view",
      "type": "function",
      "constant": true
    },
    {
      "inputs": [
        {
          "internalType": "uint256",
          "name": "_tokenId",
          "type": "uint256"
        }
      ],
      "name": "getApproved",
      "outputs": [
        {
          "internalType": "address",
          "name": "",
          "type": "address"
        }
      ],
      "stateMutability": "view",
      "type": "function",
      "constant": true
    },
    {
      "inputs": [
        {
          "internalType": "address",
          "name": "_address",
          "type": "address"
        }
      ],
      "name": "getUserOwnedCards",
      "outputs": [
        {
          "internalType": "uint256[]",
          "name": "",
          "type": "uint256[]"
        }
      ],
      "stateMutability": "view",
      "type": "function",
      "constant": true
    },
    {
      "inputs": [
        {
          "internalType": "address",
          "name": "_owner",
          "type": "address"
        },
        {
          "internalType": "address",
          "name": "_operator",
          "type": "address"
        }
      ],
      "name": "isApprovedForAll",
      "outputs": [
        {
          "internalType": "bool",
          "name": "",
          "type": "bool"
        }
      ],
      "stateMutability": "view",
      "type": "function",
      "constant": true
    },
    {
      "inputs": [],
      "name": "maxAuctionDuration",
      "outputs": [
        {
          "internalType": "uint256",
          "name": "",
          "type": "uint256"
        }
      ],
      "stateMutability": "view",
      "type": "function",
      "constant": true
    },
    {
      "inputs": [
        {
          "internalType": "address",
          "name": "_to",
          "type": "address"
        },
        {
          "internalType": "uint256",
          "name": "_playerId",
          "type": "uint256"
        },
        {
          "internalType": "uint256",
          "name": "_type",
          "type": "uint256"
        },
        {
          "internalType": "uint256",
          "name": "_attributes",
          "type": "uint256"
        }
      ],
      "name": "mintCustomCard",
      "outputs": [],
      "stateMutability": "nonpayable",
      "type": "function"
    },
    {
      "inputs": [],
      "name": "owner",
      "outputs": [
        {
          "internalType": "address",
          "name": "",
          "type": "address"
        }
      ],
      "stateMutability": "view",
      "type": "function",
      "constant": true
    },
    {
      "inputs": [
        {
          "internalType": "address",
          "name": "",
          "type": "address"
        }
      ],
      "name": "ownerCardCount",
      "outputs": [
        {
          "internalType": "uint256",
          "name": "",
          "type": "uint256"
        }
      ],
      "stateMutability": "view",
      "type": "function",
      "constant": true
    },
    {
      "inputs": [
        {
          "internalType": "uint256",
          "name": "_tokenId",
          "type": "uint256"
        }
      ],
      "name": "ownerOf",
      "outputs": [
        {
          "internalType": "address",
          "name": "",
          "type": "address"
        }
      ],
      "stateMutability": "view",
      "type": "function",
      "constant": true
    },
    {
      "inputs": [],
      "name": "purchaseCardPack",
      "outputs": [],
      "stateMutability": "payable",
      "type": "function",
      "payable": true
    },
    {
      "inputs": [],
      "name": "renounceOwnership",
      "outputs": [],
      "stateMutability": "nonpayable",
      "type": "function"
    },
    {
      "inputs": [
        {
          "internalType": "address",
          "name": "_from",
          "type": "address"
        },
        {
          "internalType": "address",
          "name": "_to",
          "type": "address"
        },
        {
          "internalType": "uint256",
          "name": "_tokenId",
          "type": "uint256"
        }
      ],
      "name": "safeTransferFrom",
      "outputs": [],
      "stateMutability": "payable",
      "type": "function",
      "payable": true
    },
    {
      "inputs": [
        {
          "internalType": "address",
          "name": "_from",
          "type": "address"
        },
        {
          "internalType": "address",
          "name": "_to",
          "type": "address"
        },
        {
          "internalType": "uint256",
          "name": "_tokenId",
          "type": "uint256"
        },
        {
          "internalType": "bytes",
          "name": "_data",
          "type": "bytes"
        }
      ],
      "name": "safeTransferFrom",
      "outputs": [],
      "stateMutability": "payable",
      "type": "function",
      "payable": true
    },
    {
      "inputs": [
        {
          "internalType": "address",
          "name": "_operator",
          "type": "address"
        },
        {
          "internalType": "bool",
          "name": "_approved",
          "type": "bool"
        }
      ],
      "name": "setApprovalForAll",
      "outputs": [],
      "stateMutability": "nonpayable",
      "type": "function"
    },
    {
      "inputs": [
        {
          "internalType": "uint256",
          "name": "_fee",
          "type": "uint256"
        }
      ],
      "name": "setCardPackFee",
      "outputs": [],
      "stateMutability": "nonpayable",
      "type": "function"
    },
    {
      "inputs": [
        {
          "internalType": "uint256",
          "name": "_quantity",
          "type": "uint256"
        }
      ],
      "name": "setCardPackQuantity",
      "outputs": [],
      "stateMutability": "nonpayable",
      "type": "function"
    },
    {
      "inputs": [
        {
          "internalType": "uint256",
          "name": "_newOdds",
          "type": "uint256"
        }
      ],
      "name": "setExotixCardOdds",
      "outputs": [],
      "stateMutability": "nonpayable",
      "type": "function"
    },
    {
      "inputs": [
        {
          "internalType": "uint256",
          "name": "_newOdds",
          "type": "uint256"
        }
      ],
      "name": "setLegendaryCardOdds",
      "outputs": [],
      "stateMutability": "nonpayable",
      "type": "function"
    },
    {
      "inputs": [
        {
          "internalType": "uint256",
          "name": "_newOdds",
          "type": "uint256"
        }
      ],
      "name": "setRareCardOdds",
      "outputs": [],
      "stateMutability": "nonpayable",
      "type": "function"
    },
    {
      "inputs": [
        {
          "internalType": "uint256",
          "name": "_count",
          "type": "uint256"
        }
      ],
      "name": "setTotalPlayers",
      "outputs": [],
      "stateMutability": "nonpayable",
      "type": "function"
    },
    {
      "inputs": [
        {
          "internalType": "address",
          "name": "_from",
          "type": "address"
        },
        {
          "internalType": "address",
          "name": "_to",
          "type": "address"
        },
        {
          "internalType": "uint256",
          "name": "_tokenId",
          "type": "uint256"
        }
      ],
      "name": "transferFrom",
      "outputs": [],
      "stateMutability": "payable",
      "type": "function",
      "payable": true
    },
    {
      "inputs": [
        {
          "internalType": "address",
          "name": "newOwner",
          "type": "address"
        }
      ],
      "name": "transferOwnership",
      "outputs": [],
      "stateMutability": "nonpayable",
      "type": "function"
    },
    {
      "inputs": [
        {
          "internalType": "address",
          "name": "",
          "type": "address"
        },
        {
          "internalType": "uint256",
          "name": "",
          "type": "uint256"
        }
      ],
      "name": "userOwnedCards",
      "outputs": [
        {
          "internalType": "uint256",
          "name": "",
          "type": "uint256"
        }
      ],
      "stateMutability": "view",
      "type": "function",
      "constant": true
    },
    {
      "inputs": [
        {
          "internalType": "uint256",
          "name": "_cardId",
          "type": "uint256"
        },
        {
          "internalType": "uint256",
          "name": "_startingBid",
          "type": "uint256"
        },
        {
          "internalType": "uint256",
          "name": "_duration",
          "type": "uint256"
        }
      ],
      "name": "createCardAuction",
      "outputs": [],
      "stateMutability": "nonpayable",
      "type": "function"
    },
    {
      "inputs": [
        {
          "internalType": "uint256",
          "name": "_cardId",
          "type": "uint256"
        }
      ],
      "name": "placeBid",
      "outputs": [],
      "stateMutability": "payable",
      "type": "function",
      "payable": true
    },
    {
      "inputs": [
        {
          "internalType": "uint256",
          "name": "_cardId",
          "type": "uint256"
        }
      ],
      "name": "endAuction",
      "outputs": [],
      "stateMutability": "nonpayable",
      "type": "function"
    },
    {
      "inputs": [
        {
          "internalType": "uint256",
          "name": "_cardId",
          "type": "uint256"
        }
      ],
      "name": "cancelAuction",
      "outputs": [],
      "stateMutability": "nonpayable",
      "type": "function"
    }
  ],
  "bytecode": "0x6080604052600060025560bd6003556611c37937e08000600855600a6009556003600a556019600b556064600c5562093a8060115560016012553480156200004657600080fd5b50620000676200005b6200006d60201b60201c565b6200007560201b60201c565b62000139565b600033905090565b60008060009054906101000a900473ffffffffffffffffffffffffffffffffffffffff169050816000806101000a81548173ffffffffffffffffffffffffffffffffffffffff021916908373ffffffffffffffffffffffffffffffffffffffff1602179055508173ffffffffffffffffffffffffffffffffffffffff168173ffffffffffffffffffffffffffffffffffffffff167f8be0079c531659141344cd1fd0a4f28419497f9722a3daafe3b4186f6b6457e060405160405180910390a35050565b61471e80620001496000396000f3fe60806040526004361061020f5760003560e01c80638da5cb5b11610118578063a6e156c6116100a0578063c75f384b1161006f578063c75f384b146107ab578063e25d13a8146107d4578063e985e9c5146107fd578063f2fde38b1461083a578063feb2c4df146108635761020f565b8063a6e156c614610700578063b780acc51461073d578063b88d4fde14610766578063b9a2de3a146107825761020f565b80639aa6c9ff116100e75780639aa6c9ff146105e35780639b3ce46e146106205780639bf822e31461065d578063a22cb4651461069a578063a3d2065f146106c35761020f565b80638da5cb5b146105335780638dc107681461055e57806396b5a7551461059e5780639979ef45146105c75761020f565b8063419941401161019b5780636352211e1161016a5780636352211e1461043c57806370a0823114610479578063715018a6146104b6578063804c4b25146104cd578063828c730c1461050a5761020f565b8063419941401461038f57806342842e0e146103cc57806348c9581e146103e8578063552788da146104135761020f565b806319a35567116101e257806319a35567146102da57806323b872dd146103175780632cfae8d31461033357806336185bdf1461033d57806341845a14146103665761020f565b80630254837614610214578063081812fc14610256578063095ea7b31461029357806310782f8f146102af575b600080fd5b34801561022057600080fd5b5061023b6004803603810190610236919061399c565b61088c565b60405161024d9695949392919061435c565b60405180910390f35b34801561026257600080fd5b5061027d6004803603810190610278919061399c565b6108e8565b60405161028a919061402b565b60405180910390f35b6102ad60048036038101906102a891906138d4565b6109ca565b005b3480156102bb57600080fd5b506102c4610cc5565b6040516102d191906142ef565b60405180910390f35b3480156102e657600080fd5b5061030160048036038101906102fc9190613764565b610ccb565b60405161030e9190614092565b60405180910390f35b610331600480360381019061032c91906137c9565b610d62565b005b61033b610f84565b005b34801561034957600080fd5b50610364600480360381019061035f919061399c565b611015565b005b34801561037257600080fd5b5061038d6004803603810190610388919061399c565b61109b565b005b34801561039b57600080fd5b506103b660048036038101906103b1919061399c565b611121565b6040516103c3919061402b565b60405180910390f35b6103e660048036038101906103e191906137c9565b611154565b005b3480156103f457600080fd5b506103fd611174565b60405161040a91906142ef565b60405180910390f35b34801561041f57600080fd5b5061043a6004803603810190610435919061399c565b61117a565b005b34801561044857600080fd5b50610463600480360381019061045e919061399c565b611200565b604051610470919061402b565b60405180910390f35b34801561048557600080fd5b506104a0600480360381019061049b9190613764565b61123d565b6040516104ad91906142ef565b60405180910390f35b3480156104c257600080fd5b506104cb611286565b005b3480156104d957600080fd5b506104f460048036038101906104ef9190613764565b61130e565b60405161050191906142ef565b60405180910390f35b34801561051657600080fd5b50610531600480360381019061052c9190613910565b611326565b005b34801561053f57600080fd5b506105486113d6565b604051610555919061402b565b60405180910390f35b34801561056a57600080fd5b506105856004803603810190610580919061399c565b6113ff565b60405161059594939291906143bd565b60405180910390f35b3480156105aa57600080fd5b506105c560048036038101906105c0919061399c565b61143f565b005b6105e160048036038101906105dc919061399c565b6116a7565b005b3480156105ef57600080fd5b5061060a6004803603810190610605919061399c565b611a4f565b60405161061791906142ef565b60405180910390f35b34801561062c57600080fd5b50610647600480360381019061064291906138d4565b611a67565b60405161065491906142ef565b60405180910390f35b34801561066957600080fd5b50610684600480360381019061067f919061399c565b611a98565b60405161069191906142ef565b60405180910390f35b3480156106a657600080fd5b506106c160048036038101906106bc9190613898565b611ab0565b005b3480156106cf57600080fd5b506106ea60048036038101906106e59190613764565b611bad565b6040516106f791906140b4565b60405180910390f35b34801561070c57600080fd5b506107276004803603810190610722919061399c565b611bcd565b60405161073491906140b4565b60405180910390f35b34801561074957600080fd5b50610764600480360381019061075f919061399c565b611bed565b005b610780600480360381019061077b9190613818565b611c73565b005b34801561078e57600080fd5b506107a960048036038101906107a4919061399c565b611cca565b005b3480156107b757600080fd5b506107d260048036038101906107cd919061399c565b611fa2565b005b3480156107e057600080fd5b506107fb60048036038101906107f6919061399c565b612028565b005b34801561080957600080fd5b50610824600480360381019061081f919061378d565b6120ae565b60405161083191906140b4565b60405180910390f35b34801561084657600080fd5b50610861600480360381019061085c9190613764565b612142565b005b34801561086f57600080fd5b5061088a600480360381019061088591906139c5565b61223a565b005b60156020528060005260406000206000915090508060000154908060010154908060020160009054906101000a900473ffffffffffffffffffffffffffffffffffffffff16908060030154908060040154908060050154905086565b600081600073ffffffffffffffffffffffffffffffffffffffff166005600083815260200190815260200160002060009054906101000a900473ffffffffffffffffffffffffffffffffffffffff1673ffffffffffffffffffffffffffffffffffffffff16141561098e576040517f08c379a00000000000000000000000000000000000000000000000000000000081526004016109859061412f565b60405180910390fd5b600f600084815260200190815260200160002060009054906101000a900473ffffffffffffffffffffffffffffffffffffffff16915050919050565b8060006005600083815260200190815260200160002060009054906101000a900473ffffffffffffffffffffffffffffffffffffffff1690503373ffffffffffffffffffffffffffffffffffffffff168173ffffffffffffffffffffffffffffffffffffffff161480610ac35750601060008273ffffffffffffffffffffffffffffffffffffffff1673ffffffffffffffffffffffffffffffffffffffff16815260200190815260200160002060003373ffffffffffffffffffffffffffffffffffffffff1673ffffffffffffffffffffffffffffffffffffffff16815260200190815260200160002060009054906101000a900460ff165b610acc57600080fd5b82600073ffffffffffffffffffffffffffffffffffffffff166005600083815260200190815260200160002060009054906101000a900473ffffffffffffffffffffffffffffffffffffffff1673ffffffffffffffffffffffffffffffffffffffff161415610b70576040517f08c379a0000000000000000000000000000000000000000000000000000000008152600401610b679061412f565b60405180910390fd5b6005600085815260200190815260200160002060009054906101000a900473ffffffffffffffffffffffffffffffffffffffff1673ffffffffffffffffffffffffffffffffffffffff163373ffffffffffffffffffffffffffffffffffffffff1614610c11576040517f08c379a0000000000000000000000000000000000000000000000000000000008152600401610c08906142af565b60405180910390fd5b84600f600086815260200190815260200160002060006101000a81548173ffffffffffffffffffffffffffffffffffffffff021916908373ffffffffffffffffffffffffffffffffffffffff160217905550838573ffffffffffffffffffffffffffffffffffffffff163373ffffffffffffffffffffffffffffffffffffffff167f8c5be1e5ebec7d5bd14f71427d1e84f3dd0314c0f7b2291e5b200ac8c7c3b92560405160405180910390a45050505050565b60125481565b6060600660008373ffffffffffffffffffffffffffffffffffffffff1673ffffffffffffffffffffffffffffffffffffffff168152602001908152602001600020805480602002602001604051908101604052809291908181526020018280548015610d5657602002820191906000526020600020905b815481526020019060010190808311610d42575b50505050509050919050565b8060006005600083815260200190815260200160002060009054906101000a900473ffffffffffffffffffffffffffffffffffffffff1690503373ffffffffffffffffffffffffffffffffffffffff168173ffffffffffffffffffffffffffffffffffffffff161480610e3357503373ffffffffffffffffffffffffffffffffffffffff16600f600084815260200190815260200160002060009054906101000a900473ffffffffffffffffffffffffffffffffffffffff1673ffffffffffffffffffffffffffffffffffffffff16145b80610ec45750601060008273ffffffffffffffffffffffffffffffffffffffff1673ffffffffffffffffffffffffffffffffffffffff16815260200190815260200160002060003373ffffffffffffffffffffffffffffffffffffffff1673ffffffffffffffffffffffffffffffffffffffff16815260200190815260200160002060009054906101000a900460ff165b610ecd57600080fd5b82600073ffffffffffffffffffffffffffffffffffffffff166005600083815260200190815260200160002060009054906101000a900473ffffffffffffffffffffffffffffffffffffffff1673ffffffffffffffffffffffffffffffffffffffff161415610f71576040517f08c379a0000000000000000000000000000000000000000000000000000000008152600401610f689061412f565b60405180910390fd5b610f7c868686612533565b505050505050565b6008543414610fc8576040517f08c379a0000000000000000000000000000000000000000000000000000000008152600401610fbf9061414f565b60405180910390fd5b610fd06127c0565b3373ffffffffffffffffffffffffffffffffffffffff167f1c3899f94ecc08f5f95b67284618b3ca13d80b66fbc5b7f07c6b8bd30f61fcbf60405160405180910390a2565b61101d612891565b73ffffffffffffffffffffffffffffffffffffffff1661103b6113d6565b73ffffffffffffffffffffffffffffffffffffffff1614611091576040517f08c379a00000000000000000000000000000000000000000000000000000000081526004016110889061422f565b60405180910390fd5b80600b8190555050565b6110a3612891565b73ffffffffffffffffffffffffffffffffffffffff166110c16113d6565b73ffffffffffffffffffffffffffffffffffffffff1614611117576040517f08c379a000000000000000000000000000000000000000000000000000000000815260040161110e9061422f565b60405180910390fd5b80600a8190555050565b60056020528060005260406000206000915054906101000a900473ffffffffffffffffffffffffffffffffffffffff1681565b61116f83838360405180602001604052806000815250612899565b505050565b60115481565b611182612891565b73ffffffffffffffffffffffffffffffffffffffff166111a06113d6565b73ffffffffffffffffffffffffffffffffffffffff16146111f6576040517f08c379a00000000000000000000000000000000000000000000000000000000081526004016111ed9061422f565b60405180910390fd5b8060088190555050565b60006005600083815260200190815260200160002060009054906101000a900473ffffffffffffffffffffffffffffffffffffffff169050919050565b6000600d60008373ffffffffffffffffffffffffffffffffffffffff1673ffffffffffffffffffffffffffffffffffffffff168152602001908152602001600020549050919050565b61128e612891565b73ffffffffffffffffffffffffffffffffffffffff166112ac6113d6565b73ffffffffffffffffffffffffffffffffffffffff1614611302576040517f08c379a00000000000000000000000000000000000000000000000000000000081526004016112f99061422f565b60405180910390fd5b61130c6000612c6e565b565b600d6020528060005260406000206000915090505481565b61132e612891565b73ffffffffffffffffffffffffffffffffffffffff1661134c6113d6565b73ffffffffffffffffffffffffffffffffffffffff16146113a2576040517f08c379a00000000000000000000000000000000000000000000000000000000081526004016113999061422f565b60405180910390fd5b60006113af848484612d32565b90506113bb8582612e13565b600180546113c99190614468565b6001819055505050505050565b60008060009054906101000a900473ffffffffffffffffffffffffffffffffffffffff16905090565b6004818154811061140f57600080fd5b90600052602060002090600402016000915090508060000154908060010154908060020154908060030154905084565b8060006005600083815260200190815260200160002060009054906101000a900473ffffffffffffffffffffffffffffffffffffffff1690503373ffffffffffffffffffffffffffffffffffffffff168173ffffffffffffffffffffffffffffffffffffffff16146114e6576040517f08c379a00000000000000000000000000000000000000000000000000000000081526004016114dd9061428f565b60405180910390fd5b600060156000601460008781526020019081526020016000205481526020019081526020016000206040518060c001604052908160008201548152602001600182015481526020016002820160009054906101000a900473ffffffffffffffffffffffffffffffffffffffff1673ffffffffffffffffffffffffffffffffffffffff1673ffffffffffffffffffffffffffffffffffffffff16815260200160038201548152602001600482015481526020016005820154815250509050600073ffffffffffffffffffffffffffffffffffffffff16816040015173ffffffffffffffffffffffffffffffffffffffff1614611616576040517f08c379a000000000000000000000000000000000000000000000000000000000815260040161160d906140ef565b60405180910390fd5b4281606001511161165c576040517f08c379a0000000000000000000000000000000000000000000000000000000008152600401611653906142cf565b60405180910390fd5b60006013600086815260200190815260200160002060006101000a81548160ff0219169083151502179055506000601460008681526020019081526020016000208190555050505050565b600060156000601460008581526020019081526020016000205481526020019081526020016000206040518060c001604052908160008201548152602001600182015481526020016002820160009054906101000a900473ffffffffffffffffffffffffffffffffffffffff1673ffffffffffffffffffffffffffffffffffffffff1673ffffffffffffffffffffffffffffffffffffffff168152602001600382015481526020016004820154815260200160058201548152505090503373ffffffffffffffffffffffffffffffffffffffff166005600084815260200190815260200160002060009054906101000a900473ffffffffffffffffffffffffffffffffffffffff1673ffffffffffffffffffffffffffffffffffffffff161415611806576040517f08c379a00000000000000000000000000000000000000000000000000000000081526004016117fd906141ef565b60405180910390fd5b6013600083815260200190815260200160002060009054906101000a900460ff16611866576040517f08c379a000000000000000000000000000000000000000000000000000000000815260040161185d9061418f565b60405180910390fd5b806020015134116118ac576040517f08c379a00000000000000000000000000000000000000000000000000000000081526004016118a39061416f565b60405180910390fd5b600081604001519050600073ffffffffffffffffffffffffffffffffffffffff168173ffffffffffffffffffffffffffffffffffffffff1614611935578073ffffffffffffffffffffffffffffffffffffffff166108fc83602001519081150290604051600060405180830381858888f19350505050158015611933573d6000803e3d6000fd5b505b33601560008460000151815260200190815260200160002060020160006101000a81548173ffffffffffffffffffffffffffffffffffffffff021916908373ffffffffffffffffffffffffffffffffffffffff1602179055503460156000846000015181526020019081526020016000206001018190555060016015600084600001518152602001908152602001600020600501546119d49190614468565b6015600084600001518152602001908152602001600020600501819055503373ffffffffffffffffffffffffffffffffffffffff16826080015183600001517f379fe8bc550443c6867a021184bb0e5a961f3fcd271160873847410c7bdd0e2834604051611a4291906142ef565b60405180910390a4505050565b60146020528060005260406000206000915090505481565b60066020528160005260406000208181548110611a8357600080fd5b90600052602060002001600091509150505481565b60076020528060005260406000206000915090505481565b80601060003373ffffffffffffffffffffffffffffffffffffffff1673ffffffffffffffffffffffffffffffffffffffff16815260200190815260200160002060008473ffffffffffffffffffffffffffffffffffffffff1673ffffffffffffffffffffffffffffffffffffffff16815260200190815260200160002060006101000a81548160ff0219169083151502179055508173ffffffffffffffffffffffffffffffffffffffff163373ffffffffffffffffffffffffffffffffffffffff167f17307eab39ab6107e8899845ad3d59bd9653f200f220920489ca2b5937696c3183604051611ba191906140b4565b60405180910390a35050565b600e6020528060005260406000206000915054906101000a900460ff1681565b60136020528060005260406000206000915054906101000a900460ff1681565b611bf5612891565b73ffffffffffffffffffffffffffffffffffffffff16611c136113d6565b73ffffffffffffffffffffffffffffffffffffffff1614611c69576040517f08c379a0000000000000000000000000000000000000000000000000000000008152600401611c609061422f565b60405180910390fd5b8060038190555050565b611cc385858585858080601f016020809104026020016040519081016040528093929190818152602001838380828437600081840152601f19601f82011690508083019250505050505050612899565b5050505050565b8060006005600083815260200190815260200160002060009054906101000a900473ffffffffffffffffffffffffffffffffffffffff1690503373ffffffffffffffffffffffffffffffffffffffff168173ffffffffffffffffffffffffffffffffffffffff1614611d71576040517f08c379a0000000000000000000000000000000000000000000000000000000008152600401611d689061428f565b60405180910390fd5b600060156000601460008781526020019081526020016000205481526020019081526020016000206040518060c001604052908160008201548152602001600182015481526020016002820160009054906101000a900473ffffffffffffffffffffffffffffffffffffffff1673ffffffffffffffffffffffffffffffffffffffff1673ffffffffffffffffffffffffffffffffffffffff168152602001600382015481526020016004820154815260200160058201548152505090504281606001511115611e75576040517f08c379a0000000000000000000000000000000000000000000000000000000008152600401611e6c906140cf565b60405180910390fd5b600073ffffffffffffffffffffffffffffffffffffffff16816040015173ffffffffffffffffffffffffffffffffffffffff1614611ec157611ec084826040015183602001516130d6565b5b806040015173ffffffffffffffffffffffffffffffffffffffff16816080015182600001517f774455444039da9400b7ba984f8cc1d8ac5e70c742d01a325cc97979802c15248460200151600073ffffffffffffffffffffffffffffffffffffffff16866040015173ffffffffffffffffffffffffffffffffffffffff161415604051611f4f92919061430a565b60405180910390a460006013600086815260200190815260200160002060006101000a81548160ff0219169083151502179055506000601460008681526020019081526020016000208190555050505050565b611faa612891565b73ffffffffffffffffffffffffffffffffffffffff16611fc86113d6565b73ffffffffffffffffffffffffffffffffffffffff161461201e576040517f08c379a00000000000000000000000000000000000000000000000000000000081526004016120159061422f565b60405180910390fd5b80600c8190555050565b612030612891565b73ffffffffffffffffffffffffffffffffffffffff1661204e6113d6565b73ffffffffffffffffffffffffffffffffffffffff16146120a4576040517f08c379a000000000000000000000000000000000000000000000000000000000815260040161209b9061422f565b60405180910390fd5b8060098190555050565b6000601060008473ffffffffffffffffffffffffffffffffffffffff1673ffffffffffffffffffffffffffffffffffffffff16815260200190815260200160002060008373ffffffffffffffffffffffffffffffffffffffff1673ffffffffffffffffffffffffffffffffffffffff16815260200190815260200160002060009054906101000a900460ff16905092915050565b61214a612891565b73ffffffffffffffffffffffffffffffffffffffff166121686113d6565b73ffffffffffffffffffffffffffffffffffffffff16146121be576040517f08c379a00000000000000000000000000000000000000000000000000000000081526004016121b59061422f565b60405180910390fd5b600073ffffffffffffffffffffffffffffffffffffffff168173ffffffffffffffffffffffffffffffffffffffff16141561222e576040517f08c379a00000000000000000000000000000000000000000000000000000000081526004016122259061410f565b60405180910390fd5b61223781612c6e565b50565b80601154811115612280576040517f08c379a00000000000000000000000000000000000000000000000000000000081526004016122779061424f565b60405180910390fd5b8360006005600083815260200190815260200160002060009054906101000a900473ffffffffffffffffffffffffffffffffffffffff1690503373ffffffffffffffffffffffffffffffffffffffff168173ffffffffffffffffffffffffffffffffffffffff1614612327576040517f08c379a000000000000000000000000000000000000000000000000000000000815260040161231e9061428f565b60405180910390fd5b6013600087815260200190815260200160002060009054906101000a900460ff1615612388576040517f08c379a000000000000000000000000000000000000000000000000000000000815260040161237f9061420f565b60405180910390fd5b60006040518060c001604052806012548152602001878152602001600073ffffffffffffffffffffffffffffffffffffffff16815260200186426123cc9190614468565b81526020018881526020016000815250905080601560006012548152602001908152602001600020600082015181600001556020820151816001015560408201518160020160006101000a81548173ffffffffffffffffffffffffffffffffffffffff021916908373ffffffffffffffffffffffffffffffffffffffff160217905550606082015181600301556080820151816004015560a08201518160050155905050601254601460008981526020019081526020016000208190555060016013600089815260200190815260200160002060006101000a81548160ff0219169083151502179055503373ffffffffffffffffffffffffffffffffffffffff16876012547f7dfee34cc48a7ad6a025da536d05885e750c439dbd20d390192dec1f2f4c04708989426124ff9190614468565b60405161250d929190614333565b60405180910390a460016012546125249190614468565b60128190555050505050505050565b600f600082815260200190815260200160002060006101000a81549073ffffffffffffffffffffffffffffffffffffffff021916905560006007600083815260200190815260200160002054905066038d7ea4c67fff600660006005600086815260200190815260200160002060009054906101000a900473ffffffffffffffffffffffffffffffffffffffff1673ffffffffffffffffffffffffffffffffffffffff1673ffffffffffffffffffffffffffffffffffffffff1681526020019081526020016000208281548110612633577f4e487b7100000000000000000000000000000000000000000000000000000000600052603260045260246000fd5b9060005260206000200181905550826005600084815260200190815260200160002060006101000a81548173ffffffffffffffffffffffffffffffffffffffff021916908373ffffffffffffffffffffffffffffffffffffffff160217905550600660008473ffffffffffffffffffffffffffffffffffffffff1673ffffffffffffffffffffffffffffffffffffffff1681526020019081526020016000208290806001815401808255809150506001900390600052602060002001600090919091909150556001600660008573ffffffffffffffffffffffffffffffffffffffff1673ffffffffffffffffffffffffffffffffffffffff1681526020019081526020016000208054905061274891906144be565b6007600084815260200190815260200160002081905550818373ffffffffffffffffffffffffffffffffffffffff168573ffffffffffffffffffffffffffffffffffffffff167fddf252ad1be2c89b69c2b068fc378daa952ba7f163c4a11628f55a4df523b3ef60405160405180910390a450505050565b60006127d0600c54826003613352565b90506127e0600b54826002613352565b90506127f0600a54826001613352565b90506127fe816009546133c7565b600954600d60003373ffffffffffffffffffffffffffffffffffffffff1673ffffffffffffffffffffffffffffffffffffffff1681526020019081526020016000205461284b9190614468565b600d60003373ffffffffffffffffffffffffffffffffffffffff1673ffffffffffffffffffffffffffffffffffffffff1681526020019081526020016000208190555050565b600033905090565b8160006005600083815260200190815260200160002060009054906101000a900473ffffffffffffffffffffffffffffffffffffffff1690503373ffffffffffffffffffffffffffffffffffffffff168173ffffffffffffffffffffffffffffffffffffffff16148061296a57503373ffffffffffffffffffffffffffffffffffffffff16600f600084815260200190815260200160002060009054906101000a900473ffffffffffffffffffffffffffffffffffffffff1673ffffffffffffffffffffffffffffffffffffffff16145b806129fb5750601060008273ffffffffffffffffffffffffffffffffffffffff1673ffffffffffffffffffffffffffffffffffffffff16815260200190815260200160002060003373ffffffffffffffffffffffffffffffffffffffff1673ffffffffffffffffffffffffffffffffffffffff16815260200190815260200160002060009054906101000a900460ff165b612a0457600080fd5b83600073ffffffffffffffffffffffffffffffffffffffff166005600083815260200190815260200160002060009054906101000a900473ffffffffffffffffffffffffffffffffffffffff1673ffffffffffffffffffffffffffffffffffffffff161415612aa8576040517f08c379a0000000000000000000000000000000000000000000000000000000008152600401612a9f9061412f565b60405180910390fd5b600073ffffffffffffffffffffffffffffffffffffffff168673ffffffffffffffffffffffffffffffffffffffff161415612b18576040517f08c379a0000000000000000000000000000000000000000000000000000000008152600401612b0f9061426f565b60405180910390fd5b612b23878787612533565b612b428673ffffffffffffffffffffffffffffffffffffffff16613427565b15612c655760008673ffffffffffffffffffffffffffffffffffffffff1663150b7a02338a89896040518563ffffffff1660e01b8152600401612b889493929190614046565b602060405180830381600087803b158015612ba257600080fd5b505af1158015612bb6573d6000803e3d6000fd5b505050506040513d601f19601f82011682018060405250810190612bda9190613973565b905063150b7a0260e01b7bffffffffffffffffffffffffffffffffffffffffffffffffffffffff1916817bffffffffffffffffffffffffffffffffffffffffffffffffffffffff191614612c63576040517f08c379a0000000000000000000000000000000000000000000000000000000008152600401612c5a906141cf565b60405180910390fd5b505b50505050505050565b60008060009054906101000a900473ffffffffffffffffffffffffffffffffffffffff169050816000806101000a81548173ffffffffffffffffffffffffffffffffffffffff021916908373ffffffffffffffffffffffffffffffffffffffff1602179055508173ffffffffffffffffffffffffffffffffffffffff168173ffffffffffffffffffffffffffffffffffffffff167f8be0079c531659141344cd1fd0a4f28419497f9722a3daafe3b4186f6b6457e060405160405180910390a35050565b6000806040518060800160405280600154815260200186815260200184815260200185815250905060048190806001815401808255809150506001900390600052602060002090600402016000909190919091506000820151816000015560208201518160010155604082015181600201556060820151816003015550503373ffffffffffffffffffffffffffffffffffffffff167fa47f2b648fe6fee6023b9227628b751649f165f204c8a6e75d3146aca5b1b8a6600154868887604051612dfe94939291906143bd565b60405180910390a26001549150509392505050565b600073ffffffffffffffffffffffffffffffffffffffff168273ffffffffffffffffffffffffffffffffffffffff161415612e83576040517f08c379a0000000000000000000000000000000000000000000000000000000008152600401612e7a9061426f565b60405180910390fd5b600073ffffffffffffffffffffffffffffffffffffffff166005600083815260200190815260200160002060009054906101000a900473ffffffffffffffffffffffffffffffffffffffff1673ffffffffffffffffffffffffffffffffffffffff1614612f25576040517f08c379a0000000000000000000000000000000000000000000000000000000008152600401612f1c906141af565b60405180910390fd5b816005600083815260200190815260200160002060006101000a81548173ffffffffffffffffffffffffffffffffffffffff021916908373ffffffffffffffffffffffffffffffffffffffff160217905550600660008373ffffffffffffffffffffffffffffffffffffffff1673ffffffffffffffffffffffffffffffffffffffff1681526020019081526020016000208190806001815401808255809150506001900390600052602060002001600090919091909150556001600660008473ffffffffffffffffffffffffffffffffffffffff1673ffffffffffffffffffffffffffffffffffffffff1681526020019081526020016000208054905061302c91906144be565b60076000838152602001908152602001600020819055506001600d60008473ffffffffffffffffffffffffffffffffffffffff1673ffffffffffffffffffffffffffffffffffffffff1681526020019081526020016000205461308f9190614468565b600d60008473ffffffffffffffffffffffffffffffffffffffff1673ffffffffffffffffffffffffffffffffffffffff168152602001908152602001600020819055505050565b60006005600085815260200190815260200160002060009054906101000a900473ffffffffffffffffffffffffffffffffffffffff16905060006007600086815260200190815260200160002054905066038d7ea4c67fff600660006005600089815260200190815260200160002060009054906101000a900473ffffffffffffffffffffffffffffffffffffffff1673ffffffffffffffffffffffffffffffffffffffff1673ffffffffffffffffffffffffffffffffffffffff16815260200190815260200160002082815481106131d8577f4e487b7100000000000000000000000000000000000000000000000000000000600052603260045260246000fd5b9060005260206000200181905550600660008573ffffffffffffffffffffffffffffffffffffffff1673ffffffffffffffffffffffffffffffffffffffff1681526020019081526020016000208590806001815401808255809150506001900390600052602060002001600090919091909150556001600660008673ffffffffffffffffffffffffffffffffffffffff1673ffffffffffffffffffffffffffffffffffffffff1681526020019081526020016000208054905061329b91906144be565b6007600087815260200190815260200160002081905550836005600087815260200190815260200160002060006101000a81548173ffffffffffffffffffffffffffffffffffffffff021916908373ffffffffffffffffffffffffffffffffffffffff1602179055508173ffffffffffffffffffffffffffffffffffffffff166108fc849081150290604051600060405180830381858888f1935050505015801561334a573d6000803e3d6000fd5b505050505050565b600080839050600085613363613472565b61336d91906145ec565b14156133bc576000600354613380613472565b61338a91906145ec565b9050600160025461339b9190614468565b6002819055506133ab81856134a9565b6001856133b89190614468565b9150505b809150509392505050565b60008290505b818110156134225760006003546133e2613472565b6133ec91906145ec565b905060016002546133fd9190614468565b60028190555061340e8160006134a9565b50808061341a90614599565b9150506133cd565b505050565b60008060007fc5d2460186f7233c927e7db2dcc703c0e500b653ca82273b7bfad8045d85a47060001b9050833f91506000801b82141580156134695750808214155b92505050919050565b6000444260025460405160200161348b93929190613fee565b6040516020818303038152906040528051906020012060001c905090565b60006134b3613472565b905060006040518060800160405280600154815260200185815260200183815260200184815250905060048190806001815401808255809150506001900390600052602060002090600402016000909190919091506000820151816000015560208201518160010155604082015181600201556060820151816003015550503373ffffffffffffffffffffffffffffffffffffffff167fa47f2b648fe6fee6023b9227628b751649f165f204c8a6e75d3146aca5b1b8a660015485878660405161358094939291906143bd565b60405180910390a23360056000600154815260200190815260200160002060006101000a81548173ffffffffffffffffffffffffffffffffffffffff021916908373ffffffffffffffffffffffffffffffffffffffff160217905550600660003373ffffffffffffffffffffffffffffffffffffffff1673ffffffffffffffffffffffffffffffffffffffff16815260200190815260200160002060015490806001815401808255809150506001900390600052602060002001600090919091909150556001600660003373ffffffffffffffffffffffffffffffffffffffff1673ffffffffffffffffffffffffffffffffffffffff1681526020019081526020016000208054905061369391906144be565b60076000600154815260200190815260200160002081905550600180546136ba9190614468565b60018190555050505050565b6000813590506136d58161468c565b92915050565b6000813590506136ea816146a3565b92915050565b6000815190506136ff816146ba565b92915050565b60008083601f84011261371757600080fd5b8235905067ffffffffffffffff81111561373057600080fd5b60208301915083600182028301111561374857600080fd5b9250929050565b60008135905061375e816146d1565b92915050565b60006020828403121561377657600080fd5b6000613784848285016136c6565b91505092915050565b600080604083850312156137a057600080fd5b60006137ae858286016136c6565b92505060206137bf858286016136c6565b9150509250929050565b6000806000606084860312156137de57600080fd5b60006137ec868287016136c6565b93505060206137fd868287016136c6565b925050604061380e8682870161374f565b9150509250925092565b60008060008060006080868803121561383057600080fd5b600061383e888289016136c6565b955050602061384f888289016136c6565b94505060406138608882890161374f565b935050606086013567ffffffffffffffff81111561387d57600080fd5b61388988828901613705565b92509250509295509295909350565b600080604083850312156138ab57600080fd5b60006138b9858286016136c6565b92505060206138ca858286016136db565b9150509250929050565b600080604083850312156138e757600080fd5b60006138f5858286016136c6565b92505060206139068582860161374f565b9150509250929050565b6000806000806080858703121561392657600080fd5b6000613934878288016136c6565b94505060206139458782880161374f565b93505060406139568782880161374f565b92505060606139678782880161374f565b91505092959194509250565b60006020828403121561398557600080fd5b6000613993848285016136f0565b91505092915050565b6000602082840312156139ae57600080fd5b60006139bc8482850161374f565b91505092915050565b6000806000606084860312156139da57600080fd5b60006139e88682870161374f565b93505060206139f98682870161374f565b9250506040613a0a8682870161374f565b9150509250925092565b6000613a208383613fb9565b60208301905092915050565b613a35816144f2565b82525050565b6000613a4682614412565b613a508185614435565b9350613a5b83614402565b8060005b83811015613a8c578151613a738882613a14565b9750613a7e83614428565b925050600181019050613a5f565b5085935050505092915050565b613aa281614504565b82525050565b6000613ab38261441d565b613abd8185614446565b9350613acd818560208601614566565b613ad68161467b565b840191505092915050565b6000613aee601883614457565b91507f41554354494f4e204e4f54205945542046494e495348454400000000000000006000830152602082019050919050565b6000613b2e602683614457565b91507f43414e4e4f542043414e43454c20414e2041554354494f4e205448415420484160008301527f53204249445300000000000000000000000000000000000000000000000000006020830152604082019050919050565b6000613b94602683614457565b91507f4f776e61626c653a206e6577206f776e657220697320746865207a65726f206160008301527f64647265737300000000000000000000000000000000000000000000000000006020830152604082019050919050565b6000613bfa600c83614457565b91507f494e56414c4944204341524400000000000000000000000000000000000000006000830152602082019050919050565b6000613c3a602083614457565b91507f56414c55452053454e54204e4f5420455155414c20544f2043415244204645456000830152602082019050919050565b6000613c7a601a83614457565b91507f424944204c4f574552205448414e2043555252454e54204249440000000000006000830152602082019050919050565b6000613cba601183614457565b91507f43415244204e4f5420464f522053414c450000000000000000000000000000006000830152602082019050919050565b6000613cfa601383614457565b91507f4341524420414c524541445920455849535453000000000000000000000000006000830152602082019050919050565b6000613d3a601283614457565b91507f43414e4e4f542052454345495645204e465400000000000000000000000000006000830152602082019050919050565b6000613d7a601c83614457565b91507f43414e204e4f5420424944204f4e20434152445320594f55204f574e000000006000830152602082019050919050565b6000613dba601b83614457565b91507f4341524420414c524541445920555020464f522041554354494f4e00000000006000830152602082019050919050565b6000613dfa602083614457565b91507f4f776e61626c653a2063616c6c6572206973206e6f7420746865206f776e65726000830152602082019050919050565b6000613e3a601883614457565b91507f424944204455524154494f4e204e4f5420414c4c4f57454400000000000000006000830152602082019050919050565b6000613e7a600c83614457565b91507f5a45524f204144445245535300000000000000000000000000000000000000006000830152602082019050919050565b6000613eba602783614457565b91507f4f4e4c592043415244204f574e45522043414e20504f535420495420464f522060008301527f41554354494f4e000000000000000000000000000000000000000000000000006020830152604082019050919050565b6000613f20601783614457565b91507f4e4f542043555252454e5420544f4b454e204f574e45520000000000000000006000830152602082019050919050565b6000613f60602c83614457565b91507f43414e4e4f542043414e43454c20414e2041554354494f4e204146544552204960008301527f54204953204558504952454400000000000000000000000000000000000000006020830152604082019050919050565b613fc28161455c565b82525050565b613fd18161455c565b82525050565b613fe8613fe38261455c565b6145e2565b82525050565b6000613ffa8286613fd7565b60208201915061400a8285613fd7565b60208201915061401a8284613fd7565b602082019150819050949350505050565b60006020820190506140406000830184613a2c565b92915050565b600060808201905061405b6000830187613a2c565b6140686020830186613a2c565b6140756040830185613fc8565b81810360608301526140878184613aa8565b905095945050505050565b600060208201905081810360008301526140ac8184613a3b565b905092915050565b60006020820190506140c96000830184613a99565b92915050565b600060208201905081810360008301526140e881613ae1565b9050919050565b6000602082019050818103600083015261410881613b21565b9050919050565b6000602082019050818103600083015261412881613b87565b9050919050565b6000602082019050818103600083015261414881613bed565b9050919050565b6000602082019050818103600083015261416881613c2d565b9050919050565b6000602082019050818103600083015261418881613c6d565b9050919050565b600060208201905081810360008301526141a881613cad565b9050919050565b600060208201905081810360008301526141c881613ced565b9050919050565b600060208201905081810360008301526141e881613d2d565b9050919050565b6000602082019050818103600083015261420881613d6d565b9050919050565b6000602082019050818103600083015261422881613dad565b9050919050565b6000602082019050818103600083015261424881613ded565b9050919050565b6000602082019050818103600083015261426881613e2d565b9050919050565b6000602082019050818103600083015261428881613e6d565b9050919050565b600060208201905081810360008301526142a881613ead565b9050919050565b600060208201905081810360008301526142c881613f13565b9050919050565b600060208201905081810360008301526142e881613f53565b9050919050565b60006020820190506143046000830184613fc8565b92915050565b600060408201905061431f6000830185613fc8565b61432c6020830184613a99565b9392505050565b60006040820190506143486000830185613fc8565b6143556020830184613fc8565b9392505050565b600060c0820190506143716000830189613fc8565b61437e6020830188613fc8565b61438b6040830187613a2c565b6143986060830186613fc8565b6143a56080830185613fc8565b6143b260a0830184613fc8565b979650505050505050565b60006080820190506143d26000830187613fc8565b6143df6020830186613fc8565b6143ec6040830185613fc8565b6143f96060830184613fc8565b95945050505050565b6000819050602082019050919050565b600081519050919050565b600081519050919050565b6000602082019050919050565b600082825260208201905092915050565b600082825260208201905092915050565b600082825260208201905092915050565b60006144738261455c565b915061447e8361455c565b9250827fffffffffffffffffffffffffffffffffffffffffffffffffffffffffffffffff038211156144b3576144b261461d565b5b828201905092915050565b60006144c98261455c565b91506144d48361455c565b9250828210156144e7576144e661461d565b5b828203905092915050565b60006144fd8261453c565b9050919050565b60008115159050919050565b60007fffffffff0000000000000000000000000000000000000000000000000000000082169050919050565b600073ffffffffffffffffffffffffffffffffffffffff82169050919050565b6000819050919050565b60005b83811015614584578082015181840152602081019050614569565b83811115614593576000848401525b50505050565b60006145a48261455c565b91507fffffffffffffffffffffffffffffffffffffffffffffffffffffffffffffffff8214156145d7576145d661461d565b5b600182019050919050565b6000819050919050565b60006145f78261455c565b91506146028361455c565b9250826146125761461161464c565b5b828206905092915050565b7f4e487b7100000000000000000000000000000000000000000000000000000000600052601160045260246000fd5b7f4e487b7100000000000000000000000000000000000000000000000000000000600052601260045260246000fd5b6000601f19601f8301169050919050565b614695816144f2565b81146146a057600080fd5b50565b6146ac81614504565b81146146b757600080fd5b50565b6146c381614510565b81146146ce57600080fd5b50565b6146da8161455c565b81146146e557600080fd5b5056fea2646970667358221220f2009ebee4801f129b86d82ab10428d545b4acd198c44121c8d96a23b3f7242364736f6c63430008000033",
  "immutableReferences": {},
  "source": "// SPDX-License-Identifier: UNLICENSED\npragma solidity ^0.8.0;\n\nimport \"./card-ownership.sol\";\n\n// abstract contract Aion {\n//     uint256 public serviceFee;\n//     function ScheduleCall(uint256 blocknumber, address to, uint256 value, uint256 gaslimit, uint256 gasprice, bytes memory data, bool schedType) virtual public payable returns (uint,address);\n//     function cancellScheduledTx(uint256 blocknumber, address from, address to, uint256 value, uint256 gaslimit, uint256 gasprice, uint256 fee, bytes memory data, uint256 aionId, bool schedType) virtual public payable returns(bool);\n// }\n\ncontract CardAuction is CardOwnership {\n\n    // Aion aion;\n    uint public maxAuctionDuration = 604800;\n    uint public auctionId = 1;\n    mapping(uint => bool) public cardIsForSale;\n    mapping(uint => uint) public cardToAuctionId;\n    mapping(uint => Auction) public auctionIdToAuction;\n\n    struct Auction {\n        uint auctionId;\n        uint currentBid;\n        address leadingBidder;\n        uint expireDate;\n        uint cardId;\n        uint bidCount;\n    }\n    \n    event AuctionOpened(uint indexed auctionId, uint indexed cardId, uint startingBid, uint expireDate, address indexed owner);\n    event BidPlaced(uint indexed auctionId, uint indexed cardId, uint bid, address indexed bidder);\n    event AuctionClosed(uint indexed auctionId, uint indexed cardId, uint salePrice, address indexed to, bool completed);\n\n    modifier onlyCardOwner(uint _cardId) {\n        address owner = cardIdToOwner[_cardId];\n        require(owner == msg.sender, 'ONLY CARD OWNER CAN POST IT FOR AUCTION');\n        _;\n    }\n\n    modifier checkAuctionDuration(uint _duration) {\n        require(_duration <= maxAuctionDuration, 'BID DURATION NOT ALLOWED');\n        _;\n    }\n\n    // Keeping for possible scheduler integration\n    //\n    // function createCardAuction(uint _cardId, uint _startingBid, uint _duration) external checkAuctionDuration(_duration) onlyCardOwner(_cardId) {\n    //     require(!cardIsForSale[_cardId], 'CARD ALREADY UP FOR AUCTION');\n    //     aion = Aion(0xFcFB45679539667f7ed55FA59A15c8Cad73d9a4E);\n    //     bytes memory data = abi.encodeWithSelector(bytes4(keccak256('endAuction(uint)')), _cardId);\n    //     uint callCost = 500000*1e9 + aion.serviceFee();\n    //     aion.ScheduleCall{value: callCost}(block.timestamp + _duration, address(this), 0, 500000, 1e9, data, true);        \n\n    //     cardIsForSale[_cardId] = true;\n    //     cardToCurrentBid[_cardId] = _startingBid;\n    //     auctionExpireDate[_cardId] = block.timestamp + _duration;\n    //     // emit AuctionOpened(_cardId, _startingBid, block.timestamp + _duration);\n    //     AuctionOpened(auctionId, _cardId, _startingBid, block.timestamp + _duration, msg.sender);\n    // }\n\n    function createCardAuction(uint _cardId, uint _startingBid, uint _duration) external checkAuctionDuration(_duration) onlyCardOwner(_cardId) {\n        require(!cardIsForSale[_cardId], 'CARD ALREADY UP FOR AUCTION');\n\n        Auction memory auction = Auction(auctionId, _startingBid, address(0), block.timestamp + _duration, _cardId, 0);\n        auctionIdToAuction[auctionId] = auction;\n\n        cardToAuctionId[_cardId] = auctionId;\n        cardIsForSale[_cardId] = true;\n        emit AuctionOpened(auctionId, _cardId, _startingBid, block.timestamp + _duration, msg.sender);\n        auctionId = auctionId + 1;\n    }\n\n    function placeBid(uint _cardId) external payable {\n        Auction memory auction = auctionIdToAuction[cardToAuctionId[_cardId]];\n\n        require(cardIdToOwner[_cardId] != msg.sender, 'CAN NOT BID ON CARDS YOU OWN');\n        require(cardIsForSale[_cardId], 'CARD NOT FOR SALE');\n        require(msg.value > auction.currentBid, 'BID LOWER THAN CURRENT BID');\n\n        address payable outbidAddress = payable(auction.leadingBidder);\n\n        if(outbidAddress != address(0)){\n            outbidAddress.transfer(auction.currentBid);\n        }\n\n        auctionIdToAuction[auction.auctionId].leadingBidder = msg.sender;\n        auctionIdToAuction[auction.auctionId].currentBid = msg.value;\n        auctionIdToAuction[auction.auctionId].bidCount = auctionIdToAuction[auction.auctionId].bidCount + 1;\n\n        emit BidPlaced(auction.auctionId, auction.cardId, msg.value, msg.sender);\n    }\n\n    function endAuction(uint _cardId) public onlyCardOwner(_cardId) {\n        Auction memory auction = auctionIdToAuction[cardToAuctionId[_cardId]];\n\n        require(auction.expireDate <= block.timestamp, \"AUCTION NOT YET FINISHED\");\n\n        if(auction.leadingBidder != address(0)) {\n            transferCard(_cardId, auction.leadingBidder, auction.currentBid);\n        }\n\n        AuctionClosed(auction.auctionId, auction.cardId, auction.currentBid, auction.leadingBidder, auction.leadingBidder != address(0));\n        cardIsForSale[_cardId] = false;\n        cardToAuctionId[_cardId] = 0;\n    }\n\n    function cancelAuction(uint _cardId) public onlyCardOwner(_cardId) {\n        Auction memory auction = auctionIdToAuction[cardToAuctionId[_cardId]];\n\n        require(auction.leadingBidder == address(0), \"CANNOT CANCEL AN AUCTION THAT HAS BIDS\");\n        require(auction.expireDate > block.timestamp, \"CANNOT CANCEL AN AUCTION AFTER IT IS EXPIRED\");\n\n        cardIsForSale[_cardId] = false;\n        cardToAuctionId[_cardId] = 0;\n    }\n\n    function transferCard(uint _cardId, address _winner, uint _price) private {\n        address payable beneficiary = payable(cardIdToOwner[_cardId]);\n\n        uint cardIndex = cardIsAtIndex[_cardId];\n        userOwnedCards[cardIdToOwner[_cardId]][cardIndex] = 999999999999999;\n\n        userOwnedCards[_winner].push(_cardId);\n        cardIsAtIndex[_cardId] = userOwnedCards[_winner].length - 1;\n        cardIdToOwner[_cardId] = _winner;\n        beneficiary.transfer(_price);\n    }\n}",
  "sourcePath": "/Users/tkma4fr/Development/solidity-app/contracts/card-auction.sol",
  "compiler": {
    "name": "solc",
    "version": "0.8.0+commit.c7dfd78e.Emscripten.clang"
  },
  "schemaVersion": "3.4.2",
  "updatedAt": "2021-10-14T00:57:59.898Z",
  "networkType": "ethereum",
  "devdoc": {
    "kind": "dev",
    "methods": {
      "approve(address,uint256)": {
        "details": "The zero address indicates there is no approved address.  Throws unless `msg.sender` is the current NFT owner, or an authorized  operator of the current owner.",
        "params": {
          "_approved": "The new approved NFT controller",
          "_tokenId": "The NFT to approve"
        }
      },
      "balanceOf(address)": {
        "details": "NFTs assigned to the zero address are considered invalid, and this  function throws for queries about the zero address.",
        "params": {
          "_owner": "An address for whom to query the balance"
        },
        "returns": {
          "_0": "The number of NFTs owned by `_owner`, possibly zero"
        }
      },
      "getApproved(uint256)": {
        "details": "Throws if `_tokenId` is not a valid NFT.",
        "params": {
          "_tokenId": "The NFT to find the approved address for"
        },
        "returns": {
          "_0": "The approved address for this NFT, or the zero address if there is none"
        }
      },
      "isApprovedForAll(address,address)": {
        "params": {
          "_operator": "The address that acts on behalf of the owner",
          "_owner": "The address that owns the NFTs"
        },
        "returns": {
          "_0": "True if `_operator` is an approved operator for `_owner`, false otherwise"
        }
      },
      "owner()": {
        "details": "Returns the address of the current owner."
      },
      "ownerOf(uint256)": {
        "details": "NFTs assigned to zero address are considered invalid, and queries  about them do throw.",
        "params": {
          "_tokenId": "The identifier for an NFT"
        },
        "returns": {
          "_0": "The address of the owner of the NFT"
        }
      },
      "renounceOwnership()": {
        "details": "Leaves the contract without owner. It will not be possible to call `onlyOwner` functions anymore. Can only be called by the current owner. NOTE: Renouncing ownership will leave the contract without an owner, thereby removing any functionality that is only available to the owner."
      },
      "safeTransferFrom(address,address,uint256)": {
        "details": "This works identically to the other function with an extra data parameter,  except this function just sets data to \"\".",
        "params": {
          "_from": "The current owner of the NFT",
          "_to": "The new owner",
          "_tokenId": "The NFT to transfer"
        }
      },
      "setApprovalForAll(address,bool)": {
        "details": "Emits the ApprovalForAll event. The contract MUST allow  multiple operators per owner.",
        "params": {
          "_approved": "True if the operator is approved, false to revoke approval",
          "_operator": "Address to add to the set of authorized operators"
        }
      },
      "transferFrom(address,address,uint256)": {
        "details": "Throws unless `msg.sender` is the current owner, an authorized  operator, or the approved address for this NFT. Throws if `_from` is  not the current owner. Throws if `_to` is the zero address. Throws if  `_tokenId` is not a valid NFT.",
        "params": {
          "_from": "The current owner of the NFT",
          "_to": "The new owner",
          "_tokenId": "The NFT to transfer"
        }
      },
      "transferOwnership(address)": {
        "details": "Transfers ownership of the contract to a new account (`newOwner`). Can only be called by the current owner."
      }
    },
    "version": 1
  },
  "userdoc": {
    "kind": "user",
    "methods": {
      "approve(address,uint256)": {
        "notice": "Change or reaffirm the approved address for an NFT"
      },
      "balanceOf(address)": {
        "notice": "Count all NFTs assigned to an owner"
      },
      "getApproved(uint256)": {
        "notice": "Get the approved address for a single NFT"
      },
      "isApprovedForAll(address,address)": {
        "notice": "Query if an address is an authorized operator for another address"
      },
      "ownerOf(uint256)": {
        "notice": "Find the owner of an NFT"
      },
      "safeTransferFrom(address,address,uint256)": {
        "notice": "Transfers the ownership of an NFT from one address to another address"
      },
      "setApprovalForAll(address,bool)": {
        "notice": "Enable or disable approval for a third party (\"operator\") to manage  all of `msg.sender`'s assets"
      },
      "transferFrom(address,address,uint256)": {
        "notice": "Transfer ownership of an NFT -- THE CALLER IS RESPONSIBLE  TO CONFIRM THAT `_to` IS CAPABLE OF RECEIVING NFTS OR ELSE  THEY MAY BE PERMANENTLY LOST"
      }
    },
    "version": 1
  }
}