{
  "contractName": "CardGame",
  "abi": [
    {
      "anonymous": false,
      "inputs": [
        {
          "indexed": true,
          "internalType": "address",
          "name": "_owner",
          "type": "address"
        },
        {
          "indexed": true,
          "internalType": "address",
          "name": "_approved",
          "type": "address"
        },
        {
          "indexed": true,
          "internalType": "uint256",
          "name": "_tokenId",
          "type": "uint256"
        }
      ],
      "name": "Approval",
      "type": "event"
    },
    {
      "anonymous": false,
      "inputs": [
        {
          "indexed": true,
          "internalType": "address",
          "name": "_owner",
          "type": "address"
        },
        {
          "indexed": true,
          "internalType": "address",
          "name": "_operator",
          "type": "address"
        },
        {
          "indexed": false,
          "internalType": "bool",
          "name": "_approved",
          "type": "bool"
        }
      ],
      "name": "ApprovalForAll",
      "type": "event"
    },
    {
      "anonymous": false,
      "inputs": [
        {
          "indexed": true,
          "internalType": "uint256",
          "name": "auctionId",
          "type": "uint256"
        },
        {
          "indexed": true,
          "internalType": "uint256",
          "name": "cardId",
          "type": "uint256"
        },
        {
          "indexed": false,
          "internalType": "uint256",
          "name": "salePrice",
          "type": "uint256"
        },
        {
          "indexed": true,
          "internalType": "address",
          "name": "to",
          "type": "address"
        },
        {
          "indexed": false,
          "internalType": "bool",
          "name": "completed",
          "type": "bool"
        }
      ],
      "name": "AuctionClosed",
      "type": "event"
    },
    {
      "anonymous": false,
      "inputs": [
        {
          "indexed": true,
          "internalType": "uint256",
          "name": "auctionId",
          "type": "uint256"
        },
        {
          "indexed": true,
          "internalType": "uint256",
          "name": "cardId",
          "type": "uint256"
        },
        {
          "indexed": false,
          "internalType": "uint256",
          "name": "startingBid",
          "type": "uint256"
        },
        {
          "indexed": false,
          "internalType": "uint256",
          "name": "expireDate",
          "type": "uint256"
        },
        {
          "indexed": true,
          "internalType": "address",
          "name": "owner",
          "type": "address"
        }
      ],
      "name": "AuctionOpened",
      "type": "event"
    },
    {
      "anonymous": false,
      "inputs": [
        {
          "indexed": true,
          "internalType": "uint256",
          "name": "auctionId",
          "type": "uint256"
        },
        {
          "indexed": true,
          "internalType": "uint256",
          "name": "cardId",
          "type": "uint256"
        },
        {
          "indexed": false,
          "internalType": "uint256",
          "name": "bid",
          "type": "uint256"
        },
        {
          "indexed": true,
          "internalType": "address",
          "name": "bidder",
          "type": "address"
        }
      ],
      "name": "BidPlaced",
      "type": "event"
    },
    {
      "anonymous": false,
      "inputs": [
        {
          "indexed": false,
          "internalType": "uint256",
          "name": "cardId",
          "type": "uint256"
        },
        {
          "indexed": false,
          "internalType": "uint256",
          "name": "cardType",
          "type": "uint256"
        },
        {
          "indexed": false,
          "internalType": "uint256",
          "name": "playerId",
          "type": "uint256"
        },
        {
          "indexed": false,
          "internalType": "uint256",
          "name": "attributeHash",
          "type": "uint256"
        },
        {
          "indexed": true,
          "internalType": "address",
          "name": "owner",
          "type": "address"
        }
      ],
      "name": "CardCreated",
      "type": "event"
    },
    {
      "anonymous": false,
      "inputs": [
        {
          "indexed": true,
          "internalType": "address",
          "name": "owner",
          "type": "address"
        }
      ],
      "name": "CardPackPurchased",
      "type": "event"
    },
    {
      "anonymous": false,
      "inputs": [
        {
          "indexed": false,
          "internalType": "uint256",
          "name": "gameId",
          "type": "uint256"
        },
        {
          "indexed": false,
          "internalType": "uint256",
          "name": "playerCount",
          "type": "uint256"
        },
        {
          "indexed": false,
          "internalType": "uint256",
          "name": "cardCount",
          "type": "uint256"
        },
        {
          "indexed": false,
          "internalType": "uint256",
          "name": "entryFee",
          "type": "uint256"
        }
      ],
      "name": "GameCreated",
      "type": "event"
    },
    {
      "anonymous": false,
      "inputs": [
        {
          "indexed": false,
          "internalType": "uint256",
          "name": "gameId",
          "type": "uint256"
        },
        {
          "indexed": true,
          "internalType": "address",
          "name": "player",
          "type": "address"
        }
      ],
      "name": "GameJoined",
      "type": "event"
    },
    {
      "anonymous": false,
      "inputs": [
        {
          "indexed": true,
          "internalType": "address",
          "name": "previousOwner",
          "type": "address"
        },
        {
          "indexed": true,
          "internalType": "address",
          "name": "newOwner",
          "type": "address"
        }
      ],
      "name": "OwnershipTransferred",
      "type": "event"
    },
    {
      "anonymous": false,
      "inputs": [
        {
          "indexed": true,
          "internalType": "address",
          "name": "_from",
          "type": "address"
        },
        {
          "indexed": true,
          "internalType": "address",
          "name": "_to",
          "type": "address"
        },
        {
          "indexed": true,
          "internalType": "uint256",
          "name": "_tokenId",
          "type": "uint256"
        }
      ],
      "name": "Transfer",
      "type": "event"
    },
    {
      "inputs": [
        {
          "internalType": "address",
          "name": "_approved",
          "type": "address"
        },
        {
          "internalType": "uint256",
          "name": "_tokenId",
          "type": "uint256"
        }
      ],
      "name": "approve",
      "outputs": [],
      "stateMutability": "payable",
      "type": "function",
      "payable": true
    },
    {
      "inputs": [],
      "name": "auctionId",
      "outputs": [
        {
          "internalType": "uint256",
          "name": "",
          "type": "uint256"
        }
      ],
      "stateMutability": "view",
      "type": "function",
      "constant": true
    },
    {
      "inputs": [
        {
          "internalType": "uint256",
          "name": "",
          "type": "uint256"
        }
      ],
      "name": "auctionIdToAuction",
      "outputs": [
        {
          "internalType": "uint256",
          "name": "auctionId",
          "type": "uint256"
        },
        {
          "internalType": "uint256",
          "name": "currentBid",
          "type": "uint256"
        },
        {
          "internalType": "address",
          "name": "leadingBidder",
          "type": "address"
        },
        {
          "internalType": "uint256",
          "name": "expireDate",
          "type": "uint256"
        },
        {
          "internalType": "uint256",
          "name": "cardId",
          "type": "uint256"
        },
        {
          "internalType": "uint256",
          "name": "bidCount",
          "type": "uint256"
        }
      ],
      "stateMutability": "view",
      "type": "function",
      "constant": true
    },
    {
      "inputs": [
        {
          "internalType": "address",
          "name": "_owner",
          "type": "address"
        }
      ],
      "name": "balanceOf",
      "outputs": [
        {
          "internalType": "uint256",
          "name": "",
          "type": "uint256"
        }
      ],
      "stateMutability": "view",
      "type": "function",
      "constant": true
    },
    {
      "inputs": [
        {
          "internalType": "uint256",
          "name": "_cardId",
          "type": "uint256"
        }
      ],
      "name": "cancelAuction",
      "outputs": [],
      "stateMutability": "nonpayable",
      "type": "function"
    },
    {
      "inputs": [
        {
          "internalType": "uint256",
          "name": "",
          "type": "uint256"
        }
      ],
      "name": "cardIdToCard",
      "outputs": [
        {
          "internalType": "uint256",
          "name": "cardId",
          "type": "uint256"
        },
        {
          "internalType": "uint256",
          "name": "playerId",
          "type": "uint256"
        },
        {
          "internalType": "uint256",
          "name": "attributeHash",
          "type": "uint256"
        },
        {
          "internalType": "uint256",
          "name": "cardType",
          "type": "uint256"
        },
        {
          "internalType": "bool",
          "name": "inUse",
          "type": "bool"
        }
      ],
      "stateMutability": "view",
      "type": "function",
      "constant": true
    },
    {
      "inputs": [
        {
          "internalType": "uint256",
          "name": "",
          "type": "uint256"
        }
      ],
      "name": "cardIdToOwner",
      "outputs": [
        {
          "internalType": "address",
          "name": "",
          "type": "address"
        }
      ],
      "stateMutability": "view",
      "type": "function",
      "constant": true
    },
    {
      "inputs": [
        {
          "internalType": "uint256",
          "name": "",
          "type": "uint256"
        }
      ],
      "name": "cardIsAtIndex",
      "outputs": [
        {
          "internalType": "uint256",
          "name": "",
          "type": "uint256"
        }
      ],
      "stateMutability": "view",
      "type": "function",
      "constant": true
    },
    {
      "inputs": [
        {
          "internalType": "uint256",
          "name": "",
          "type": "uint256"
        }
      ],
      "name": "cardIsForSale",
      "outputs": [
        {
          "internalType": "bool",
          "name": "",
          "type": "bool"
        }
      ],
      "stateMutability": "view",
      "type": "function",
      "constant": true
    },
    {
      "inputs": [
        {
          "internalType": "uint256",
          "name": "",
          "type": "uint256"
        }
      ],
      "name": "cardToAuctionId",
      "outputs": [
        {
          "internalType": "uint256",
          "name": "",
          "type": "uint256"
        }
      ],
      "stateMutability": "view",
      "type": "function",
      "constant": true
    },
    {
      "inputs": [
        {
          "internalType": "uint256",
          "name": "_cardId",
          "type": "uint256"
        },
        {
          "internalType": "uint256",
          "name": "_startingBid",
          "type": "uint256"
        },
        {
          "internalType": "uint256",
          "name": "_duration",
          "type": "uint256"
        }
      ],
      "name": "createCardAuction",
      "outputs": [],
      "stateMutability": "nonpayable",
      "type": "function"
    },
    {
      "inputs": [
        {
          "internalType": "uint256",
          "name": "_cardId",
          "type": "uint256"
        }
      ],
      "name": "endAuction",
      "outputs": [],
      "stateMutability": "nonpayable",
      "type": "function"
    },
    {
      "inputs": [
        {
          "internalType": "address",
          "name": "",
          "type": "address"
        }
      ],
      "name": "existingUser",
      "outputs": [
        {
          "internalType": "bool",
          "name": "",
          "type": "bool"
        }
      ],
      "stateMutability": "view",
      "type": "function",
      "constant": true
    },
    {
      "inputs": [],
      "name": "gameId",
      "outputs": [
        {
          "internalType": "uint256",
          "name": "",
          "type": "uint256"
        }
      ],
      "stateMutability": "view",
      "type": "function",
      "constant": true
    },
    {
      "inputs": [
        {
          "internalType": "uint256",
          "name": "",
          "type": "uint256"
        }
      ],
      "name": "gameIdToGame",
      "outputs": [
        {
          "internalType": "uint256",
          "name": "gameId",
          "type": "uint256"
        },
        {
          "internalType": "uint256",
          "name": "numberOfPlayers",
          "type": "uint256"
        },
        {
          "internalType": "uint256",
          "name": "numberOfCardsPerPlayer",
          "type": "uint256"
        },
        {
          "internalType": "uint256",
          "name": "entryFee",
          "type": "uint256"
        },
        {
          "internalType": "bool",
          "name": "open",
          "type": "bool"
        },
        {
          "internalType": "bool",
          "name": "active",
          "type": "bool"
        },
        {
          "internalType": "address",
          "name": "winner",
          "type": "address"
        }
      ],
      "stateMutability": "view",
      "type": "function",
      "constant": true
    },
    {
      "inputs": [
        {
          "internalType": "uint256",
          "name": "_tokenId",
          "type": "uint256"
        }
      ],
      "name": "getApproved",
      "outputs": [
        {
          "internalType": "address",
          "name": "",
          "type": "address"
        }
      ],
      "stateMutability": "view",
      "type": "function",
      "constant": true
    },
    {
      "inputs": [
        {
          "internalType": "address",
          "name": "_address",
          "type": "address"
        }
      ],
      "name": "getUserOwnedCards",
      "outputs": [
        {
          "internalType": "uint256[]",
          "name": "",
          "type": "uint256[]"
        }
      ],
      "stateMutability": "view",
      "type": "function",
      "constant": true
    },
    {
      "inputs": [
        {
          "internalType": "address",
          "name": "_owner",
          "type": "address"
        },
        {
          "internalType": "address",
          "name": "_operator",
          "type": "address"
        }
      ],
      "name": "isApprovedForAll",
      "outputs": [
        {
          "internalType": "bool",
          "name": "",
          "type": "bool"
        }
      ],
      "stateMutability": "view",
      "type": "function",
      "constant": true
    },
    {
      "inputs": [],
      "name": "maxAuctionDuration",
      "outputs": [
        {
          "internalType": "uint256",
          "name": "",
          "type": "uint256"
        }
      ],
      "stateMutability": "view",
      "type": "function",
      "constant": true
    },
    {
      "inputs": [
        {
          "internalType": "address",
          "name": "_to",
          "type": "address"
        },
        {
          "internalType": "uint256",
          "name": "_playerId",
          "type": "uint256"
        },
        {
          "internalType": "uint256",
          "name": "_type",
          "type": "uint256"
        },
        {
          "internalType": "uint256",
          "name": "_attributes",
          "type": "uint256"
        }
      ],
      "name": "mintCustomCard",
      "outputs": [],
      "stateMutability": "nonpayable",
      "type": "function"
    },
    {
      "inputs": [],
      "name": "owner",
      "outputs": [
        {
          "internalType": "address",
          "name": "",
          "type": "address"
        }
      ],
      "stateMutability": "view",
      "type": "function",
      "constant": true
    },
    {
      "inputs": [
        {
          "internalType": "address",
          "name": "",
          "type": "address"
        }
      ],
      "name": "ownerCardCount",
      "outputs": [
        {
          "internalType": "uint256",
          "name": "",
          "type": "uint256"
        }
      ],
      "stateMutability": "view",
      "type": "function",
      "constant": true
    },
    {
      "inputs": [
        {
          "internalType": "uint256",
          "name": "_tokenId",
          "type": "uint256"
        }
      ],
      "name": "ownerOf",
      "outputs": [
        {
          "internalType": "address",
          "name": "",
          "type": "address"
        }
      ],
      "stateMutability": "view",
      "type": "function",
      "constant": true
    },
    {
      "inputs": [
        {
          "internalType": "uint256",
          "name": "_cardId",
          "type": "uint256"
        }
      ],
      "name": "placeBid",
      "outputs": [],
      "stateMutability": "payable",
      "type": "function",
      "payable": true
    },
    {
      "inputs": [],
      "name": "purchaseCardPack",
      "outputs": [],
      "stateMutability": "payable",
      "type": "function",
      "payable": true
    },
    {
      "inputs": [],
      "name": "renounceOwnership",
      "outputs": [],
      "stateMutability": "nonpayable",
      "type": "function"
    },
    {
      "inputs": [
        {
          "internalType": "address",
          "name": "_from",
          "type": "address"
        },
        {
          "internalType": "address",
          "name": "_to",
          "type": "address"
        },
        {
          "internalType": "uint256",
          "name": "_tokenId",
          "type": "uint256"
        }
      ],
      "name": "safeTransferFrom",
      "outputs": [],
      "stateMutability": "payable",
      "type": "function",
      "payable": true
    },
    {
      "inputs": [
        {
          "internalType": "address",
          "name": "_from",
          "type": "address"
        },
        {
          "internalType": "address",
          "name": "_to",
          "type": "address"
        },
        {
          "internalType": "uint256",
          "name": "_tokenId",
          "type": "uint256"
        },
        {
          "internalType": "bytes",
          "name": "_data",
          "type": "bytes"
        }
      ],
      "name": "safeTransferFrom",
      "outputs": [],
      "stateMutability": "payable",
      "type": "function",
      "payable": true
    },
    {
      "inputs": [
        {
          "internalType": "address",
          "name": "_operator",
          "type": "address"
        },
        {
          "internalType": "bool",
          "name": "_approved",
          "type": "bool"
        }
      ],
      "name": "setApprovalForAll",
      "outputs": [],
      "stateMutability": "nonpayable",
      "type": "function"
    },
    {
      "inputs": [
        {
          "internalType": "uint256",
          "name": "_fee",
          "type": "uint256"
        }
      ],
      "name": "setCardPackFee",
      "outputs": [],
      "stateMutability": "nonpayable",
      "type": "function"
    },
    {
      "inputs": [
        {
          "internalType": "uint256",
          "name": "_quantity",
          "type": "uint256"
        }
      ],
      "name": "setCardPackQuantity",
      "outputs": [],
      "stateMutability": "nonpayable",
      "type": "function"
    },
    {
      "inputs": [
        {
          "internalType": "uint256",
          "name": "_newOdds",
          "type": "uint256"
        }
      ],
      "name": "setExotixCardOdds",
      "outputs": [],
      "stateMutability": "nonpayable",
      "type": "function"
    },
    {
      "inputs": [
        {
          "internalType": "uint256",
          "name": "_newOdds",
          "type": "uint256"
        }
      ],
      "name": "setLegendaryCardOdds",
      "outputs": [],
      "stateMutability": "nonpayable",
      "type": "function"
    },
    {
      "inputs": [
        {
          "internalType": "uint256",
          "name": "_newOdds",
          "type": "uint256"
        }
      ],
      "name": "setRareCardOdds",
      "outputs": [],
      "stateMutability": "nonpayable",
      "type": "function"
    },
    {
      "inputs": [
        {
          "internalType": "uint256",
          "name": "_count",
          "type": "uint256"
        }
      ],
      "name": "setTotalPlayers",
      "outputs": [],
      "stateMutability": "nonpayable",
      "type": "function"
    },
    {
      "inputs": [
        {
          "internalType": "address",
          "name": "_from",
          "type": "address"
        },
        {
          "internalType": "address",
          "name": "_to",
          "type": "address"
        },
        {
          "internalType": "uint256",
          "name": "_tokenId",
          "type": "uint256"
        }
      ],
      "name": "transferFrom",
      "outputs": [],
      "stateMutability": "payable",
      "type": "function",
      "payable": true
    },
    {
      "inputs": [
        {
          "internalType": "address",
          "name": "newOwner",
          "type": "address"
        }
      ],
      "name": "transferOwnership",
      "outputs": [],
      "stateMutability": "nonpayable",
      "type": "function"
    },
    {
      "inputs": [
        {
          "internalType": "address",
          "name": "",
          "type": "address"
        },
        {
          "internalType": "uint256",
          "name": "",
          "type": "uint256"
        }
      ],
      "name": "userOwnedCards",
      "outputs": [
        {
          "internalType": "uint256",
          "name": "",
          "type": "uint256"
        }
      ],
      "stateMutability": "view",
      "type": "function",
      "constant": true
    },
    {
      "inputs": [
        {
          "internalType": "uint256",
          "name": "_playerCount",
          "type": "uint256"
        },
        {
          "internalType": "uint256",
          "name": "_cardCount",
          "type": "uint256"
        },
        {
          "internalType": "uint256",
          "name": "_entryFee",
          "type": "uint256"
        }
      ],
      "name": "createGame",
      "outputs": [],
      "stateMutability": "nonpayable",
      "type": "function"
    },
    {
      "inputs": [
        {
          "internalType": "uint256",
          "name": "_gameId",
          "type": "uint256"
        },
        {
          "internalType": "uint256[]",
          "name": "_cardIds",
          "type": "uint256[]"
        }
      ],
      "name": "joinGame",
      "outputs": [],
      "stateMutability": "payable",
      "type": "function",
      "payable": true
    },
    {
      "inputs": [
        {
          "internalType": "uint256[]",
          "name": "_gameIds",
          "type": "uint256[]"
        }
      ],
      "name": "closeGames",
      "outputs": [],
      "stateMutability": "nonpayable",
      "type": "function"
    },
    {
      "inputs": [
        {
          "internalType": "uint256[]",
          "name": "_gameIds",
          "type": "uint256[]"
        }
      ],
      "name": "endGames",
      "outputs": [],
      "stateMutability": "nonpayable",
      "type": "function"
    },
    {
      "inputs": [
        {
          "internalType": "uint256",
          "name": "_gameId",
          "type": "uint256"
        }
      ],
      "name": "getPlayersByGameId",
      "outputs": [
        {
          "internalType": "address[]",
          "name": "",
          "type": "address[]"
        }
      ],
      "stateMutability": "view",
      "type": "function",
      "constant": true
    },
    {
      "inputs": [
        {
          "internalType": "uint256",
          "name": "_gameId",
          "type": "uint256"
        },
        {
          "internalType": "address",
          "name": "_user",
          "type": "address"
        }
      ],
      "name": "getCardEntriesByPlayer",
      "outputs": [
        {
          "internalType": "uint256[]",
          "name": "",
          "type": "uint256[]"
        }
      ],
      "stateMutability": "view",
      "type": "function",
      "constant": true
    }
  ],
  "bytecode": "0x6080604052600060025560bd6003556611c37937e08000600855600a6009556003600a556019600b556064600c5562093a8060115560016012553480156200004657600080fd5b50620000676200005b6200006d60201b60201c565b6200007560201b60201c565b62000139565b600033905090565b60008060009054906101000a900473ffffffffffffffffffffffffffffffffffffffff169050816000806101000a81548173ffffffffffffffffffffffffffffffffffffffff021916908373ffffffffffffffffffffffffffffffffffffffff1602179055508173ffffffffffffffffffffffffffffffffffffffff168173ffffffffffffffffffffffffffffffffffffffff167f8be0079c531659141344cd1fd0a4f28419497f9722a3daafe3b4186f6b6457e060405160405180910390a35050565b615a5680620001496000396000f3fe6080604052600436106102675760003560e01c806396b5a75511610144578063b88d4fde116100b6578063d7c81b551161007a578063d7c81b5514610958578063d82d630114610983578063e25d13a8146109ac578063e985e9c5146109d5578063f2fde38b14610a12578063feb2c4df14610a3b57610267565b8063b88d4fde14610884578063b9a2de3a146108a0578063c2741521146108c9578063c44d503d146108f2578063c75f384b1461092f57610267565b8063a0dd6b3411610108578063a0dd6b341461073a578063a22cb4651461077b578063a3d2065f146107a4578063a6e156c6146107e1578063b3df52681461081e578063b780acc51461085b57610267565b806396b5a7551461063e5780639979ef45146106675780639aa6c9ff146106835780639b3ce46e146106c05780639bf822e3146106fd57610267565b806341845a14116101dd5780636352211e116101a15780636352211e1461051c57806370a0823114610559578063715018a614610596578063804c4b25146105ad578063828c730c146105ea5780638da5cb5b1461061357610267565b806341845a1414610446578063419941401461046f57806342842e0e146104ac57806348c9581e146104c8578063552788da146104f357610267565b80631b94a04e1161022f5780631b94a04e1461036f57806323b872dd1461038b578063245767fa146103a75780632cfae8d3146103d057806336185bdf146103da5780633727dbf91461040357610267565b8063025483761461026c578063081812fc146102ae578063095ea7b3146102eb57806310782f8f1461030757806319a3556714610332575b600080fd5b34801561027857600080fd5b50610293600480360381019061028e91906148aa565b610a64565b6040516102a59695949392919061550d565b60405180910390f35b3480156102ba57600080fd5b506102d560048036038101906102d091906148aa565b610ac0565b6040516102e2919061515a565b60405180910390f35b610305600480360381019061030091906147a1565b610ba2565b005b34801561031357600080fd5b5061031c610e9d565b60405161032991906154a0565b60405180910390f35b34801561033e57600080fd5b5061035960048036038101906103549190614631565b610ea3565b60405161036691906151e3565b60405180910390f35b6103896004803603810190610384919061490f565b610f3a565b005b6103a560048036038101906103a09190614696565b61140f565b005b3480156103b357600080fd5b506103ce60048036038101906103c99190614840565b611631565b005b6103d861173f565b005b3480156103e657600080fd5b5061040160048036038101906103fc91906148aa565b6117d0565b005b34801561040f57600080fd5b5061042a600480360381019061042591906148aa565b611856565b60405161043d9796959493929190615606565b60405180910390f35b34801561045257600080fd5b5061046d600480360381019061046891906148aa565b6118d2565b005b34801561047b57600080fd5b50610496600480360381019061049191906148aa565b611958565b6040516104a3919061515a565b60405180910390f35b6104c660048036038101906104c19190614696565b61198b565b005b3480156104d457600080fd5b506104dd6119ab565b6040516104ea91906154a0565b60405180910390f35b3480156104ff57600080fd5b5061051a600480360381019061051591906148aa565b6119b1565b005b34801561052857600080fd5b50610543600480360381019061053e91906148aa565b611a37565b604051610550919061515a565b60405180910390f35b34801561056557600080fd5b50610580600480360381019061057b9190614631565b611a74565b60405161058d91906154a0565b60405180910390f35b3480156105a257600080fd5b506105ab611abd565b005b3480156105b957600080fd5b506105d460048036038101906105cf9190614631565b611b45565b6040516105e191906154a0565b60405180910390f35b3480156105f657600080fd5b50610611600480360381019061060c91906147dd565b611b5d565b005b34801561061f57600080fd5b50610628611c0d565b604051610635919061515a565b60405180910390f35b34801561064a57600080fd5b50610665600480360381019061066091906148aa565b611c36565b005b610681600480360381019061067c91906148aa565b611e9e565b005b34801561068f57600080fd5b506106aa60048036038101906106a591906148aa565b612246565b6040516106b791906154a0565b60405180910390f35b3480156106cc57600080fd5b506106e760048036038101906106e291906147a1565b61225e565b6040516106f491906154a0565b60405180910390f35b34801561070957600080fd5b50610724600480360381019061071f91906148aa565b61228f565b60405161073191906154a0565b60405180910390f35b34801561074657600080fd5b50610761600480360381019061075c91906148aa565b6122a7565b6040516107729594939291906155b3565b60405180910390f35b34801561078757600080fd5b506107a2600480360381019061079d9190614765565b6122ea565b005b3480156107b057600080fd5b506107cb60048036038101906107c69190614631565b6123e7565b6040516107d89190615205565b60405180910390f35b3480156107ed57600080fd5b50610808600480360381019061080391906148aa565b612407565b6040516108159190615205565b60405180910390f35b34801561082a57600080fd5b50610845600480360381019061084091906148d3565b612427565b60405161085291906151e3565b60405180910390f35b34801561086757600080fd5b50610882600480360381019061087d91906148aa565b6124d0565b005b61089e600480360381019061089991906146e5565b612556565b005b3480156108ac57600080fd5b506108c760048036038101906108c291906148aa565b6125ad565b005b3480156108d557600080fd5b506108f060048036038101906108eb9190614963565b612885565b005b3480156108fe57600080fd5b50610919600480360381019061091491906148aa565b612b05565b60405161092691906151c1565b60405180910390f35b34801561093b57600080fd5b50610956600480360381019061095191906148aa565b612ba9565b005b34801561096457600080fd5b5061096d612c2f565b60405161097a91906154a0565b60405180910390f35b34801561098f57600080fd5b506109aa60048036038101906109a59190614840565b612c35565b005b3480156109b857600080fd5b506109d360048036038101906109ce91906148aa565b612d43565b005b3480156109e157600080fd5b506109fc60048036038101906109f7919061465a565b612dc9565b604051610a099190615205565b60405180910390f35b348015610a1e57600080fd5b50610a396004803603810190610a349190614631565b612e5d565b005b348015610a4757600080fd5b50610a626004803603810190610a5d9190614963565b612f55565b005b60156020528060005260406000206000915090508060000154908060010154908060020160009054906101000a900473ffffffffffffffffffffffffffffffffffffffff16908060030154908060040154908060050154905086565b600081600073ffffffffffffffffffffffffffffffffffffffff166004600083815260200190815260200160002060009054906101000a900473ffffffffffffffffffffffffffffffffffffffff1673ffffffffffffffffffffffffffffffffffffffff161415610b66576040517f08c379a0000000000000000000000000000000000000000000000000000000008152600401610b5d90615280565b60405180910390fd5b600f600084815260200190815260200160002060009054906101000a900473ffffffffffffffffffffffffffffffffffffffff16915050919050565b8060006004600083815260200190815260200160002060009054906101000a900473ffffffffffffffffffffffffffffffffffffffff1690503373ffffffffffffffffffffffffffffffffffffffff168173ffffffffffffffffffffffffffffffffffffffff161480610c9b5750601060008273ffffffffffffffffffffffffffffffffffffffff1673ffffffffffffffffffffffffffffffffffffffff16815260200190815260200160002060003373ffffffffffffffffffffffffffffffffffffffff1673ffffffffffffffffffffffffffffffffffffffff16815260200190815260200160002060009054906101000a900460ff165b610ca457600080fd5b82600073ffffffffffffffffffffffffffffffffffffffff166004600083815260200190815260200160002060009054906101000a900473ffffffffffffffffffffffffffffffffffffffff1673ffffffffffffffffffffffffffffffffffffffff161415610d48576040517f08c379a0000000000000000000000000000000000000000000000000000000008152600401610d3f90615280565b60405180910390fd5b6004600085815260200190815260200160002060009054906101000a900473ffffffffffffffffffffffffffffffffffffffff1673ffffffffffffffffffffffffffffffffffffffff163373ffffffffffffffffffffffffffffffffffffffff1614610de9576040517f08c379a0000000000000000000000000000000000000000000000000000000008152600401610de090615460565b60405180910390fd5b84600f600086815260200190815260200160002060006101000a81548173ffffffffffffffffffffffffffffffffffffffff021916908373ffffffffffffffffffffffffffffffffffffffff160217905550838573ffffffffffffffffffffffffffffffffffffffff163373ffffffffffffffffffffffffffffffffffffffff167f8c5be1e5ebec7d5bd14f71427d1e84f3dd0314c0f7b2291e5b200ac8c7c3b92560405160405180910390a45050505050565b60125481565b6060600560008373ffffffffffffffffffffffffffffffffffffffff1673ffffffffffffffffffffffffffffffffffffffff168152602001908152602001600020805480602002602001604051908101604052809291908181526020018280548015610f2e57602002820191906000526020600020905b815481526020019060010190808311610f1a575b50505050509050919050565b813360008060176000858152602001908152602001600020600401805480602002602001604051908101604052809291908181526020018280548015610fd557602002820191906000526020600020905b8160009054906101000a900473ffffffffffffffffffffffffffffffffffffffff1673ffffffffffffffffffffffffffffffffffffffff1681526020019060010190808311610f8b575b5050505050905060005b8151811015611074578373ffffffffffffffffffffffffffffffffffffffff16828281518110611038577f4e487b7100000000000000000000000000000000000000000000000000000000600052603260045260246000fd5b602002602001015173ffffffffffffffffffffffffffffffffffffffff16141561106157600192505b808061106c906158a2565b915050610fdf565b5081156110b6576040517f08c379a00000000000000000000000000000000000000000000000000000000081526004016110ad90615380565b60405180910390fd5b843360006001905060005b835181101561114b5760076000858381518110611107577f4e487b7100000000000000000000000000000000000000000000000000000000600052603260045260246000fd5b6020026020010151815260200190815260200160002060040160009054906101000a900460ff161561113857600091505b8080611143906158a2565b9150506110c1565b508061118c576040517f08c379a000000000000000000000000000000000000000000000000000000000815260040161118390615300565b60405180910390fd5b34601760008b815260200190815260200160002060030154146111e4576040517f08c379a00000000000000000000000000000000000000000000000000000000081526004016111db906152a0565b60405180910390fd5b87601860008b815260200190815260200160002060003373ffffffffffffffffffffffffffffffffffffffff1673ffffffffffffffffffffffffffffffffffffffff1681526020019081526020016000209080519060200190611248929190614409565b5060005b88518110156112d7576001600760008b8481518110611294577f4e487b7100000000000000000000000000000000000000000000000000000000600052603260045260246000fd5b6020026020010151815260200190815260200160002060040160006101000a81548160ff02191690831515021790555080806112cf906158a2565b91505061124c565b50601760008a8152602001908152602001600020600401339080600181540180825580915050600190039060005260206000200160009091909190916101000a81548173ffffffffffffffffffffffffffffffffffffffff021916908373ffffffffffffffffffffffffffffffffffffffff160217905550601760008a815260200190815260200160002060010154601760008b81526020019081526020016000206004018054905014156113b6576000601760008b815260200190815260200160002060050160006101000a81548160ff0219169083151502179055505b3373ffffffffffffffffffffffffffffffffffffffff167f45c4f9cbafe186141862608c493f28b823fde4c2142bedc3f5169961a73fdd228a6040516113fc91906154a0565b60405180910390a2505050505050505050565b8060006004600083815260200190815260200160002060009054906101000a900473ffffffffffffffffffffffffffffffffffffffff1690503373ffffffffffffffffffffffffffffffffffffffff168173ffffffffffffffffffffffffffffffffffffffff1614806114e057503373ffffffffffffffffffffffffffffffffffffffff16600f600084815260200190815260200160002060009054906101000a900473ffffffffffffffffffffffffffffffffffffffff1673ffffffffffffffffffffffffffffffffffffffff16145b806115715750601060008273ffffffffffffffffffffffffffffffffffffffff1673ffffffffffffffffffffffffffffffffffffffff16815260200190815260200160002060003373ffffffffffffffffffffffffffffffffffffffff1673ffffffffffffffffffffffffffffffffffffffff16815260200190815260200160002060009054906101000a900460ff165b61157a57600080fd5b82600073ffffffffffffffffffffffffffffffffffffffff166004600083815260200190815260200160002060009054906101000a900473ffffffffffffffffffffffffffffffffffffffff1673ffffffffffffffffffffffffffffffffffffffff16141561161e576040517f08c379a000000000000000000000000000000000000000000000000000000000815260040161161590615280565b60405180910390fd5b61162986868661324e565b505050505050565b6116396134db565b73ffffffffffffffffffffffffffffffffffffffff16611657611c0d565b73ffffffffffffffffffffffffffffffffffffffff16146116ad576040517f08c379a00000000000000000000000000000000000000000000000000000000081526004016116a4906153c0565b60405180910390fd5b60005b815181101561173b576000601760008484815181106116f8577f4e487b7100000000000000000000000000000000000000000000000000000000600052603260045260246000fd5b6020026020010151815260200190815260200160002060050160016101000a81548160ff0219169083151502179055508080611733906158a2565b9150506116b0565b5050565b6008543414611783576040517f08c379a000000000000000000000000000000000000000000000000000000000815260040161177a906152c0565b60405180910390fd5b61178b6134e3565b3373ffffffffffffffffffffffffffffffffffffffff167f1c3899f94ecc08f5f95b67284618b3ca13d80b66fbc5b7f07c6b8bd30f61fcbf60405160405180910390a2565b6117d86134db565b73ffffffffffffffffffffffffffffffffffffffff166117f6611c0d565b73ffffffffffffffffffffffffffffffffffffffff161461184c576040517f08c379a0000000000000000000000000000000000000000000000000000000008152600401611843906153c0565b60405180910390fd5b80600b8190555050565b60176020528060005260406000206000915090508060000154908060010154908060020154908060030154908060050160009054906101000a900460ff16908060050160019054906101000a900460ff16908060050160029054906101000a900473ffffffffffffffffffffffffffffffffffffffff16905087565b6118da6134db565b73ffffffffffffffffffffffffffffffffffffffff166118f8611c0d565b73ffffffffffffffffffffffffffffffffffffffff161461194e576040517f08c379a0000000000000000000000000000000000000000000000000000000008152600401611945906153c0565b60405180910390fd5b80600a8190555050565b60046020528060005260406000206000915054906101000a900473ffffffffffffffffffffffffffffffffffffffff1681565b6119a6838383604051806020016040528060008152506135b4565b505050565b60115481565b6119b96134db565b73ffffffffffffffffffffffffffffffffffffffff166119d7611c0d565b73ffffffffffffffffffffffffffffffffffffffff1614611a2d576040517f08c379a0000000000000000000000000000000000000000000000000000000008152600401611a24906153c0565b60405180910390fd5b8060088190555050565b60006004600083815260200190815260200160002060009054906101000a900473ffffffffffffffffffffffffffffffffffffffff169050919050565b6000600d60008373ffffffffffffffffffffffffffffffffffffffff1673ffffffffffffffffffffffffffffffffffffffff168152602001908152602001600020549050919050565b611ac56134db565b73ffffffffffffffffffffffffffffffffffffffff16611ae3611c0d565b73ffffffffffffffffffffffffffffffffffffffff1614611b39576040517f08c379a0000000000000000000000000000000000000000000000000000000008152600401611b30906153c0565b60405180910390fd5b611b436000613989565b565b600d6020528060005260406000206000915090505481565b611b656134db565b73ffffffffffffffffffffffffffffffffffffffff16611b83611c0d565b73ffffffffffffffffffffffffffffffffffffffff1614611bd9576040517f08c379a0000000000000000000000000000000000000000000000000000000008152600401611bd0906153c0565b60405180910390fd5b6000611be6848484613a4d565b9050611bf28582613b42565b60018054611c009190615771565b6001819055505050505050565b60008060009054906101000a900473ffffffffffffffffffffffffffffffffffffffff16905090565b8060006004600083815260200190815260200160002060009054906101000a900473ffffffffffffffffffffffffffffffffffffffff1690503373ffffffffffffffffffffffffffffffffffffffff168173ffffffffffffffffffffffffffffffffffffffff1614611cdd576040517f08c379a0000000000000000000000000000000000000000000000000000000008152600401611cd490615440565b60405180910390fd5b600060156000601460008781526020019081526020016000205481526020019081526020016000206040518060c001604052908160008201548152602001600182015481526020016002820160009054906101000a900473ffffffffffffffffffffffffffffffffffffffff1673ffffffffffffffffffffffffffffffffffffffff1673ffffffffffffffffffffffffffffffffffffffff16815260200160038201548152602001600482015481526020016005820154815250509050600073ffffffffffffffffffffffffffffffffffffffff16816040015173ffffffffffffffffffffffffffffffffffffffff1614611e0d576040517f08c379a0000000000000000000000000000000000000000000000000000000008152600401611e0490615240565b60405180910390fd5b42816060015111611e53576040517f08c379a0000000000000000000000000000000000000000000000000000000008152600401611e4a90615480565b60405180910390fd5b60006013600086815260200190815260200160002060006101000a81548160ff0219169083151502179055506000601460008681526020019081526020016000208190555050505050565b600060156000601460008581526020019081526020016000205481526020019081526020016000206040518060c001604052908160008201548152602001600182015481526020016002820160009054906101000a900473ffffffffffffffffffffffffffffffffffffffff1673ffffffffffffffffffffffffffffffffffffffff1673ffffffffffffffffffffffffffffffffffffffff168152602001600382015481526020016004820154815260200160058201548152505090503373ffffffffffffffffffffffffffffffffffffffff166004600084815260200190815260200160002060009054906101000a900473ffffffffffffffffffffffffffffffffffffffff1673ffffffffffffffffffffffffffffffffffffffff161415611ffd576040517f08c379a0000000000000000000000000000000000000000000000000000000008152600401611ff4906153a0565b60405180910390fd5b6013600083815260200190815260200160002060009054906101000a900460ff1661205d576040517f08c379a000000000000000000000000000000000000000000000000000000000815260040161205490615320565b60405180910390fd5b806020015134116120a3576040517f08c379a000000000000000000000000000000000000000000000000000000000815260040161209a906152e0565b60405180910390fd5b600081604001519050600073ffffffffffffffffffffffffffffffffffffffff168173ffffffffffffffffffffffffffffffffffffffff161461212c578073ffffffffffffffffffffffffffffffffffffffff166108fc83602001519081150290604051600060405180830381858888f1935050505015801561212a573d6000803e3d6000fd5b505b33601560008460000151815260200190815260200160002060020160006101000a81548173ffffffffffffffffffffffffffffffffffffffff021916908373ffffffffffffffffffffffffffffffffffffffff1602179055503460156000846000015181526020019081526020016000206001018190555060016015600084600001518152602001908152602001600020600501546121cb9190615771565b6015600084600001518152602001908152602001600020600501819055503373ffffffffffffffffffffffffffffffffffffffff16826080015183600001517f379fe8bc550443c6867a021184bb0e5a961f3fcd271160873847410c7bdd0e283460405161223991906154a0565b60405180910390a4505050565b60146020528060005260406000206000915090505481565b6005602052816000526040600020818154811061227a57600080fd5b90600052602060002001600091509150505481565b60066020528060005260406000206000915090505481565b60076020528060005260406000206000915090508060000154908060010154908060020154908060030154908060040160009054906101000a900460ff16905085565b80601060003373ffffffffffffffffffffffffffffffffffffffff1673ffffffffffffffffffffffffffffffffffffffff16815260200190815260200160002060008473ffffffffffffffffffffffffffffffffffffffff1673ffffffffffffffffffffffffffffffffffffffff16815260200190815260200160002060006101000a81548160ff0219169083151502179055508173ffffffffffffffffffffffffffffffffffffffff163373ffffffffffffffffffffffffffffffffffffffff167f17307eab39ab6107e8899845ad3d59bd9653f200f220920489ca2b5937696c31836040516123db9190615205565b60405180910390a35050565b600e6020528060005260406000206000915054906101000a900460ff1681565b60136020528060005260406000206000915054906101000a900460ff1681565b60606018600084815260200190815260200160002060008373ffffffffffffffffffffffffffffffffffffffff1673ffffffffffffffffffffffffffffffffffffffff1681526020019081526020016000208054806020026020016040519081016040528092919081815260200182805480156124c357602002820191906000526020600020905b8154815260200190600101908083116124af575b5050505050905092915050565b6124d86134db565b73ffffffffffffffffffffffffffffffffffffffff166124f6611c0d565b73ffffffffffffffffffffffffffffffffffffffff161461254c576040517f08c379a0000000000000000000000000000000000000000000000000000000008152600401612543906153c0565b60405180910390fd5b8060038190555050565b6125a685858585858080601f016020809104026020016040519081016040528093929190818152602001838380828437600081840152601f19601f820116905080830192505050505050506135b4565b5050505050565b8060006004600083815260200190815260200160002060009054906101000a900473ffffffffffffffffffffffffffffffffffffffff1690503373ffffffffffffffffffffffffffffffffffffffff168173ffffffffffffffffffffffffffffffffffffffff1614612654576040517f08c379a000000000000000000000000000000000000000000000000000000000815260040161264b90615440565b60405180910390fd5b600060156000601460008781526020019081526020016000205481526020019081526020016000206040518060c001604052908160008201548152602001600182015481526020016002820160009054906101000a900473ffffffffffffffffffffffffffffffffffffffff1673ffffffffffffffffffffffffffffffffffffffff1673ffffffffffffffffffffffffffffffffffffffff168152602001600382015481526020016004820154815260200160058201548152505090504281606001511115612758576040517f08c379a000000000000000000000000000000000000000000000000000000000815260040161274f90615220565b60405180910390fd5b600073ffffffffffffffffffffffffffffffffffffffff16816040015173ffffffffffffffffffffffffffffffffffffffff16146127a4576127a38482604001518360200151613e05565b5b806040015173ffffffffffffffffffffffffffffffffffffffff16816080015182600001517f774455444039da9400b7ba984f8cc1d8ac5e70c742d01a325cc97979802c15248460200151600073ffffffffffffffffffffffffffffffffffffffff16866040015173ffffffffffffffffffffffffffffffffffffffff1614156040516128329291906154bb565b60405180910390a460006013600086815260200190815260200160002060006101000a81548160ff0219169083151502179055506000601460008681526020019081526020016000208190555050505050565b61288d6134db565b73ffffffffffffffffffffffffffffffffffffffff166128ab611c0d565b73ffffffffffffffffffffffffffffffffffffffff1614612901576040517f08c379a00000000000000000000000000000000000000000000000000000000081526004016128f8906153c0565b60405180910390fd5b60405180610100016040528060165481526020018481526020018381526020018281526020018467ffffffffffffffff811115612967577f4e487b7100000000000000000000000000000000000000000000000000000000600052604160045260246000fd5b6040519080825280602002602001820160405280156129955781602001602082028036833780820191505090505b508152602001600115158152602001600115158152602001600073ffffffffffffffffffffffffffffffffffffffff16815250601760006016548152602001908152602001600020600082015181600001556020820151816001015560408201518160020155606082015181600301556080820151816004019080519060200190612a21929190614456565b5060a08201518160050160006101000a81548160ff02191690831515021790555060c08201518160050160016101000a81548160ff02191690831515021790555060e08201518160050160026101000a81548173ffffffffffffffffffffffffffffffffffffffff021916908373ffffffffffffffffffffffffffffffffffffffff1602179055509050507f80b55cf2f646df8d85b80ac067c88c4aa6354a860d6cb55c7e234cf23861627f601654848484604051612ae3949392919061556e565b60405180910390a16001601654612afa9190615771565b601681905550505050565b606060176000838152602001908152602001600020600401805480602002602001604051908101604052809291908181526020018280548015612b9d57602002820191906000526020600020905b8160009054906101000a900473ffffffffffffffffffffffffffffffffffffffff1673ffffffffffffffffffffffffffffffffffffffff1681526020019060010190808311612b53575b50505050509050919050565b612bb16134db565b73ffffffffffffffffffffffffffffffffffffffff16612bcf611c0d565b73ffffffffffffffffffffffffffffffffffffffff1614612c25576040517f08c379a0000000000000000000000000000000000000000000000000000000008152600401612c1c906153c0565b60405180910390fd5b80600c8190555050565b60165481565b612c3d6134db565b73ffffffffffffffffffffffffffffffffffffffff16612c5b611c0d565b73ffffffffffffffffffffffffffffffffffffffff1614612cb1576040517f08c379a0000000000000000000000000000000000000000000000000000000008152600401612ca8906153c0565b60405180910390fd5b60005b8151811015612d3f57600060176000848481518110612cfc577f4e487b7100000000000000000000000000000000000000000000000000000000600052603260045260246000fd5b6020026020010151815260200190815260200160002060050160006101000a81548160ff0219169083151502179055508080612d37906158a2565b915050612cb4565b5050565b612d4b6134db565b73ffffffffffffffffffffffffffffffffffffffff16612d69611c0d565b73ffffffffffffffffffffffffffffffffffffffff1614612dbf576040517f08c379a0000000000000000000000000000000000000000000000000000000008152600401612db6906153c0565b60405180910390fd5b8060098190555050565b6000601060008473ffffffffffffffffffffffffffffffffffffffff1673ffffffffffffffffffffffffffffffffffffffff16815260200190815260200160002060008373ffffffffffffffffffffffffffffffffffffffff1673ffffffffffffffffffffffffffffffffffffffff16815260200190815260200160002060009054906101000a900460ff16905092915050565b612e656134db565b73ffffffffffffffffffffffffffffffffffffffff16612e83611c0d565b73ffffffffffffffffffffffffffffffffffffffff1614612ed9576040517f08c379a0000000000000000000000000000000000000000000000000000000008152600401612ed0906153c0565b60405180910390fd5b600073ffffffffffffffffffffffffffffffffffffffff168173ffffffffffffffffffffffffffffffffffffffff161415612f49576040517f08c379a0000000000000000000000000000000000000000000000000000000008152600401612f4090615260565b60405180910390fd5b612f5281613989565b50565b80601154811115612f9b576040517f08c379a0000000000000000000000000000000000000000000000000000000008152600401612f92906153e0565b60405180910390fd5b8360006004600083815260200190815260200160002060009054906101000a900473ffffffffffffffffffffffffffffffffffffffff1690503373ffffffffffffffffffffffffffffffffffffffff168173ffffffffffffffffffffffffffffffffffffffff1614613042576040517f08c379a000000000000000000000000000000000000000000000000000000000815260040161303990615440565b60405180910390fd5b6013600087815260200190815260200160002060009054906101000a900460ff16156130a3576040517f08c379a000000000000000000000000000000000000000000000000000000000815260040161309a90615400565b60405180910390fd5b60006040518060c001604052806012548152602001878152602001600073ffffffffffffffffffffffffffffffffffffffff16815260200186426130e79190615771565b81526020018881526020016000815250905080601560006012548152602001908152602001600020600082015181600001556020820151816001015560408201518160020160006101000a81548173ffffffffffffffffffffffffffffffffffffffff021916908373ffffffffffffffffffffffffffffffffffffffff160217905550606082015181600301556080820151816004015560a08201518160050155905050601254601460008981526020019081526020016000208190555060016013600089815260200190815260200160002060006101000a81548160ff0219169083151502179055503373ffffffffffffffffffffffffffffffffffffffff16876012547f7dfee34cc48a7ad6a025da536d05885e750c439dbd20d390192dec1f2f4c047089894261321a9190615771565b6040516132289291906154e4565b60405180910390a4600160125461323f9190615771565b60128190555050505050505050565b600f600082815260200190815260200160002060006101000a81549073ffffffffffffffffffffffffffffffffffffffff021916905560006006600083815260200190815260200160002054905066038d7ea4c67fff600560006004600086815260200190815260200160002060009054906101000a900473ffffffffffffffffffffffffffffffffffffffff1673ffffffffffffffffffffffffffffffffffffffff1673ffffffffffffffffffffffffffffffffffffffff168152602001908152602001600020828154811061334e577f4e487b7100000000000000000000000000000000000000000000000000000000600052603260045260246000fd5b9060005260206000200181905550826004600084815260200190815260200160002060006101000a81548173ffffffffffffffffffffffffffffffffffffffff021916908373ffffffffffffffffffffffffffffffffffffffff160217905550600560008473ffffffffffffffffffffffffffffffffffffffff1673ffffffffffffffffffffffffffffffffffffffff1681526020019081526020016000208290806001815401808255809150506001900390600052602060002001600090919091909150556001600560008573ffffffffffffffffffffffffffffffffffffffff1673ffffffffffffffffffffffffffffffffffffffff1681526020019081526020016000208054905061346391906157c7565b6006600084815260200190815260200160002081905550818373ffffffffffffffffffffffffffffffffffffffff168573ffffffffffffffffffffffffffffffffffffffff167fddf252ad1be2c89b69c2b068fc378daa952ba7f163c4a11628f55a4df523b3ef60405160405180910390a450505050565b600033905090565b60006134f3600c54826003614081565b9050613503600b54826002614081565b9050613513600a54826001614081565b9050613521816009546140f6565b600954600d60003373ffffffffffffffffffffffffffffffffffffffff1673ffffffffffffffffffffffffffffffffffffffff1681526020019081526020016000205461356e9190615771565b600d60003373ffffffffffffffffffffffffffffffffffffffff1673ffffffffffffffffffffffffffffffffffffffff1681526020019081526020016000208190555050565b8160006004600083815260200190815260200160002060009054906101000a900473ffffffffffffffffffffffffffffffffffffffff1690503373ffffffffffffffffffffffffffffffffffffffff168173ffffffffffffffffffffffffffffffffffffffff16148061368557503373ffffffffffffffffffffffffffffffffffffffff16600f600084815260200190815260200160002060009054906101000a900473ffffffffffffffffffffffffffffffffffffffff1673ffffffffffffffffffffffffffffffffffffffff16145b806137165750601060008273ffffffffffffffffffffffffffffffffffffffff1673ffffffffffffffffffffffffffffffffffffffff16815260200190815260200160002060003373ffffffffffffffffffffffffffffffffffffffff1673ffffffffffffffffffffffffffffffffffffffff16815260200190815260200160002060009054906101000a900460ff165b61371f57600080fd5b83600073ffffffffffffffffffffffffffffffffffffffff166004600083815260200190815260200160002060009054906101000a900473ffffffffffffffffffffffffffffffffffffffff1673ffffffffffffffffffffffffffffffffffffffff1614156137c3576040517f08c379a00000000000000000000000000000000000000000000000000000000081526004016137ba90615280565b60405180910390fd5b600073ffffffffffffffffffffffffffffffffffffffff168673ffffffffffffffffffffffffffffffffffffffff161415613833576040517f08c379a000000000000000000000000000000000000000000000000000000000815260040161382a90615420565b60405180910390fd5b61383e87878761324e565b61385d8673ffffffffffffffffffffffffffffffffffffffff16614156565b156139805760008673ffffffffffffffffffffffffffffffffffffffff1663150b7a02338a89896040518563ffffffff1660e01b81526004016138a39493929190615175565b602060405180830381600087803b1580156138bd57600080fd5b505af11580156138d1573d6000803e3d6000fd5b505050506040513d601f19601f820116820180604052508101906138f59190614881565b905063150b7a0260e01b7bffffffffffffffffffffffffffffffffffffffffffffffffffffffff1916817bffffffffffffffffffffffffffffffffffffffffffffffffffffffff19161461397e576040517f08c379a000000000000000000000000000000000000000000000000000000000815260040161397590615360565b60405180910390fd5b505b50505050505050565b60008060009054906101000a900473ffffffffffffffffffffffffffffffffffffffff169050816000806101000a81548173ffffffffffffffffffffffffffffffffffffffff021916908373ffffffffffffffffffffffffffffffffffffffff1602179055508173ffffffffffffffffffffffffffffffffffffffff168173ffffffffffffffffffffffffffffffffffffffff167f8be0079c531659141344cd1fd0a4f28419497f9722a3daafe3b4186f6b6457e060405160405180910390a35050565b6000806040518060a001604052806001548152602001868152602001848152602001858152602001600015158152509050806007600060015481526020019081526020016000206000820151816000015560208201518160010155604082015181600201556060820151816003015560808201518160040160006101000a81548160ff0219169083151502179055509050503373ffffffffffffffffffffffffffffffffffffffff167fa47f2b648fe6fee6023b9227628b751649f165f204c8a6e75d3146aca5b1b8a6600154868887604051613b2d949392919061556e565b60405180910390a26001549150509392505050565b600073ffffffffffffffffffffffffffffffffffffffff168273ffffffffffffffffffffffffffffffffffffffff161415613bb2576040517f08c379a0000000000000000000000000000000000000000000000000000000008152600401613ba990615420565b60405180910390fd5b600073ffffffffffffffffffffffffffffffffffffffff166004600083815260200190815260200160002060009054906101000a900473ffffffffffffffffffffffffffffffffffffffff1673ffffffffffffffffffffffffffffffffffffffff1614613c54576040517f08c379a0000000000000000000000000000000000000000000000000000000008152600401613c4b90615340565b60405180910390fd5b816004600083815260200190815260200160002060006101000a81548173ffffffffffffffffffffffffffffffffffffffff021916908373ffffffffffffffffffffffffffffffffffffffff160217905550600560008373ffffffffffffffffffffffffffffffffffffffff1673ffffffffffffffffffffffffffffffffffffffff1681526020019081526020016000208190806001815401808255809150506001900390600052602060002001600090919091909150556001600560008473ffffffffffffffffffffffffffffffffffffffff1673ffffffffffffffffffffffffffffffffffffffff16815260200190815260200160002080549050613d5b91906157c7565b60066000838152602001908152602001600020819055506001600d60008473ffffffffffffffffffffffffffffffffffffffff1673ffffffffffffffffffffffffffffffffffffffff16815260200190815260200160002054613dbe9190615771565b600d60008473ffffffffffffffffffffffffffffffffffffffff1673ffffffffffffffffffffffffffffffffffffffff168152602001908152602001600020819055505050565b60006004600085815260200190815260200160002060009054906101000a900473ffffffffffffffffffffffffffffffffffffffff16905060006006600086815260200190815260200160002054905066038d7ea4c67fff600560006004600089815260200190815260200160002060009054906101000a900473ffffffffffffffffffffffffffffffffffffffff1673ffffffffffffffffffffffffffffffffffffffff1673ffffffffffffffffffffffffffffffffffffffff1681526020019081526020016000208281548110613f07577f4e487b7100000000000000000000000000000000000000000000000000000000600052603260045260246000fd5b9060005260206000200181905550600560008573ffffffffffffffffffffffffffffffffffffffff1673ffffffffffffffffffffffffffffffffffffffff1681526020019081526020016000208590806001815401808255809150506001900390600052602060002001600090919091909150556001600560008673ffffffffffffffffffffffffffffffffffffffff1673ffffffffffffffffffffffffffffffffffffffff16815260200190815260200160002080549050613fca91906157c7565b6006600087815260200190815260200160002081905550836004600087815260200190815260200160002060006101000a81548173ffffffffffffffffffffffffffffffffffffffff021916908373ffffffffffffffffffffffffffffffffffffffff1602179055508173ffffffffffffffffffffffffffffffffffffffff166108fc849081150290604051600060405180830381858888f19350505050158015614079573d6000803e3d6000fd5b505050505050565b6000808390506000856140926141a1565b61409c91906158f5565b14156140eb5760006003546140af6141a1565b6140b991906158f5565b905060016002546140ca9190615771565b6002819055506140da81856141d8565b6001856140e79190615771565b9150505b809150509392505050565b60008290505b818110156141515760006003546141116141a1565b61411b91906158f5565b9050600160025461412c9190615771565b60028190555061413d8160006141d8565b508080614149906158a2565b9150506140fc565b505050565b60008060007fc5d2460186f7233c927e7db2dcc703c0e500b653ca82273b7bfad8045d85a47060001b9050833f91506000801b82141580156141985750808214155b92505050919050565b600044426002546040516020016141ba9392919061511d565b6040516020818303038152906040528051906020012060001c905090565b60006141e26141a1565b905060006040518060a001604052806001548152602001858152602001838152602001848152602001600015158152509050806007600060015481526020019081526020016000206000820151816000015560208201518160010155604082015181600201556060820151816003015560808201518160040160006101000a81548160ff0219169083151502179055509050503373ffffffffffffffffffffffffffffffffffffffff167fa47f2b648fe6fee6023b9227628b751649f165f204c8a6e75d3146aca5b1b8a66001548587866040516142c3949392919061556e565b60405180910390a23360046000600154815260200190815260200160002060006101000a81548173ffffffffffffffffffffffffffffffffffffffff021916908373ffffffffffffffffffffffffffffffffffffffff160217905550600560003373ffffffffffffffffffffffffffffffffffffffff1673ffffffffffffffffffffffffffffffffffffffff16815260200190815260200160002060015490806001815401808255809150506001900390600052602060002001600090919091909150556001600560003373ffffffffffffffffffffffffffffffffffffffff1673ffffffffffffffffffffffffffffffffffffffff168152602001908152602001600020805490506143d691906157c7565b60066000600154815260200190815260200160002081905550600180546143fd9190615771565b60018190555050505050565b828054828255906000526020600020908101928215614445579160200282015b82811115614444578251825591602001919060010190614429565b5b50905061445291906144e0565b5090565b8280548282559060005260206000209081019282156144cf579160200282015b828111156144ce5782518260006101000a81548173ffffffffffffffffffffffffffffffffffffffff021916908373ffffffffffffffffffffffffffffffffffffffff16021790555091602001919060010190614476565b5b5090506144dc91906144e0565b5090565b5b808211156144f95760008160009055506001016144e1565b5090565b600061451061450b846156a6565b615675565b9050808382526020820190508285602086028201111561452f57600080fd5b60005b8581101561455f5781614545888261461c565b845260208401935060208301925050600181019050614532565b5050509392505050565b600081359050614578816159c4565b92915050565b600082601f83011261458f57600080fd5b813561459f8482602086016144fd565b91505092915050565b6000813590506145b7816159db565b92915050565b6000815190506145cc816159f2565b92915050565b60008083601f8401126145e457600080fd5b8235905067ffffffffffffffff8111156145fd57600080fd5b60208301915083600182028301111561461557600080fd5b9250929050565b60008135905061462b81615a09565b92915050565b60006020828403121561464357600080fd5b600061465184828501614569565b91505092915050565b6000806040838503121561466d57600080fd5b600061467b85828601614569565b925050602061468c85828601614569565b9150509250929050565b6000806000606084860312156146ab57600080fd5b60006146b986828701614569565b93505060206146ca86828701614569565b92505060406146db8682870161461c565b9150509250925092565b6000806000806000608086880312156146fd57600080fd5b600061470b88828901614569565b955050602061471c88828901614569565b945050604061472d8882890161461c565b935050606086013567ffffffffffffffff81111561474a57600080fd5b614756888289016145d2565b92509250509295509295909350565b6000806040838503121561477857600080fd5b600061478685828601614569565b9250506020614797858286016145a8565b9150509250929050565b600080604083850312156147b457600080fd5b60006147c285828601614569565b92505060206147d38582860161461c565b9150509250929050565b600080600080608085870312156147f357600080fd5b600061480187828801614569565b94505060206148128782880161461c565b93505060406148238782880161461c565b92505060606148348782880161461c565b91505092959194509250565b60006020828403121561485257600080fd5b600082013567ffffffffffffffff81111561486c57600080fd5b6148788482850161457e565b91505092915050565b60006020828403121561489357600080fd5b60006148a1848285016145bd565b91505092915050565b6000602082840312156148bc57600080fd5b60006148ca8482850161461c565b91505092915050565b600080604083850312156148e657600080fd5b60006148f48582860161461c565b925050602061490585828601614569565b9150509250929050565b6000806040838503121561492257600080fd5b60006149308582860161461c565b925050602083013567ffffffffffffffff81111561494d57600080fd5b6149598582860161457e565b9150509250929050565b60008060006060848603121561497857600080fd5b60006149868682870161461c565b93505060206149978682870161461c565b92505060406149a88682870161461c565b9150509250925092565b60006149be83836149e2565b60208301905092915050565b60006149d683836150e8565b60208301905092915050565b6149eb816157fb565b82525050565b6149fa816157fb565b82525050565b6000614a0b826156f2565b614a15818561572d565b9350614a20836156d2565b8060005b83811015614a51578151614a3888826149b2565b9750614a4383615713565b925050600181019050614a24565b5085935050505092915050565b6000614a69826156fd565b614a73818561573e565b9350614a7e836156e2565b8060005b83811015614aaf578151614a9688826149ca565b9750614aa183615720565b925050600181019050614a82565b5085935050505092915050565b614ac58161580d565b82525050565b6000614ad682615708565b614ae0818561574f565b9350614af081856020860161586f565b614af9816159b3565b840191505092915050565b6000614b11601883615760565b91507f41554354494f4e204e4f54205945542046494e495348454400000000000000006000830152602082019050919050565b6000614b51602683615760565b91507f43414e4e4f542043414e43454c20414e2041554354494f4e205448415420484160008301527f53204249445300000000000000000000000000000000000000000000000000006020830152604082019050919050565b6000614bb7602683615760565b91507f4f776e61626c653a206e6577206f776e657220697320746865207a65726f206160008301527f64647265737300000000000000000000000000000000000000000000000000006020830152604082019050919050565b6000614c1d600c83615760565b91507f494e56414c4944204341524400000000000000000000000000000000000000006000830152602082019050919050565b6000614c5d601183615760565b91507f494e56414c494420454e545259204645450000000000000000000000000000006000830152602082019050919050565b6000614c9d602083615760565b91507f56414c55452053454e54204e4f5420455155414c20544f2043415244204645456000830152602082019050919050565b6000614cdd601a83615760565b91507f424944204c4f574552205448414e2043555252454e54204249440000000000006000830152602082019050919050565b6000614d1d603183615760565b91507f594f55204841564520454e54455245442041204341524420544841542049532060008301527f414c524541445920494e20412047414d450000000000000000000000000000006020830152604082019050919050565b6000614d83601183615760565b91507f43415244204e4f5420464f522053414c450000000000000000000000000000006000830152602082019050919050565b6000614dc3601383615760565b91507f4341524420414c524541445920455849535453000000000000000000000000006000830152602082019050919050565b6000614e03601283615760565b91507f43414e4e4f542052454345495645204e465400000000000000000000000000006000830152602082019050919050565b6000614e43602183615760565b91507f594f55204841564520414c5245414459204a4f494e454420544849532047414d60008301527f45000000000000000000000000000000000000000000000000000000000000006020830152604082019050919050565b6000614ea9601c83615760565b91507f43414e204e4f5420424944204f4e20434152445320594f55204f574e000000006000830152602082019050919050565b6000614ee9602083615760565b91507f4f776e61626c653a2063616c6c6572206973206e6f7420746865206f776e65726000830152602082019050919050565b6000614f29601883615760565b91507f424944204455524154494f4e204e4f5420414c4c4f57454400000000000000006000830152602082019050919050565b6000614f69602083615760565b91507f434152442049532043555252454e544c5920555020464f522041554354494f4e6000830152602082019050919050565b6000614fa9600c83615760565b91507f5a45524f204144445245535300000000000000000000000000000000000000006000830152602082019050919050565b6000614fe9602783615760565b91507f4f4e4c592043415244204f574e45522043414e20504f535420495420464f522060008301527f41554354494f4e000000000000000000000000000000000000000000000000006020830152604082019050919050565b600061504f601783615760565b91507f4e4f542043555252454e5420544f4b454e204f574e45520000000000000000006000830152602082019050919050565b600061508f602c83615760565b91507f43414e4e4f542043414e43454c20414e2041554354494f4e204146544552204960008301527f54204953204558504952454400000000000000000000000000000000000000006020830152604082019050919050565b6150f181615865565b82525050565b61510081615865565b82525050565b61511761511282615865565b6158eb565b82525050565b60006151298286615106565b6020820191506151398285615106565b6020820191506151498284615106565b602082019150819050949350505050565b600060208201905061516f60008301846149f1565b92915050565b600060808201905061518a60008301876149f1565b61519760208301866149f1565b6151a460408301856150f7565b81810360608301526151b68184614acb565b905095945050505050565b600060208201905081810360008301526151db8184614a00565b905092915050565b600060208201905081810360008301526151fd8184614a5e565b905092915050565b600060208201905061521a6000830184614abc565b92915050565b6000602082019050818103600083015261523981614b04565b9050919050565b6000602082019050818103600083015261525981614b44565b9050919050565b6000602082019050818103600083015261527981614baa565b9050919050565b6000602082019050818103600083015261529981614c10565b9050919050565b600060208201905081810360008301526152b981614c50565b9050919050565b600060208201905081810360008301526152d981614c90565b9050919050565b600060208201905081810360008301526152f981614cd0565b9050919050565b6000602082019050818103600083015261531981614d10565b9050919050565b6000602082019050818103600083015261533981614d76565b9050919050565b6000602082019050818103600083015261535981614db6565b9050919050565b6000602082019050818103600083015261537981614df6565b9050919050565b6000602082019050818103600083015261539981614e36565b9050919050565b600060208201905081810360008301526153b981614e9c565b9050919050565b600060208201905081810360008301526153d981614edc565b9050919050565b600060208201905081810360008301526153f981614f1c565b9050919050565b6000602082019050818103600083015261541981614f5c565b9050919050565b6000602082019050818103600083015261543981614f9c565b9050919050565b6000602082019050818103600083015261545981614fdc565b9050919050565b6000602082019050818103600083015261547981615042565b9050919050565b6000602082019050818103600083015261549981615082565b9050919050565b60006020820190506154b560008301846150f7565b92915050565b60006040820190506154d060008301856150f7565b6154dd6020830184614abc565b9392505050565b60006040820190506154f960008301856150f7565b61550660208301846150f7565b9392505050565b600060c08201905061552260008301896150f7565b61552f60208301886150f7565b61553c60408301876149f1565b61554960608301866150f7565b61555660808301856150f7565b61556360a08301846150f7565b979650505050505050565b600060808201905061558360008301876150f7565b61559060208301866150f7565b61559d60408301856150f7565b6155aa60608301846150f7565b95945050505050565b600060a0820190506155c860008301886150f7565b6155d560208301876150f7565b6155e260408301866150f7565b6155ef60608301856150f7565b6155fc6080830184614abc565b9695505050505050565b600060e08201905061561b600083018a6150f7565b61562860208301896150f7565b61563560408301886150f7565b61564260608301876150f7565b61564f6080830186614abc565b61565c60a0830185614abc565b61566960c08301846149f1565b98975050505050505050565b6000604051905081810181811067ffffffffffffffff8211171561569c5761569b615984565b5b8060405250919050565b600067ffffffffffffffff8211156156c1576156c0615984565b5b602082029050602081019050919050565b6000819050602082019050919050565b6000819050602082019050919050565b600081519050919050565b600081519050919050565b600081519050919050565b6000602082019050919050565b6000602082019050919050565b600082825260208201905092915050565b600082825260208201905092915050565b600082825260208201905092915050565b600082825260208201905092915050565b600061577c82615865565b915061578783615865565b9250827fffffffffffffffffffffffffffffffffffffffffffffffffffffffffffffffff038211156157bc576157bb615926565b5b828201905092915050565b60006157d282615865565b91506157dd83615865565b9250828210156157f0576157ef615926565b5b828203905092915050565b600061580682615845565b9050919050565b60008115159050919050565b60007fffffffff0000000000000000000000000000000000000000000000000000000082169050919050565b600073ffffffffffffffffffffffffffffffffffffffff82169050919050565b6000819050919050565b60005b8381101561588d578082015181840152602081019050615872565b8381111561589c576000848401525b50505050565b60006158ad82615865565b91507fffffffffffffffffffffffffffffffffffffffffffffffffffffffffffffffff8214156158e0576158df615926565b5b600182019050919050565b6000819050919050565b600061590082615865565b915061590b83615865565b92508261591b5761591a615955565b5b828206905092915050565b7f4e487b7100000000000000000000000000000000000000000000000000000000600052601160045260246000fd5b7f4e487b7100000000000000000000000000000000000000000000000000000000600052601260045260246000fd5b7f4e487b7100000000000000000000000000000000000000000000000000000000600052604160045260246000fd5b6000601f19601f8301169050919050565b6159cd816157fb565b81146159d857600080fd5b50565b6159e48161580d565b81146159ef57600080fd5b50565b6159fb81615819565b8114615a0657600080fd5b50565b615a1281615865565b8114615a1d57600080fd5b5056fea2646970667358221220ad48e8b947ef8ee295368b131f1cec84ea89bba19d2b836a91fe537b248fe07164736f6c63430008000033",
  "immutableReferences": {},
  "source": "// SPDX-License-Identifier: UNLICENSED\npragma solidity ^0.8.0;\n\nimport \"./card-auction.sol\";\n\ncontract CardGame is CardAuction {\n\n    uint public gameId;\n    mapping(uint => Game) public gameIdToGame;\n    mapping(uint => mapping(address => uint[])) gameIdToPlayerCards;\n    mapping(uint => bool) cardIsPlayable;\n\n    struct Game {\n        uint gameId;\n        uint numberOfPlayers;\n        uint numberOfCardsPerPlayer;\n        uint entryFee;\n        address[] players;\n        bool open;\n        bool active; \n        address winner;\n    }\n\n    event GameCreated(uint gameId, uint playerCount, uint cardCount, uint entryFee);\n    event GameJoined(uint gameId, address indexed player);\n\n    modifier checkPlayersInGame(uint _gameId, address _player) {\n        bool playerInGame = false;\n        address[] memory players = gameIdToGame[_gameId].players;\n        for(uint i = 0; i < players.length; i++){\n            if(players[i] == _player) {\n                playerInGame = true;\n            }\n        }\n        require(!playerInGame, \"YOU HAVE ALREADY JOINED THIS GAME\");\n        _;\n    }\n\n    modifier checkCardAvailability(uint[] memory _cardIds, address _player) {\n        bool canPlay = true;\n        for(uint i = 0; i < _cardIds.length; i++) {\n            if(cardIdToCard[_cardIds[i]].inUse) {\n                canPlay = false;\n            }\n        }\n        require(canPlay, \"YOU HAVE ENTERED A CARD THAT IS ALREADY IN A GAME\");\n        _;\n    }\n\n    function createGame(uint _playerCount, uint _cardCount, uint _entryFee) external onlyOwner {\n        gameIdToGame[gameId] = Game(gameId, _playerCount, _cardCount, _entryFee, new address[](_playerCount), true, true, address(0));\n        emit GameCreated(gameId, _playerCount, _cardCount, _entryFee);\n        gameId = gameId + 1;\n    }\n\n    function joinGame(uint _gameId, uint[] memory _cardIds) external payable checkPlayersInGame(_gameId, msg.sender) checkCardAvailability(_cardIds, msg.sender) {\n        require(gameIdToGame[_gameId].entryFee == msg.value, \"INVALID ENTRY FEE\");\n\n        gameIdToPlayerCards[_gameId][msg.sender] = _cardIds;\n        for(uint i = 0; i < _cardIds.length; i++) {\n            cardIdToCard[_cardIds[i]].inUse = true;\n        }\n        gameIdToGame[_gameId].players.push(msg.sender);\n        if(gameIdToGame[_gameId].players.length == gameIdToGame[_gameId].numberOfPlayers) {\n            gameIdToGame[_gameId].open = false;\n        }\n        emit GameJoined(_gameId, msg.sender);\n    }\n\n    function closeGames(uint[] memory _gameIds) external onlyOwner {\n        for(uint i = 0; i < _gameIds.length; i++) {\n            gameIdToGame[_gameIds[i]].open = false;\n        }\n    }\n\n    function endGames(uint[] memory _gameIds) external onlyOwner {\n        for(uint i = 0; i < _gameIds.length; i++) {\n            gameIdToGame[_gameIds[i]].active = false;\n        }\n    }\n\n    function getPlayersByGameId(uint _gameId) external view returns(address[] memory) {\n        return gameIdToGame[_gameId].players;\n    }\n\n    function getCardEntriesByPlayer(uint _gameId, address _user) external view returns(uint[] memory) {\n        return gameIdToPlayerCards[_gameId][_user];\n    }\n}",
  "sourcePath": "/Users/tkma4fr/Development/solidity-app/contracts/card-game.sol",
  "compiler": {
    "name": "solc",
    "version": "0.8.0+commit.c7dfd78e.Emscripten.clang"
  },
  "schemaVersion": "3.4.2",
  "updatedAt": "2021-10-19T13:40:24.541Z",
  "networkType": "ethereum",
  "devdoc": {
    "kind": "dev",
    "methods": {
      "approve(address,uint256)": {
        "details": "The zero address indicates there is no approved address.  Throws unless `msg.sender` is the current NFT owner, or an authorized  operator of the current owner.",
        "params": {
          "_approved": "The new approved NFT controller",
          "_tokenId": "The NFT to approve"
        }
      },
      "balanceOf(address)": {
        "details": "NFTs assigned to the zero address are considered invalid, and this  function throws for queries about the zero address.",
        "params": {
          "_owner": "An address for whom to query the balance"
        },
        "returns": {
          "_0": "The number of NFTs owned by `_owner`, possibly zero"
        }
      },
      "getApproved(uint256)": {
        "details": "Throws if `_tokenId` is not a valid NFT.",
        "params": {
          "_tokenId": "The NFT to find the approved address for"
        },
        "returns": {
          "_0": "The approved address for this NFT, or the zero address if there is none"
        }
      },
      "isApprovedForAll(address,address)": {
        "params": {
          "_operator": "The address that acts on behalf of the owner",
          "_owner": "The address that owns the NFTs"
        },
        "returns": {
          "_0": "True if `_operator` is an approved operator for `_owner`, false otherwise"
        }
      },
      "owner()": {
        "details": "Returns the address of the current owner."
      },
      "ownerOf(uint256)": {
        "details": "NFTs assigned to zero address are considered invalid, and queries  about them do throw.",
        "params": {
          "_tokenId": "The identifier for an NFT"
        },
        "returns": {
          "_0": "The address of the owner of the NFT"
        }
      },
      "renounceOwnership()": {
        "details": "Leaves the contract without owner. It will not be possible to call `onlyOwner` functions anymore. Can only be called by the current owner. NOTE: Renouncing ownership will leave the contract without an owner, thereby removing any functionality that is only available to the owner."
      },
      "safeTransferFrom(address,address,uint256)": {
        "details": "This works identically to the other function with an extra data parameter,  except this function just sets data to \"\".",
        "params": {
          "_from": "The current owner of the NFT",
          "_to": "The new owner",
          "_tokenId": "The NFT to transfer"
        }
      },
      "setApprovalForAll(address,bool)": {
        "details": "Emits the ApprovalForAll event. The contract MUST allow  multiple operators per owner.",
        "params": {
          "_approved": "True if the operator is approved, false to revoke approval",
          "_operator": "Address to add to the set of authorized operators"
        }
      },
      "transferFrom(address,address,uint256)": {
        "details": "Throws unless `msg.sender` is the current owner, an authorized  operator, or the approved address for this NFT. Throws if `_from` is  not the current owner. Throws if `_to` is the zero address. Throws if  `_tokenId` is not a valid NFT.",
        "params": {
          "_from": "The current owner of the NFT",
          "_to": "The new owner",
          "_tokenId": "The NFT to transfer"
        }
      },
      "transferOwnership(address)": {
        "details": "Transfers ownership of the contract to a new account (`newOwner`). Can only be called by the current owner."
      }
    },
    "version": 1
  },
  "userdoc": {
    "kind": "user",
    "methods": {
      "approve(address,uint256)": {
        "notice": "Change or reaffirm the approved address for an NFT"
      },
      "balanceOf(address)": {
        "notice": "Count all NFTs assigned to an owner"
      },
      "getApproved(uint256)": {
        "notice": "Get the approved address for a single NFT"
      },
      "isApprovedForAll(address,address)": {
        "notice": "Query if an address is an authorized operator for another address"
      },
      "ownerOf(uint256)": {
        "notice": "Find the owner of an NFT"
      },
      "safeTransferFrom(address,address,uint256)": {
        "notice": "Transfers the ownership of an NFT from one address to another address"
      },
      "setApprovalForAll(address,bool)": {
        "notice": "Enable or disable approval for a third party (\"operator\") to manage  all of `msg.sender`'s assets"
      },
      "transferFrom(address,address,uint256)": {
        "notice": "Transfer ownership of an NFT -- THE CALLER IS RESPONSIBLE  TO CONFIRM THAT `_to` IS CAPABLE OF RECEIVING NFTS OR ELSE  THEY MAY BE PERMANENTLY LOST"
      }
    },
    "version": 1
  }
}