{
  "contractName": "CardAuction",
  "abi": [
    {
      "anonymous": false,
      "inputs": [
        {
          "indexed": true,
          "internalType": "address",
          "name": "_owner",
          "type": "address"
        },
        {
          "indexed": true,
          "internalType": "address",
          "name": "_approved",
          "type": "address"
        },
        {
          "indexed": true,
          "internalType": "uint256",
          "name": "_tokenId",
          "type": "uint256"
        }
      ],
      "name": "Approval",
      "type": "event"
    },
    {
      "anonymous": false,
      "inputs": [
        {
          "indexed": true,
          "internalType": "address",
          "name": "_owner",
          "type": "address"
        },
        {
          "indexed": true,
          "internalType": "address",
          "name": "_operator",
          "type": "address"
        },
        {
          "indexed": false,
          "internalType": "bool",
          "name": "_approved",
          "type": "bool"
        }
      ],
      "name": "ApprovalForAll",
      "type": "event"
    },
    {
      "anonymous": false,
      "inputs": [
        {
          "indexed": false,
          "internalType": "uint256",
          "name": "cardId",
          "type": "uint256"
        },
        {
          "indexed": true,
          "internalType": "address",
          "name": "owner",
          "type": "address"
        }
      ],
      "name": "AuctionCancelled",
      "type": "event"
    },
    {
      "anonymous": false,
      "inputs": [
        {
          "indexed": true,
          "internalType": "uint256",
          "name": "auctionId",
          "type": "uint256"
        },
        {
          "indexed": false,
          "internalType": "uint256",
          "name": "cardId",
          "type": "uint256"
        },
        {
          "indexed": false,
          "internalType": "uint256",
          "name": "salePrice",
          "type": "uint256"
        },
        {
          "indexed": true,
          "internalType": "address",
          "name": "from",
          "type": "address"
        },
        {
          "indexed": true,
          "internalType": "address",
          "name": "to",
          "type": "address"
        },
        {
          "indexed": false,
          "internalType": "bool",
          "name": "completed",
          "type": "bool"
        }
      ],
      "name": "AuctionClosed",
      "type": "event"
    },
    {
      "anonymous": false,
      "inputs": [
        {
          "indexed": true,
          "internalType": "uint256",
          "name": "auctionId",
          "type": "uint256"
        },
        {
          "indexed": true,
          "internalType": "uint256",
          "name": "cardId",
          "type": "uint256"
        },
        {
          "indexed": false,
          "internalType": "uint256",
          "name": "startingBid",
          "type": "uint256"
        },
        {
          "indexed": false,
          "internalType": "uint256",
          "name": "expireDate",
          "type": "uint256"
        },
        {
          "indexed": true,
          "internalType": "address",
          "name": "owner",
          "type": "address"
        }
      ],
      "name": "AuctionOpened",
      "type": "event"
    },
    {
      "anonymous": false,
      "inputs": [
        {
          "indexed": true,
          "internalType": "uint256",
          "name": "auctionId",
          "type": "uint256"
        },
        {
          "indexed": true,
          "internalType": "uint256",
          "name": "cardId",
          "type": "uint256"
        },
        {
          "indexed": false,
          "internalType": "uint256",
          "name": "bid",
          "type": "uint256"
        },
        {
          "indexed": true,
          "internalType": "address",
          "name": "bidder",
          "type": "address"
        }
      ],
      "name": "BidPlaced",
      "type": "event"
    },
    {
      "anonymous": false,
      "inputs": [
        {
          "indexed": false,
          "internalType": "uint256",
          "name": "cardId",
          "type": "uint256"
        },
        {
          "indexed": false,
          "internalType": "uint256",
          "name": "cardType",
          "type": "uint256"
        },
        {
          "indexed": false,
          "internalType": "uint256",
          "name": "playerId",
          "type": "uint256"
        },
        {
          "indexed": false,
          "internalType": "uint256",
          "name": "attributeHash",
          "type": "uint256"
        },
        {
          "indexed": true,
          "internalType": "address",
          "name": "owner",
          "type": "address"
        }
      ],
      "name": "CardCreated",
      "type": "event"
    },
    {
      "anonymous": false,
      "inputs": [
        {
          "indexed": true,
          "internalType": "address",
          "name": "owner",
          "type": "address"
        }
      ],
      "name": "CardPackPurchased",
      "type": "event"
    },
    {
      "anonymous": false,
      "inputs": [
        {
          "indexed": true,
          "internalType": "address",
          "name": "previousOwner",
          "type": "address"
        },
        {
          "indexed": true,
          "internalType": "address",
          "name": "newOwner",
          "type": "address"
        }
      ],
      "name": "OwnershipTransferred",
      "type": "event"
    },
    {
      "anonymous": false,
      "inputs": [
        {
          "indexed": true,
          "internalType": "address",
          "name": "_from",
          "type": "address"
        },
        {
          "indexed": true,
          "internalType": "address",
          "name": "_to",
          "type": "address"
        },
        {
          "indexed": true,
          "internalType": "uint256",
          "name": "_tokenId",
          "type": "uint256"
        }
      ],
      "name": "Transfer",
      "type": "event"
    },
    {
      "inputs": [
        {
          "internalType": "address",
          "name": "_approved",
          "type": "address"
        },
        {
          "internalType": "uint256",
          "name": "_tokenId",
          "type": "uint256"
        }
      ],
      "name": "approve",
      "outputs": [],
      "stateMutability": "payable",
      "type": "function",
      "payable": true
    },
    {
      "inputs": [],
      "name": "auctionId",
      "outputs": [
        {
          "internalType": "uint256",
          "name": "",
          "type": "uint256"
        }
      ],
      "stateMutability": "view",
      "type": "function",
      "constant": true
    },
    {
      "inputs": [
        {
          "internalType": "uint256",
          "name": "",
          "type": "uint256"
        }
      ],
      "name": "auctionIdToAuction",
      "outputs": [
        {
          "internalType": "uint256",
          "name": "auctionId",
          "type": "uint256"
        },
        {
          "internalType": "bool",
          "name": "open",
          "type": "bool"
        },
        {
          "internalType": "uint256",
          "name": "currentBid",
          "type": "uint256"
        },
        {
          "internalType": "address",
          "name": "leadingBidder",
          "type": "address"
        },
        {
          "internalType": "uint256",
          "name": "expireDate",
          "type": "uint256"
        },
        {
          "internalType": "uint256",
          "name": "cardId",
          "type": "uint256"
        },
        {
          "internalType": "uint256",
          "name": "bidCount",
          "type": "uint256"
        }
      ],
      "stateMutability": "view",
      "type": "function",
      "constant": true
    },
    {
      "inputs": [
        {
          "internalType": "address",
          "name": "_owner",
          "type": "address"
        }
      ],
      "name": "balanceOf",
      "outputs": [
        {
          "internalType": "uint256",
          "name": "",
          "type": "uint256"
        }
      ],
      "stateMutability": "view",
      "type": "function",
      "constant": true
    },
    {
      "inputs": [
        {
          "internalType": "uint256",
          "name": "",
          "type": "uint256"
        }
      ],
      "name": "cardIdToAuctionId",
      "outputs": [
        {
          "internalType": "uint256",
          "name": "",
          "type": "uint256"
        }
      ],
      "stateMutability": "view",
      "type": "function",
      "constant": true
    },
    {
      "inputs": [
        {
          "internalType": "uint256",
          "name": "",
          "type": "uint256"
        }
      ],
      "name": "cardIdToCard",
      "outputs": [
        {
          "internalType": "uint256",
          "name": "cardId",
          "type": "uint256"
        },
        {
          "internalType": "uint256",
          "name": "playerId",
          "type": "uint256"
        },
        {
          "internalType": "uint256",
          "name": "attributeHash",
          "type": "uint256"
        },
        {
          "internalType": "uint256",
          "name": "cardType",
          "type": "uint256"
        },
        {
          "internalType": "bool",
          "name": "inUse",
          "type": "bool"
        }
      ],
      "stateMutability": "view",
      "type": "function",
      "constant": true
    },
    {
      "inputs": [
        {
          "internalType": "uint256",
          "name": "",
          "type": "uint256"
        }
      ],
      "name": "cardIdToOwner",
      "outputs": [
        {
          "internalType": "address",
          "name": "",
          "type": "address"
        }
      ],
      "stateMutability": "view",
      "type": "function",
      "constant": true
    },
    {
      "inputs": [
        {
          "internalType": "uint256",
          "name": "",
          "type": "uint256"
        }
      ],
      "name": "cardIsAtIndex",
      "outputs": [
        {
          "internalType": "uint256",
          "name": "",
          "type": "uint256"
        }
      ],
      "stateMutability": "view",
      "type": "function",
      "constant": true
    },
    {
      "inputs": [
        {
          "internalType": "uint256",
          "name": "",
          "type": "uint256"
        }
      ],
      "name": "cardIsForSale",
      "outputs": [
        {
          "internalType": "bool",
          "name": "",
          "type": "bool"
        }
      ],
      "stateMutability": "view",
      "type": "function",
      "constant": true
    },
    {
      "inputs": [],
      "name": "cardPackFee",
      "outputs": [
        {
          "internalType": "uint256",
          "name": "",
          "type": "uint256"
        }
      ],
      "stateMutability": "view",
      "type": "function",
      "constant": true
    },
    {
      "inputs": [],
      "name": "cardPackQuantity",
      "outputs": [
        {
          "internalType": "uint256",
          "name": "",
          "type": "uint256"
        }
      ],
      "stateMutability": "view",
      "type": "function",
      "constant": true
    },
    {
      "inputs": [
        {
          "internalType": "address",
          "name": "",
          "type": "address"
        }
      ],
      "name": "existingUser",
      "outputs": [
        {
          "internalType": "bool",
          "name": "",
          "type": "bool"
        }
      ],
      "stateMutability": "view",
      "type": "function",
      "constant": true
    },
    {
      "inputs": [
        {
          "internalType": "uint256",
          "name": "_tokenId",
          "type": "uint256"
        }
      ],
      "name": "getApproved",
      "outputs": [
        {
          "internalType": "address",
          "name": "",
          "type": "address"
        }
      ],
      "stateMutability": "view",
      "type": "function",
      "constant": true
    },
    {
      "inputs": [
        {
          "internalType": "address",
          "name": "_address",
          "type": "address"
        }
      ],
      "name": "getUserOwnedCards",
      "outputs": [
        {
          "internalType": "uint256[]",
          "name": "",
          "type": "uint256[]"
        }
      ],
      "stateMutability": "view",
      "type": "function",
      "constant": true
    },
    {
      "inputs": [
        {
          "internalType": "address",
          "name": "_owner",
          "type": "address"
        },
        {
          "internalType": "address",
          "name": "_operator",
          "type": "address"
        }
      ],
      "name": "isApprovedForAll",
      "outputs": [
        {
          "internalType": "bool",
          "name": "",
          "type": "bool"
        }
      ],
      "stateMutability": "view",
      "type": "function",
      "constant": true
    },
    {
      "inputs": [],
      "name": "maxAuctionDuration",
      "outputs": [
        {
          "internalType": "uint256",
          "name": "",
          "type": "uint256"
        }
      ],
      "stateMutability": "view",
      "type": "function",
      "constant": true
    },
    {
      "inputs": [
        {
          "internalType": "address",
          "name": "_to",
          "type": "address"
        },
        {
          "internalType": "uint256",
          "name": "_playerId",
          "type": "uint256"
        },
        {
          "internalType": "uint256",
          "name": "_type",
          "type": "uint256"
        },
        {
          "internalType": "uint256",
          "name": "_attributes",
          "type": "uint256"
        }
      ],
      "name": "mintCustomCard",
      "outputs": [],
      "stateMutability": "nonpayable",
      "type": "function"
    },
    {
      "inputs": [],
      "name": "owner",
      "outputs": [
        {
          "internalType": "address",
          "name": "",
          "type": "address"
        }
      ],
      "stateMutability": "view",
      "type": "function",
      "constant": true
    },
    {
      "inputs": [
        {
          "internalType": "address",
          "name": "",
          "type": "address"
        }
      ],
      "name": "ownerCardCount",
      "outputs": [
        {
          "internalType": "uint256",
          "name": "",
          "type": "uint256"
        }
      ],
      "stateMutability": "view",
      "type": "function",
      "constant": true
    },
    {
      "inputs": [
        {
          "internalType": "uint256",
          "name": "_tokenId",
          "type": "uint256"
        }
      ],
      "name": "ownerOf",
      "outputs": [
        {
          "internalType": "address",
          "name": "",
          "type": "address"
        }
      ],
      "stateMutability": "view",
      "type": "function",
      "constant": true
    },
    {
      "inputs": [],
      "name": "purchaseCardPack",
      "outputs": [],
      "stateMutability": "payable",
      "type": "function",
      "payable": true
    },
    {
      "inputs": [],
      "name": "renounceOwnership",
      "outputs": [],
      "stateMutability": "nonpayable",
      "type": "function"
    },
    {
      "inputs": [
        {
          "internalType": "address",
          "name": "_from",
          "type": "address"
        },
        {
          "internalType": "address",
          "name": "_to",
          "type": "address"
        },
        {
          "internalType": "uint256",
          "name": "_tokenId",
          "type": "uint256"
        }
      ],
      "name": "safeTransferFrom",
      "outputs": [],
      "stateMutability": "payable",
      "type": "function",
      "payable": true
    },
    {
      "inputs": [
        {
          "internalType": "address",
          "name": "_from",
          "type": "address"
        },
        {
          "internalType": "address",
          "name": "_to",
          "type": "address"
        },
        {
          "internalType": "uint256",
          "name": "_tokenId",
          "type": "uint256"
        },
        {
          "internalType": "bytes",
          "name": "_data",
          "type": "bytes"
        }
      ],
      "name": "safeTransferFrom",
      "outputs": [],
      "stateMutability": "payable",
      "type": "function",
      "payable": true
    },
    {
      "inputs": [
        {
          "internalType": "address",
          "name": "_operator",
          "type": "address"
        },
        {
          "internalType": "bool",
          "name": "_approved",
          "type": "bool"
        }
      ],
      "name": "setApprovalForAll",
      "outputs": [],
      "stateMutability": "nonpayable",
      "type": "function"
    },
    {
      "inputs": [
        {
          "internalType": "uint256",
          "name": "_fee",
          "type": "uint256"
        }
      ],
      "name": "setCardPackFee",
      "outputs": [],
      "stateMutability": "nonpayable",
      "type": "function"
    },
    {
      "inputs": [
        {
          "internalType": "uint256",
          "name": "_quantity",
          "type": "uint256"
        }
      ],
      "name": "setCardPackQuantity",
      "outputs": [],
      "stateMutability": "nonpayable",
      "type": "function"
    },
    {
      "inputs": [
        {
          "internalType": "uint256",
          "name": "_newOdds",
          "type": "uint256"
        }
      ],
      "name": "setExotixCardOdds",
      "outputs": [],
      "stateMutability": "nonpayable",
      "type": "function"
    },
    {
      "inputs": [
        {
          "internalType": "uint256",
          "name": "_newOdds",
          "type": "uint256"
        }
      ],
      "name": "setLegendaryCardOdds",
      "outputs": [],
      "stateMutability": "nonpayable",
      "type": "function"
    },
    {
      "inputs": [
        {
          "internalType": "address",
          "name": "_newOwner",
          "type": "address"
        }
      ],
      "name": "setOwner",
      "outputs": [],
      "stateMutability": "nonpayable",
      "type": "function"
    },
    {
      "inputs": [
        {
          "internalType": "uint256",
          "name": "_newOdds",
          "type": "uint256"
        }
      ],
      "name": "setRareCardOdds",
      "outputs": [],
      "stateMutability": "nonpayable",
      "type": "function"
    },
    {
      "inputs": [
        {
          "internalType": "uint256",
          "name": "_count",
          "type": "uint256"
        }
      ],
      "name": "setTotalPlayers",
      "outputs": [],
      "stateMutability": "nonpayable",
      "type": "function"
    },
    {
      "inputs": [
        {
          "internalType": "address",
          "name": "_from",
          "type": "address"
        },
        {
          "internalType": "address",
          "name": "_to",
          "type": "address"
        },
        {
          "internalType": "uint256",
          "name": "_tokenId",
          "type": "uint256"
        }
      ],
      "name": "transferFrom",
      "outputs": [],
      "stateMutability": "payable",
      "type": "function",
      "payable": true
    },
    {
      "inputs": [
        {
          "internalType": "address",
          "name": "newOwner",
          "type": "address"
        }
      ],
      "name": "transferOwnership",
      "outputs": [],
      "stateMutability": "nonpayable",
      "type": "function"
    },
    {
      "inputs": [
        {
          "internalType": "address",
          "name": "",
          "type": "address"
        },
        {
          "internalType": "uint256",
          "name": "",
          "type": "uint256"
        }
      ],
      "name": "userOwnedCards",
      "outputs": [
        {
          "internalType": "uint256",
          "name": "",
          "type": "uint256"
        }
      ],
      "stateMutability": "view",
      "type": "function",
      "constant": true
    },
    {
      "inputs": [
        {
          "internalType": "uint256",
          "name": "amount",
          "type": "uint256"
        }
      ],
      "name": "withdraw",
      "outputs": [],
      "stateMutability": "nonpayable",
      "type": "function"
    },
    {
      "inputs": [
        {
          "internalType": "uint256",
          "name": "_cardId",
          "type": "uint256"
        },
        {
          "internalType": "uint256",
          "name": "_startingBid",
          "type": "uint256"
        },
        {
          "internalType": "uint256",
          "name": "_duration",
          "type": "uint256"
        }
      ],
      "name": "createCardAuction",
      "outputs": [],
      "stateMutability": "nonpayable",
      "type": "function"
    },
    {
      "inputs": [
        {
          "internalType": "uint256",
          "name": "_cardId",
          "type": "uint256"
        }
      ],
      "name": "placeBid",
      "outputs": [],
      "stateMutability": "payable",
      "type": "function",
      "payable": true
    },
    {
      "inputs": [
        {
          "internalType": "uint256",
          "name": "_cardId",
          "type": "uint256"
        }
      ],
      "name": "endAuction",
      "outputs": [],
      "stateMutability": "nonpayable",
      "type": "function"
    },
    {
      "inputs": [
        {
          "internalType": "uint256",
          "name": "_cardId",
          "type": "uint256"
        }
      ],
      "name": "cancelAuction",
      "outputs": [],
      "stateMutability": "nonpayable",
      "type": "function"
    },
    {
      "inputs": [
        {
          "internalType": "uint256",
          "name": "_cardId",
          "type": "uint256"
        },
        {
          "internalType": "bool",
          "name": "_isInUse",
          "type": "bool"
        }
      ],
      "name": "setCardUseStatus",
      "outputs": [],
      "stateMutability": "nonpayable",
      "type": "function"
    }
  ],
  "bytecode": "0x6080604052600060025560be6003556009600455602760055560636006556611c37937e08000600b55600a600c55733bff843835cabb198912e10629843fc65e336c84600f60006101000a81548173ffffffffffffffffffffffffffffffffffffffff021916908373ffffffffffffffffffffffffffffffffffffffff16021790555062093a8060125560006013553480156200009b57600080fd5b50620000bc620000b0620000c260201b60201c565b620000ca60201b60201c565b6200018e565b600033905090565b60008060009054906101000a900473ffffffffffffffffffffffffffffffffffffffff169050816000806101000a81548173ffffffffffffffffffffffffffffffffffffffff021916908373ffffffffffffffffffffffffffffffffffffffff1602179055508173ffffffffffffffffffffffffffffffffffffffff168173ffffffffffffffffffffffffffffffffffffffff167f8be0079c531659141344cd1fd0a4f28419497f9722a3daafe3b4186f6b6457e060405160405180910390a35050565b61514b806200019e6000396000f3fe6080604052600436106102465760003560e01c8063828c730c11610139578063b780acc5116100b6578063d200e5f21161007a578063d200e5f214610876578063e25d13a8146108b3578063e985e9c5146108dc578063f2fde38b14610919578063f51f467b14610942578063feb2c4df1461096d57610246565b8063b780acc5146107b4578063b88d4fde146107dd578063b9a2de3a146107f9578063c75f384b14610822578063ccd2e5c51461084b57610246565b80639bf822e3116100fd5780639bf822e314610693578063a0dd6b34146106d0578063a22cb46514610711578063a3d2065f1461073a578063a6e156c61461077757610246565b8063828c730c146105bd5780638da5cb5b146105e657806396b5a755146106115780639979ef451461063a5780639b3ce46e1461065657610246565b806341845a14116101c75780636352211e1161018b5780636352211e146104c657806370a0823114610503578063715018a6146105405780637223fec314610557578063804c4b251461058057610246565b806341845a14146103f0578063419941401461041957806342842e0e1461045657806348c9581e14610472578063552788da1461049d57610246565b806319a355671161020e57806319a355671461033b57806323b872dd146103785780632cfae8d3146103945780632e1a7d4d1461039e57806336185bdf146103c757610246565b8063025483761461024b578063081812fc1461028e578063095ea7b3146102cb57806310782f8f146102e757806313af403514610312575b600080fd5b34801561025757600080fd5b50610272600480360381019061026d919061424d565b610996565b6040516102859796959493929190614cc8565b60405180910390f35b34801561029a57600080fd5b506102b560048036038101906102b0919061424d565b610a05565b6040516102c291906149a9565b60405180910390f35b6102e560048036038101906102e09190614185565b610ae7565b005b3480156102f357600080fd5b506102fc610de2565b6040516103099190614cad565b60405180910390f35b34801561031e57600080fd5b5061033960048036038101906103349190614015565b610de8565b005b34801561034757600080fd5b50610362600480360381019061035d9190614015565b610ea8565b60405161036f9190614a10565b60405180910390f35b610392600480360381019061038d919061407a565b610f3f565b005b61039c611161565b005b3480156103aa57600080fd5b506103c560048036038101906103c0919061424d565b6111f2565b005b3480156103d357600080fd5b506103ee60048036038101906103e9919061424d565b6112e0565b005b3480156103fc57600080fd5b506104176004803603810190610412919061424d565b611366565b005b34801561042557600080fd5b50610440600480360381019061043b919061424d565b6113ec565b60405161044d91906149a9565b60405180910390f35b610470600480360381019061046b919061407a565b61141f565b005b34801561047e57600080fd5b5061048761143f565b6040516104949190614cad565b60405180910390f35b3480156104a957600080fd5b506104c460048036038101906104bf919061424d565b611445565b005b3480156104d257600080fd5b506104ed60048036038101906104e8919061424d565b6114cb565b6040516104fa91906149a9565b60405180910390f35b34801561050f57600080fd5b5061052a60048036038101906105259190614015565b611508565b6040516105379190614cad565b60405180910390f35b34801561054c57600080fd5b50610555611551565b005b34801561056357600080fd5b5061057e60048036038101906105799190614276565b6115d9565b005b34801561058c57600080fd5b506105a760048036038101906105a29190614015565b61160b565b6040516105b49190614cad565b60405180910390f35b3480156105c957600080fd5b506105e460048036038101906105df91906141c1565b611623565b005b3480156105f257600080fd5b506105fb6116d3565b60405161060891906149a9565b60405180910390f35b34801561061d57600080fd5b506106386004803603810190610633919061424d565b6116fc565b005b610654600480360381019061064f919061424d565b611aec565b005b34801561066257600080fd5b5061067d60048036038101906106789190614185565b611ef3565b60405161068a9190614cad565b60405180910390f35b34801561069f57600080fd5b506106ba60048036038101906106b5919061424d565b611f24565b6040516106c79190614cad565b60405180910390f35b3480156106dc57600080fd5b506106f760048036038101906106f2919061424d565b611f3c565b604051610708959493929190614ddc565b60405180910390f35b34801561071d57600080fd5b5061073860048036038101906107339190614149565b611f7f565b005b34801561074657600080fd5b50610761600480360381019061075c9190614015565b61207c565b60405161076e9190614a32565b60405180910390f35b34801561078357600080fd5b5061079e6004803603810190610799919061424d565b61209c565b6040516107ab9190614a32565b60405180910390f35b3480156107c057600080fd5b506107db60048036038101906107d6919061424d565b6120bc565b005b6107f760048036038101906107f291906140c9565b612142565b005b34801561080557600080fd5b50610820600480360381019061081b919061424d565b612199565b005b34801561082e57600080fd5b506108496004803603810190610844919061424d565b6125b8565b005b34801561085757600080fd5b5061086061263e565b60405161086d9190614cad565b60405180910390f35b34801561088257600080fd5b5061089d6004803603810190610898919061424d565b612644565b6040516108aa9190614cad565b60405180910390f35b3480156108bf57600080fd5b506108da60048036038101906108d5919061424d565b61265c565b005b3480156108e857600080fd5b5061090360048036038101906108fe919061403e565b6126e2565b6040516109109190614a32565b60405180910390f35b34801561092557600080fd5b50610940600480360381019061093b9190614015565b612776565b005b34801561094e57600080fd5b5061095761286e565b6040516109649190614cad565b60405180910390f35b34801561097957600080fd5b50610994600480360381019061098f91906142b2565b612874565b005b60166020528060005260406000206000915090508060000154908060010160009054906101000a900460ff16908060020154908060030160009054906101000a900473ffffffffffffffffffffffffffffffffffffffff16908060040154908060050154908060060154905087565b600081600073ffffffffffffffffffffffffffffffffffffffff166007600083815260200190815260200160002060009054906101000a900473ffffffffffffffffffffffffffffffffffffffff1673ffffffffffffffffffffffffffffffffffffffff161415610aab576040517f08c379a0000000000000000000000000000000000000000000000000000000008152600401610aa290614aad565b60405180910390fd5b6010600084815260200190815260200160002060009054906101000a900473ffffffffffffffffffffffffffffffffffffffff16915050919050565b8060006007600083815260200190815260200160002060009054906101000a900473ffffffffffffffffffffffffffffffffffffffff1690503373ffffffffffffffffffffffffffffffffffffffff168173ffffffffffffffffffffffffffffffffffffffff161480610be05750601160008273ffffffffffffffffffffffffffffffffffffffff1673ffffffffffffffffffffffffffffffffffffffff16815260200190815260200160002060003373ffffffffffffffffffffffffffffffffffffffff1673ffffffffffffffffffffffffffffffffffffffff16815260200190815260200160002060009054906101000a900460ff165b610be957600080fd5b82600073ffffffffffffffffffffffffffffffffffffffff166007600083815260200190815260200160002060009054906101000a900473ffffffffffffffffffffffffffffffffffffffff1673ffffffffffffffffffffffffffffffffffffffff161415610c8d576040517f08c379a0000000000000000000000000000000000000000000000000000000008152600401610c8490614aad565b60405180910390fd5b6007600085815260200190815260200160002060009054906101000a900473ffffffffffffffffffffffffffffffffffffffff1673ffffffffffffffffffffffffffffffffffffffff163373ffffffffffffffffffffffffffffffffffffffff1614610d2e576040517f08c379a0000000000000000000000000000000000000000000000000000000008152600401610d2590614c4d565b60405180910390fd5b846010600086815260200190815260200160002060006101000a81548173ffffffffffffffffffffffffffffffffffffffff021916908373ffffffffffffffffffffffffffffffffffffffff160217905550838573ffffffffffffffffffffffffffffffffffffffff163373ffffffffffffffffffffffffffffffffffffffff167f8c5be1e5ebec7d5bd14f71427d1e84f3dd0314c0f7b2291e5b200ac8c7c3b92560405160405180910390a45050505050565b60135481565b610df0612c29565b73ffffffffffffffffffffffffffffffffffffffff16610e0e6116d3565b73ffffffffffffffffffffffffffffffffffffffff1614610e64576040517f08c379a0000000000000000000000000000000000000000000000000000000008152600401610e5b90614b8d565b60405180910390fd5b80600f60006101000a81548173ffffffffffffffffffffffffffffffffffffffff021916908373ffffffffffffffffffffffffffffffffffffffff16021790555050565b6060600860008373ffffffffffffffffffffffffffffffffffffffff1673ffffffffffffffffffffffffffffffffffffffff168152602001908152602001600020805480602002602001604051908101604052809291908181526020018280548015610f3357602002820191906000526020600020905b815481526020019060010190808311610f1f575b50505050509050919050565b8060006007600083815260200190815260200160002060009054906101000a900473ffffffffffffffffffffffffffffffffffffffff1690503373ffffffffffffffffffffffffffffffffffffffff168173ffffffffffffffffffffffffffffffffffffffff16148061101057503373ffffffffffffffffffffffffffffffffffffffff166010600084815260200190815260200160002060009054906101000a900473ffffffffffffffffffffffffffffffffffffffff1673ffffffffffffffffffffffffffffffffffffffff16145b806110a15750601160008273ffffffffffffffffffffffffffffffffffffffff1673ffffffffffffffffffffffffffffffffffffffff16815260200190815260200160002060003373ffffffffffffffffffffffffffffffffffffffff1673ffffffffffffffffffffffffffffffffffffffff16815260200190815260200160002060009054906101000a900460ff165b6110aa57600080fd5b82600073ffffffffffffffffffffffffffffffffffffffff166007600083815260200190815260200160002060009054906101000a900473ffffffffffffffffffffffffffffffffffffffff1673ffffffffffffffffffffffffffffffffffffffff16141561114e576040517f08c379a000000000000000000000000000000000000000000000000000000000815260040161114590614aad565b60405180910390fd5b611159868686612c31565b505050505050565b600b5434146111a5576040517f08c379a000000000000000000000000000000000000000000000000000000000815260040161119c90614acd565b60405180910390fd5b6111ad612ebe565b3373ffffffffffffffffffffffffffffffffffffffff167f1c3899f94ecc08f5f95b67284618b3ca13d80b66fbc5b7f07c6b8bd30f61fcbf60405160405180910390a2565b6111fa612c29565b73ffffffffffffffffffffffffffffffffffffffff166112186116d3565b73ffffffffffffffffffffffffffffffffffffffff161461126e576040517f08c379a000000000000000000000000000000000000000000000000000000000815260040161126590614b8d565b60405180910390fd5b6000600f60009054906101000a900473ffffffffffffffffffffffffffffffffffffffff1690508073ffffffffffffffffffffffffffffffffffffffff166108fc839081150290604051600060405180830381858888f193505050501580156112db573d6000803e3d6000fd5b505050565b6112e8612c29565b73ffffffffffffffffffffffffffffffffffffffff166113066116d3565b73ffffffffffffffffffffffffffffffffffffffff161461135c576040517f08c379a000000000000000000000000000000000000000000000000000000000815260040161135390614b8d565b60405180910390fd5b8060058190555050565b61136e612c29565b73ffffffffffffffffffffffffffffffffffffffff1661138c6116d3565b73ffffffffffffffffffffffffffffffffffffffff16146113e2576040517f08c379a00000000000000000000000000000000000000000000000000000000081526004016113d990614b8d565b60405180910390fd5b8060048190555050565b60076020528060005260406000206000915054906101000a900473ffffffffffffffffffffffffffffffffffffffff1681565b61143a83838360405180602001604052806000815250612f7a565b505050565b60125481565b61144d612c29565b73ffffffffffffffffffffffffffffffffffffffff1661146b6116d3565b73ffffffffffffffffffffffffffffffffffffffff16146114c1576040517f08c379a00000000000000000000000000000000000000000000000000000000081526004016114b890614b8d565b60405180910390fd5b80600b8190555050565b60006007600083815260200190815260200160002060009054906101000a900473ffffffffffffffffffffffffffffffffffffffff169050919050565b6000600d60008373ffffffffffffffffffffffffffffffffffffffff1673ffffffffffffffffffffffffffffffffffffffff168152602001908152602001600020549050919050565b611559612c29565b73ffffffffffffffffffffffffffffffffffffffff166115776116d3565b73ffffffffffffffffffffffffffffffffffffffff16146115cd576040517f08c379a00000000000000000000000000000000000000000000000000000000081526004016115c490614b8d565b60405180910390fd5b6115d7600061334f565b565b80600a600084815260200190815260200160002060040160006101000a81548160ff0219169083151502179055505050565b600d6020528060005260406000206000915090505481565b61162b612c29565b73ffffffffffffffffffffffffffffffffffffffff166116496116d3565b73ffffffffffffffffffffffffffffffffffffffff161461169f576040517f08c379a000000000000000000000000000000000000000000000000000000000815260040161169690614b8d565b60405180910390fd5b60006116ac848484613413565b90506116b88582613508565b600180546116c69190614e95565b6001819055505050505050565b60008060009054906101000a900473ffffffffffffffffffffffffffffffffffffffff16905090565b8060006007600083815260200190815260200160002060009054906101000a900473ffffffffffffffffffffffffffffffffffffffff1690503373ffffffffffffffffffffffffffffffffffffffff168173ffffffffffffffffffffffffffffffffffffffff16146117a3576040517f08c379a000000000000000000000000000000000000000000000000000000000815260040161179a90614c0d565b60405180910390fd5b600060166000601560008781526020019081526020016000205481526020019081526020016000206040518060e0016040529081600082015481526020016001820160009054906101000a900460ff16151515158152602001600282015481526020016003820160009054906101000a900473ffffffffffffffffffffffffffffffffffffffff1673ffffffffffffffffffffffffffffffffffffffff1673ffffffffffffffffffffffffffffffffffffffff16815260200160048201548152602001600582015481526020016006820154815250509050600073ffffffffffffffffffffffffffffffffffffffff16816060015173ffffffffffffffffffffffffffffffffffffffff16146118ee576040517f08c379a00000000000000000000000000000000000000000000000000000000081526004016118e590614a6d565b60405180910390fd5b42816080015111611934576040517f08c379a000000000000000000000000000000000000000000000000000000000815260040161192b90614c2d565b60405180910390fd5b8060200151611978576040517f08c379a000000000000000000000000000000000000000000000000000000000815260040161196f90614c8d565b60405180910390fd5b60006014600086815260200190815260200160002060006101000a81548160ff0219169083151502179055506000600a600086815260200190815260200160002060040160006101000a81548160ff02191690831515021790555060008160200190151590811515815250508060166000836000015181526020019081526020016000206000820151816000015560208201518160010160006101000a81548160ff0219169083151502179055506040820151816002015560608201518160030160006101000a81548173ffffffffffffffffffffffffffffffffffffffff021916908373ffffffffffffffffffffffffffffffffffffffff1602179055506080820151816004015560a0820151816005015560c082015181600601559050503373ffffffffffffffffffffffffffffffffffffffff167f10ac9f0bb365b5d22d7bec500408692f23fdf83eadfec71615ef88b4c1134f0e85604051611ade9190614cad565b60405180910390a250505050565b600060166000601560008581526020019081526020016000205481526020019081526020016000206040518060e0016040529081600082015481526020016001820160009054906101000a900460ff16151515158152602001600282015481526020016003820160009054906101000a900473ffffffffffffffffffffffffffffffffffffffff1673ffffffffffffffffffffffffffffffffffffffff1673ffffffffffffffffffffffffffffffffffffffff168152602001600482015481526020016005820154815260200160068201548152505090503373ffffffffffffffffffffffffffffffffffffffff166007600084815260200190815260200160002060009054906101000a900473ffffffffffffffffffffffffffffffffffffffff1673ffffffffffffffffffffffffffffffffffffffff161415611c66576040517f08c379a0000000000000000000000000000000000000000000000000000000008152600401611c5d90614b6d565b60405180910390fd5b6014600083815260200190815260200160002060009054906101000a900460ff16611cc6576040517f08c379a0000000000000000000000000000000000000000000000000000000008152600401611cbd90614b0d565b60405180910390fd5b80604001513411611d0c576040517f08c379a0000000000000000000000000000000000000000000000000000000008152600401611d0390614aed565b60405180910390fd5b8060200151611d50576040517f08c379a0000000000000000000000000000000000000000000000000000000008152600401611d4790614c8d565b60405180910390fd5b600081606001519050600073ffffffffffffffffffffffffffffffffffffffff168173ffffffffffffffffffffffffffffffffffffffff1614611dd9578073ffffffffffffffffffffffffffffffffffffffff166108fc83604001519081150290604051600060405180830381858888f19350505050158015611dd7573d6000803e3d6000fd5b505b33601660008460000151815260200190815260200160002060030160006101000a81548173ffffffffffffffffffffffffffffffffffffffff021916908373ffffffffffffffffffffffffffffffffffffffff160217905550346016600084600001518152602001908152602001600020600201819055506001601660008460000151815260200190815260200160002060060154611e789190614e95565b6016600084600001518152602001908152602001600020600601819055503373ffffffffffffffffffffffffffffffffffffffff168260a0015183600001517f379fe8bc550443c6867a021184bb0e5a961f3fcd271160873847410c7bdd0e2834604051611ee69190614cad565b60405180910390a4505050565b60086020528160005260406000208181548110611f0f57600080fd5b90600052602060002001600091509150505481565b60096020528060005260406000206000915090505481565b600a6020528060005260406000206000915090508060000154908060010154908060020154908060030154908060040160009054906101000a900460ff16905085565b80601160003373ffffffffffffffffffffffffffffffffffffffff1673ffffffffffffffffffffffffffffffffffffffff16815260200190815260200160002060008473ffffffffffffffffffffffffffffffffffffffff1673ffffffffffffffffffffffffffffffffffffffff16815260200190815260200160002060006101000a81548160ff0219169083151502179055508173ffffffffffffffffffffffffffffffffffffffff163373ffffffffffffffffffffffffffffffffffffffff167f17307eab39ab6107e8899845ad3d59bd9653f200f220920489ca2b5937696c31836040516120709190614a32565b60405180910390a35050565b600e6020528060005260406000206000915054906101000a900460ff1681565b60146020528060005260406000206000915054906101000a900460ff1681565b6120c4612c29565b73ffffffffffffffffffffffffffffffffffffffff166120e26116d3565b73ffffffffffffffffffffffffffffffffffffffff1614612138576040517f08c379a000000000000000000000000000000000000000000000000000000000815260040161212f90614b8d565b60405180910390fd5b8060038190555050565b61219285858585858080601f016020809104026020016040519081016040528093929190818152602001838380828437600081840152601f19601f82011690508083019250505050505050612f7a565b5050505050565b8060006007600083815260200190815260200160002060009054906101000a900473ffffffffffffffffffffffffffffffffffffffff1690503373ffffffffffffffffffffffffffffffffffffffff168173ffffffffffffffffffffffffffffffffffffffff1614612240576040517f08c379a000000000000000000000000000000000000000000000000000000000815260040161223790614c0d565b60405180910390fd5b600060166000601560008781526020019081526020016000205481526020019081526020016000206040518060e0016040529081600082015481526020016001820160009054906101000a900460ff16151515158152602001600282015481526020016003820160009054906101000a900473ffffffffffffffffffffffffffffffffffffffff1673ffffffffffffffffffffffffffffffffffffffff1673ffffffffffffffffffffffffffffffffffffffff16815260200160048201548152602001600582015481526020016006820154815250509050428160800151111561235f576040517f08c379a000000000000000000000000000000000000000000000000000000000815260040161235690614a4d565b60405180910390fd5b60006007600086815260200190815260200160002060009054906101000a900473ffffffffffffffffffffffffffffffffffffffff169050600073ffffffffffffffffffffffffffffffffffffffff16826060015173ffffffffffffffffffffffffffffffffffffffff16146123e3576123e285836060015184604001516137cb565b5b816060015173ffffffffffffffffffffffffffffffffffffffff168173ffffffffffffffffffffffffffffffffffffffff1683600001517f38df7763f6e20c8107e1859baae9a29b2313caae4789b57a12a861f295eca9358560a001518660400151600073ffffffffffffffffffffffffffffffffffffffff16886060015173ffffffffffffffffffffffffffffffffffffffff16141560405161248993929190614d60565b60405180910390a460008260200190151590811515815250508160166000846000015181526020019081526020016000206000820151816000015560208201518160010160006101000a81548160ff0219169083151502179055506040820151816002015560608201518160030160006101000a81548173ffffffffffffffffffffffffffffffffffffffff021916908373ffffffffffffffffffffffffffffffffffffffff1602179055506080820151816004015560a0820151816005015560c0820151816006015590505060006014600087815260200190815260200160002060006101000a81548160ff0219169083151502179055506000600a600087815260200190815260200160002060040160006101000a81548160ff0219169083151502179055505050505050565b6125c0612c29565b73ffffffffffffffffffffffffffffffffffffffff166125de6116d3565b73ffffffffffffffffffffffffffffffffffffffff1614612634576040517f08c379a000000000000000000000000000000000000000000000000000000000815260040161262b90614b8d565b60405180910390fd5b8060068190555050565b600c5481565b60156020528060005260406000206000915090505481565b612664612c29565b73ffffffffffffffffffffffffffffffffffffffff166126826116d3565b73ffffffffffffffffffffffffffffffffffffffff16146126d8576040517f08c379a00000000000000000000000000000000000000000000000000000000081526004016126cf90614b8d565b60405180910390fd5b80600c8190555050565b6000601160008473ffffffffffffffffffffffffffffffffffffffff1673ffffffffffffffffffffffffffffffffffffffff16815260200190815260200160002060008373ffffffffffffffffffffffffffffffffffffffff1673ffffffffffffffffffffffffffffffffffffffff16815260200190815260200160002060009054906101000a900460ff16905092915050565b61277e612c29565b73ffffffffffffffffffffffffffffffffffffffff1661279c6116d3565b73ffffffffffffffffffffffffffffffffffffffff16146127f2576040517f08c379a00000000000000000000000000000000000000000000000000000000081526004016127e990614b8d565b60405180910390fd5b600073ffffffffffffffffffffffffffffffffffffffff168173ffffffffffffffffffffffffffffffffffffffff161415612862576040517f08c379a000000000000000000000000000000000000000000000000000000000815260040161285990614a8d565b60405180910390fd5b61286b8161334f565b50565b600b5481565b806012548111156128ba576040517f08c379a00000000000000000000000000000000000000000000000000000000081526004016128b190614bad565b60405180910390fd5b8360006007600083815260200190815260200160002060009054906101000a900473ffffffffffffffffffffffffffffffffffffffff1690503373ffffffffffffffffffffffffffffffffffffffff168173ffffffffffffffffffffffffffffffffffffffff1614612961576040517f08c379a000000000000000000000000000000000000000000000000000000000815260040161295890614c0d565b60405180910390fd5b6014600087815260200190815260200160002060009054906101000a900460ff16156129c2576040517f08c379a00000000000000000000000000000000000000000000000000000000081526004016129b990614bcd565b60405180910390fd5b600a600087815260200190815260200160002060040160009054906101000a900460ff1615612a26576040517f08c379a0000000000000000000000000000000000000000000000000000000008152600401612a1d90614c6d565b60405180910390fd5b60006040518060e001604052806013548152602001600115158152602001878152602001600073ffffffffffffffffffffffffffffffffffffffff1681526020018642612a739190614e95565b815260200188815260200160008152509050806016600060135481526020019081526020016000206000820151816000015560208201518160010160006101000a81548160ff0219169083151502179055506040820151816002015560608201518160030160006101000a81548173ffffffffffffffffffffffffffffffffffffffff021916908373ffffffffffffffffffffffffffffffffffffffff1602179055506080820151816004015560a0820151816005015560c082015181600601559050506001600a600089815260200190815260200160002060040160006101000a81548160ff021916908315150217905550601354601560008981526020019081526020016000208190555060016014600089815260200190815260200160002060006101000a81548160ff0219169083151502179055503373ffffffffffffffffffffffffffffffffffffffff16876013547f7dfee34cc48a7ad6a025da536d05885e750c439dbd20d390192dec1f2f4c0470898942612bf59190614e95565b604051612c03929190614d37565b60405180910390a46001601354612c1a9190614e95565b60138190555050505050505050565b600033905090565b6010600082815260200190815260200160002060006101000a81549073ffffffffffffffffffffffffffffffffffffffff021916905560006009600083815260200190815260200160002054905066038d7ea4c67fff600860006007600086815260200190815260200160002060009054906101000a900473ffffffffffffffffffffffffffffffffffffffff1673ffffffffffffffffffffffffffffffffffffffff1673ffffffffffffffffffffffffffffffffffffffff1681526020019081526020016000208281548110612d31577f4e487b7100000000000000000000000000000000000000000000000000000000600052603260045260246000fd5b9060005260206000200181905550826007600084815260200190815260200160002060006101000a81548173ffffffffffffffffffffffffffffffffffffffff021916908373ffffffffffffffffffffffffffffffffffffffff160217905550600860008473ffffffffffffffffffffffffffffffffffffffff1673ffffffffffffffffffffffffffffffffffffffff1681526020019081526020016000208290806001815401808255809150506001900390600052602060002001600090919091909150556001600860008573ffffffffffffffffffffffffffffffffffffffff1673ffffffffffffffffffffffffffffffffffffffff16815260200190815260200160002080549050612e469190614eeb565b6009600084815260200190815260200160002081905550818373ffffffffffffffffffffffffffffffffffffffff168573ffffffffffffffffffffffffffffffffffffffff167fddf252ad1be2c89b69c2b068fc378daa952ba7f163c4a11628f55a4df523b3ef60405160405180910390a450505050565b60005b600c54811015612ee757612ed481613c31565b8080612edf90614fc6565b915050612ec1565b50600c54600d60003373ffffffffffffffffffffffffffffffffffffffff1673ffffffffffffffffffffffffffffffffffffffff16815260200190815260200160002054612f359190614e95565b600d60003373ffffffffffffffffffffffffffffffffffffffff1673ffffffffffffffffffffffffffffffffffffffff16815260200190815260200160002081905550565b8160006007600083815260200190815260200160002060009054906101000a900473ffffffffffffffffffffffffffffffffffffffff1690503373ffffffffffffffffffffffffffffffffffffffff168173ffffffffffffffffffffffffffffffffffffffff16148061304b57503373ffffffffffffffffffffffffffffffffffffffff166010600084815260200190815260200160002060009054906101000a900473ffffffffffffffffffffffffffffffffffffffff1673ffffffffffffffffffffffffffffffffffffffff16145b806130dc5750601160008273ffffffffffffffffffffffffffffffffffffffff1673ffffffffffffffffffffffffffffffffffffffff16815260200190815260200160002060003373ffffffffffffffffffffffffffffffffffffffff1673ffffffffffffffffffffffffffffffffffffffff16815260200190815260200160002060009054906101000a900460ff165b6130e557600080fd5b83600073ffffffffffffffffffffffffffffffffffffffff166007600083815260200190815260200160002060009054906101000a900473ffffffffffffffffffffffffffffffffffffffff1673ffffffffffffffffffffffffffffffffffffffff161415613189576040517f08c379a000000000000000000000000000000000000000000000000000000000815260040161318090614aad565b60405180910390fd5b600073ffffffffffffffffffffffffffffffffffffffff168673ffffffffffffffffffffffffffffffffffffffff1614156131f9576040517f08c379a00000000000000000000000000000000000000000000000000000000081526004016131f090614bed565b60405180910390fd5b613204878787612c31565b6132238673ffffffffffffffffffffffffffffffffffffffff16613e89565b156133465760008673ffffffffffffffffffffffffffffffffffffffff1663150b7a02338a89896040518563ffffffff1660e01b815260040161326994939291906149c4565b602060405180830381600087803b15801561328357600080fd5b505af1158015613297573d6000803e3d6000fd5b505050506040513d601f19601f820116820180604052508101906132bb9190614224565b905063150b7a0260e01b7bffffffffffffffffffffffffffffffffffffffffffffffffffffffff1916817bffffffffffffffffffffffffffffffffffffffffffffffffffffffff191614613344576040517f08c379a000000000000000000000000000000000000000000000000000000000815260040161333b90614b4d565b60405180910390fd5b505b50505050505050565b60008060009054906101000a900473ffffffffffffffffffffffffffffffffffffffff169050816000806101000a81548173ffffffffffffffffffffffffffffffffffffffff021916908373ffffffffffffffffffffffffffffffffffffffff1602179055508173ffffffffffffffffffffffffffffffffffffffff168173ffffffffffffffffffffffffffffffffffffffff167f8be0079c531659141344cd1fd0a4f28419497f9722a3daafe3b4186f6b6457e060405160405180910390a35050565b6000806040518060a00160405280600154815260200186815260200184815260200185815260200160001515815250905080600a600060015481526020019081526020016000206000820151816000015560208201518160010155604082015181600201556060820151816003015560808201518160040160006101000a81548160ff0219169083151502179055509050503373ffffffffffffffffffffffffffffffffffffffff167fa47f2b648fe6fee6023b9227628b751649f165f204c8a6e75d3146aca5b1b8a66001548688876040516134f39493929190614d97565b60405180910390a26001549150509392505050565b600073ffffffffffffffffffffffffffffffffffffffff168273ffffffffffffffffffffffffffffffffffffffff161415613578576040517f08c379a000000000000000000000000000000000000000000000000000000000815260040161356f90614bed565b60405180910390fd5b600073ffffffffffffffffffffffffffffffffffffffff166007600083815260200190815260200160002060009054906101000a900473ffffffffffffffffffffffffffffffffffffffff1673ffffffffffffffffffffffffffffffffffffffff161461361a576040517f08c379a000000000000000000000000000000000000000000000000000000000815260040161361190614b2d565b60405180910390fd5b816007600083815260200190815260200160002060006101000a81548173ffffffffffffffffffffffffffffffffffffffff021916908373ffffffffffffffffffffffffffffffffffffffff160217905550600860008373ffffffffffffffffffffffffffffffffffffffff1673ffffffffffffffffffffffffffffffffffffffff1681526020019081526020016000208190806001815401808255809150506001900390600052602060002001600090919091909150556001600860008473ffffffffffffffffffffffffffffffffffffffff1673ffffffffffffffffffffffffffffffffffffffff168152602001908152602001600020805490506137219190614eeb565b60096000838152602001908152602001600020819055506001600d60008473ffffffffffffffffffffffffffffffffffffffff1673ffffffffffffffffffffffffffffffffffffffff168152602001908152602001600020546137849190614e95565b600d60008473ffffffffffffffffffffffffffffffffffffffff1673ffffffffffffffffffffffffffffffffffffffff168152602001908152602001600020819055505050565b60006007600085815260200190815260200160002060009054906101000a900473ffffffffffffffffffffffffffffffffffffffff1690506001600d60006007600088815260200190815260200160002060009054906101000a900473ffffffffffffffffffffffffffffffffffffffff1673ffffffffffffffffffffffffffffffffffffffff1673ffffffffffffffffffffffffffffffffffffffff168152602001908152602001600020546138829190614eeb565b600d60006007600088815260200190815260200160002060009054906101000a900473ffffffffffffffffffffffffffffffffffffffff1673ffffffffffffffffffffffffffffffffffffffff1673ffffffffffffffffffffffffffffffffffffffff1681526020019081526020016000208190555060006009600086815260200190815260200160002054905066038d7ea4c67fff600860006007600089815260200190815260200160002060009054906101000a900473ffffffffffffffffffffffffffffffffffffffff1673ffffffffffffffffffffffffffffffffffffffff1673ffffffffffffffffffffffffffffffffffffffff16815260200190815260200160002082815481106139c2577f4e487b7100000000000000000000000000000000000000000000000000000000600052603260045260246000fd5b9060005260206000200181905550600860008573ffffffffffffffffffffffffffffffffffffffff1673ffffffffffffffffffffffffffffffffffffffff1681526020019081526020016000208590806001815401808255809150506001900390600052602060002001600090919091909150556001600860008673ffffffffffffffffffffffffffffffffffffffff1673ffffffffffffffffffffffffffffffffffffffff16815260200190815260200160002080549050613a859190614eeb565b6009600087815260200190815260200160002081905550836007600087815260200190815260200160002060006101000a81548173ffffffffffffffffffffffffffffffffffffffff021916908373ffffffffffffffffffffffffffffffffffffffff1602179055506001600d60006007600089815260200190815260200160002060009054906101000a900473ffffffffffffffffffffffffffffffffffffffff1673ffffffffffffffffffffffffffffffffffffffff1673ffffffffffffffffffffffffffffffffffffffff16815260200190815260200160002054613b6d9190614e95565b600d60006007600089815260200190815260200160002060009054906101000a900473ffffffffffffffffffffffffffffffffffffffff1673ffffffffffffffffffffffffffffffffffffffff1673ffffffffffffffffffffffffffffffffffffffff168152602001908152602001600020819055508173ffffffffffffffffffffffffffffffffffffffff166108fc849081150290604051600060405180830381858888f19350505050158015613c29573d6000803e3d6000fd5b505050505050565b6000613c3c82613ed4565b90506000819050600060035483613c539190615019565b90506000613c6084613f0f565b905060006040518060a00160405280600154815260200184815260200185815260200183815260200160001515815250905080600a600060015481526020019081526020016000206000820151816000015560208201518160010155604082015181600201556060820151816003015560808201518160040160006101000a81548160ff0219169083151502179055509050503373ffffffffffffffffffffffffffffffffffffffff167fa47f2b648fe6fee6023b9227628b751649f165f204c8a6e75d3146aca5b1b8a6600154848688604051613d419493929190614d97565b60405180910390a23360076000600154815260200190815260200160002060006101000a81548173ffffffffffffffffffffffffffffffffffffffff021916908373ffffffffffffffffffffffffffffffffffffffff160217905550600860003373ffffffffffffffffffffffffffffffffffffffff1673ffffffffffffffffffffffffffffffffffffffff16815260200190815260200160002060015490806001815401808255809150506001900390600052602060002001600090919091909150556001600860003373ffffffffffffffffffffffffffffffffffffffff1673ffffffffffffffffffffffffffffffffffffffff16815260200190815260200160002080549050613e549190614eeb565b6009600060015481526020019081526020016000208190555060018054613e7b9190614e95565b600181905550505050505050565b60008060007fc5d2460186f7233c927e7db2dcc703c0e500b653ca82273b7bfad8045d85a47060001b9050833f91506000801b8214158015613ecb5750808214155b92505050919050565b6000444260025484604051602001613eef949392919061495b565b6040516020818303038152906040528051906020012060001c9050919050565b60008060065483613f209190615019565b1415613f2f5760039050613f72565b600060055483613f3f9190615019565b1415613f4e5760029050613f72565b600060045483613f5e9190615019565b1415613f6d5760019050613f72565b600090505b919050565b600081359050613f86816150b9565b92915050565b600081359050613f9b816150d0565b92915050565b600081519050613fb0816150e7565b92915050565b60008083601f840112613fc857600080fd5b8235905067ffffffffffffffff811115613fe157600080fd5b602083019150836001820283011115613ff957600080fd5b9250929050565b60008135905061400f816150fe565b92915050565b60006020828403121561402757600080fd5b600061403584828501613f77565b91505092915050565b6000806040838503121561405157600080fd5b600061405f85828601613f77565b925050602061407085828601613f77565b9150509250929050565b60008060006060848603121561408f57600080fd5b600061409d86828701613f77565b93505060206140ae86828701613f77565b92505060406140bf86828701614000565b9150509250925092565b6000806000806000608086880312156140e157600080fd5b60006140ef88828901613f77565b955050602061410088828901613f77565b945050604061411188828901614000565b935050606086013567ffffffffffffffff81111561412e57600080fd5b61413a88828901613fb6565b92509250509295509295909350565b6000806040838503121561415c57600080fd5b600061416a85828601613f77565b925050602061417b85828601613f8c565b9150509250929050565b6000806040838503121561419857600080fd5b60006141a685828601613f77565b92505060206141b785828601614000565b9150509250929050565b600080600080608085870312156141d757600080fd5b60006141e587828801613f77565b94505060206141f687828801614000565b935050604061420787828801614000565b925050606061421887828801614000565b91505092959194509250565b60006020828403121561423657600080fd5b600061424484828501613fa1565b91505092915050565b60006020828403121561425f57600080fd5b600061426d84828501614000565b91505092915050565b6000806040838503121561428957600080fd5b600061429785828601614000565b92505060206142a885828601613f8c565b9150509250929050565b6000806000606084860312156142c757600080fd5b60006142d586828701614000565b93505060206142e686828701614000565b92505060406142f786828701614000565b9150509250925092565b600061430d8383614926565b60208301905092915050565b61432281614f1f565b82525050565b600061433382614e3f565b61433d8185614e62565b935061434883614e2f565b8060005b838110156143795781516143608882614301565b975061436b83614e55565b92505060018101905061434c565b5085935050505092915050565b61438f81614f31565b82525050565b60006143a082614e4a565b6143aa8185614e73565b93506143ba818560208601614f93565b6143c3816150a8565b840191505092915050565b60006143db601883614e84565b91507f41554354494f4e204e4f54205945542046494e495348454400000000000000006000830152602082019050919050565b600061441b602683614e84565b91507f43414e4e4f542043414e43454c20414e2041554354494f4e205448415420484160008301527f53204249445300000000000000000000000000000000000000000000000000006020830152604082019050919050565b6000614481602683614e84565b91507f4f776e61626c653a206e6577206f776e657220697320746865207a65726f206160008301527f64647265737300000000000000000000000000000000000000000000000000006020830152604082019050919050565b60006144e7600c83614e84565b91507f494e56414c4944204341524400000000000000000000000000000000000000006000830152602082019050919050565b6000614527602083614e84565b91507f56414c55452053454e54204e4f5420455155414c20544f2043415244204645456000830152602082019050919050565b6000614567601a83614e84565b91507f424944204c4f574552205448414e2043555252454e54204249440000000000006000830152602082019050919050565b60006145a7601183614e84565b91507f43415244204e4f5420464f522053414c450000000000000000000000000000006000830152602082019050919050565b60006145e7601383614e84565b91507f4341524420414c524541445920455849535453000000000000000000000000006000830152602082019050919050565b6000614627601283614e84565b91507f43414e4e4f542052454345495645204e465400000000000000000000000000006000830152602082019050919050565b6000614667601c83614e84565b91507f43414e204e4f5420424944204f4e20434152445320594f55204f574e000000006000830152602082019050919050565b60006146a7602083614e84565b91507f4f776e61626c653a2063616c6c6572206973206e6f7420746865206f776e65726000830152602082019050919050565b60006146e7601883614e84565b91507f424944204455524154494f4e204e4f5420414c4c4f57454400000000000000006000830152602082019050919050565b6000614727602083614e84565b91507f434152442049532043555252454e544c5920555020464f522041554354494f4e6000830152602082019050919050565b6000614767600c83614e84565b91507f5a45524f204144445245535300000000000000000000000000000000000000006000830152602082019050919050565b60006147a7602783614e84565b91507f4f4e4c592043415244204f574e45522043414e20504f535420495420464f522060008301527f41554354494f4e000000000000000000000000000000000000000000000000006020830152604082019050919050565b600061480d602d83614e84565b91507f43414e4e4f542043414e43454c20414e2041554354494f4e204146544552204960008301527f54204841532045585049524544000000000000000000000000000000000000006020830152604082019050919050565b6000614873601783614e84565b91507f4e4f542043555252454e5420544f4b454e204f574e45520000000000000000006000830152602082019050919050565b60006148b3601883614e84565b91507f434152442049532043555252454e544c5920494e2055534500000000000000006000830152602082019050919050565b60006148f3601e83614e84565b91507f544849532041554354494f4e204953204e4f204c4f4e474552204f50454e00006000830152602082019050919050565b61492f81614f89565b82525050565b61493e81614f89565b82525050565b61495561495082614f89565b61500f565b82525050565b60006149678287614944565b6020820191506149778286614944565b6020820191506149878285614944565b6020820191506149978284614944565b60208201915081905095945050505050565b60006020820190506149be6000830184614319565b92915050565b60006080820190506149d96000830187614319565b6149e66020830186614319565b6149f36040830185614935565b8181036060830152614a058184614395565b905095945050505050565b60006020820190508181036000830152614a2a8184614328565b905092915050565b6000602082019050614a476000830184614386565b92915050565b60006020820190508181036000830152614a66816143ce565b9050919050565b60006020820190508181036000830152614a868161440e565b9050919050565b60006020820190508181036000830152614aa681614474565b9050919050565b60006020820190508181036000830152614ac6816144da565b9050919050565b60006020820190508181036000830152614ae68161451a565b9050919050565b60006020820190508181036000830152614b068161455a565b9050919050565b60006020820190508181036000830152614b268161459a565b9050919050565b60006020820190508181036000830152614b46816145da565b9050919050565b60006020820190508181036000830152614b668161461a565b9050919050565b60006020820190508181036000830152614b868161465a565b9050919050565b60006020820190508181036000830152614ba68161469a565b9050919050565b60006020820190508181036000830152614bc6816146da565b9050919050565b60006020820190508181036000830152614be68161471a565b9050919050565b60006020820190508181036000830152614c068161475a565b9050919050565b60006020820190508181036000830152614c268161479a565b9050919050565b60006020820190508181036000830152614c4681614800565b9050919050565b60006020820190508181036000830152614c6681614866565b9050919050565b60006020820190508181036000830152614c86816148a6565b9050919050565b60006020820190508181036000830152614ca6816148e6565b9050919050565b6000602082019050614cc26000830184614935565b92915050565b600060e082019050614cdd600083018a614935565b614cea6020830189614386565b614cf76040830188614935565b614d046060830187614319565b614d116080830186614935565b614d1e60a0830185614935565b614d2b60c0830184614935565b98975050505050505050565b6000604082019050614d4c6000830185614935565b614d596020830184614935565b9392505050565b6000606082019050614d756000830186614935565b614d826020830185614935565b614d8f6040830184614386565b949350505050565b6000608082019050614dac6000830187614935565b614db96020830186614935565b614dc66040830185614935565b614dd36060830184614935565b95945050505050565b600060a082019050614df16000830188614935565b614dfe6020830187614935565b614e0b6040830186614935565b614e186060830185614935565b614e256080830184614386565b9695505050505050565b6000819050602082019050919050565b600081519050919050565b600081519050919050565b6000602082019050919050565b600082825260208201905092915050565b600082825260208201905092915050565b600082825260208201905092915050565b6000614ea082614f89565b9150614eab83614f89565b9250827fffffffffffffffffffffffffffffffffffffffffffffffffffffffffffffffff03821115614ee057614edf61504a565b5b828201905092915050565b6000614ef682614f89565b9150614f0183614f89565b925082821015614f1457614f1361504a565b5b828203905092915050565b6000614f2a82614f69565b9050919050565b60008115159050919050565b60007fffffffff0000000000000000000000000000000000000000000000000000000082169050919050565b600073ffffffffffffffffffffffffffffffffffffffff82169050919050565b6000819050919050565b60005b83811015614fb1578082015181840152602081019050614f96565b83811115614fc0576000848401525b50505050565b6000614fd182614f89565b91507fffffffffffffffffffffffffffffffffffffffffffffffffffffffffffffffff8214156150045761500361504a565b5b600182019050919050565b6000819050919050565b600061502482614f89565b915061502f83614f89565b92508261503f5761503e615079565b5b828206905092915050565b7f4e487b7100000000000000000000000000000000000000000000000000000000600052601160045260246000fd5b7f4e487b7100000000000000000000000000000000000000000000000000000000600052601260045260246000fd5b6000601f19601f8301169050919050565b6150c281614f1f565b81146150cd57600080fd5b50565b6150d981614f31565b81146150e457600080fd5b50565b6150f081614f3d565b81146150fb57600080fd5b50565b61510781614f89565b811461511257600080fd5b5056fea2646970667358221220d6c338f0817086d51f4ec728fc89f9942c48084115ea7e45e9fa66054bf1bed464736f6c63430008000033",
  "immutableReferences": {},
  "source": "// SPDX-License-Identifier: UNLICENSED\npragma solidity ^0.8.0;\n\nimport \"./card-ownership.sol\";\n\n// abstract contract Aion {\n//     uint256 public serviceFee;\n//     function ScheduleCall(uint256 blocknumber, address to, uint256 value, uint256 gaslimit, uint256 gasprice, bytes memory data, bool schedType) virtual public payable returns (uint,address);\n//     function cancellScheduledTx(uint256 blocknumber, address from, address to, uint256 value, uint256 gaslimit, uint256 gasprice, uint256 fee, bytes memory data, uint256 aionId, bool schedType) virtual public payable returns(bool);\n// }\n\ncontract CardAuction is CardOwnership {\n\n    // Aion aion;\n    uint public maxAuctionDuration = 604800;\n    uint public auctionId = 0;\n    mapping(uint => bool) public cardIsForSale;\n    mapping(uint => uint) public cardIdToAuctionId;\n    mapping(uint => Auction) public auctionIdToAuction;\n\n    struct Auction {\n        uint auctionId;\n        bool open;\n        uint currentBid;\n        address leadingBidder;\n        uint expireDate;\n        uint cardId;\n        uint bidCount;\n    }\n    \n    event AuctionOpened(uint indexed auctionId, uint indexed cardId, uint startingBid, uint expireDate, address indexed owner);\n    event BidPlaced(uint indexed auctionId, uint indexed cardId, uint bid, address indexed bidder);\n    event AuctionClosed(uint indexed auctionId, uint cardId, uint salePrice, address indexed from, address indexed to, bool completed);\n    event AuctionCancelled(uint cardId, address indexed owner);\n\n    modifier onlyCardOwner(uint _cardId) {\n        address owner = cardIdToOwner[_cardId];\n        require(owner == msg.sender, 'ONLY CARD OWNER CAN POST IT FOR AUCTION');\n        _;\n    }\n\n    modifier checkAuctionDuration(uint _duration) {\n        require(_duration <= maxAuctionDuration, 'BID DURATION NOT ALLOWED');\n        _;\n    }\n\n    // Keeping for possible scheduler integration\n    //\n    // function createCardAuction(uint _cardId, uint _startingBid, uint _duration) external checkAuctionDuration(_duration) onlyCardOwner(_cardId) {\n    //     require(!cardIsForSale[_cardId], 'CARD ALREADY UP FOR AUCTION');\n    //     aion = Aion(0xFcFB45679539667f7ed55FA59A15c8Cad73d9a4E);\n    //     bytes memory data = abi.encodeWithSelector(bytes4(keccak256('endAuction(uint)')), _cardId);\n    //     uint callCost = 500000*1e9 + aion.serviceFee();\n    //     aion.ScheduleCall{value: callCost}(block.timestamp + _duration, address(this), 0, 500000, 1e9, data, true);        \n\n    //     cardIsForSale[_cardId] = true;\n    //     cardToCurrentBid[_cardId] = _startingBid;\n    //     auctionExpireDate[_cardId] = block.timestamp + _duration;\n    //     // emit AuctionOpened(_cardId, _startingBid, block.timestamp + _duration);\n    //     AuctionOpened(auctionId, _cardId, _startingBid, block.timestamp + _duration, msg.sender);\n    // }\n\n    function createCardAuction(uint _cardId, uint _startingBid, uint _duration) external checkAuctionDuration(_duration) onlyCardOwner(_cardId) {\n        require(!cardIsForSale[_cardId], 'CARD IS CURRENTLY UP FOR AUCTION');\n        require(!cardIdToCard[_cardId].inUse, \"CARD IS CURRENTLY IN USE\");\n\n        Auction memory auction = Auction(auctionId, true, _startingBid, address(0), block.timestamp + _duration, _cardId, 0);\n        auctionIdToAuction[auctionId] = auction;\n\n        cardIdToCard[_cardId].inUse = true;\n        cardIdToAuctionId[_cardId] = auctionId;\n        cardIsForSale[_cardId] = true;\n        emit AuctionOpened(auctionId, _cardId, _startingBid, block.timestamp + _duration, msg.sender);\n        auctionId = auctionId + 1;\n    }\n\n    function placeBid(uint _cardId) external payable {\n        Auction memory auction = auctionIdToAuction[cardIdToAuctionId[_cardId]];\n        require(cardIdToOwner[_cardId] != msg.sender, 'CAN NOT BID ON CARDS YOU OWN');\n        require(cardIsForSale[_cardId], 'CARD NOT FOR SALE');\n        require(msg.value > auction.currentBid, 'BID LOWER THAN CURRENT BID');\n        require(auction.open, \"THIS AUCTION IS NO LONGER OPEN\");\n\n        address payable outbidAddress = payable(auction.leadingBidder);\n\n        if(outbidAddress != address(0)){\n            outbidAddress.transfer(auction.currentBid);\n        }\n\n        auctionIdToAuction[auction.auctionId].leadingBidder = msg.sender;\n        auctionIdToAuction[auction.auctionId].currentBid = msg.value;\n        auctionIdToAuction[auction.auctionId].bidCount = auctionIdToAuction[auction.auctionId].bidCount + 1;\n\n        emit BidPlaced(auction.auctionId, auction.cardId, msg.value, msg.sender);\n    }\n\n    function endAuction(uint _cardId) public onlyCardOwner(_cardId) {\n        Auction memory auction = auctionIdToAuction[cardIdToAuctionId[_cardId]];\n        require(auction.expireDate <= block.timestamp, \"AUCTION NOT YET FINISHED\");\n        address previousOwner = cardIdToOwner[_cardId];\n        if(auction.leadingBidder != address(0)) {\n            transferCard(_cardId, auction.leadingBidder, auction.currentBid);\n        }\n        AuctionClosed(auction.auctionId, auction.cardId, auction.currentBid, previousOwner, auction.leadingBidder, auction.leadingBidder != address(0));\n        auction.open = false;\n        auctionIdToAuction[auction.auctionId] = auction;\n        cardIsForSale[_cardId] = false;\n        cardIdToCard[_cardId].inUse = false;\n    }\n\n    function cancelAuction(uint _cardId) public onlyCardOwner(_cardId) {\n        Auction memory auction = auctionIdToAuction[cardIdToAuctionId[_cardId]];\n        require(auction.leadingBidder == address(0), \"CANNOT CANCEL AN AUCTION THAT HAS BIDS\");\n        require(auction.expireDate > block.timestamp, \"CANNOT CANCEL AN AUCTION AFTER IT HAS EXPIRED\");\n        require(auction.open, \"THIS AUCTION IS NO LONGER OPEN\");\n\n        cardIsForSale[_cardId] = false;\n        cardIdToCard[_cardId].inUse = false;\n        auction.open = false;\n        auctionIdToAuction[auction.auctionId] = auction;\n        emit AuctionCancelled(_cardId, msg.sender);\n    }\n\n    function transferCard(uint _cardId, address _winner, uint _price) private {\n        address payable beneficiary = payable(cardIdToOwner[_cardId]);\n\n        ownerCardCount[cardIdToOwner[_cardId]] = ownerCardCount[cardIdToOwner[_cardId]] - 1;\n        uint cardIndex = cardIsAtIndex[_cardId];\n        userOwnedCards[cardIdToOwner[_cardId]][cardIndex] = 999999999999999;\n\n        userOwnedCards[_winner].push(_cardId);\n        cardIsAtIndex[_cardId] = userOwnedCards[_winner].length - 1;\n        cardIdToOwner[_cardId] = _winner;\n        ownerCardCount[cardIdToOwner[_cardId]] = ownerCardCount[cardIdToOwner[_cardId]] + 1;\n        beneficiary.transfer(_price);\n    }\n\n    function setCardUseStatus(uint _cardId, bool _isInUse) external {\n        cardIdToCard[_cardId].inUse = _isInUse;\n    }\n\n}",
  "sourcePath": "/Users/tkma4fr/Development/solidity-app/contracts/card-auction.sol",
  "compiler": {
    "name": "solc",
    "version": "0.8.0+commit.c7dfd78e.Emscripten.clang"
  },
  "schemaVersion": "3.4.2",
  "updatedAt": "2021-10-27T15:26:32.439Z",
  "networkType": "ethereum",
  "devdoc": {
    "kind": "dev",
    "methods": {
      "approve(address,uint256)": {
        "details": "The zero address indicates there is no approved address.  Throws unless `msg.sender` is the current NFT owner, or an authorized  operator of the current owner.",
        "params": {
          "_approved": "The new approved NFT controller",
          "_tokenId": "The NFT to approve"
        }
      },
      "balanceOf(address)": {
        "details": "NFTs assigned to the zero address are considered invalid, and this  function throws for queries about the zero address.",
        "params": {
          "_owner": "An address for whom to query the balance"
        },
        "returns": {
          "_0": "The number of NFTs owned by `_owner`, possibly zero"
        }
      },
      "getApproved(uint256)": {
        "details": "Throws if `_tokenId` is not a valid NFT.",
        "params": {
          "_tokenId": "The NFT to find the approved address for"
        },
        "returns": {
          "_0": "The approved address for this NFT, or the zero address if there is none"
        }
      },
      "isApprovedForAll(address,address)": {
        "params": {
          "_operator": "The address that acts on behalf of the owner",
          "_owner": "The address that owns the NFTs"
        },
        "returns": {
          "_0": "True if `_operator` is an approved operator for `_owner`, false otherwise"
        }
      },
      "owner()": {
        "details": "Returns the address of the current owner."
      },
      "ownerOf(uint256)": {
        "details": "NFTs assigned to zero address are considered invalid, and queries  about them do throw.",
        "params": {
          "_tokenId": "The identifier for an NFT"
        },
        "returns": {
          "_0": "The address of the owner of the NFT"
        }
      },
      "renounceOwnership()": {
        "details": "Leaves the contract without owner. It will not be possible to call `onlyOwner` functions anymore. Can only be called by the current owner. NOTE: Renouncing ownership will leave the contract without an owner, thereby removing any functionality that is only available to the owner."
      },
      "safeTransferFrom(address,address,uint256)": {
        "details": "This works identically to the other function with an extra data parameter,  except this function just sets data to \"\".",
        "params": {
          "_from": "The current owner of the NFT",
          "_to": "The new owner",
          "_tokenId": "The NFT to transfer"
        }
      },
      "setApprovalForAll(address,bool)": {
        "details": "Emits the ApprovalForAll event. The contract MUST allow  multiple operators per owner.",
        "params": {
          "_approved": "True if the operator is approved, false to revoke approval",
          "_operator": "Address to add to the set of authorized operators"
        }
      },
      "transferFrom(address,address,uint256)": {
        "details": "Throws unless `msg.sender` is the current owner, an authorized  operator, or the approved address for this NFT. Throws if `_from` is  not the current owner. Throws if `_to` is the zero address. Throws if  `_tokenId` is not a valid NFT.",
        "params": {
          "_from": "The current owner of the NFT",
          "_to": "The new owner",
          "_tokenId": "The NFT to transfer"
        }
      },
      "transferOwnership(address)": {
        "details": "Transfers ownership of the contract to a new account (`newOwner`). Can only be called by the current owner."
      }
    },
    "version": 1
  },
  "userdoc": {
    "kind": "user",
    "methods": {
      "approve(address,uint256)": {
        "notice": "Change or reaffirm the approved address for an NFT"
      },
      "balanceOf(address)": {
        "notice": "Count all NFTs assigned to an owner"
      },
      "getApproved(uint256)": {
        "notice": "Get the approved address for a single NFT"
      },
      "isApprovedForAll(address,address)": {
        "notice": "Query if an address is an authorized operator for another address"
      },
      "ownerOf(uint256)": {
        "notice": "Find the owner of an NFT"
      },
      "safeTransferFrom(address,address,uint256)": {
        "notice": "Transfers the ownership of an NFT from one address to another address"
      },
      "setApprovalForAll(address,bool)": {
        "notice": "Enable or disable approval for a third party (\"operator\") to manage  all of `msg.sender`'s assets"
      },
      "transferFrom(address,address,uint256)": {
        "notice": "Transfer ownership of an NFT -- THE CALLER IS RESPONSIBLE  TO CONFIRM THAT `_to` IS CAPABLE OF RECEIVING NFTS OR ELSE  THEY MAY BE PERMANENTLY LOST"
      }
    },
    "version": 1
  }
}