{
  "contractName": "CardAuction",
  "abi": [
    {
      "anonymous": false,
      "inputs": [
        {
          "indexed": true,
          "internalType": "address",
          "name": "_owner",
          "type": "address"
        },
        {
          "indexed": true,
          "internalType": "address",
          "name": "_approved",
          "type": "address"
        },
        {
          "indexed": true,
          "internalType": "uint256",
          "name": "_tokenId",
          "type": "uint256"
        }
      ],
      "name": "Approval",
      "type": "event"
    },
    {
      "anonymous": false,
      "inputs": [
        {
          "indexed": true,
          "internalType": "address",
          "name": "_owner",
          "type": "address"
        },
        {
          "indexed": true,
          "internalType": "address",
          "name": "_operator",
          "type": "address"
        },
        {
          "indexed": false,
          "internalType": "bool",
          "name": "_approved",
          "type": "bool"
        }
      ],
      "name": "ApprovalForAll",
      "type": "event"
    },
    {
      "anonymous": false,
      "inputs": [
        {
          "indexed": true,
          "internalType": "uint256",
          "name": "cardId",
          "type": "uint256"
        },
        {
          "indexed": false,
          "internalType": "uint256",
          "name": "salePrice",
          "type": "uint256"
        },
        {
          "indexed": false,
          "internalType": "address",
          "name": "to",
          "type": "address"
        }
      ],
      "name": "AuctionClosed",
      "type": "event"
    },
    {
      "anonymous": false,
      "inputs": [
        {
          "indexed": true,
          "internalType": "uint256",
          "name": "cardId",
          "type": "uint256"
        },
        {
          "indexed": false,
          "internalType": "uint256",
          "name": "startingBid",
          "type": "uint256"
        },
        {
          "indexed": false,
          "internalType": "uint256",
          "name": "expireDate",
          "type": "uint256"
        }
      ],
      "name": "AuctionOpened",
      "type": "event"
    },
    {
      "anonymous": false,
      "inputs": [
        {
          "indexed": true,
          "internalType": "uint256",
          "name": "cardId",
          "type": "uint256"
        },
        {
          "indexed": false,
          "internalType": "uint256",
          "name": "bid",
          "type": "uint256"
        },
        {
          "indexed": false,
          "internalType": "address",
          "name": "bidder",
          "type": "address"
        }
      ],
      "name": "BidPlaced",
      "type": "event"
    },
    {
      "anonymous": false,
      "inputs": [
        {
          "indexed": false,
          "internalType": "uint256",
          "name": "cardId",
          "type": "uint256"
        },
        {
          "indexed": false,
          "internalType": "uint256",
          "name": "cardType",
          "type": "uint256"
        },
        {
          "indexed": false,
          "internalType": "uint256",
          "name": "playerId",
          "type": "uint256"
        },
        {
          "indexed": false,
          "internalType": "uint256",
          "name": "attributeHash",
          "type": "uint256"
        },
        {
          "indexed": true,
          "internalType": "address",
          "name": "owner",
          "type": "address"
        }
      ],
      "name": "CardCreated",
      "type": "event"
    },
    {
      "anonymous": false,
      "inputs": [
        {
          "indexed": true,
          "internalType": "address",
          "name": "previousOwner",
          "type": "address"
        },
        {
          "indexed": true,
          "internalType": "address",
          "name": "newOwner",
          "type": "address"
        }
      ],
      "name": "OwnershipTransferred",
      "type": "event"
    },
    {
      "anonymous": false,
      "inputs": [
        {
          "indexed": true,
          "internalType": "address",
          "name": "_from",
          "type": "address"
        },
        {
          "indexed": true,
          "internalType": "address",
          "name": "_to",
          "type": "address"
        },
        {
          "indexed": true,
          "internalType": "uint256",
          "name": "_tokenId",
          "type": "uint256"
        }
      ],
      "name": "Transfer",
      "type": "event"
    },
    {
      "inputs": [
        {
          "internalType": "address",
          "name": "_approved",
          "type": "address"
        },
        {
          "internalType": "uint256",
          "name": "_tokenId",
          "type": "uint256"
        }
      ],
      "name": "approve",
      "outputs": [],
      "stateMutability": "payable",
      "type": "function",
      "payable": true
    },
    {
      "inputs": [
        {
          "internalType": "uint256",
          "name": "",
          "type": "uint256"
        }
      ],
      "name": "auctionExpireDate",
      "outputs": [
        {
          "internalType": "uint256",
          "name": "",
          "type": "uint256"
        }
      ],
      "stateMutability": "view",
      "type": "function",
      "constant": true
    },
    {
      "inputs": [
        {
          "internalType": "address",
          "name": "_owner",
          "type": "address"
        }
      ],
      "name": "balanceOf",
      "outputs": [
        {
          "internalType": "uint256",
          "name": "",
          "type": "uint256"
        }
      ],
      "stateMutability": "view",
      "type": "function",
      "constant": true
    },
    {
      "inputs": [
        {
          "internalType": "uint256",
          "name": "",
          "type": "uint256"
        }
      ],
      "name": "cardIdToOwner",
      "outputs": [
        {
          "internalType": "address",
          "name": "",
          "type": "address"
        }
      ],
      "stateMutability": "view",
      "type": "function",
      "constant": true
    },
    {
      "inputs": [
        {
          "internalType": "uint256",
          "name": "",
          "type": "uint256"
        }
      ],
      "name": "cardIsForSale",
      "outputs": [
        {
          "internalType": "bool",
          "name": "",
          "type": "bool"
        }
      ],
      "stateMutability": "view",
      "type": "function",
      "constant": true
    },
    {
      "inputs": [
        {
          "internalType": "uint256",
          "name": "",
          "type": "uint256"
        }
      ],
      "name": "cardToCurrentBid",
      "outputs": [
        {
          "internalType": "uint256",
          "name": "",
          "type": "uint256"
        }
      ],
      "stateMutability": "view",
      "type": "function",
      "constant": true
    },
    {
      "inputs": [
        {
          "internalType": "uint256",
          "name": "",
          "type": "uint256"
        }
      ],
      "name": "cards",
      "outputs": [
        {
          "internalType": "uint256",
          "name": "cardId",
          "type": "uint256"
        },
        {
          "internalType": "uint256",
          "name": "playerId",
          "type": "uint256"
        },
        {
          "internalType": "uint256",
          "name": "attributeHash",
          "type": "uint256"
        },
        {
          "internalType": "uint256",
          "name": "cardType",
          "type": "uint256"
        }
      ],
      "stateMutability": "view",
      "type": "function",
      "constant": true
    },
    {
      "inputs": [
        {
          "internalType": "address",
          "name": "",
          "type": "address"
        }
      ],
      "name": "existingUser",
      "outputs": [
        {
          "internalType": "bool",
          "name": "",
          "type": "bool"
        }
      ],
      "stateMutability": "view",
      "type": "function",
      "constant": true
    },
    {
      "inputs": [
        {
          "internalType": "uint256",
          "name": "_tokenId",
          "type": "uint256"
        }
      ],
      "name": "getApproved",
      "outputs": [
        {
          "internalType": "address",
          "name": "",
          "type": "address"
        }
      ],
      "stateMutability": "view",
      "type": "function",
      "constant": true
    },
    {
      "inputs": [
        {
          "internalType": "address",
          "name": "_owner",
          "type": "address"
        },
        {
          "internalType": "address",
          "name": "_operator",
          "type": "address"
        }
      ],
      "name": "isApprovedForAll",
      "outputs": [
        {
          "internalType": "bool",
          "name": "",
          "type": "bool"
        }
      ],
      "stateMutability": "view",
      "type": "function",
      "constant": true
    },
    {
      "inputs": [
        {
          "internalType": "uint256",
          "name": "",
          "type": "uint256"
        }
      ],
      "name": "leadingBidder",
      "outputs": [
        {
          "internalType": "address",
          "name": "",
          "type": "address"
        }
      ],
      "stateMutability": "view",
      "type": "function",
      "constant": true
    },
    {
      "inputs": [],
      "name": "maxAuctionDuration",
      "outputs": [
        {
          "internalType": "uint256",
          "name": "",
          "type": "uint256"
        }
      ],
      "stateMutability": "view",
      "type": "function",
      "constant": true
    },
    {
      "inputs": [
        {
          "internalType": "address",
          "name": "_to",
          "type": "address"
        },
        {
          "internalType": "uint256",
          "name": "_playerId",
          "type": "uint256"
        },
        {
          "internalType": "uint256",
          "name": "_type",
          "type": "uint256"
        },
        {
          "internalType": "uint256",
          "name": "_attributes",
          "type": "uint256"
        }
      ],
      "name": "mintCustomCard",
      "outputs": [],
      "stateMutability": "nonpayable",
      "type": "function"
    },
    {
      "inputs": [],
      "name": "owner",
      "outputs": [
        {
          "internalType": "address",
          "name": "",
          "type": "address"
        }
      ],
      "stateMutability": "view",
      "type": "function",
      "constant": true
    },
    {
      "inputs": [
        {
          "internalType": "address",
          "name": "",
          "type": "address"
        }
      ],
      "name": "ownerCardCount",
      "outputs": [
        {
          "internalType": "uint256",
          "name": "",
          "type": "uint256"
        }
      ],
      "stateMutability": "view",
      "type": "function",
      "constant": true
    },
    {
      "inputs": [
        {
          "internalType": "uint256",
          "name": "_tokenId",
          "type": "uint256"
        }
      ],
      "name": "ownerOf",
      "outputs": [
        {
          "internalType": "address",
          "name": "",
          "type": "address"
        }
      ],
      "stateMutability": "view",
      "type": "function",
      "constant": true
    },
    {
      "inputs": [],
      "name": "purchaseCardPack",
      "outputs": [],
      "stateMutability": "payable",
      "type": "function",
      "payable": true
    },
    {
      "inputs": [],
      "name": "renounceOwnership",
      "outputs": [],
      "stateMutability": "nonpayable",
      "type": "function"
    },
    {
      "inputs": [
        {
          "internalType": "address",
          "name": "_from",
          "type": "address"
        },
        {
          "internalType": "address",
          "name": "_to",
          "type": "address"
        },
        {
          "internalType": "uint256",
          "name": "_tokenId",
          "type": "uint256"
        }
      ],
      "name": "safeTransferFrom",
      "outputs": [],
      "stateMutability": "payable",
      "type": "function",
      "payable": true
    },
    {
      "inputs": [
        {
          "internalType": "address",
          "name": "_from",
          "type": "address"
        },
        {
          "internalType": "address",
          "name": "_to",
          "type": "address"
        },
        {
          "internalType": "uint256",
          "name": "_tokenId",
          "type": "uint256"
        },
        {
          "internalType": "bytes",
          "name": "_data",
          "type": "bytes"
        }
      ],
      "name": "safeTransferFrom",
      "outputs": [],
      "stateMutability": "payable",
      "type": "function",
      "payable": true
    },
    {
      "inputs": [
        {
          "internalType": "address",
          "name": "_operator",
          "type": "address"
        },
        {
          "internalType": "bool",
          "name": "_approved",
          "type": "bool"
        }
      ],
      "name": "setApprovalForAll",
      "outputs": [],
      "stateMutability": "nonpayable",
      "type": "function"
    },
    {
      "inputs": [
        {
          "internalType": "uint256",
          "name": "_fee",
          "type": "uint256"
        }
      ],
      "name": "setCardPackFee",
      "outputs": [],
      "stateMutability": "nonpayable",
      "type": "function"
    },
    {
      "inputs": [
        {
          "internalType": "uint256",
          "name": "_quantity",
          "type": "uint256"
        }
      ],
      "name": "setCardPackQuantity",
      "outputs": [],
      "stateMutability": "nonpayable",
      "type": "function"
    },
    {
      "inputs": [
        {
          "internalType": "uint256",
          "name": "_newOdds",
          "type": "uint256"
        }
      ],
      "name": "setExotixCardOdds",
      "outputs": [],
      "stateMutability": "nonpayable",
      "type": "function"
    },
    {
      "inputs": [
        {
          "internalType": "uint256",
          "name": "_newOdds",
          "type": "uint256"
        }
      ],
      "name": "setLegendaryCardOdds",
      "outputs": [],
      "stateMutability": "nonpayable",
      "type": "function"
    },
    {
      "inputs": [
        {
          "internalType": "uint256",
          "name": "_newOdds",
          "type": "uint256"
        }
      ],
      "name": "setRareCardOdds",
      "outputs": [],
      "stateMutability": "nonpayable",
      "type": "function"
    },
    {
      "inputs": [
        {
          "internalType": "uint256",
          "name": "_count",
          "type": "uint256"
        }
      ],
      "name": "setTotalPlayers",
      "outputs": [],
      "stateMutability": "nonpayable",
      "type": "function"
    },
    {
      "inputs": [
        {
          "internalType": "address",
          "name": "_from",
          "type": "address"
        },
        {
          "internalType": "address",
          "name": "_to",
          "type": "address"
        },
        {
          "internalType": "uint256",
          "name": "_tokenId",
          "type": "uint256"
        }
      ],
      "name": "transferFrom",
      "outputs": [],
      "stateMutability": "payable",
      "type": "function",
      "payable": true
    },
    {
      "inputs": [
        {
          "internalType": "address",
          "name": "newOwner",
          "type": "address"
        }
      ],
      "name": "transferOwnership",
      "outputs": [],
      "stateMutability": "nonpayable",
      "type": "function"
    },
    {
      "inputs": [
        {
          "internalType": "uint256",
          "name": "_cardId",
          "type": "uint256"
        },
        {
          "internalType": "uint256",
          "name": "_startingBid",
          "type": "uint256"
        },
        {
          "internalType": "uint256",
          "name": "_duration",
          "type": "uint256"
        }
      ],
      "name": "createCardAuction",
      "outputs": [],
      "stateMutability": "nonpayable",
      "type": "function"
    },
    {
      "inputs": [
        {
          "internalType": "uint256",
          "name": "_cardId",
          "type": "uint256"
        }
      ],
      "name": "placeBid",
      "outputs": [],
      "stateMutability": "payable",
      "type": "function",
      "payable": true
    },
    {
      "inputs": [
        {
          "internalType": "uint256",
          "name": "_cardId",
          "type": "uint256"
        }
      ],
      "name": "endAuction",
      "outputs": [],
      "stateMutability": "nonpayable",
      "type": "function"
    }
  ],
  "bytecode": "0x60806040526000600155600060025560bd6003556611c37937e08000600655600a600755600360085560196009556064600a5562093a80600f553480156200004657600080fd5b50620000676200005b6200006d60201b60201c565b6200007560201b60201c565b62000139565b600033905090565b60008060009054906101000a900473ffffffffffffffffffffffffffffffffffffffff169050816000806101000a81548173ffffffffffffffffffffffffffffffffffffffff021916908373ffffffffffffffffffffffffffffffffffffffff1602179055508173ffffffffffffffffffffffffffffffffffffffff168173ffffffffffffffffffffffffffffffffffffffff167f8be0079c531659141344cd1fd0a4f28419497f9722a3daafe3b4186f6b6457e060405160405180910390a35050565b6136f680620001496000396000f3fe6080604052600436106101e35760003560e01c80638da5cb5b11610102578063b9a2de3a11610095578063e25d13a811610064578063e25d13a8146106d5578063e985e9c5146106fe578063f2fde38b1461073b578063feb2c4df14610764576101e3565b8063b9a2de3a14610609578063bb77e35514610632578063bca978fb1461066f578063c75f384b146106ac576101e3565b8063a3d2065f116100d1578063a3d2065f1461054a578063a6e156c614610587578063b780acc5146105c4578063b88d4fde146105ed576101e3565b80638da5cb5b1461049a5780638dc10768146104c55780639979ef4514610505578063a22cb46514610521576101e3565b806342842e0e1161017a57806370a082311161014957806370a08231146103e0578063715018a61461041d578063804c4b2514610434578063828c730c14610471576101e3565b806342842e0e1461033357806348c9581e1461034f578063552788da1461037a5780636352211e146103a3576101e3565b80632cfae8d3116101b65780632cfae8d31461029a57806336185bdf146102a457806341845a14146102cd57806341994140146102f6576101e3565b8063081812fc146101e8578063095ea7b3146102255780631647d5a01461024157806323b872dd1461027e575b600080fd5b3480156101f457600080fd5b5061020f600480360381019061020a9190612c7e565b61078d565b60405161021c919061317c565b60405180910390f35b61023f600480360381019061023a9190612bb6565b61086f565b005b34801561024d57600080fd5b5061026860048036038101906102639190612c7e565b610b6a565b60405161027591906133be565b60405180910390f35b61029860048036038101906102939190612aab565b610b82565b005b6102a2610da4565b005b3480156102b057600080fd5b506102cb60048036038101906102c69190612c7e565b610df2565b005b3480156102d957600080fd5b506102f460048036038101906102ef9190612c7e565b610e78565b005b34801561030257600080fd5b5061031d60048036038101906103189190612c7e565b610efe565b60405161032a919061317c565b60405180910390f35b61034d60048036038101906103489190612aab565b610f31565b005b34801561035b57600080fd5b50610364610f51565b60405161037191906133be565b60405180910390f35b34801561038657600080fd5b506103a1600480360381019061039c9190612c7e565b610f57565b005b3480156103af57600080fd5b506103ca60048036038101906103c59190612c7e565b610fdd565b6040516103d7919061317c565b60405180910390f35b3480156103ec57600080fd5b5061040760048036038101906104029190612a46565b61101a565b60405161041491906133be565b60405180910390f35b34801561042957600080fd5b50610432611063565b005b34801561044057600080fd5b5061045b60048036038101906104569190612a46565b6110eb565b60405161046891906133be565b60405180910390f35b34801561047d57600080fd5b5061049860048036038101906104939190612bf2565b611103565b005b3480156104a657600080fd5b506104af6111b3565b6040516104bc919061317c565b60405180910390f35b3480156104d157600080fd5b506104ec60048036038101906104e79190612c7e565b6111dc565b6040516104fc9493929190613402565b60405180910390f35b61051f600480360381019061051a9190612c7e565b61121c565b005b34801561052d57600080fd5b5061054860048036038101906105439190612b7a565b611473565b005b34801561055657600080fd5b50610571600480360381019061056c9190612a46565b611570565b60405161057e91906131e3565b60405180910390f35b34801561059357600080fd5b506105ae60048036038101906105a99190612c7e565b611590565b6040516105bb91906131e3565b60405180910390f35b3480156105d057600080fd5b506105eb60048036038101906105e69190612c7e565b6115b0565b005b61060760048036038101906106029190612afa565b611636565b005b34801561061557600080fd5b50610630600480360381019061062b9190612c7e565b61168d565b005b34801561063e57600080fd5b5061065960048036038101906106549190612c7e565b6117d2565b604051610666919061317c565b60405180910390f35b34801561067b57600080fd5b5061069660048036038101906106919190612c7e565b611805565b6040516106a391906133be565b60405180910390f35b3480156106b857600080fd5b506106d360048036038101906106ce9190612c7e565b61181d565b005b3480156106e157600080fd5b506106fc60048036038101906106f79190612c7e565b6118a3565b005b34801561070a57600080fd5b5061072560048036038101906107209190612a6f565b611929565b60405161073291906131e3565b60405180910390f35b34801561074757600080fd5b50610762600480360381019061075d9190612a46565b6119bd565b005b34801561077057600080fd5b5061078b60048036038101906107869190612ca7565b611ab5565b005b600081600073ffffffffffffffffffffffffffffffffffffffff166005600083815260200190815260200160002060009054906101000a900473ffffffffffffffffffffffffffffffffffffffff1673ffffffffffffffffffffffffffffffffffffffff161415610833576040517f08c379a000000000000000000000000000000000000000000000000000000000815260040161082a9061321e565b60405180910390fd5b600d600084815260200190815260200160002060009054906101000a900473ffffffffffffffffffffffffffffffffffffffff16915050919050565b8060006005600083815260200190815260200160002060009054906101000a900473ffffffffffffffffffffffffffffffffffffffff1690503373ffffffffffffffffffffffffffffffffffffffff168173ffffffffffffffffffffffffffffffffffffffff1614806109685750600e60008273ffffffffffffffffffffffffffffffffffffffff1673ffffffffffffffffffffffffffffffffffffffff16815260200190815260200160002060003373ffffffffffffffffffffffffffffffffffffffff1673ffffffffffffffffffffffffffffffffffffffff16815260200190815260200160002060009054906101000a900460ff165b61097157600080fd5b82600073ffffffffffffffffffffffffffffffffffffffff166005600083815260200190815260200160002060009054906101000a900473ffffffffffffffffffffffffffffffffffffffff1673ffffffffffffffffffffffffffffffffffffffff161415610a15576040517f08c379a0000000000000000000000000000000000000000000000000000000008152600401610a0c9061321e565b60405180910390fd5b6005600085815260200190815260200160002060009054906101000a900473ffffffffffffffffffffffffffffffffffffffff1673ffffffffffffffffffffffffffffffffffffffff163373ffffffffffffffffffffffffffffffffffffffff1614610ab6576040517f08c379a0000000000000000000000000000000000000000000000000000000008152600401610aad9061339e565b60405180910390fd5b84600d600086815260200190815260200160002060006101000a81548173ffffffffffffffffffffffffffffffffffffffff021916908373ffffffffffffffffffffffffffffffffffffffff160217905550838573ffffffffffffffffffffffffffffffffffffffff163373ffffffffffffffffffffffffffffffffffffffff167f8c5be1e5ebec7d5bd14f71427d1e84f3dd0314c0f7b2291e5b200ac8c7c3b92560405160405180910390a45050505050565b60116020528060005260406000206000915090505481565b8060006005600083815260200190815260200160002060009054906101000a900473ffffffffffffffffffffffffffffffffffffffff1690503373ffffffffffffffffffffffffffffffffffffffff168173ffffffffffffffffffffffffffffffffffffffff161480610c5357503373ffffffffffffffffffffffffffffffffffffffff16600d600084815260200190815260200160002060009054906101000a900473ffffffffffffffffffffffffffffffffffffffff1673ffffffffffffffffffffffffffffffffffffffff16145b80610ce45750600e60008273ffffffffffffffffffffffffffffffffffffffff1673ffffffffffffffffffffffffffffffffffffffff16815260200190815260200160002060003373ffffffffffffffffffffffffffffffffffffffff1673ffffffffffffffffffffffffffffffffffffffff16815260200190815260200160002060009054906101000a900460ff165b610ced57600080fd5b82600073ffffffffffffffffffffffffffffffffffffffff166005600083815260200190815260200160002060009054906101000a900473ffffffffffffffffffffffffffffffffffffffff1673ffffffffffffffffffffffffffffffffffffffff161415610d91576040517f08c379a0000000000000000000000000000000000000000000000000000000008152600401610d889061321e565b60405180910390fd5b610d9c868686611cb7565b505050505050565b6006543414610de8576040517f08c379a0000000000000000000000000000000000000000000000000000000008152600401610ddf9061323e565b60405180910390fd5b610df0611d9f565b565b610dfa611e70565b73ffffffffffffffffffffffffffffffffffffffff16610e186111b3565b73ffffffffffffffffffffffffffffffffffffffff1614610e6e576040517f08c379a0000000000000000000000000000000000000000000000000000000008152600401610e659061331e565b60405180910390fd5b8060098190555050565b610e80611e70565b73ffffffffffffffffffffffffffffffffffffffff16610e9e6111b3565b73ffffffffffffffffffffffffffffffffffffffff1614610ef4576040517f08c379a0000000000000000000000000000000000000000000000000000000008152600401610eeb9061331e565b60405180910390fd5b8060088190555050565b60056020528060005260406000206000915054906101000a900473ffffffffffffffffffffffffffffffffffffffff1681565b610f4c83838360405180602001604052806000815250611e78565b505050565b600f5481565b610f5f611e70565b73ffffffffffffffffffffffffffffffffffffffff16610f7d6111b3565b73ffffffffffffffffffffffffffffffffffffffff1614610fd3576040517f08c379a0000000000000000000000000000000000000000000000000000000008152600401610fca9061331e565b60405180910390fd5b8060068190555050565b60006005600083815260200190815260200160002060009054906101000a900473ffffffffffffffffffffffffffffffffffffffff169050919050565b6000600b60008373ffffffffffffffffffffffffffffffffffffffff1673ffffffffffffffffffffffffffffffffffffffff168152602001908152602001600020549050919050565b61106b611e70565b73ffffffffffffffffffffffffffffffffffffffff166110896111b3565b73ffffffffffffffffffffffffffffffffffffffff16146110df576040517f08c379a00000000000000000000000000000000000000000000000000000000081526004016110d69061331e565b60405180910390fd5b6110e9600061224d565b565b600b6020528060005260406000206000915090505481565b61110b611e70565b73ffffffffffffffffffffffffffffffffffffffff166111296111b3565b73ffffffffffffffffffffffffffffffffffffffff161461117f576040517f08c379a00000000000000000000000000000000000000000000000000000000081526004016111769061331e565b60405180910390fd5b600061118c848484612311565b905061119885826123f2565b600180546111a69190613474565b6001819055505050505050565b60008060009054906101000a900473ffffffffffffffffffffffffffffffffffffffff16905090565b600481815481106111ec57600080fd5b90600052602060002090600402016000915090508060000154908060010154908060020154908060030154905084565b3373ffffffffffffffffffffffffffffffffffffffff166005600083815260200190815260200160002060009054906101000a900473ffffffffffffffffffffffffffffffffffffffff1673ffffffffffffffffffffffffffffffffffffffff1614156112be576040517f08c379a00000000000000000000000000000000000000000000000000000000081526004016112b5906132de565b60405180910390fd5b6010600082815260200190815260200160002060009054906101000a900460ff1661131e576040517f08c379a00000000000000000000000000000000000000000000000000000000081526004016113159061327e565b60405180910390fd5b60116000828152602001908152602001600020543411611373576040517f08c379a000000000000000000000000000000000000000000000000000000000815260040161136a9061325e565b60405180910390fd5b60006012600083815260200190815260200160002060009054906101000a900473ffffffffffffffffffffffffffffffffffffffff1690508073ffffffffffffffffffffffffffffffffffffffff166108fc60116000858152602001908152602001600020549081150290604051600060405180830381858888f19350505050158015611404573d6000803e3d6000fd5b50346011600084815260200190815260200160002081905550336012600084815260200190815260200160002060006101000a81548173ffffffffffffffffffffffffffffffffffffffff021916908373ffffffffffffffffffffffffffffffffffffffff1602179055505050565b80600e60003373ffffffffffffffffffffffffffffffffffffffff1673ffffffffffffffffffffffffffffffffffffffff16815260200190815260200160002060008473ffffffffffffffffffffffffffffffffffffffff1673ffffffffffffffffffffffffffffffffffffffff16815260200190815260200160002060006101000a81548160ff0219169083151502179055508173ffffffffffffffffffffffffffffffffffffffff163373ffffffffffffffffffffffffffffffffffffffff167f17307eab39ab6107e8899845ad3d59bd9653f200f220920489ca2b5937696c318360405161156491906131e3565b60405180910390a35050565b600c6020528060005260406000206000915054906101000a900460ff1681565b60106020528060005260406000206000915054906101000a900460ff1681565b6115b8611e70565b73ffffffffffffffffffffffffffffffffffffffff166115d66111b3565b73ffffffffffffffffffffffffffffffffffffffff161461162c576040517f08c379a00000000000000000000000000000000000000000000000000000000081526004016116239061331e565b60405180910390fd5b8060038190555050565b61168685858585858080601f016020809104026020016040519081016040528093929190818152602001838380828437600081840152601f19601f82011690508083019250505050505050611e78565b5050505050565b42601360008381526020019081526020016000205411156116ad57600080fd5b600073ffffffffffffffffffffffffffffffffffffffff166012600083815260200190815260200160002060009054906101000a900473ffffffffffffffffffffffffffffffffffffffff1673ffffffffffffffffffffffffffffffffffffffff161461171e5761171d816125e9565b5b60006010600083815260200190815260200160002060006101000a81548160ff0219169083151502179055506000601160008381526020019081526020016000208190555060006012600083815260200190815260200160002060006101000a81548173ffffffffffffffffffffffffffffffffffffffff021916908373ffffffffffffffffffffffffffffffffffffffff1602179055506000601360008381526020019081526020016000208190555050565b60126020528060005260406000206000915054906101000a900473ffffffffffffffffffffffffffffffffffffffff1681565b60136020528060005260406000206000915090505481565b611825611e70565b73ffffffffffffffffffffffffffffffffffffffff166118436111b3565b73ffffffffffffffffffffffffffffffffffffffff1614611899576040517f08c379a00000000000000000000000000000000000000000000000000000000081526004016118909061331e565b60405180910390fd5b80600a8190555050565b6118ab611e70565b73ffffffffffffffffffffffffffffffffffffffff166118c96111b3565b73ffffffffffffffffffffffffffffffffffffffff161461191f576040517f08c379a00000000000000000000000000000000000000000000000000000000081526004016119169061331e565b60405180910390fd5b8060078190555050565b6000600e60008473ffffffffffffffffffffffffffffffffffffffff1673ffffffffffffffffffffffffffffffffffffffff16815260200190815260200160002060008373ffffffffffffffffffffffffffffffffffffffff1673ffffffffffffffffffffffffffffffffffffffff16815260200190815260200160002060009054906101000a900460ff16905092915050565b6119c5611e70565b73ffffffffffffffffffffffffffffffffffffffff166119e36111b3565b73ffffffffffffffffffffffffffffffffffffffff1614611a39576040517f08c379a0000000000000000000000000000000000000000000000000000000008152600401611a309061331e565b60405180910390fd5b600073ffffffffffffffffffffffffffffffffffffffff168173ffffffffffffffffffffffffffffffffffffffff161415611aa9576040517f08c379a0000000000000000000000000000000000000000000000000000000008152600401611aa0906131fe565b60405180910390fd5b611ab28161224d565b50565b80600f54811115611afb576040517f08c379a0000000000000000000000000000000000000000000000000000000008152600401611af29061333e565b60405180910390fd5b8360006005600083815260200190815260200160002060009054906101000a900473ffffffffffffffffffffffffffffffffffffffff1690503373ffffffffffffffffffffffffffffffffffffffff168173ffffffffffffffffffffffffffffffffffffffff1614611ba2576040517f08c379a0000000000000000000000000000000000000000000000000000000008152600401611b999061337e565b60405180910390fd5b6010600087815260200190815260200160002060009054906101000a900460ff1615611c03576040517f08c379a0000000000000000000000000000000000000000000000000000000008152600401611bfa906132fe565b60405180910390fd5b60016010600088815260200190815260200160002060006101000a81548160ff0219169083151502179055508460116000888152602001908152602001600020819055508342611c539190613474565b6013600088815260200190815260200160002081905550857fc2fbfad6915d49533ad7877a0ffccb0acd8bf3034f7e48d3aa620abcaa1df7ed868642611c999190613474565b604051611ca79291906133d9565b60405180910390a2505050505050565b600d600082815260200190815260200160002060006101000a81549073ffffffffffffffffffffffffffffffffffffffff0219169055816005600083815260200190815260200160002060006101000a81548173ffffffffffffffffffffffffffffffffffffffff021916908373ffffffffffffffffffffffffffffffffffffffff160217905550808273ffffffffffffffffffffffffffffffffffffffff168473ffffffffffffffffffffffffffffffffffffffff167fddf252ad1be2c89b69c2b068fc378daa952ba7f163c4a11628f55a4df523b3ef60405160405180910390a4505050565b6000611daf600a54826003612704565b9050611dbf600954826002612704565b9050611dcf600854826001612704565b9050611ddd81600754612779565b600754600b60003373ffffffffffffffffffffffffffffffffffffffff1673ffffffffffffffffffffffffffffffffffffffff16815260200190815260200160002054611e2a9190613474565b600b60003373ffffffffffffffffffffffffffffffffffffffff1673ffffffffffffffffffffffffffffffffffffffff1681526020019081526020016000208190555050565b600033905090565b8160006005600083815260200190815260200160002060009054906101000a900473ffffffffffffffffffffffffffffffffffffffff1690503373ffffffffffffffffffffffffffffffffffffffff168173ffffffffffffffffffffffffffffffffffffffff161480611f4957503373ffffffffffffffffffffffffffffffffffffffff16600d600084815260200190815260200160002060009054906101000a900473ffffffffffffffffffffffffffffffffffffffff1673ffffffffffffffffffffffffffffffffffffffff16145b80611fda5750600e60008273ffffffffffffffffffffffffffffffffffffffff1673ffffffffffffffffffffffffffffffffffffffff16815260200190815260200160002060003373ffffffffffffffffffffffffffffffffffffffff1673ffffffffffffffffffffffffffffffffffffffff16815260200190815260200160002060009054906101000a900460ff165b611fe357600080fd5b83600073ffffffffffffffffffffffffffffffffffffffff166005600083815260200190815260200160002060009054906101000a900473ffffffffffffffffffffffffffffffffffffffff1673ffffffffffffffffffffffffffffffffffffffff161415612087576040517f08c379a000000000000000000000000000000000000000000000000000000000815260040161207e9061321e565b60405180910390fd5b600073ffffffffffffffffffffffffffffffffffffffff168673ffffffffffffffffffffffffffffffffffffffff1614156120f7576040517f08c379a00000000000000000000000000000000000000000000000000000000081526004016120ee9061335e565b60405180910390fd5b612102878787611cb7565b6121218673ffffffffffffffffffffffffffffffffffffffff166127d9565b156122445760008673ffffffffffffffffffffffffffffffffffffffff1663150b7a02338a89896040518563ffffffff1660e01b81526004016121679493929190613197565b602060405180830381600087803b15801561218157600080fd5b505af1158015612195573d6000803e3d6000fd5b505050506040513d601f19601f820116820180604052508101906121b99190612c55565b905063150b7a0260e01b7bffffffffffffffffffffffffffffffffffffffffffffffffffffffff1916817bffffffffffffffffffffffffffffffffffffffffffffffffffffffff191614612242576040517f08c379a0000000000000000000000000000000000000000000000000000000008152600401612239906132be565b60405180910390fd5b505b50505050505050565b60008060009054906101000a900473ffffffffffffffffffffffffffffffffffffffff169050816000806101000a81548173ffffffffffffffffffffffffffffffffffffffff021916908373ffffffffffffffffffffffffffffffffffffffff1602179055508173ffffffffffffffffffffffffffffffffffffffff168173ffffffffffffffffffffffffffffffffffffffff167f8be0079c531659141344cd1fd0a4f28419497f9722a3daafe3b4186f6b6457e060405160405180910390a35050565b6000806040518060800160405280600154815260200186815260200184815260200185815250905060048190806001815401808255809150506001900390600052602060002090600402016000909190919091506000820151816000015560208201518160010155604082015181600201556060820151816003015550503373ffffffffffffffffffffffffffffffffffffffff167fa47f2b648fe6fee6023b9227628b751649f165f204c8a6e75d3146aca5b1b8a66001548688876040516123dd9493929190613402565b60405180910390a26001549150509392505050565b600073ffffffffffffffffffffffffffffffffffffffff168273ffffffffffffffffffffffffffffffffffffffff161415612462576040517f08c379a00000000000000000000000000000000000000000000000000000000081526004016124599061335e565b60405180910390fd5b600073ffffffffffffffffffffffffffffffffffffffff166005600083815260200190815260200160002060009054906101000a900473ffffffffffffffffffffffffffffffffffffffff1673ffffffffffffffffffffffffffffffffffffffff1614612504576040517f08c379a00000000000000000000000000000000000000000000000000000000081526004016124fb9061329e565b60405180910390fd5b816005600083815260200190815260200160002060006101000a81548173ffffffffffffffffffffffffffffffffffffffff021916908373ffffffffffffffffffffffffffffffffffffffff1602179055506001600b60008473ffffffffffffffffffffffffffffffffffffffff1673ffffffffffffffffffffffffffffffffffffffff168152602001908152602001600020546125a29190613474565b600b60008473ffffffffffffffffffffffffffffffffffffffff1673ffffffffffffffffffffffffffffffffffffffff168152602001908152602001600020819055505050565b60006005600083815260200190815260200160002060009054906101000a900473ffffffffffffffffffffffffffffffffffffffff1690508073ffffffffffffffffffffffffffffffffffffffff166108fc60116000858152602001908152602001600020549081150290604051600060405180830381858888f1935050505015801561267a573d6000803e3d6000fd5b506012600083815260200190815260200160002060009054906101000a900473ffffffffffffffffffffffffffffffffffffffff166005600084815260200190815260200160002060006101000a81548173ffffffffffffffffffffffffffffffffffffffff021916908373ffffffffffffffffffffffffffffffffffffffff1602179055505050565b600080839050600085612715612824565b61271f91906135c4565b141561276e576000600354612732612824565b61273c91906135c4565b9050600160025461274d9190613474565b60028190555061275d818561285b565b60018561276a9190613474565b9150505b809150509392505050565b60008290505b818110156127d4576000600354612794612824565b61279e91906135c4565b905060016002546127af9190613474565b6002819055506127c081600061285b565b5080806127cc90613571565b91505061277f565b505050565b60008060007fc5d2460186f7233c927e7db2dcc703c0e500b653ca82273b7bfad8045d85a47060001b9050833f91506000801b821415801561281b5750808214155b92505050919050565b6000444260025460405160200161283d9392919061313f565b6040516020818303038152906040528051906020012060001c905090565b6000612865612824565b905060006040518060800160405280600154815260200185815260200183815260200184815250905060048190806001815401808255809150506001900390600052602060002090600402016000909190919091506000820151816000015560208201518160010155604082015181600201556060820151816003015550503373ffffffffffffffffffffffffffffffffffffffff167fa47f2b648fe6fee6023b9227628b751649f165f204c8a6e75d3146aca5b1b8a66001548587866040516129329493929190613402565b60405180910390a23360056000600154815260200190815260200160002060006101000a81548173ffffffffffffffffffffffffffffffffffffffff021916908373ffffffffffffffffffffffffffffffffffffffff1602179055506001805461299c9190613474565b60018190555050505050565b6000813590506129b781613664565b92915050565b6000813590506129cc8161367b565b92915050565b6000815190506129e181613692565b92915050565b60008083601f8401126129f957600080fd5b8235905067ffffffffffffffff811115612a1257600080fd5b602083019150836001820283011115612a2a57600080fd5b9250929050565b600081359050612a40816136a9565b92915050565b600060208284031215612a5857600080fd5b6000612a66848285016129a8565b91505092915050565b60008060408385031215612a8257600080fd5b6000612a90858286016129a8565b9250506020612aa1858286016129a8565b9150509250929050565b600080600060608486031215612ac057600080fd5b6000612ace868287016129a8565b9350506020612adf868287016129a8565b9250506040612af086828701612a31565b9150509250925092565b600080600080600060808688031215612b1257600080fd5b6000612b20888289016129a8565b9550506020612b31888289016129a8565b9450506040612b4288828901612a31565b935050606086013567ffffffffffffffff811115612b5f57600080fd5b612b6b888289016129e7565b92509250509295509295909350565b60008060408385031215612b8d57600080fd5b6000612b9b858286016129a8565b9250506020612bac858286016129bd565b9150509250929050565b60008060408385031215612bc957600080fd5b6000612bd7858286016129a8565b9250506020612be885828601612a31565b9150509250929050565b60008060008060808587031215612c0857600080fd5b6000612c16878288016129a8565b9450506020612c2787828801612a31565b9350506040612c3887828801612a31565b9250506060612c4987828801612a31565b91505092959194509250565b600060208284031215612c6757600080fd5b6000612c75848285016129d2565b91505092915050565b600060208284031215612c9057600080fd5b6000612c9e84828501612a31565b91505092915050565b600080600060608486031215612cbc57600080fd5b6000612cca86828701612a31565b9350506020612cdb86828701612a31565b9250506040612cec86828701612a31565b9150509250925092565b612cff816134ca565b82525050565b612d0e816134dc565b82525050565b6000612d1f82613447565b612d298185613452565b9350612d3981856020860161353e565b612d4281613653565b840191505092915050565b6000612d5a602683613463565b91507f4f776e61626c653a206e6577206f776e657220697320746865207a65726f206160008301527f64647265737300000000000000000000000000000000000000000000000000006020830152604082019050919050565b6000612dc0600c83613463565b91507f494e56414c4944204341524400000000000000000000000000000000000000006000830152602082019050919050565b6000612e00602083613463565b91507f56414c55452053454e54204e4f5420455155414c20544f2043415244204645456000830152602082019050919050565b6000612e40601a83613463565b91507f424944204c4f574552205448414e2043555252454e54204249440000000000006000830152602082019050919050565b6000612e80601183613463565b91507f43415244204e4f5420464f522053414c450000000000000000000000000000006000830152602082019050919050565b6000612ec0601383613463565b91507f4341524420414c524541445920455849535453000000000000000000000000006000830152602082019050919050565b6000612f00601283613463565b91507f43414e4e4f542052454345495645204e465400000000000000000000000000006000830152602082019050919050565b6000612f40601c83613463565b91507f43414e204e4f5420424944204f4e20434152445320594f55204f574e000000006000830152602082019050919050565b6000612f80601b83613463565b91507f4341524420414c524541445920555020464f522041554354494f4e00000000006000830152602082019050919050565b6000612fc0602083613463565b91507f4f776e61626c653a2063616c6c6572206973206e6f7420746865206f776e65726000830152602082019050919050565b6000613000601883613463565b91507f424944204455524154494f4e204e4f5420414c4c4f57454400000000000000006000830152602082019050919050565b6000613040600c83613463565b91507f5a45524f204144445245535300000000000000000000000000000000000000006000830152602082019050919050565b6000613080602783613463565b91507f4f4e4c592043415244204f574e45522043414e20504f535420495420464f522060008301527f41554354494f4e000000000000000000000000000000000000000000000000006020830152604082019050919050565b60006130e6601783613463565b91507f4e4f542043555252454e5420544f4b454e204f574e45520000000000000000006000830152602082019050919050565b61312281613534565b82525050565b61313961313482613534565b6135ba565b82525050565b600061314b8286613128565b60208201915061315b8285613128565b60208201915061316b8284613128565b602082019150819050949350505050565b60006020820190506131916000830184612cf6565b92915050565b60006080820190506131ac6000830187612cf6565b6131b96020830186612cf6565b6131c66040830185613119565b81810360608301526131d88184612d14565b905095945050505050565b60006020820190506131f86000830184612d05565b92915050565b6000602082019050818103600083015261321781612d4d565b9050919050565b6000602082019050818103600083015261323781612db3565b9050919050565b6000602082019050818103600083015261325781612df3565b9050919050565b6000602082019050818103600083015261327781612e33565b9050919050565b6000602082019050818103600083015261329781612e73565b9050919050565b600060208201905081810360008301526132b781612eb3565b9050919050565b600060208201905081810360008301526132d781612ef3565b9050919050565b600060208201905081810360008301526132f781612f33565b9050919050565b6000602082019050818103600083015261331781612f73565b9050919050565b6000602082019050818103600083015261333781612fb3565b9050919050565b6000602082019050818103600083015261335781612ff3565b9050919050565b6000602082019050818103600083015261337781613033565b9050919050565b6000602082019050818103600083015261339781613073565b9050919050565b600060208201905081810360008301526133b7816130d9565b9050919050565b60006020820190506133d36000830184613119565b92915050565b60006040820190506133ee6000830185613119565b6133fb6020830184613119565b9392505050565b60006080820190506134176000830187613119565b6134246020830186613119565b6134316040830185613119565b61343e6060830184613119565b95945050505050565b600081519050919050565b600082825260208201905092915050565b600082825260208201905092915050565b600061347f82613534565b915061348a83613534565b9250827fffffffffffffffffffffffffffffffffffffffffffffffffffffffffffffffff038211156134bf576134be6135f5565b5b828201905092915050565b60006134d582613514565b9050919050565b60008115159050919050565b60007fffffffff0000000000000000000000000000000000000000000000000000000082169050919050565b600073ffffffffffffffffffffffffffffffffffffffff82169050919050565b6000819050919050565b60005b8381101561355c578082015181840152602081019050613541565b8381111561356b576000848401525b50505050565b600061357c82613534565b91507fffffffffffffffffffffffffffffffffffffffffffffffffffffffffffffffff8214156135af576135ae6135f5565b5b600182019050919050565b6000819050919050565b60006135cf82613534565b91506135da83613534565b9250826135ea576135e9613624565b5b828206905092915050565b7f4e487b7100000000000000000000000000000000000000000000000000000000600052601160045260246000fd5b7f4e487b7100000000000000000000000000000000000000000000000000000000600052601260045260246000fd5b6000601f19601f8301169050919050565b61366d816134ca565b811461367857600080fd5b50565b613684816134dc565b811461368f57600080fd5b50565b61369b816134e8565b81146136a657600080fd5b50565b6136b281613534565b81146136bd57600080fd5b5056fea2646970667358221220b4cee8a8f5c558ed606a46a8d9f7026e79fc5d0bab54e429a28f030c9385c2c464736f6c63430008000033",
  "immutableReferences": {},
  "source": "// SPDX-License-Identifier: UNLICENSED\npragma solidity ^0.8.0;\n\nimport \"./card-ownership.sol\";\n\ncontract CardAuction is CardOwnership {\n\n    uint public maxAuctionDuration = 604800;\n    mapping(uint => bool) public cardIsForSale;\n    mapping(uint => uint) public cardToCurrentBid;\n    mapping(uint => address) public leadingBidder;\n    mapping(uint => uint) public auctionExpireDate;\n    \n    event AuctionOpened(uint indexed cardId, uint startingBid, uint expireDate);\n    event BidPlaced(uint indexed cardId, uint bid, address bidder);\n    event AuctionClosed(uint indexed cardId, uint salePrice, address to);\n\n    modifier onlyCardOwner(uint _cardId) {\n        address owner = cardIdToOwner[_cardId];\n        require(owner == msg.sender, 'ONLY CARD OWNER CAN POST IT FOR AUCTION');\n        _;\n    }\n\n    modifier checkAuctionDuration(uint _duration) {\n        require(_duration <= maxAuctionDuration, 'BID DURATION NOT ALLOWED');\n        _;\n    }\n\n    function createCardAuction(uint _cardId, uint _startingBid, uint _duration) external checkAuctionDuration(_duration) onlyCardOwner(_cardId) {\n        require(!cardIsForSale[_cardId], 'CARD ALREADY UP FOR AUCTION');\n\n        cardIsForSale[_cardId] = true;\n        cardToCurrentBid[_cardId] = _startingBid;\n        auctionExpireDate[_cardId] = block.timestamp + _duration;\n        emit AuctionOpened(_cardId, _startingBid, block.timestamp + _duration);\n    }\n\n    function placeBid(uint _cardId) external payable {\n        require(cardIdToOwner[_cardId] != msg.sender, 'CAN NOT BID ON CARDS YOU OWN');\n        require(cardIsForSale[_cardId], 'CARD NOT FOR SALE');\n        require(msg.value > cardToCurrentBid[_cardId], 'BID LOWER THAN CURRENT BID');\n\n        address payable outbidAddress = payable(leadingBidder[_cardId]);\n        outbidAddress.transfer(cardToCurrentBid[_cardId]);\n        cardToCurrentBid[_cardId] = msg.value;\n        leadingBidder[_cardId] = msg.sender;\n    }\n\n    function endAuction(uint _cardId) external {\n        require(auctionExpireDate[_cardId] <= block.timestamp);\n\n        if(leadingBidder[_cardId] != address(0)) {\n            transferCard(_cardId);\n        }\n        cardIsForSale[_cardId] = false;\n        cardToCurrentBid[_cardId] = 0;\n        leadingBidder[_cardId] = address(0);\n        auctionExpireDate[_cardId] = 0;\n    }\n\n    function transferCard(uint _cardId) internal {\n        address payable beneficiary = payable(cardIdToOwner[_cardId]);\n\n        beneficiary.transfer(cardToCurrentBid[_cardId]);\n        cardIdToOwner[_cardId] = leadingBidder[_cardId];\n    }\n}",
  "sourcePath": "/Users/tkma4fr/Development/solidity-app/contracts/card-auction.sol",
  "compiler": {
    "name": "solc",
    "version": "0.8.0+commit.c7dfd78e.Emscripten.clang"
  },
  "schemaVersion": "3.4.2",
  "updatedAt": "2021-10-06T01:38:27.856Z",
  "networkType": "ethereum",
  "devdoc": {
    "kind": "dev",
    "methods": {
      "approve(address,uint256)": {
        "details": "The zero address indicates there is no approved address.  Throws unless `msg.sender` is the current NFT owner, or an authorized  operator of the current owner.",
        "params": {
          "_approved": "The new approved NFT controller",
          "_tokenId": "The NFT to approve"
        }
      },
      "balanceOf(address)": {
        "details": "NFTs assigned to the zero address are considered invalid, and this  function throws for queries about the zero address.",
        "params": {
          "_owner": "An address for whom to query the balance"
        },
        "returns": {
          "_0": "The number of NFTs owned by `_owner`, possibly zero"
        }
      },
      "getApproved(uint256)": {
        "details": "Throws if `_tokenId` is not a valid NFT.",
        "params": {
          "_tokenId": "The NFT to find the approved address for"
        },
        "returns": {
          "_0": "The approved address for this NFT, or the zero address if there is none"
        }
      },
      "isApprovedForAll(address,address)": {
        "params": {
          "_operator": "The address that acts on behalf of the owner",
          "_owner": "The address that owns the NFTs"
        },
        "returns": {
          "_0": "True if `_operator` is an approved operator for `_owner`, false otherwise"
        }
      },
      "owner()": {
        "details": "Returns the address of the current owner."
      },
      "ownerOf(uint256)": {
        "details": "NFTs assigned to zero address are considered invalid, and queries  about them do throw.",
        "params": {
          "_tokenId": "The identifier for an NFT"
        },
        "returns": {
          "_0": "The address of the owner of the NFT"
        }
      },
      "renounceOwnership()": {
        "details": "Leaves the contract without owner. It will not be possible to call `onlyOwner` functions anymore. Can only be called by the current owner. NOTE: Renouncing ownership will leave the contract without an owner, thereby removing any functionality that is only available to the owner."
      },
      "safeTransferFrom(address,address,uint256)": {
        "details": "This works identically to the other function with an extra data parameter,  except this function just sets data to \"\".",
        "params": {
          "_from": "The current owner of the NFT",
          "_to": "The new owner",
          "_tokenId": "The NFT to transfer"
        }
      },
      "setApprovalForAll(address,bool)": {
        "details": "Emits the ApprovalForAll event. The contract MUST allow  multiple operators per owner.",
        "params": {
          "_approved": "True if the operator is approved, false to revoke approval",
          "_operator": "Address to add to the set of authorized operators"
        }
      },
      "transferFrom(address,address,uint256)": {
        "details": "Throws unless `msg.sender` is the current owner, an authorized  operator, or the approved address for this NFT. Throws if `_from` is  not the current owner. Throws if `_to` is the zero address. Throws if  `_tokenId` is not a valid NFT.",
        "params": {
          "_from": "The current owner of the NFT",
          "_to": "The new owner",
          "_tokenId": "The NFT to transfer"
        }
      },
      "transferOwnership(address)": {
        "details": "Transfers ownership of the contract to a new account (`newOwner`). Can only be called by the current owner."
      }
    },
    "version": 1
  },
  "userdoc": {
    "kind": "user",
    "methods": {
      "approve(address,uint256)": {
        "notice": "Change or reaffirm the approved address for an NFT"
      },
      "balanceOf(address)": {
        "notice": "Count all NFTs assigned to an owner"
      },
      "getApproved(uint256)": {
        "notice": "Get the approved address for a single NFT"
      },
      "isApprovedForAll(address,address)": {
        "notice": "Query if an address is an authorized operator for another address"
      },
      "ownerOf(uint256)": {
        "notice": "Find the owner of an NFT"
      },
      "safeTransferFrom(address,address,uint256)": {
        "notice": "Transfers the ownership of an NFT from one address to another address"
      },
      "setApprovalForAll(address,bool)": {
        "notice": "Enable or disable approval for a third party (\"operator\") to manage  all of `msg.sender`'s assets"
      },
      "transferFrom(address,address,uint256)": {
        "notice": "Transfer ownership of an NFT -- THE CALLER IS RESPONSIBLE  TO CONFIRM THAT `_to` IS CAPABLE OF RECEIVING NFTS OR ELSE  THEY MAY BE PERMANENTLY LOST"
      }
    },
    "version": 1
  }
}