{
  "contractName": "CardAuction",
  "abi": [
    {
      "anonymous": false,
      "inputs": [
        {
          "indexed": true,
          "internalType": "address",
          "name": "_owner",
          "type": "address"
        },
        {
          "indexed": true,
          "internalType": "address",
          "name": "_approved",
          "type": "address"
        },
        {
          "indexed": true,
          "internalType": "uint256",
          "name": "_tokenId",
          "type": "uint256"
        }
      ],
      "name": "Approval",
      "type": "event"
    },
    {
      "anonymous": false,
      "inputs": [
        {
          "indexed": true,
          "internalType": "address",
          "name": "_owner",
          "type": "address"
        },
        {
          "indexed": true,
          "internalType": "address",
          "name": "_operator",
          "type": "address"
        },
        {
          "indexed": false,
          "internalType": "bool",
          "name": "_approved",
          "type": "bool"
        }
      ],
      "name": "ApprovalForAll",
      "type": "event"
    },
    {
      "anonymous": false,
      "inputs": [
        {
          "indexed": true,
          "internalType": "uint256",
          "name": "cardId",
          "type": "uint256"
        },
        {
          "indexed": false,
          "internalType": "uint256",
          "name": "salePrice",
          "type": "uint256"
        },
        {
          "indexed": false,
          "internalType": "address",
          "name": "to",
          "type": "address"
        }
      ],
      "name": "AuctionClosed",
      "type": "event"
    },
    {
      "anonymous": false,
      "inputs": [
        {
          "indexed": true,
          "internalType": "uint256",
          "name": "cardId",
          "type": "uint256"
        },
        {
          "indexed": false,
          "internalType": "uint256",
          "name": "startingBid",
          "type": "uint256"
        },
        {
          "indexed": false,
          "internalType": "uint256",
          "name": "expireDate",
          "type": "uint256"
        }
      ],
      "name": "AuctionOpened",
      "type": "event"
    },
    {
      "anonymous": false,
      "inputs": [
        {
          "indexed": true,
          "internalType": "uint256",
          "name": "cardId",
          "type": "uint256"
        },
        {
          "indexed": false,
          "internalType": "uint256",
          "name": "bid",
          "type": "uint256"
        },
        {
          "indexed": false,
          "internalType": "address",
          "name": "bidder",
          "type": "address"
        }
      ],
      "name": "BidPlaced",
      "type": "event"
    },
    {
      "anonymous": false,
      "inputs": [
        {
          "indexed": false,
          "internalType": "uint256",
          "name": "cardId",
          "type": "uint256"
        },
        {
          "indexed": false,
          "internalType": "uint256",
          "name": "cardType",
          "type": "uint256"
        },
        {
          "indexed": false,
          "internalType": "uint256",
          "name": "playerId",
          "type": "uint256"
        },
        {
          "indexed": false,
          "internalType": "uint256",
          "name": "attributeHash",
          "type": "uint256"
        },
        {
          "indexed": true,
          "internalType": "address",
          "name": "owner",
          "type": "address"
        }
      ],
      "name": "CardCreated",
      "type": "event"
    },
    {
      "anonymous": false,
      "inputs": [
        {
          "indexed": true,
          "internalType": "address",
          "name": "owner",
          "type": "address"
        }
      ],
      "name": "CardPackPurchased",
      "type": "event"
    },
    {
      "anonymous": false,
      "inputs": [
        {
          "indexed": true,
          "internalType": "address",
          "name": "previousOwner",
          "type": "address"
        },
        {
          "indexed": true,
          "internalType": "address",
          "name": "newOwner",
          "type": "address"
        }
      ],
      "name": "OwnershipTransferred",
      "type": "event"
    },
    {
      "anonymous": false,
      "inputs": [
        {
          "indexed": true,
          "internalType": "address",
          "name": "_from",
          "type": "address"
        },
        {
          "indexed": true,
          "internalType": "address",
          "name": "_to",
          "type": "address"
        },
        {
          "indexed": true,
          "internalType": "uint256",
          "name": "_tokenId",
          "type": "uint256"
        }
      ],
      "name": "Transfer",
      "type": "event"
    },
    {
      "inputs": [
        {
          "internalType": "address",
          "name": "_approved",
          "type": "address"
        },
        {
          "internalType": "uint256",
          "name": "_tokenId",
          "type": "uint256"
        }
      ],
      "name": "approve",
      "outputs": [],
      "stateMutability": "payable",
      "type": "function",
      "payable": true
    },
    {
      "inputs": [
        {
          "internalType": "uint256",
          "name": "",
          "type": "uint256"
        }
      ],
      "name": "auctionExpireDate",
      "outputs": [
        {
          "internalType": "uint256",
          "name": "",
          "type": "uint256"
        }
      ],
      "stateMutability": "view",
      "type": "function",
      "constant": true
    },
    {
      "inputs": [
        {
          "internalType": "address",
          "name": "_owner",
          "type": "address"
        }
      ],
      "name": "balanceOf",
      "outputs": [
        {
          "internalType": "uint256",
          "name": "",
          "type": "uint256"
        }
      ],
      "stateMutability": "view",
      "type": "function",
      "constant": true
    },
    {
      "inputs": [
        {
          "internalType": "uint256",
          "name": "",
          "type": "uint256"
        }
      ],
      "name": "cardIdToOwner",
      "outputs": [
        {
          "internalType": "address",
          "name": "",
          "type": "address"
        }
      ],
      "stateMutability": "view",
      "type": "function",
      "constant": true
    },
    {
      "inputs": [
        {
          "internalType": "uint256",
          "name": "",
          "type": "uint256"
        }
      ],
      "name": "cardIsForSale",
      "outputs": [
        {
          "internalType": "bool",
          "name": "",
          "type": "bool"
        }
      ],
      "stateMutability": "view",
      "type": "function",
      "constant": true
    },
    {
      "inputs": [
        {
          "internalType": "uint256",
          "name": "",
          "type": "uint256"
        }
      ],
      "name": "cardToCurrentBid",
      "outputs": [
        {
          "internalType": "uint256",
          "name": "",
          "type": "uint256"
        }
      ],
      "stateMutability": "view",
      "type": "function",
      "constant": true
    },
    {
      "inputs": [
        {
          "internalType": "uint256",
          "name": "",
          "type": "uint256"
        }
      ],
      "name": "cards",
      "outputs": [
        {
          "internalType": "uint256",
          "name": "cardId",
          "type": "uint256"
        },
        {
          "internalType": "uint256",
          "name": "playerId",
          "type": "uint256"
        },
        {
          "internalType": "uint256",
          "name": "attributeHash",
          "type": "uint256"
        },
        {
          "internalType": "uint256",
          "name": "cardType",
          "type": "uint256"
        }
      ],
      "stateMutability": "view",
      "type": "function",
      "constant": true
    },
    {
      "inputs": [
        {
          "internalType": "address",
          "name": "",
          "type": "address"
        }
      ],
      "name": "existingUser",
      "outputs": [
        {
          "internalType": "bool",
          "name": "",
          "type": "bool"
        }
      ],
      "stateMutability": "view",
      "type": "function",
      "constant": true
    },
    {
      "inputs": [
        {
          "internalType": "uint256",
          "name": "_tokenId",
          "type": "uint256"
        }
      ],
      "name": "getApproved",
      "outputs": [
        {
          "internalType": "address",
          "name": "",
          "type": "address"
        }
      ],
      "stateMutability": "view",
      "type": "function",
      "constant": true
    },
    {
      "inputs": [
        {
          "internalType": "address",
          "name": "_owner",
          "type": "address"
        },
        {
          "internalType": "address",
          "name": "_operator",
          "type": "address"
        }
      ],
      "name": "isApprovedForAll",
      "outputs": [
        {
          "internalType": "bool",
          "name": "",
          "type": "bool"
        }
      ],
      "stateMutability": "view",
      "type": "function",
      "constant": true
    },
    {
      "inputs": [
        {
          "internalType": "uint256",
          "name": "",
          "type": "uint256"
        }
      ],
      "name": "leadingBidder",
      "outputs": [
        {
          "internalType": "address",
          "name": "",
          "type": "address"
        }
      ],
      "stateMutability": "view",
      "type": "function",
      "constant": true
    },
    {
      "inputs": [],
      "name": "maxAuctionDuration",
      "outputs": [
        {
          "internalType": "uint256",
          "name": "",
          "type": "uint256"
        }
      ],
      "stateMutability": "view",
      "type": "function",
      "constant": true
    },
    {
      "inputs": [
        {
          "internalType": "address",
          "name": "_to",
          "type": "address"
        },
        {
          "internalType": "uint256",
          "name": "_playerId",
          "type": "uint256"
        },
        {
          "internalType": "uint256",
          "name": "_type",
          "type": "uint256"
        },
        {
          "internalType": "uint256",
          "name": "_attributes",
          "type": "uint256"
        }
      ],
      "name": "mintCustomCard",
      "outputs": [],
      "stateMutability": "nonpayable",
      "type": "function"
    },
    {
      "inputs": [],
      "name": "owner",
      "outputs": [
        {
          "internalType": "address",
          "name": "",
          "type": "address"
        }
      ],
      "stateMutability": "view",
      "type": "function",
      "constant": true
    },
    {
      "inputs": [
        {
          "internalType": "address",
          "name": "",
          "type": "address"
        }
      ],
      "name": "ownerCardCount",
      "outputs": [
        {
          "internalType": "uint256",
          "name": "",
          "type": "uint256"
        }
      ],
      "stateMutability": "view",
      "type": "function",
      "constant": true
    },
    {
      "inputs": [
        {
          "internalType": "uint256",
          "name": "_tokenId",
          "type": "uint256"
        }
      ],
      "name": "ownerOf",
      "outputs": [
        {
          "internalType": "address",
          "name": "",
          "type": "address"
        }
      ],
      "stateMutability": "view",
      "type": "function",
      "constant": true
    },
    {
      "inputs": [],
      "name": "purchaseCardPack",
      "outputs": [],
      "stateMutability": "payable",
      "type": "function",
      "payable": true
    },
    {
      "inputs": [],
      "name": "renounceOwnership",
      "outputs": [],
      "stateMutability": "nonpayable",
      "type": "function"
    },
    {
      "inputs": [
        {
          "internalType": "address",
          "name": "_from",
          "type": "address"
        },
        {
          "internalType": "address",
          "name": "_to",
          "type": "address"
        },
        {
          "internalType": "uint256",
          "name": "_tokenId",
          "type": "uint256"
        }
      ],
      "name": "safeTransferFrom",
      "outputs": [],
      "stateMutability": "payable",
      "type": "function",
      "payable": true
    },
    {
      "inputs": [
        {
          "internalType": "address",
          "name": "_from",
          "type": "address"
        },
        {
          "internalType": "address",
          "name": "_to",
          "type": "address"
        },
        {
          "internalType": "uint256",
          "name": "_tokenId",
          "type": "uint256"
        },
        {
          "internalType": "bytes",
          "name": "_data",
          "type": "bytes"
        }
      ],
      "name": "safeTransferFrom",
      "outputs": [],
      "stateMutability": "payable",
      "type": "function",
      "payable": true
    },
    {
      "inputs": [
        {
          "internalType": "address",
          "name": "_operator",
          "type": "address"
        },
        {
          "internalType": "bool",
          "name": "_approved",
          "type": "bool"
        }
      ],
      "name": "setApprovalForAll",
      "outputs": [],
      "stateMutability": "nonpayable",
      "type": "function"
    },
    {
      "inputs": [
        {
          "internalType": "uint256",
          "name": "_fee",
          "type": "uint256"
        }
      ],
      "name": "setCardPackFee",
      "outputs": [],
      "stateMutability": "nonpayable",
      "type": "function"
    },
    {
      "inputs": [
        {
          "internalType": "uint256",
          "name": "_quantity",
          "type": "uint256"
        }
      ],
      "name": "setCardPackQuantity",
      "outputs": [],
      "stateMutability": "nonpayable",
      "type": "function"
    },
    {
      "inputs": [
        {
          "internalType": "uint256",
          "name": "_newOdds",
          "type": "uint256"
        }
      ],
      "name": "setExotixCardOdds",
      "outputs": [],
      "stateMutability": "nonpayable",
      "type": "function"
    },
    {
      "inputs": [
        {
          "internalType": "uint256",
          "name": "_newOdds",
          "type": "uint256"
        }
      ],
      "name": "setLegendaryCardOdds",
      "outputs": [],
      "stateMutability": "nonpayable",
      "type": "function"
    },
    {
      "inputs": [
        {
          "internalType": "uint256",
          "name": "_newOdds",
          "type": "uint256"
        }
      ],
      "name": "setRareCardOdds",
      "outputs": [],
      "stateMutability": "nonpayable",
      "type": "function"
    },
    {
      "inputs": [
        {
          "internalType": "uint256",
          "name": "_count",
          "type": "uint256"
        }
      ],
      "name": "setTotalPlayers",
      "outputs": [],
      "stateMutability": "nonpayable",
      "type": "function"
    },
    {
      "inputs": [
        {
          "internalType": "address",
          "name": "_from",
          "type": "address"
        },
        {
          "internalType": "address",
          "name": "_to",
          "type": "address"
        },
        {
          "internalType": "uint256",
          "name": "_tokenId",
          "type": "uint256"
        }
      ],
      "name": "transferFrom",
      "outputs": [],
      "stateMutability": "payable",
      "type": "function",
      "payable": true
    },
    {
      "inputs": [
        {
          "internalType": "address",
          "name": "newOwner",
          "type": "address"
        }
      ],
      "name": "transferOwnership",
      "outputs": [],
      "stateMutability": "nonpayable",
      "type": "function"
    },
    {
      "inputs": [
        {
          "internalType": "uint256",
          "name": "_cardId",
          "type": "uint256"
        },
        {
          "internalType": "uint256",
          "name": "_startingBid",
          "type": "uint256"
        },
        {
          "internalType": "uint256",
          "name": "_duration",
          "type": "uint256"
        }
      ],
      "name": "createCardAuction",
      "outputs": [],
      "stateMutability": "nonpayable",
      "type": "function"
    },
    {
      "inputs": [
        {
          "internalType": "uint256",
          "name": "_cardId",
          "type": "uint256"
        }
      ],
      "name": "placeBid",
      "outputs": [],
      "stateMutability": "payable",
      "type": "function",
      "payable": true
    },
    {
      "inputs": [
        {
          "internalType": "uint256",
          "name": "_cardId",
          "type": "uint256"
        }
      ],
      "name": "endAuction",
      "outputs": [],
      "stateMutability": "nonpayable",
      "type": "function"
    }
  ],
  "bytecode": "0x60806040526000600155600060025560bd6003556611c37937e08000600655600a600755600360085560196009556064600a5562093a80600f553480156200004657600080fd5b50620000676200005b6200006d60201b60201c565b6200007560201b60201c565b62000139565b600033905090565b60008060009054906101000a900473ffffffffffffffffffffffffffffffffffffffff169050816000806101000a81548173ffffffffffffffffffffffffffffffffffffffff021916908373ffffffffffffffffffffffffffffffffffffffff1602179055508173ffffffffffffffffffffffffffffffffffffffff168173ffffffffffffffffffffffffffffffffffffffff167f8be0079c531659141344cd1fd0a4f28419497f9722a3daafe3b4186f6b6457e060405160405180910390a35050565b61379c80620001496000396000f3fe6080604052600436106101e35760003560e01c80638da5cb5b11610102578063b9a2de3a11610095578063e25d13a811610064578063e25d13a8146106d5578063e985e9c5146106fe578063f2fde38b1461073b578063feb2c4df14610764576101e3565b8063b9a2de3a14610609578063bb77e35514610632578063bca978fb1461066f578063c75f384b146106ac576101e3565b8063a3d2065f116100d1578063a3d2065f1461054a578063a6e156c614610587578063b780acc5146105c4578063b88d4fde146105ed576101e3565b80638da5cb5b1461049a5780638dc10768146104c55780639979ef4514610505578063a22cb46514610521576101e3565b806342842e0e1161017a57806370a082311161014957806370a08231146103e0578063715018a61461041d578063804c4b2514610434578063828c730c14610471576101e3565b806342842e0e1461033357806348c9581e1461034f578063552788da1461037a5780636352211e146103a3576101e3565b80632cfae8d3116101b65780632cfae8d31461029a57806336185bdf146102a457806341845a14146102cd57806341994140146102f6576101e3565b8063081812fc146101e8578063095ea7b3146102255780631647d5a01461024157806323b872dd1461027e575b600080fd5b3480156101f457600080fd5b5061020f600480360381019061020a9190612cfb565b61078d565b60405161021c91906131f9565b60405180910390f35b61023f600480360381019061023a9190612c33565b61086f565b005b34801561024d57600080fd5b5061026860048036038101906102639190612cfb565b610b6a565b604051610275919061343b565b60405180910390f35b61029860048036038101906102939190612b28565b610b82565b005b6102a2610da4565b005b3480156102b057600080fd5b506102cb60048036038101906102c69190612cfb565b610e35565b005b3480156102d957600080fd5b506102f460048036038101906102ef9190612cfb565b610ebb565b005b34801561030257600080fd5b5061031d60048036038101906103189190612cfb565b610f41565b60405161032a91906131f9565b60405180910390f35b61034d60048036038101906103489190612b28565b610f74565b005b34801561035b57600080fd5b50610364610f94565b604051610371919061343b565b60405180910390f35b34801561038657600080fd5b506103a1600480360381019061039c9190612cfb565b610f9a565b005b3480156103af57600080fd5b506103ca60048036038101906103c59190612cfb565b611020565b6040516103d791906131f9565b60405180910390f35b3480156103ec57600080fd5b5061040760048036038101906104029190612ac3565b61105d565b604051610414919061343b565b60405180910390f35b34801561042957600080fd5b506104326110a6565b005b34801561044057600080fd5b5061045b60048036038101906104569190612ac3565b61112e565b604051610468919061343b565b60405180910390f35b34801561047d57600080fd5b5061049860048036038101906104939190612c6f565b611146565b005b3480156104a657600080fd5b506104af6111f6565b6040516104bc91906131f9565b60405180910390f35b3480156104d157600080fd5b506104ec60048036038101906104e79190612cfb565b61121f565b6040516104fc94939291906134a8565b60405180910390f35b61051f600480360381019061051a9190612cfb565b61125f565b005b34801561052d57600080fd5b5061054860048036038101906105439190612bf7565b6114f0565b005b34801561055657600080fd5b50610571600480360381019061056c9190612ac3565b6115ed565b60405161057e9190613260565b60405180910390f35b34801561059357600080fd5b506105ae60048036038101906105a99190612cfb565b61160d565b6040516105bb9190613260565b60405180910390f35b3480156105d057600080fd5b506105eb60048036038101906105e69190612cfb565b61162d565b005b61060760048036038101906106029190612b77565b6116b3565b005b34801561061557600080fd5b50610630600480360381019061062b9190612cfb565b61170a565b005b34801561063e57600080fd5b5061065960048036038101906106549190612cfb565b61184f565b60405161066691906131f9565b60405180910390f35b34801561067b57600080fd5b5061069660048036038101906106919190612cfb565b611882565b6040516106a3919061343b565b60405180910390f35b3480156106b857600080fd5b506106d360048036038101906106ce9190612cfb565b61189a565b005b3480156106e157600080fd5b506106fc60048036038101906106f79190612cfb565b611920565b005b34801561070a57600080fd5b5061072560048036038101906107209190612aec565b6119a6565b6040516107329190613260565b60405180910390f35b34801561074757600080fd5b50610762600480360381019061075d9190612ac3565b611a3a565b005b34801561077057600080fd5b5061078b60048036038101906107869190612d24565b611b32565b005b600081600073ffffffffffffffffffffffffffffffffffffffff166005600083815260200190815260200160002060009054906101000a900473ffffffffffffffffffffffffffffffffffffffff1673ffffffffffffffffffffffffffffffffffffffff161415610833576040517f08c379a000000000000000000000000000000000000000000000000000000000815260040161082a9061329b565b60405180910390fd5b600d600084815260200190815260200160002060009054906101000a900473ffffffffffffffffffffffffffffffffffffffff16915050919050565b8060006005600083815260200190815260200160002060009054906101000a900473ffffffffffffffffffffffffffffffffffffffff1690503373ffffffffffffffffffffffffffffffffffffffff168173ffffffffffffffffffffffffffffffffffffffff1614806109685750600e60008273ffffffffffffffffffffffffffffffffffffffff1673ffffffffffffffffffffffffffffffffffffffff16815260200190815260200160002060003373ffffffffffffffffffffffffffffffffffffffff1673ffffffffffffffffffffffffffffffffffffffff16815260200190815260200160002060009054906101000a900460ff165b61097157600080fd5b82600073ffffffffffffffffffffffffffffffffffffffff166005600083815260200190815260200160002060009054906101000a900473ffffffffffffffffffffffffffffffffffffffff1673ffffffffffffffffffffffffffffffffffffffff161415610a15576040517f08c379a0000000000000000000000000000000000000000000000000000000008152600401610a0c9061329b565b60405180910390fd5b6005600085815260200190815260200160002060009054906101000a900473ffffffffffffffffffffffffffffffffffffffff1673ffffffffffffffffffffffffffffffffffffffff163373ffffffffffffffffffffffffffffffffffffffff1614610ab6576040517f08c379a0000000000000000000000000000000000000000000000000000000008152600401610aad9061341b565b60405180910390fd5b84600d600086815260200190815260200160002060006101000a81548173ffffffffffffffffffffffffffffffffffffffff021916908373ffffffffffffffffffffffffffffffffffffffff160217905550838573ffffffffffffffffffffffffffffffffffffffff163373ffffffffffffffffffffffffffffffffffffffff167f8c5be1e5ebec7d5bd14f71427d1e84f3dd0314c0f7b2291e5b200ac8c7c3b92560405160405180910390a45050505050565b60116020528060005260406000206000915090505481565b8060006005600083815260200190815260200160002060009054906101000a900473ffffffffffffffffffffffffffffffffffffffff1690503373ffffffffffffffffffffffffffffffffffffffff168173ffffffffffffffffffffffffffffffffffffffff161480610c5357503373ffffffffffffffffffffffffffffffffffffffff16600d600084815260200190815260200160002060009054906101000a900473ffffffffffffffffffffffffffffffffffffffff1673ffffffffffffffffffffffffffffffffffffffff16145b80610ce45750600e60008273ffffffffffffffffffffffffffffffffffffffff1673ffffffffffffffffffffffffffffffffffffffff16815260200190815260200160002060003373ffffffffffffffffffffffffffffffffffffffff1673ffffffffffffffffffffffffffffffffffffffff16815260200190815260200160002060009054906101000a900460ff165b610ced57600080fd5b82600073ffffffffffffffffffffffffffffffffffffffff166005600083815260200190815260200160002060009054906101000a900473ffffffffffffffffffffffffffffffffffffffff1673ffffffffffffffffffffffffffffffffffffffff161415610d91576040517f08c379a0000000000000000000000000000000000000000000000000000000008152600401610d889061329b565b60405180910390fd5b610d9c868686611d34565b505050505050565b6006543414610de8576040517f08c379a0000000000000000000000000000000000000000000000000000000008152600401610ddf906132bb565b60405180910390fd5b610df0611e1c565b3373ffffffffffffffffffffffffffffffffffffffff167f1c3899f94ecc08f5f95b67284618b3ca13d80b66fbc5b7f07c6b8bd30f61fcbf60405160405180910390a2565b610e3d611eed565b73ffffffffffffffffffffffffffffffffffffffff16610e5b6111f6565b73ffffffffffffffffffffffffffffffffffffffff1614610eb1576040517f08c379a0000000000000000000000000000000000000000000000000000000008152600401610ea89061339b565b60405180910390fd5b8060098190555050565b610ec3611eed565b73ffffffffffffffffffffffffffffffffffffffff16610ee16111f6565b73ffffffffffffffffffffffffffffffffffffffff1614610f37576040517f08c379a0000000000000000000000000000000000000000000000000000000008152600401610f2e9061339b565b60405180910390fd5b8060088190555050565b60056020528060005260406000206000915054906101000a900473ffffffffffffffffffffffffffffffffffffffff1681565b610f8f83838360405180602001604052806000815250611ef5565b505050565b600f5481565b610fa2611eed565b73ffffffffffffffffffffffffffffffffffffffff16610fc06111f6565b73ffffffffffffffffffffffffffffffffffffffff1614611016576040517f08c379a000000000000000000000000000000000000000000000000000000000815260040161100d9061339b565b60405180910390fd5b8060068190555050565b60006005600083815260200190815260200160002060009054906101000a900473ffffffffffffffffffffffffffffffffffffffff169050919050565b6000600b60008373ffffffffffffffffffffffffffffffffffffffff1673ffffffffffffffffffffffffffffffffffffffff168152602001908152602001600020549050919050565b6110ae611eed565b73ffffffffffffffffffffffffffffffffffffffff166110cc6111f6565b73ffffffffffffffffffffffffffffffffffffffff1614611122576040517f08c379a00000000000000000000000000000000000000000000000000000000081526004016111199061339b565b60405180910390fd5b61112c60006122ca565b565b600b6020528060005260406000206000915090505481565b61114e611eed565b73ffffffffffffffffffffffffffffffffffffffff1661116c6111f6565b73ffffffffffffffffffffffffffffffffffffffff16146111c2576040517f08c379a00000000000000000000000000000000000000000000000000000000081526004016111b99061339b565b60405180910390fd5b60006111cf84848461238e565b90506111db858261246f565b600180546111e9919061351a565b6001819055505050505050565b60008060009054906101000a900473ffffffffffffffffffffffffffffffffffffffff16905090565b6004818154811061122f57600080fd5b90600052602060002090600402016000915090508060000154908060010154908060020154908060030154905084565b3373ffffffffffffffffffffffffffffffffffffffff166005600083815260200190815260200160002060009054906101000a900473ffffffffffffffffffffffffffffffffffffffff1673ffffffffffffffffffffffffffffffffffffffff161415611301576040517f08c379a00000000000000000000000000000000000000000000000000000000081526004016112f89061335b565b60405180910390fd5b6010600082815260200190815260200160002060009054906101000a900460ff16611361576040517f08c379a0000000000000000000000000000000000000000000000000000000008152600401611358906132fb565b60405180910390fd5b601160008281526020019081526020016000205434116113b6576040517f08c379a00000000000000000000000000000000000000000000000000000000081526004016113ad906132db565b60405180910390fd5b60006012600083815260200190815260200160002060009054906101000a900473ffffffffffffffffffffffffffffffffffffffff1690508073ffffffffffffffffffffffffffffffffffffffff166108fc60116000858152602001908152602001600020549081150290604051600060405180830381858888f19350505050158015611447573d6000803e3d6000fd5b50346011600084815260200190815260200160002081905550336012600084815260200190815260200160002060006101000a81548173ffffffffffffffffffffffffffffffffffffffff021916908373ffffffffffffffffffffffffffffffffffffffff160217905550817fbfbf2db1f7880e9487cbceeb181c4dce363d0ad1b6e73f5aa494ffb5d919149634336040516114e4929190613456565b60405180910390a25050565b80600e60003373ffffffffffffffffffffffffffffffffffffffff1673ffffffffffffffffffffffffffffffffffffffff16815260200190815260200160002060008473ffffffffffffffffffffffffffffffffffffffff1673ffffffffffffffffffffffffffffffffffffffff16815260200190815260200160002060006101000a81548160ff0219169083151502179055508173ffffffffffffffffffffffffffffffffffffffff163373ffffffffffffffffffffffffffffffffffffffff167f17307eab39ab6107e8899845ad3d59bd9653f200f220920489ca2b5937696c31836040516115e19190613260565b60405180910390a35050565b600c6020528060005260406000206000915054906101000a900460ff1681565b60106020528060005260406000206000915054906101000a900460ff1681565b611635611eed565b73ffffffffffffffffffffffffffffffffffffffff166116536111f6565b73ffffffffffffffffffffffffffffffffffffffff16146116a9576040517f08c379a00000000000000000000000000000000000000000000000000000000081526004016116a09061339b565b60405180910390fd5b8060038190555050565b61170385858585858080601f016020809104026020016040519081016040528093929190818152602001838380828437600081840152601f19601f82011690508083019250505050505050611ef5565b5050505050565b426013600083815260200190815260200160002054111561172a57600080fd5b600073ffffffffffffffffffffffffffffffffffffffff166012600083815260200190815260200160002060009054906101000a900473ffffffffffffffffffffffffffffffffffffffff1673ffffffffffffffffffffffffffffffffffffffff161461179b5761179a81612666565b5b60006010600083815260200190815260200160002060006101000a81548160ff0219169083151502179055506000601160008381526020019081526020016000208190555060006012600083815260200190815260200160002060006101000a81548173ffffffffffffffffffffffffffffffffffffffff021916908373ffffffffffffffffffffffffffffffffffffffff1602179055506000601360008381526020019081526020016000208190555050565b60126020528060005260406000206000915054906101000a900473ffffffffffffffffffffffffffffffffffffffff1681565b60136020528060005260406000206000915090505481565b6118a2611eed565b73ffffffffffffffffffffffffffffffffffffffff166118c06111f6565b73ffffffffffffffffffffffffffffffffffffffff1614611916576040517f08c379a000000000000000000000000000000000000000000000000000000000815260040161190d9061339b565b60405180910390fd5b80600a8190555050565b611928611eed565b73ffffffffffffffffffffffffffffffffffffffff166119466111f6565b73ffffffffffffffffffffffffffffffffffffffff161461199c576040517f08c379a00000000000000000000000000000000000000000000000000000000081526004016119939061339b565b60405180910390fd5b8060078190555050565b6000600e60008473ffffffffffffffffffffffffffffffffffffffff1673ffffffffffffffffffffffffffffffffffffffff16815260200190815260200160002060008373ffffffffffffffffffffffffffffffffffffffff1673ffffffffffffffffffffffffffffffffffffffff16815260200190815260200160002060009054906101000a900460ff16905092915050565b611a42611eed565b73ffffffffffffffffffffffffffffffffffffffff16611a606111f6565b73ffffffffffffffffffffffffffffffffffffffff1614611ab6576040517f08c379a0000000000000000000000000000000000000000000000000000000008152600401611aad9061339b565b60405180910390fd5b600073ffffffffffffffffffffffffffffffffffffffff168173ffffffffffffffffffffffffffffffffffffffff161415611b26576040517f08c379a0000000000000000000000000000000000000000000000000000000008152600401611b1d9061327b565b60405180910390fd5b611b2f816122ca565b50565b80600f54811115611b78576040517f08c379a0000000000000000000000000000000000000000000000000000000008152600401611b6f906133bb565b60405180910390fd5b8360006005600083815260200190815260200160002060009054906101000a900473ffffffffffffffffffffffffffffffffffffffff1690503373ffffffffffffffffffffffffffffffffffffffff168173ffffffffffffffffffffffffffffffffffffffff1614611c1f576040517f08c379a0000000000000000000000000000000000000000000000000000000008152600401611c16906133fb565b60405180910390fd5b6010600087815260200190815260200160002060009054906101000a900460ff1615611c80576040517f08c379a0000000000000000000000000000000000000000000000000000000008152600401611c779061337b565b60405180910390fd5b60016010600088815260200190815260200160002060006101000a81548160ff0219169083151502179055508460116000888152602001908152602001600020819055508342611cd0919061351a565b6013600088815260200190815260200160002081905550857fc2fbfad6915d49533ad7877a0ffccb0acd8bf3034f7e48d3aa620abcaa1df7ed868642611d16919061351a565b604051611d2492919061347f565b60405180910390a2505050505050565b600d600082815260200190815260200160002060006101000a81549073ffffffffffffffffffffffffffffffffffffffff0219169055816005600083815260200190815260200160002060006101000a81548173ffffffffffffffffffffffffffffffffffffffff021916908373ffffffffffffffffffffffffffffffffffffffff160217905550808273ffffffffffffffffffffffffffffffffffffffff168473ffffffffffffffffffffffffffffffffffffffff167fddf252ad1be2c89b69c2b068fc378daa952ba7f163c4a11628f55a4df523b3ef60405160405180910390a4505050565b6000611e2c600a54826003612781565b9050611e3c600954826002612781565b9050611e4c600854826001612781565b9050611e5a816007546127f6565b600754600b60003373ffffffffffffffffffffffffffffffffffffffff1673ffffffffffffffffffffffffffffffffffffffff16815260200190815260200160002054611ea7919061351a565b600b60003373ffffffffffffffffffffffffffffffffffffffff1673ffffffffffffffffffffffffffffffffffffffff1681526020019081526020016000208190555050565b600033905090565b8160006005600083815260200190815260200160002060009054906101000a900473ffffffffffffffffffffffffffffffffffffffff1690503373ffffffffffffffffffffffffffffffffffffffff168173ffffffffffffffffffffffffffffffffffffffff161480611fc657503373ffffffffffffffffffffffffffffffffffffffff16600d600084815260200190815260200160002060009054906101000a900473ffffffffffffffffffffffffffffffffffffffff1673ffffffffffffffffffffffffffffffffffffffff16145b806120575750600e60008273ffffffffffffffffffffffffffffffffffffffff1673ffffffffffffffffffffffffffffffffffffffff16815260200190815260200160002060003373ffffffffffffffffffffffffffffffffffffffff1673ffffffffffffffffffffffffffffffffffffffff16815260200190815260200160002060009054906101000a900460ff165b61206057600080fd5b83600073ffffffffffffffffffffffffffffffffffffffff166005600083815260200190815260200160002060009054906101000a900473ffffffffffffffffffffffffffffffffffffffff1673ffffffffffffffffffffffffffffffffffffffff161415612104576040517f08c379a00000000000000000000000000000000000000000000000000000000081526004016120fb9061329b565b60405180910390fd5b600073ffffffffffffffffffffffffffffffffffffffff168673ffffffffffffffffffffffffffffffffffffffff161415612174576040517f08c379a000000000000000000000000000000000000000000000000000000000815260040161216b906133db565b60405180910390fd5b61217f878787611d34565b61219e8673ffffffffffffffffffffffffffffffffffffffff16612856565b156122c15760008673ffffffffffffffffffffffffffffffffffffffff1663150b7a02338a89896040518563ffffffff1660e01b81526004016121e49493929190613214565b602060405180830381600087803b1580156121fe57600080fd5b505af1158015612212573d6000803e3d6000fd5b505050506040513d601f19601f820116820180604052508101906122369190612cd2565b905063150b7a0260e01b7bffffffffffffffffffffffffffffffffffffffffffffffffffffffff1916817bffffffffffffffffffffffffffffffffffffffffffffffffffffffff1916146122bf576040517f08c379a00000000000000000000000000000000000000000000000000000000081526004016122b69061333b565b60405180910390fd5b505b50505050505050565b60008060009054906101000a900473ffffffffffffffffffffffffffffffffffffffff169050816000806101000a81548173ffffffffffffffffffffffffffffffffffffffff021916908373ffffffffffffffffffffffffffffffffffffffff1602179055508173ffffffffffffffffffffffffffffffffffffffff168173ffffffffffffffffffffffffffffffffffffffff167f8be0079c531659141344cd1fd0a4f28419497f9722a3daafe3b4186f6b6457e060405160405180910390a35050565b6000806040518060800160405280600154815260200186815260200184815260200185815250905060048190806001815401808255809150506001900390600052602060002090600402016000909190919091506000820151816000015560208201518160010155604082015181600201556060820151816003015550503373ffffffffffffffffffffffffffffffffffffffff167fa47f2b648fe6fee6023b9227628b751649f165f204c8a6e75d3146aca5b1b8a660015486888760405161245a94939291906134a8565b60405180910390a26001549150509392505050565b600073ffffffffffffffffffffffffffffffffffffffff168273ffffffffffffffffffffffffffffffffffffffff1614156124df576040517f08c379a00000000000000000000000000000000000000000000000000000000081526004016124d6906133db565b60405180910390fd5b600073ffffffffffffffffffffffffffffffffffffffff166005600083815260200190815260200160002060009054906101000a900473ffffffffffffffffffffffffffffffffffffffff1673ffffffffffffffffffffffffffffffffffffffff1614612581576040517f08c379a00000000000000000000000000000000000000000000000000000000081526004016125789061331b565b60405180910390fd5b816005600083815260200190815260200160002060006101000a81548173ffffffffffffffffffffffffffffffffffffffff021916908373ffffffffffffffffffffffffffffffffffffffff1602179055506001600b60008473ffffffffffffffffffffffffffffffffffffffff1673ffffffffffffffffffffffffffffffffffffffff1681526020019081526020016000205461261f919061351a565b600b60008473ffffffffffffffffffffffffffffffffffffffff1673ffffffffffffffffffffffffffffffffffffffff168152602001908152602001600020819055505050565b60006005600083815260200190815260200160002060009054906101000a900473ffffffffffffffffffffffffffffffffffffffff1690508073ffffffffffffffffffffffffffffffffffffffff166108fc60116000858152602001908152602001600020549081150290604051600060405180830381858888f193505050501580156126f7573d6000803e3d6000fd5b506012600083815260200190815260200160002060009054906101000a900473ffffffffffffffffffffffffffffffffffffffff166005600084815260200190815260200160002060006101000a81548173ffffffffffffffffffffffffffffffffffffffff021916908373ffffffffffffffffffffffffffffffffffffffff1602179055505050565b6000808390506000856127926128a1565b61279c919061366a565b14156127eb5760006003546127af6128a1565b6127b9919061366a565b905060016002546127ca919061351a565b6002819055506127da81856128d8565b6001856127e7919061351a565b9150505b809150509392505050565b60008290505b818110156128515760006003546128116128a1565b61281b919061366a565b9050600160025461282c919061351a565b60028190555061283d8160006128d8565b50808061284990613617565b9150506127fc565b505050565b60008060007fc5d2460186f7233c927e7db2dcc703c0e500b653ca82273b7bfad8045d85a47060001b9050833f91506000801b82141580156128985750808214155b92505050919050565b600044426002546040516020016128ba939291906131bc565b6040516020818303038152906040528051906020012060001c905090565b60006128e26128a1565b905060006040518060800160405280600154815260200185815260200183815260200184815250905060048190806001815401808255809150506001900390600052602060002090600402016000909190919091506000820151816000015560208201518160010155604082015181600201556060820151816003015550503373ffffffffffffffffffffffffffffffffffffffff167fa47f2b648fe6fee6023b9227628b751649f165f204c8a6e75d3146aca5b1b8a66001548587866040516129af94939291906134a8565b60405180910390a23360056000600154815260200190815260200160002060006101000a81548173ffffffffffffffffffffffffffffffffffffffff021916908373ffffffffffffffffffffffffffffffffffffffff16021790555060018054612a19919061351a565b60018190555050505050565b600081359050612a348161370a565b92915050565b600081359050612a4981613721565b92915050565b600081519050612a5e81613738565b92915050565b60008083601f840112612a7657600080fd5b8235905067ffffffffffffffff811115612a8f57600080fd5b602083019150836001820283011115612aa757600080fd5b9250929050565b600081359050612abd8161374f565b92915050565b600060208284031215612ad557600080fd5b6000612ae384828501612a25565b91505092915050565b60008060408385031215612aff57600080fd5b6000612b0d85828601612a25565b9250506020612b1e85828601612a25565b9150509250929050565b600080600060608486031215612b3d57600080fd5b6000612b4b86828701612a25565b9350506020612b5c86828701612a25565b9250506040612b6d86828701612aae565b9150509250925092565b600080600080600060808688031215612b8f57600080fd5b6000612b9d88828901612a25565b9550506020612bae88828901612a25565b9450506040612bbf88828901612aae565b935050606086013567ffffffffffffffff811115612bdc57600080fd5b612be888828901612a64565b92509250509295509295909350565b60008060408385031215612c0a57600080fd5b6000612c1885828601612a25565b9250506020612c2985828601612a3a565b9150509250929050565b60008060408385031215612c4657600080fd5b6000612c5485828601612a25565b9250506020612c6585828601612aae565b9150509250929050565b60008060008060808587031215612c8557600080fd5b6000612c9387828801612a25565b9450506020612ca487828801612aae565b9350506040612cb587828801612aae565b9250506060612cc687828801612aae565b91505092959194509250565b600060208284031215612ce457600080fd5b6000612cf284828501612a4f565b91505092915050565b600060208284031215612d0d57600080fd5b6000612d1b84828501612aae565b91505092915050565b600080600060608486031215612d3957600080fd5b6000612d4786828701612aae565b9350506020612d5886828701612aae565b9250506040612d6986828701612aae565b9150509250925092565b612d7c81613570565b82525050565b612d8b81613582565b82525050565b6000612d9c826134ed565b612da681856134f8565b9350612db68185602086016135e4565b612dbf816136f9565b840191505092915050565b6000612dd7602683613509565b91507f4f776e61626c653a206e6577206f776e657220697320746865207a65726f206160008301527f64647265737300000000000000000000000000000000000000000000000000006020830152604082019050919050565b6000612e3d600c83613509565b91507f494e56414c4944204341524400000000000000000000000000000000000000006000830152602082019050919050565b6000612e7d602083613509565b91507f56414c55452053454e54204e4f5420455155414c20544f2043415244204645456000830152602082019050919050565b6000612ebd601a83613509565b91507f424944204c4f574552205448414e2043555252454e54204249440000000000006000830152602082019050919050565b6000612efd601183613509565b91507f43415244204e4f5420464f522053414c450000000000000000000000000000006000830152602082019050919050565b6000612f3d601383613509565b91507f4341524420414c524541445920455849535453000000000000000000000000006000830152602082019050919050565b6000612f7d601283613509565b91507f43414e4e4f542052454345495645204e465400000000000000000000000000006000830152602082019050919050565b6000612fbd601c83613509565b91507f43414e204e4f5420424944204f4e20434152445320594f55204f574e000000006000830152602082019050919050565b6000612ffd601b83613509565b91507f4341524420414c524541445920555020464f522041554354494f4e00000000006000830152602082019050919050565b600061303d602083613509565b91507f4f776e61626c653a2063616c6c6572206973206e6f7420746865206f776e65726000830152602082019050919050565b600061307d601883613509565b91507f424944204455524154494f4e204e4f5420414c4c4f57454400000000000000006000830152602082019050919050565b60006130bd600c83613509565b91507f5a45524f204144445245535300000000000000000000000000000000000000006000830152602082019050919050565b60006130fd602783613509565b91507f4f4e4c592043415244204f574e45522043414e20504f535420495420464f522060008301527f41554354494f4e000000000000000000000000000000000000000000000000006020830152604082019050919050565b6000613163601783613509565b91507f4e4f542043555252454e5420544f4b454e204f574e45520000000000000000006000830152602082019050919050565b61319f816135da565b82525050565b6131b66131b1826135da565b613660565b82525050565b60006131c882866131a5565b6020820191506131d882856131a5565b6020820191506131e882846131a5565b602082019150819050949350505050565b600060208201905061320e6000830184612d73565b92915050565b60006080820190506132296000830187612d73565b6132366020830186612d73565b6132436040830185613196565b81810360608301526132558184612d91565b905095945050505050565b60006020820190506132756000830184612d82565b92915050565b6000602082019050818103600083015261329481612dca565b9050919050565b600060208201905081810360008301526132b481612e30565b9050919050565b600060208201905081810360008301526132d481612e70565b9050919050565b600060208201905081810360008301526132f481612eb0565b9050919050565b6000602082019050818103600083015261331481612ef0565b9050919050565b6000602082019050818103600083015261333481612f30565b9050919050565b6000602082019050818103600083015261335481612f70565b9050919050565b6000602082019050818103600083015261337481612fb0565b9050919050565b6000602082019050818103600083015261339481612ff0565b9050919050565b600060208201905081810360008301526133b481613030565b9050919050565b600060208201905081810360008301526133d481613070565b9050919050565b600060208201905081810360008301526133f4816130b0565b9050919050565b60006020820190508181036000830152613414816130f0565b9050919050565b6000602082019050818103600083015261343481613156565b9050919050565b60006020820190506134506000830184613196565b92915050565b600060408201905061346b6000830185613196565b6134786020830184612d73565b9392505050565b60006040820190506134946000830185613196565b6134a16020830184613196565b9392505050565b60006080820190506134bd6000830187613196565b6134ca6020830186613196565b6134d76040830185613196565b6134e46060830184613196565b95945050505050565b600081519050919050565b600082825260208201905092915050565b600082825260208201905092915050565b6000613525826135da565b9150613530836135da565b9250827fffffffffffffffffffffffffffffffffffffffffffffffffffffffffffffffff038211156135655761356461369b565b5b828201905092915050565b600061357b826135ba565b9050919050565b60008115159050919050565b60007fffffffff0000000000000000000000000000000000000000000000000000000082169050919050565b600073ffffffffffffffffffffffffffffffffffffffff82169050919050565b6000819050919050565b60005b838110156136025780820151818401526020810190506135e7565b83811115613611576000848401525b50505050565b6000613622826135da565b91507fffffffffffffffffffffffffffffffffffffffffffffffffffffffffffffffff8214156136555761365461369b565b5b600182019050919050565b6000819050919050565b6000613675826135da565b9150613680836135da565b9250826136905761368f6136ca565b5b828206905092915050565b7f4e487b7100000000000000000000000000000000000000000000000000000000600052601160045260246000fd5b7f4e487b7100000000000000000000000000000000000000000000000000000000600052601260045260246000fd5b6000601f19601f8301169050919050565b61371381613570565b811461371e57600080fd5b50565b61372a81613582565b811461373557600080fd5b50565b6137418161358e565b811461374c57600080fd5b50565b613758816135da565b811461376357600080fd5b5056fea2646970667358221220b726666cd46236b1a88e073b85c723805f5d3646b704088fa7f5d68a2e6eb3d364736f6c63430008000033",
  "immutableReferences": {},
  "source": "// SPDX-License-Identifier: UNLICENSED\npragma solidity ^0.8.0;\n\nimport \"./card-ownership.sol\";\n\ncontract CardAuction is CardOwnership {\n\n    uint public maxAuctionDuration = 604800;\n    mapping(uint => bool) public cardIsForSale;\n    mapping(uint => uint) public cardToCurrentBid;\n    mapping(uint => address) public leadingBidder;\n    mapping(uint => uint) public auctionExpireDate;\n    \n    event AuctionOpened(uint indexed cardId, uint startingBid, uint expireDate);\n    event BidPlaced(uint indexed cardId, uint bid, address bidder);\n    event AuctionClosed(uint indexed cardId, uint salePrice, address to);\n\n    modifier onlyCardOwner(uint _cardId) {\n        address owner = cardIdToOwner[_cardId];\n        require(owner == msg.sender, 'ONLY CARD OWNER CAN POST IT FOR AUCTION');\n        _;\n    }\n\n    modifier checkAuctionDuration(uint _duration) {\n        require(_duration <= maxAuctionDuration, 'BID DURATION NOT ALLOWED');\n        _;\n    }\n\n    function createCardAuction(uint _cardId, uint _startingBid, uint _duration) external checkAuctionDuration(_duration) onlyCardOwner(_cardId) {\n        require(!cardIsForSale[_cardId], 'CARD ALREADY UP FOR AUCTION');\n\n        cardIsForSale[_cardId] = true;\n        cardToCurrentBid[_cardId] = _startingBid;\n        auctionExpireDate[_cardId] = block.timestamp + _duration;\n        emit AuctionOpened(_cardId, _startingBid, block.timestamp + _duration);\n    }\n\n    function placeBid(uint _cardId) external payable {\n        require(cardIdToOwner[_cardId] != msg.sender, 'CAN NOT BID ON CARDS YOU OWN');\n        require(cardIsForSale[_cardId], 'CARD NOT FOR SALE');\n        require(msg.value > cardToCurrentBid[_cardId], 'BID LOWER THAN CURRENT BID');\n\n        address payable outbidAddress = payable(leadingBidder[_cardId]);\n        outbidAddress.transfer(cardToCurrentBid[_cardId]);\n        cardToCurrentBid[_cardId] = msg.value;\n        leadingBidder[_cardId] = msg.sender;\n        emit BidPlaced(_cardId, msg.value, msg.sender);\n    }\n\n    function endAuction(uint _cardId) external {\n        require(auctionExpireDate[_cardId] <= block.timestamp);\n\n        if(leadingBidder[_cardId] != address(0)) {\n            transferCard(_cardId);\n        }\n        cardIsForSale[_cardId] = false;\n        cardToCurrentBid[_cardId] = 0;\n        leadingBidder[_cardId] = address(0);\n        auctionExpireDate[_cardId] = 0;\n    }\n\n    function transferCard(uint _cardId) internal {\n        address payable beneficiary = payable(cardIdToOwner[_cardId]);\n\n        beneficiary.transfer(cardToCurrentBid[_cardId]);\n        cardIdToOwner[_cardId] = leadingBidder[_cardId];\n    }\n}",
  "sourcePath": "/Users/tkma4fr/Development/solidity-app/contracts/card-auction.sol",
  "compiler": {
    "name": "solc",
    "version": "0.8.0+commit.c7dfd78e.Emscripten.clang"
  },
  "schemaVersion": "3.4.2",
  "updatedAt": "2021-10-07T16:24:04.887Z",
  "networkType": "ethereum",
  "devdoc": {
    "kind": "dev",
    "methods": {
      "approve(address,uint256)": {
        "details": "The zero address indicates there is no approved address.  Throws unless `msg.sender` is the current NFT owner, or an authorized  operator of the current owner.",
        "params": {
          "_approved": "The new approved NFT controller",
          "_tokenId": "The NFT to approve"
        }
      },
      "balanceOf(address)": {
        "details": "NFTs assigned to the zero address are considered invalid, and this  function throws for queries about the zero address.",
        "params": {
          "_owner": "An address for whom to query the balance"
        },
        "returns": {
          "_0": "The number of NFTs owned by `_owner`, possibly zero"
        }
      },
      "getApproved(uint256)": {
        "details": "Throws if `_tokenId` is not a valid NFT.",
        "params": {
          "_tokenId": "The NFT to find the approved address for"
        },
        "returns": {
          "_0": "The approved address for this NFT, or the zero address if there is none"
        }
      },
      "isApprovedForAll(address,address)": {
        "params": {
          "_operator": "The address that acts on behalf of the owner",
          "_owner": "The address that owns the NFTs"
        },
        "returns": {
          "_0": "True if `_operator` is an approved operator for `_owner`, false otherwise"
        }
      },
      "owner()": {
        "details": "Returns the address of the current owner."
      },
      "ownerOf(uint256)": {
        "details": "NFTs assigned to zero address are considered invalid, and queries  about them do throw.",
        "params": {
          "_tokenId": "The identifier for an NFT"
        },
        "returns": {
          "_0": "The address of the owner of the NFT"
        }
      },
      "renounceOwnership()": {
        "details": "Leaves the contract without owner. It will not be possible to call `onlyOwner` functions anymore. Can only be called by the current owner. NOTE: Renouncing ownership will leave the contract without an owner, thereby removing any functionality that is only available to the owner."
      },
      "safeTransferFrom(address,address,uint256)": {
        "details": "This works identically to the other function with an extra data parameter,  except this function just sets data to \"\".",
        "params": {
          "_from": "The current owner of the NFT",
          "_to": "The new owner",
          "_tokenId": "The NFT to transfer"
        }
      },
      "setApprovalForAll(address,bool)": {
        "details": "Emits the ApprovalForAll event. The contract MUST allow  multiple operators per owner.",
        "params": {
          "_approved": "True if the operator is approved, false to revoke approval",
          "_operator": "Address to add to the set of authorized operators"
        }
      },
      "transferFrom(address,address,uint256)": {
        "details": "Throws unless `msg.sender` is the current owner, an authorized  operator, or the approved address for this NFT. Throws if `_from` is  not the current owner. Throws if `_to` is the zero address. Throws if  `_tokenId` is not a valid NFT.",
        "params": {
          "_from": "The current owner of the NFT",
          "_to": "The new owner",
          "_tokenId": "The NFT to transfer"
        }
      },
      "transferOwnership(address)": {
        "details": "Transfers ownership of the contract to a new account (`newOwner`). Can only be called by the current owner."
      }
    },
    "version": 1
  },
  "userdoc": {
    "kind": "user",
    "methods": {
      "approve(address,uint256)": {
        "notice": "Change or reaffirm the approved address for an NFT"
      },
      "balanceOf(address)": {
        "notice": "Count all NFTs assigned to an owner"
      },
      "getApproved(uint256)": {
        "notice": "Get the approved address for a single NFT"
      },
      "isApprovedForAll(address,address)": {
        "notice": "Query if an address is an authorized operator for another address"
      },
      "ownerOf(uint256)": {
        "notice": "Find the owner of an NFT"
      },
      "safeTransferFrom(address,address,uint256)": {
        "notice": "Transfers the ownership of an NFT from one address to another address"
      },
      "setApprovalForAll(address,bool)": {
        "notice": "Enable or disable approval for a third party (\"operator\") to manage  all of `msg.sender`'s assets"
      },
      "transferFrom(address,address,uint256)": {
        "notice": "Transfer ownership of an NFT -- THE CALLER IS RESPONSIBLE  TO CONFIRM THAT `_to` IS CAPABLE OF RECEIVING NFTS OR ELSE  THEY MAY BE PERMANENTLY LOST"
      }
    },
    "version": 1
  }
}