{
  "contractName": "CardGame",
  "abi": [
    {
      "inputs": [
        {
          "internalType": "address",
          "name": "_auctionAddress",
          "type": "address"
        }
      ],
      "stateMutability": "nonpayable",
      "type": "constructor"
    },
    {
      "anonymous": false,
      "inputs": [
        {
          "indexed": false,
          "internalType": "uint256",
          "name": "gameId",
          "type": "uint256"
        },
        {
          "indexed": false,
          "internalType": "uint256",
          "name": "playerCount",
          "type": "uint256"
        },
        {
          "indexed": false,
          "internalType": "uint256",
          "name": "cardCount",
          "type": "uint256"
        },
        {
          "indexed": false,
          "internalType": "uint256",
          "name": "entryFee",
          "type": "uint256"
        }
      ],
      "name": "GameCreated",
      "type": "event"
    },
    {
      "anonymous": false,
      "inputs": [
        {
          "indexed": false,
          "internalType": "uint256",
          "name": "gameId",
          "type": "uint256"
        },
        {
          "indexed": true,
          "internalType": "address",
          "name": "winner",
          "type": "address"
        },
        {
          "indexed": false,
          "internalType": "uint256",
          "name": "prize",
          "type": "uint256"
        }
      ],
      "name": "GameEnded",
      "type": "event"
    },
    {
      "anonymous": false,
      "inputs": [
        {
          "indexed": false,
          "internalType": "uint256",
          "name": "gameId",
          "type": "uint256"
        },
        {
          "indexed": true,
          "internalType": "address",
          "name": "player",
          "type": "address"
        }
      ],
      "name": "GameJoined",
      "type": "event"
    },
    {
      "anonymous": false,
      "inputs": [
        {
          "indexed": true,
          "internalType": "address",
          "name": "previousOwner",
          "type": "address"
        },
        {
          "indexed": true,
          "internalType": "address",
          "name": "newOwner",
          "type": "address"
        }
      ],
      "name": "OwnershipTransferred",
      "type": "event"
    },
    {
      "inputs": [],
      "name": "gameId",
      "outputs": [
        {
          "internalType": "uint256",
          "name": "",
          "type": "uint256"
        }
      ],
      "stateMutability": "view",
      "type": "function",
      "constant": true
    },
    {
      "inputs": [
        {
          "internalType": "uint256",
          "name": "",
          "type": "uint256"
        }
      ],
      "name": "gameIdToGame",
      "outputs": [
        {
          "internalType": "uint256",
          "name": "gameId",
          "type": "uint256"
        },
        {
          "internalType": "uint256",
          "name": "numberOfPlayers",
          "type": "uint256"
        },
        {
          "internalType": "uint256",
          "name": "numberOfCardsPerPlayer",
          "type": "uint256"
        },
        {
          "internalType": "uint256",
          "name": "entryFee",
          "type": "uint256"
        },
        {
          "internalType": "uint256",
          "name": "playerCount",
          "type": "uint256"
        },
        {
          "internalType": "uint256",
          "name": "week",
          "type": "uint256"
        },
        {
          "internalType": "bool",
          "name": "active",
          "type": "bool"
        },
        {
          "internalType": "address",
          "name": "winner",
          "type": "address"
        }
      ],
      "stateMutability": "view",
      "type": "function",
      "constant": true
    },
    {
      "inputs": [],
      "name": "owner",
      "outputs": [
        {
          "internalType": "address",
          "name": "",
          "type": "address"
        }
      ],
      "stateMutability": "view",
      "type": "function",
      "constant": true
    },
    {
      "inputs": [],
      "name": "renounceOwnership",
      "outputs": [],
      "stateMutability": "nonpayable",
      "type": "function"
    },
    {
      "inputs": [
        {
          "internalType": "address",
          "name": "newOwner",
          "type": "address"
        }
      ],
      "name": "transferOwnership",
      "outputs": [],
      "stateMutability": "nonpayable",
      "type": "function"
    },
    {
      "inputs": [
        {
          "internalType": "uint256",
          "name": "_playerCount",
          "type": "uint256"
        },
        {
          "internalType": "uint256",
          "name": "_cardCount",
          "type": "uint256"
        },
        {
          "internalType": "uint256",
          "name": "_entryFee",
          "type": "uint256"
        },
        {
          "internalType": "uint256",
          "name": "_week",
          "type": "uint256"
        }
      ],
      "name": "createGame",
      "outputs": [],
      "stateMutability": "nonpayable",
      "type": "function"
    },
    {
      "inputs": [
        {
          "internalType": "uint256",
          "name": "_gameId",
          "type": "uint256"
        },
        {
          "internalType": "uint256[]",
          "name": "_cardIds",
          "type": "uint256[]"
        },
        {
          "internalType": "string",
          "name": "_secret",
          "type": "string"
        }
      ],
      "name": "joinGame",
      "outputs": [],
      "stateMutability": "payable",
      "type": "function",
      "payable": true
    },
    {
      "inputs": [
        {
          "internalType": "uint256",
          "name": "_gameId",
          "type": "uint256"
        },
        {
          "internalType": "address",
          "name": "_winner",
          "type": "address"
        }
      ],
      "name": "endGame",
      "outputs": [],
      "stateMutability": "nonpayable",
      "type": "function"
    },
    {
      "inputs": [
        {
          "internalType": "uint256",
          "name": "_gameId",
          "type": "uint256"
        }
      ],
      "name": "getPlayersByGameId",
      "outputs": [
        {
          "internalType": "address[]",
          "name": "",
          "type": "address[]"
        }
      ],
      "stateMutability": "view",
      "type": "function",
      "constant": true
    },
    {
      "inputs": [
        {
          "internalType": "uint256",
          "name": "_gameId",
          "type": "uint256"
        },
        {
          "internalType": "address",
          "name": "_user",
          "type": "address"
        }
      ],
      "name": "getCardEntriesByPlayer",
      "outputs": [
        {
          "internalType": "uint256[]",
          "name": "",
          "type": "uint256[]"
        }
      ],
      "stateMutability": "view",
      "type": "function",
      "constant": true
    },
    {
      "inputs": [
        {
          "internalType": "string",
          "name": "_secret",
          "type": "string"
        }
      ],
      "name": "setSecret",
      "outputs": [],
      "stateMutability": "nonpayable",
      "type": "function"
    }
  ],
  "bytecode": "0x60806040523480156200001157600080fd5b506040516200246038038062002460833981810160405281019062000037919062000182565b620000576200004b6200009f60201b60201c565b620000a760201b60201c565b80600160006101000a81548173ffffffffffffffffffffffffffffffffffffffff021916908373ffffffffffffffffffffffffffffffffffffffff16021790555050620001fc565b600033905090565b60008060009054906101000a900473ffffffffffffffffffffffffffffffffffffffff169050816000806101000a81548173ffffffffffffffffffffffffffffffffffffffff021916908373ffffffffffffffffffffffffffffffffffffffff1602179055508173ffffffffffffffffffffffffffffffffffffffff168173ffffffffffffffffffffffffffffffffffffffff167f8be0079c531659141344cd1fd0a4f28419497f9722a3daafe3b4186f6b6457e060405160405180910390a35050565b6000815190506200017c81620001e2565b92915050565b6000602082840312156200019557600080fd5b6000620001a5848285016200016b565b91505092915050565b6000620001bb82620001c2565b9050919050565b600073ffffffffffffffffffffffffffffffffffffffff82169050919050565b620001ed81620001ae565b8114620001f957600080fd5b50565b612254806200020c6000396000f3fe60806040526004361061009c5760003560e01c80638da5cb5b116100645780638da5cb5b1461016a578063b3df526814610195578063bdaae1e7146101d2578063c44d503d146101fb578063d7c81b5514610238578063f2fde38b146102635761009c565b806333f70f38146100a15780633727dbf9146100bd578063715018a6146101015780637ed6c926146101185780638651413114610141575b600080fd5b6100bb60048036038101906100b69190611616565b61028c565b005b3480156100c957600080fd5b506100e460048036038101906100df91906115b1565b6108df565b6040516100f8989796959493929190611d7e565b60405180910390f35b34801561010d57600080fd5b50610116610954565b005b34801561012457600080fd5b5061013f600480360381019061013a9190611570565b6109dc565b005b34801561014d57600080fd5b50610168600480360381019061016391906115da565b610a72565b005b34801561017657600080fd5b5061017f610c68565b60405161018c9190611bb6565b60405180910390f35b3480156101a157600080fd5b506101bc60048036038101906101b791906115da565b610c91565b6040516101c99190611bf3565b60405180910390f35b3480156101de57600080fd5b506101f960048036038101906101f49190611695565b610d3a565b005b34801561020757600080fd5b50610222600480360381019061021d91906115b1565b610fb4565b60405161022f9190611bd1565b60405180910390f35b34801561024457600080fd5b5061024d611058565b60405161025a9190611cf5565b60405180910390f35b34801561026f57600080fd5b5061028a60048036038101906102859190611547565b61105e565b005b82336000806004600085815260200190815260200160002060060180548060200260200160405190810160405280929190818152602001828054801561032757602002820191906000526020600020905b8160009054906101000a900473ffffffffffffffffffffffffffffffffffffffff1673ffffffffffffffffffffffffffffffffffffffff16815260200190600101908083116102dd575b5050505050905060005b81518110156103c6578373ffffffffffffffffffffffffffffffffffffffff1682828151811061038a577f4e487b7100000000000000000000000000000000000000000000000000000000600052603260045260246000fd5b602002602001015173ffffffffffffffffffffffffffffffffffffffff1614156103b357600192505b80806103be906120d4565b915050610331565b508115610408576040517f08c379a00000000000000000000000000000000000000000000000000000000081526004016103ff90611c95565b60405180910390fd5b853360006001905060005b8351811015610530576000600160009054906101000a900473ffffffffffffffffffffffffffffffffffffffff1673ffffffffffffffffffffffffffffffffffffffff1663a0dd6b34868481518110610495577f4e487b7100000000000000000000000000000000000000000000000000000000600052603260045260246000fd5b60200260200101516040518263ffffffff1660e01b81526004016104b99190611cf5565b60a060405180830381600087803b1580156104d357600080fd5b505af11580156104e7573d6000803e3d6000fd5b505050506040513d601f19601f8201168201806040525081019061050b91906116f8565b945050505050801561051c57600092505b508080610528906120d4565b915050610413565b5080610571576040517f08c379a000000000000000000000000000000000000000000000000000000000815260040161056890611c75565b60405180910390fd5b34600460008c815260200190815260200160002060030154146105c9576040517f08c379a00000000000000000000000000000000000000000000000000000000081526004016105c090611c35565b60405180910390fd5b6105d288611156565b610611576040517f08c379a000000000000000000000000000000000000000000000000000000000815260040161060890611cd5565b60405180910390fd5b600460008b815260200190815260200160002060010154600460008c8152602001908152602001600020600401541061067f576040517f08c379a000000000000000000000000000000000000000000000000000000000815260040161067690611c55565b60405180910390fd5b88600560008c815260200190815260200160002060003373ffffffffffffffffffffffffffffffffffffffff1673ffffffffffffffffffffffffffffffffffffffff16815260200190815260200160002090805190602001906106e392919061127b565b5060005b89518110156107d057600160009054906101000a900473ffffffffffffffffffffffffffffffffffffffff1673ffffffffffffffffffffffffffffffffffffffff166321f0c5518b8381518110610767577f4e487b7100000000000000000000000000000000000000000000000000000000600052603260045260246000fd5b60200260200101516040518263ffffffff1660e01b815260040161078b9190611cf5565b600060405180830381600087803b1580156107a557600080fd5b505af11580156107b9573d6000803e3d6000fd5b5050505080806107c8906120d4565b9150506106e7565b506001600460008c8152602001908152602001600020600401546107f49190611f37565b600460008c815260200190815260200160002060040181905550600460008b8152602001908152602001600020600601339080600181540180825580915050600190039060005260206000200160009091909190916101000a81548173ffffffffffffffffffffffffffffffffffffffff021916908373ffffffffffffffffffffffffffffffffffffffff1602179055503373ffffffffffffffffffffffffffffffffffffffff167f45c4f9cbafe186141862608c493f28b823fde4c2142bedc3f5169961a73fdd228b6040516108cb9190611cf5565b60405180910390a250505050505050505050565b60046020528060005260406000206000915090508060000154908060010154908060020154908060030154908060040154908060050154908060070160009054906101000a900460ff16908060070160019054906101000a900473ffffffffffffffffffffffffffffffffffffffff16905088565b61095c6111af565b73ffffffffffffffffffffffffffffffffffffffff1661097a610c68565b73ffffffffffffffffffffffffffffffffffffffff16146109d0576040517f08c379a00000000000000000000000000000000000000000000000000000000081526004016109c790611cb5565b60405180910390fd5b6109da60006111b7565b565b6109e46111af565b73ffffffffffffffffffffffffffffffffffffffff16610a02610c68565b73ffffffffffffffffffffffffffffffffffffffff1614610a58576040517f08c379a0000000000000000000000000000000000000000000000000000000008152600401610a4f90611cb5565b60405180910390fd5b8060039080519060200190610a6e9291906112c8565b5050565b610a7a6111af565b73ffffffffffffffffffffffffffffffffffffffff16610a98610c68565b73ffffffffffffffffffffffffffffffffffffffff1614610aee576040517f08c379a0000000000000000000000000000000000000000000000000000000008152600401610ae590611cb5565b60405180910390fd5b60006004600084815260200190815260200160002060070160006101000a81548160ff021916908315150217905550806004600084815260200190815260200160002060070160016101000a81548173ffffffffffffffffffffffffffffffffffffffff021916908373ffffffffffffffffffffffffffffffffffffffff16021790555060008190506000600a60096004600087815260200190815260200160002060040154610b9e9190611fbe565b610ba89190611f8d565b6004600086815260200190815260200160002060030154610bc99190611fbe565b90508173ffffffffffffffffffffffffffffffffffffffff166108fc829081150290604051600060405180830381858888f19350505050158015610c11573d6000803e3d6000fd5b508273ffffffffffffffffffffffffffffffffffffffff167ff1898de79c348962fab7695532341027e5bceb0ea2a8785790fa7d7efeeee1298583604051610c5a929190611d10565b60405180910390a250505050565b60008060009054906101000a900473ffffffffffffffffffffffffffffffffffffffff16905090565b60606005600084815260200190815260200160002060008373ffffffffffffffffffffffffffffffffffffffff1673ffffffffffffffffffffffffffffffffffffffff168152602001908152602001600020805480602002602001604051908101604052809291908181526020018280548015610d2d57602002820191906000526020600020905b815481526020019060010190808311610d19575b5050505050905092915050565b610d426111af565b73ffffffffffffffffffffffffffffffffffffffff16610d60610c68565b73ffffffffffffffffffffffffffffffffffffffff1614610db6576040517f08c379a0000000000000000000000000000000000000000000000000000000008152600401610dad90611cb5565b60405180910390fd5b6040518061012001604052806002548152602001858152602001848152602001838152602001600081526020018281526020018567ffffffffffffffff811115610e29577f4e487b7100000000000000000000000000000000000000000000000000000000600052604160045260246000fd5b604051908082528060200260200182016040528015610e575781602001602082028036833780820191505090505b508152602001600115158152602001600073ffffffffffffffffffffffffffffffffffffffff16815250600460006002548152602001908152602001600020600082015181600001556020820151816001015560408201518160020155606082015181600301556080820151816004015560a0820151816005015560c0820151816006019080519060200190610eee92919061134e565b5060e08201518160070160006101000a81548160ff0219169083151502179055506101008201518160070160016101000a81548173ffffffffffffffffffffffffffffffffffffffff021916908373ffffffffffffffffffffffffffffffffffffffff1602179055509050507f80b55cf2f646df8d85b80ac067c88c4aa6354a860d6cb55c7e234cf23861627f600254858585604051610f919493929190611d39565b60405180910390a16001600254610fa89190611f37565b60028190555050505050565b60606004600083815260200190815260200160002060060180548060200260200160405190810160405280929190818152602001828054801561104c57602002820191906000526020600020905b8160009054906101000a900473ffffffffffffffffffffffffffffffffffffffff1673ffffffffffffffffffffffffffffffffffffffff1681526020019060010190808311611002575b50505050509050919050565b60025481565b6110666111af565b73ffffffffffffffffffffffffffffffffffffffff16611084610c68565b73ffffffffffffffffffffffffffffffffffffffff16146110da576040517f08c379a00000000000000000000000000000000000000000000000000000000081526004016110d190611cb5565b60405180910390fd5b600073ffffffffffffffffffffffffffffffffffffffff168173ffffffffffffffffffffffffffffffffffffffff16141561114a576040517f08c379a000000000000000000000000000000000000000000000000000000000815260040161114190611c15565b60405180910390fd5b611153816111b7565b50565b6000600360405160200161116a9190611b9f565b60405160208183030381529060405280519060200120826040516020016111919190611b88565b60405160208183030381529060405280519060200120149050919050565b600033905090565b60008060009054906101000a900473ffffffffffffffffffffffffffffffffffffffff169050816000806101000a81548173ffffffffffffffffffffffffffffffffffffffff021916908373ffffffffffffffffffffffffffffffffffffffff1602179055508173ffffffffffffffffffffffffffffffffffffffff168173ffffffffffffffffffffffffffffffffffffffff167f8be0079c531659141344cd1fd0a4f28419497f9722a3daafe3b4186f6b6457e060405160405180910390a35050565b8280548282559060005260206000209081019282156112b7579160200282015b828111156112b657825182559160200191906001019061129b565b5b5090506112c491906113d8565b5090565b8280546112d4906120a2565b90600052602060002090601f0160209004810192826112f6576000855561133d565b82601f1061130f57805160ff191683800117855561133d565b8280016001018555821561133d579182015b8281111561133c578251825591602001919060010190611321565b5b50905061134a91906113d8565b5090565b8280548282559060005260206000209081019282156113c7579160200282015b828111156113c65782518260006101000a81548173ffffffffffffffffffffffffffffffffffffffff021916908373ffffffffffffffffffffffffffffffffffffffff1602179055509160200191906001019061136e565b5b5090506113d491906113d8565b5090565b5b808211156113f15760008160009055506001016113d9565b5090565b600061140861140384611e2d565b611dfc565b9050808382526020820190508285602086028201111561142757600080fd5b60005b85811015611457578161143d888261151d565b84526020840193506020830192505060018101905061142a565b5050509392505050565b600061147461146f84611e59565b611dfc565b90508281526020810184848401111561148c57600080fd5b611497848285612060565b509392505050565b6000813590506114ae816121d9565b92915050565b600082601f8301126114c557600080fd5b81356114d58482602086016113f5565b91505092915050565b6000815190506114ed816121f0565b92915050565b600082601f83011261150457600080fd5b8135611514848260208601611461565b91505092915050565b60008135905061152c81612207565b92915050565b60008151905061154181612207565b92915050565b60006020828403121561155957600080fd5b60006115678482850161149f565b91505092915050565b60006020828403121561158257600080fd5b600082013567ffffffffffffffff81111561159c57600080fd5b6115a8848285016114f3565b91505092915050565b6000602082840312156115c357600080fd5b60006115d18482850161151d565b91505092915050565b600080604083850312156115ed57600080fd5b60006115fb8582860161151d565b925050602061160c8582860161149f565b9150509250929050565b60008060006060848603121561162b57600080fd5b60006116398682870161151d565b935050602084013567ffffffffffffffff81111561165657600080fd5b611662868287016114b4565b925050604084013567ffffffffffffffff81111561167f57600080fd5b61168b868287016114f3565b9150509250925092565b600080600080608085870312156116ab57600080fd5b60006116b98782880161151d565b94505060206116ca8782880161151d565b93505060406116db8782880161151d565b92505060606116ec8782880161151d565b91505092959194509250565b600080600080600060a0868803121561171057600080fd5b600061171e88828901611532565b955050602061172f88828901611532565b945050604061174088828901611532565b935050606061175188828901611532565b9250506080611762888289016114de565b9150509295509295909350565b600061177b838361179f565b60208301905092915050565b60006117938383611b6a565b60208301905092915050565b6117a881612018565b82525050565b6117b781612018565b82525050565b60006117c882611ebe565b6117d28185611ef9565b93506117dd83611e89565b8060005b8381101561180e5781516117f5888261176f565b975061180083611edf565b9250506001810190506117e1565b5085935050505092915050565b600061182682611ec9565b6118308185611f0a565b935061183b83611e99565b8060005b8381101561186c5781516118538882611787565b975061185e83611eec565b92505060018101905061183f565b5085935050505092915050565b6118828161202a565b82525050565b600061189382611ed4565b61189d8185611f2c565b93506118ad81856020860161206f565b80840191505092915050565b600081546118c6816120a2565b6118d08186611f2c565b945060018216600081146118eb57600181146118fc5761192f565b60ff1983168652818601935061192f565b61190585611ea9565b60005b8381101561192757815481890152600182019150602081019050611908565b838801955050505b50505092915050565b6000611945602683611f1b565b91507f4f776e61626c653a206e6577206f776e657220697320746865207a65726f206160008301527f64647265737300000000000000000000000000000000000000000000000000006020830152604082019050919050565b60006119ab601183611f1b565b91507f494e56414c494420454e545259204645450000000000000000000000000000006000830152602082019050919050565b60006119eb600c83611f1b565b91507f47414d452049532046554c4c00000000000000000000000000000000000000006000830152602082019050919050565b6000611a2b603183611f1b565b91507f594f55204841564520454e54455245442041204341524420544841542049532060008301527f414c524541445920494e20412047414d450000000000000000000000000000006020830152604082019050919050565b6000611a91602183611f1b565b91507f594f55204841564520414c5245414459204a4f494e454420544849532047414d60008301527f45000000000000000000000000000000000000000000000000000000000000006020830152604082019050919050565b6000611af7602083611f1b565b91507f4f776e61626c653a2063616c6c6572206973206e6f7420746865206f776e65726000830152602082019050919050565b6000611b37601e83611f1b565b91507f494e56414c494420534543524554205553454420494e205245515545535400006000830152602082019050919050565b611b7381612056565b82525050565b611b8281612056565b82525050565b6000611b948284611888565b915081905092915050565b6000611bab82846118b9565b915081905092915050565b6000602082019050611bcb60008301846117ae565b92915050565b60006020820190508181036000830152611beb81846117bd565b905092915050565b60006020820190508181036000830152611c0d818461181b565b905092915050565b60006020820190508181036000830152611c2e81611938565b9050919050565b60006020820190508181036000830152611c4e8161199e565b9050919050565b60006020820190508181036000830152611c6e816119de565b9050919050565b60006020820190508181036000830152611c8e81611a1e565b9050919050565b60006020820190508181036000830152611cae81611a84565b9050919050565b60006020820190508181036000830152611cce81611aea565b9050919050565b60006020820190508181036000830152611cee81611b2a565b9050919050565b6000602082019050611d0a6000830184611b79565b92915050565b6000604082019050611d256000830185611b79565b611d326020830184611b79565b9392505050565b6000608082019050611d4e6000830187611b79565b611d5b6020830186611b79565b611d686040830185611b79565b611d756060830184611b79565b95945050505050565b600061010082019050611d94600083018b611b79565b611da1602083018a611b79565b611dae6040830189611b79565b611dbb6060830188611b79565b611dc86080830187611b79565b611dd560a0830186611b79565b611de260c0830185611879565b611def60e08301846117ae565b9998505050505050505050565b6000604051905081810181811067ffffffffffffffff82111715611e2357611e226121aa565b5b8060405250919050565b600067ffffffffffffffff821115611e4857611e476121aa565b5b602082029050602081019050919050565b600067ffffffffffffffff821115611e7457611e736121aa565b5b601f19601f8301169050602081019050919050565b6000819050602082019050919050565b6000819050602082019050919050565b60008190508160005260206000209050919050565b600081519050919050565b600081519050919050565b600081519050919050565b6000602082019050919050565b6000602082019050919050565b600082825260208201905092915050565b600082825260208201905092915050565b600082825260208201905092915050565b600081905092915050565b6000611f4282612056565b9150611f4d83612056565b9250827fffffffffffffffffffffffffffffffffffffffffffffffffffffffffffffffff03821115611f8257611f8161211d565b5b828201905092915050565b6000611f9882612056565b9150611fa383612056565b925082611fb357611fb261214c565b5b828204905092915050565b6000611fc982612056565b9150611fd483612056565b9250817fffffffffffffffffffffffffffffffffffffffffffffffffffffffffffffffff048311821515161561200d5761200c61211d565b5b828202905092915050565b600061202382612036565b9050919050565b60008115159050919050565b600073ffffffffffffffffffffffffffffffffffffffff82169050919050565b6000819050919050565b82818337600083830152505050565b60005b8381101561208d578082015181840152602081019050612072565b8381111561209c576000848401525b50505050565b600060028204905060018216806120ba57607f821691505b602082108114156120ce576120cd61217b565b5b50919050565b60006120df82612056565b91507fffffffffffffffffffffffffffffffffffffffffffffffffffffffffffffffff8214156121125761211161211d565b5b600182019050919050565b7f4e487b7100000000000000000000000000000000000000000000000000000000600052601160045260246000fd5b7f4e487b7100000000000000000000000000000000000000000000000000000000600052601260045260246000fd5b7f4e487b7100000000000000000000000000000000000000000000000000000000600052602260045260246000fd5b7f4e487b7100000000000000000000000000000000000000000000000000000000600052604160045260246000fd5b6121e281612018565b81146121ed57600080fd5b50565b6121f98161202a565b811461220457600080fd5b50565b61221081612056565b811461221b57600080fd5b5056fea2646970667358221220e60687782ea0c2e92ff1c82f923641c3dda19e43aa20bd7f30dcc813c609d6b264736f6c63430008000033",
  "immutableReferences": {},
  "source": "// SPDX-License-Identifier: UNLICENSED\npragma solidity ^0.8.0;\n\nimport \"@openzeppelin/contracts/access/Ownable.sol\";\n\nabstract contract CardAuction {\n    struct Card {\n        uint cardId;\n        uint playerId;\n        uint attributeHash;\n        uint cardType;\n        bool inUse;\n    }\n\n   function cardIdToCard(uint _cardId) virtual public returns(uint256, uint256, uint256, uint256, bool);\n   function setCardIsInUse(uint _cardId) virtual public;\n}\n\ncontract CardGame is Ownable {\n\n    CardAuction cardAuction;\n    uint public gameId;\n    string private secret;\n    mapping(uint => Game) public gameIdToGame;\n    mapping(uint => mapping(address => uint[])) gameIdToPlayerCards;\n    mapping(uint => bool) cardIsPlayable;\n\n    constructor(address _auctionAddress) {\n        cardAuction = CardAuction(_auctionAddress);\n    }\n\n    struct Game {\n        uint gameId;\n        uint numberOfPlayers;\n        uint numberOfCardsPerPlayer;\n        uint entryFee;\n        uint playerCount;\n        uint week;\n        address[] players;\n        bool active; \n        address winner;\n    }\n\n    struct Card {\n        uint cardId;\n        uint playerId;\n        uint attributeHash;\n        uint cardType;\n        bool inUse;\n    }\n\n    event GameCreated(uint gameId, uint playerCount, uint cardCount, uint entryFee);\n    event GameJoined(uint gameId, address indexed player);\n    event GameEnded(uint gameId, address indexed winner, uint prize);\n\n    modifier checkPlayersInGame(uint _gameId, address _player) {\n        bool playerInGame = false;\n        address[] memory players = gameIdToGame[_gameId].players;\n        for(uint i = 0; i < players.length; i++){\n            if(players[i] == _player) {\n                playerInGame = true;\n            }\n        }\n        require(!playerInGame, \"YOU HAVE ALREADY JOINED THIS GAME\");\n        _;\n    }\n\n    modifier checkCardAvailability(uint[] memory _cardIds, address _player) {\n        bool canPlay = true;\n        for(uint i = 0; i < _cardIds.length; i++) {\n            (,,,,bool inUse) = cardAuction.cardIdToCard(_cardIds[i]);\n            if(inUse) {\n                canPlay = false;\n            }\n        }\n        require(canPlay, \"YOU HAVE ENTERED A CARD THAT IS ALREADY IN A GAME\");\n        _;\n    }\n\n    function createGame(uint _playerCount, uint _cardCount, uint _entryFee, uint _week) external onlyOwner {\n        gameIdToGame[gameId] = Game(gameId, _playerCount, _cardCount, _entryFee, 0, _week, new address[](_playerCount), true, address(0));\n        emit GameCreated(gameId, _playerCount, _cardCount, _entryFee);\n        gameId = gameId + 1;\n    }\n\n    function joinGame(uint _gameId, uint[] memory _cardIds, string memory _secret) external payable checkPlayersInGame(_gameId, msg.sender) checkCardAvailability(_cardIds, msg.sender) {\n        require(gameIdToGame[_gameId].entryFee == msg.value, \"INVALID ENTRY FEE\");\n        require(compareSecret(_secret), \"INVALID SECRET USED IN REQUEST\");\n        require(gameIdToGame[_gameId].playerCount < gameIdToGame[_gameId].numberOfPlayers, \"GAME IS FULL\");\n        \n        gameIdToPlayerCards[_gameId][msg.sender] = _cardIds;\n        for(uint i = 0; i < _cardIds.length; i++) {\n            cardAuction.setCardIsInUse(_cardIds[i]);\n        }\n        gameIdToGame[_gameId].playerCount = gameIdToGame[_gameId].playerCount + 1;\n        gameIdToGame[_gameId].players.push(msg.sender);\n        emit GameJoined(_gameId, msg.sender);\n    }\n\n    function endGame(uint _gameId, address _winner) external onlyOwner {\n        gameIdToGame[_gameId].active = false;\n        gameIdToGame[_gameId].winner = _winner;\n        address payable payoutAddress = payable(_winner);\n        uint payoutAmount = gameIdToGame[_gameId].entryFee * ((gameIdToGame[_gameId].playerCount * 9) / 10);\n        payoutAddress.transfer(payoutAmount);\n        emit GameEnded(_gameId, _winner, payoutAmount);\n    }\n\n    function getPlayersByGameId(uint _gameId) external view returns(address[] memory) {\n        return gameIdToGame[_gameId].players;\n    }\n\n    function getCardEntriesByPlayer(uint _gameId, address _user) external view returns(uint[] memory) {\n        return gameIdToPlayerCards[_gameId][_user];\n    }\n\n    function compareSecret(string memory _secret) private view returns(bool) {\n        return (keccak256(abi.encodePacked((_secret))) == keccak256(abi.encodePacked((secret))));\n    }\n\n    function setSecret(string memory _secret) external onlyOwner {\n        secret = _secret;\n    }\n}",
  "sourcePath": "/Users/tkma4fr/Development/solidity-app/contracts/card-game.sol",
  "compiler": {
    "name": "solc",
    "version": "0.8.0+commit.c7dfd78e.Emscripten.clang"
  },
  "schemaVersion": "3.4.2",
  "updatedAt": "2021-10-26T21:35:14.770Z",
  "networkType": "ethereum",
  "devdoc": {
    "kind": "dev",
    "methods": {
      "owner()": {
        "details": "Returns the address of the current owner."
      },
      "renounceOwnership()": {
        "details": "Leaves the contract without owner. It will not be possible to call `onlyOwner` functions anymore. Can only be called by the current owner. NOTE: Renouncing ownership will leave the contract without an owner, thereby removing any functionality that is only available to the owner."
      },
      "transferOwnership(address)": {
        "details": "Transfers ownership of the contract to a new account (`newOwner`). Can only be called by the current owner."
      }
    },
    "version": 1
  },
  "userdoc": {
    "kind": "user",
    "methods": {},
    "version": 1
  }
}