{
  "contractName": "CardGame",
  "abi": [
    {
      "inputs": [
        {
          "internalType": "address",
          "name": "_auctionAddress",
          "type": "address"
        }
      ],
      "stateMutability": "nonpayable",
      "type": "constructor"
    },
    {
      "anonymous": false,
      "inputs": [
        {
          "indexed": false,
          "internalType": "uint256",
          "name": "gameId",
          "type": "uint256"
        },
        {
          "indexed": false,
          "internalType": "uint256",
          "name": "playerCount",
          "type": "uint256"
        },
        {
          "indexed": false,
          "internalType": "uint256",
          "name": "cardCount",
          "type": "uint256"
        },
        {
          "indexed": false,
          "internalType": "uint256",
          "name": "entryFee",
          "type": "uint256"
        }
      ],
      "name": "GameCreated",
      "type": "event"
    },
    {
      "anonymous": false,
      "inputs": [
        {
          "indexed": false,
          "internalType": "uint256",
          "name": "gameId",
          "type": "uint256"
        },
        {
          "indexed": true,
          "internalType": "address",
          "name": "player",
          "type": "address"
        }
      ],
      "name": "GameJoined",
      "type": "event"
    },
    {
      "anonymous": false,
      "inputs": [
        {
          "indexed": true,
          "internalType": "address",
          "name": "previousOwner",
          "type": "address"
        },
        {
          "indexed": true,
          "internalType": "address",
          "name": "newOwner",
          "type": "address"
        }
      ],
      "name": "OwnershipTransferred",
      "type": "event"
    },
    {
      "inputs": [],
      "name": "gameId",
      "outputs": [
        {
          "internalType": "uint256",
          "name": "",
          "type": "uint256"
        }
      ],
      "stateMutability": "view",
      "type": "function",
      "constant": true
    },
    {
      "inputs": [
        {
          "internalType": "uint256",
          "name": "",
          "type": "uint256"
        }
      ],
      "name": "gameIdToGame",
      "outputs": [
        {
          "internalType": "uint256",
          "name": "gameId",
          "type": "uint256"
        },
        {
          "internalType": "uint256",
          "name": "numberOfPlayers",
          "type": "uint256"
        },
        {
          "internalType": "uint256",
          "name": "numberOfCardsPerPlayer",
          "type": "uint256"
        },
        {
          "internalType": "uint256",
          "name": "entryFee",
          "type": "uint256"
        },
        {
          "internalType": "bool",
          "name": "open",
          "type": "bool"
        },
        {
          "internalType": "bool",
          "name": "active",
          "type": "bool"
        },
        {
          "internalType": "address",
          "name": "winner",
          "type": "address"
        }
      ],
      "stateMutability": "view",
      "type": "function",
      "constant": true
    },
    {
      "inputs": [],
      "name": "owner",
      "outputs": [
        {
          "internalType": "address",
          "name": "",
          "type": "address"
        }
      ],
      "stateMutability": "view",
      "type": "function",
      "constant": true
    },
    {
      "inputs": [],
      "name": "renounceOwnership",
      "outputs": [],
      "stateMutability": "nonpayable",
      "type": "function"
    },
    {
      "inputs": [
        {
          "internalType": "address",
          "name": "newOwner",
          "type": "address"
        }
      ],
      "name": "transferOwnership",
      "outputs": [],
      "stateMutability": "nonpayable",
      "type": "function"
    },
    {
      "inputs": [
        {
          "internalType": "uint256",
          "name": "_playerCount",
          "type": "uint256"
        },
        {
          "internalType": "uint256",
          "name": "_cardCount",
          "type": "uint256"
        },
        {
          "internalType": "uint256",
          "name": "_entryFee",
          "type": "uint256"
        }
      ],
      "name": "createGame",
      "outputs": [],
      "stateMutability": "nonpayable",
      "type": "function"
    },
    {
      "inputs": [
        {
          "internalType": "uint256",
          "name": "_gameId",
          "type": "uint256"
        },
        {
          "internalType": "uint256[]",
          "name": "_cardIds",
          "type": "uint256[]"
        }
      ],
      "name": "joinGame",
      "outputs": [],
      "stateMutability": "payable",
      "type": "function",
      "payable": true
    },
    {
      "inputs": [
        {
          "internalType": "uint256[]",
          "name": "_gameIds",
          "type": "uint256[]"
        }
      ],
      "name": "closeGames",
      "outputs": [],
      "stateMutability": "nonpayable",
      "type": "function"
    },
    {
      "inputs": [
        {
          "internalType": "uint256[]",
          "name": "_gameIds",
          "type": "uint256[]"
        }
      ],
      "name": "endGames",
      "outputs": [],
      "stateMutability": "nonpayable",
      "type": "function"
    },
    {
      "inputs": [
        {
          "internalType": "uint256",
          "name": "_gameId",
          "type": "uint256"
        }
      ],
      "name": "getPlayersByGameId",
      "outputs": [
        {
          "internalType": "address[]",
          "name": "",
          "type": "address[]"
        }
      ],
      "stateMutability": "view",
      "type": "function",
      "constant": true
    },
    {
      "inputs": [
        {
          "internalType": "uint256",
          "name": "_gameId",
          "type": "uint256"
        },
        {
          "internalType": "address",
          "name": "_user",
          "type": "address"
        }
      ],
      "name": "getCardEntriesByPlayer",
      "outputs": [
        {
          "internalType": "uint256[]",
          "name": "",
          "type": "uint256[]"
        }
      ],
      "stateMutability": "view",
      "type": "function",
      "constant": true
    }
  ],
  "bytecode": "0x60806040523480156200001157600080fd5b5060405162001e5b38038062001e5b833981810160405281019062000037919062000182565b620000576200004b6200009f60201b60201c565b620000a760201b60201c565b80600160006101000a81548173ffffffffffffffffffffffffffffffffffffffff021916908373ffffffffffffffffffffffffffffffffffffffff16021790555050620001fc565b600033905090565b60008060009054906101000a900473ffffffffffffffffffffffffffffffffffffffff169050816000806101000a81548173ffffffffffffffffffffffffffffffffffffffff021916908373ffffffffffffffffffffffffffffffffffffffff1602179055508173ffffffffffffffffffffffffffffffffffffffff168173ffffffffffffffffffffffffffffffffffffffff167f8be0079c531659141344cd1fd0a4f28419497f9722a3daafe3b4186f6b6457e060405160405180910390a35050565b6000815190506200017c81620001e2565b92915050565b6000602082840312156200019557600080fd5b6000620001a5848285016200016b565b91505092915050565b6000620001bb82620001c2565b9050919050565b600073ffffffffffffffffffffffffffffffffffffffff82169050919050565b620001ed81620001ae565b8114620001f957600080fd5b50565b611c4f806200020c6000396000f3fe60806040526004361061009c5760003560e01c8063b3df526811610064578063b3df52681461016b578063c2741521146101a8578063c44d503d146101d1578063d7c81b551461020e578063d82d630114610239578063f2fde38b146102625761009c565b80631b94a04e146100a1578063245767fa146100bd5780633727dbf9146100e6578063715018a6146101295780638da5cb5b14610140575b600080fd5b6100bb60048036038101906100b691906113de565b61028b565b005b3480156100c957600080fd5b506100e460048036038101906100df9190611338565b610851565b005b3480156100f257600080fd5b5061010d60048036038101906101089190611379565b61095f565b6040516101209796959493929190611940565b60405180910390f35b34801561013557600080fd5b5061013e6109db565b005b34801561014c57600080fd5b50610155610a63565b60405161016291906117e1565b60405180910390f35b34801561017757600080fd5b50610192600480360381019061018d91906113a2565b610a8c565b60405161019f919061181e565b60405180910390f35b3480156101b457600080fd5b506101cf60048036038101906101ca9190611432565b610b35565b005b3480156101dd57600080fd5b506101f860048036038101906101f39190611379565b610db5565b60405161020591906117fc565b60405180910390f35b34801561021a57600080fd5b50610223610e59565b60405161023091906118e0565b60405180910390f35b34801561024557600080fd5b50610260600480360381019061025b9190611338565b610e5f565b005b34801561026e57600080fd5b506102896004803603810190610284919061130f565b610f6d565b005b81336000806003600085815260200190815260200160002060040180548060200260200160405190810160405280929190818152602001828054801561032657602002820191906000526020600020905b8160009054906101000a900473ffffffffffffffffffffffffffffffffffffffff1673ffffffffffffffffffffffffffffffffffffffff16815260200190600101908083116102dc575b5050505050905060005b81518110156103c5578373ffffffffffffffffffffffffffffffffffffffff16828281518110610389577f4e487b7100000000000000000000000000000000000000000000000000000000600052603260045260246000fd5b602002602001015173ffffffffffffffffffffffffffffffffffffffff1614156103b257600192505b80806103bd90611b2d565b915050610330565b508115610407576040517f08c379a00000000000000000000000000000000000000000000000000000000081526004016103fe906118a0565b60405180910390fd5b843360006001905060005b835181101561052f576000600160009054906101000a900473ffffffffffffffffffffffffffffffffffffffff1673ffffffffffffffffffffffffffffffffffffffff1663a0dd6b34868481518110610494577f4e487b7100000000000000000000000000000000000000000000000000000000600052603260045260246000fd5b60200260200101516040518263ffffffff1660e01b81526004016104b891906118e0565b60a060405180830381600087803b1580156104d257600080fd5b505af11580156104e6573d6000803e3d6000fd5b505050506040513d601f19601f8201168201806040525081019061050a9190611481565b945050505050801561051b57600092505b50808061052790611b2d565b915050610412565b5080610570576040517f08c379a000000000000000000000000000000000000000000000000000000000815260040161056790611880565b60405180910390fd5b34600360008b815260200190815260200160002060030154146105c8576040517f08c379a00000000000000000000000000000000000000000000000000000000081526004016105bf90611860565b60405180910390fd5b87600460008b815260200190815260200160002060003373ffffffffffffffffffffffffffffffffffffffff1673ffffffffffffffffffffffffffffffffffffffff168152602001908152602001600020908051906020019061062c929190611131565b5060005b885181101561071957600160009054906101000a900473ffffffffffffffffffffffffffffffffffffffff1673ffffffffffffffffffffffffffffffffffffffff166321f0c5518a83815181106106b0577f4e487b7100000000000000000000000000000000000000000000000000000000600052603260045260246000fd5b60200260200101516040518263ffffffff1660e01b81526004016106d491906118e0565b600060405180830381600087803b1580156106ee57600080fd5b505af1158015610702573d6000803e3d6000fd5b50505050808061071190611b2d565b915050610630565b50600360008a8152602001908152602001600020600401339080600181540180825580915050600190039060005260206000200160009091909190916101000a81548173ffffffffffffffffffffffffffffffffffffffff021916908373ffffffffffffffffffffffffffffffffffffffff160217905550600360008a815260200190815260200160002060010154600360008b81526020019081526020016000206004018054905014156107f8576000600360008b815260200190815260200160002060050160006101000a81548160ff0219169083151502179055505b3373ffffffffffffffffffffffffffffffffffffffff167f45c4f9cbafe186141862608c493f28b823fde4c2142bedc3f5169961a73fdd228a60405161083e91906118e0565b60405180910390a2505050505050505050565b610859611065565b73ffffffffffffffffffffffffffffffffffffffff16610877610a63565b73ffffffffffffffffffffffffffffffffffffffff16146108cd576040517f08c379a00000000000000000000000000000000000000000000000000000000081526004016108c4906118c0565b60405180910390fd5b60005b815181101561095b57600060036000848481518110610918577f4e487b7100000000000000000000000000000000000000000000000000000000600052603260045260246000fd5b6020026020010151815260200190815260200160002060050160016101000a81548160ff021916908315150217905550808061095390611b2d565b9150506108d0565b5050565b60036020528060005260406000206000915090508060000154908060010154908060020154908060030154908060050160009054906101000a900460ff16908060050160019054906101000a900460ff16908060050160029054906101000a900473ffffffffffffffffffffffffffffffffffffffff16905087565b6109e3611065565b73ffffffffffffffffffffffffffffffffffffffff16610a01610a63565b73ffffffffffffffffffffffffffffffffffffffff1614610a57576040517f08c379a0000000000000000000000000000000000000000000000000000000008152600401610a4e906118c0565b60405180910390fd5b610a61600061106d565b565b60008060009054906101000a900473ffffffffffffffffffffffffffffffffffffffff16905090565b60606004600084815260200190815260200160002060008373ffffffffffffffffffffffffffffffffffffffff1673ffffffffffffffffffffffffffffffffffffffff168152602001908152602001600020805480602002602001604051908101604052809291908181526020018280548015610b2857602002820191906000526020600020905b815481526020019060010190808311610b14575b5050505050905092915050565b610b3d611065565b73ffffffffffffffffffffffffffffffffffffffff16610b5b610a63565b73ffffffffffffffffffffffffffffffffffffffff1614610bb1576040517f08c379a0000000000000000000000000000000000000000000000000000000008152600401610ba8906118c0565b60405180910390fd5b60405180610100016040528060025481526020018481526020018381526020018281526020018467ffffffffffffffff811115610c17577f4e487b7100000000000000000000000000000000000000000000000000000000600052604160045260246000fd5b604051908082528060200260200182016040528015610c455781602001602082028036833780820191505090505b508152602001600115158152602001600115158152602001600073ffffffffffffffffffffffffffffffffffffffff16815250600360006002548152602001908152602001600020600082015181600001556020820151816001015560408201518160020155606082015181600301556080820151816004019080519060200190610cd192919061117e565b5060a08201518160050160006101000a81548160ff02191690831515021790555060c08201518160050160016101000a81548160ff02191690831515021790555060e08201518160050160026101000a81548173ffffffffffffffffffffffffffffffffffffffff021916908373ffffffffffffffffffffffffffffffffffffffff1602179055509050507f80b55cf2f646df8d85b80ac067c88c4aa6354a860d6cb55c7e234cf23861627f600254848484604051610d9394939291906118fb565b60405180910390a16001600254610daa9190611a8f565b600281905550505050565b606060036000838152602001908152602001600020600401805480602002602001604051908101604052809291908181526020018280548015610e4d57602002820191906000526020600020905b8160009054906101000a900473ffffffffffffffffffffffffffffffffffffffff1673ffffffffffffffffffffffffffffffffffffffff1681526020019060010190808311610e03575b50505050509050919050565b60025481565b610e67611065565b73ffffffffffffffffffffffffffffffffffffffff16610e85610a63565b73ffffffffffffffffffffffffffffffffffffffff1614610edb576040517f08c379a0000000000000000000000000000000000000000000000000000000008152600401610ed2906118c0565b60405180910390fd5b60005b8151811015610f6957600060036000848481518110610f26577f4e487b7100000000000000000000000000000000000000000000000000000000600052603260045260246000fd5b6020026020010151815260200190815260200160002060050160006101000a81548160ff0219169083151502179055508080610f6190611b2d565b915050610ede565b5050565b610f75611065565b73ffffffffffffffffffffffffffffffffffffffff16610f93610a63565b73ffffffffffffffffffffffffffffffffffffffff1614610fe9576040517f08c379a0000000000000000000000000000000000000000000000000000000008152600401610fe0906118c0565b60405180910390fd5b600073ffffffffffffffffffffffffffffffffffffffff168173ffffffffffffffffffffffffffffffffffffffff161415611059576040517f08c379a000000000000000000000000000000000000000000000000000000000815260040161105090611840565b60405180910390fd5b6110628161106d565b50565b600033905090565b60008060009054906101000a900473ffffffffffffffffffffffffffffffffffffffff169050816000806101000a81548173ffffffffffffffffffffffffffffffffffffffff021916908373ffffffffffffffffffffffffffffffffffffffff1602179055508173ffffffffffffffffffffffffffffffffffffffff168173ffffffffffffffffffffffffffffffffffffffff167f8be0079c531659141344cd1fd0a4f28419497f9722a3daafe3b4186f6b6457e060405160405180910390a35050565b82805482825590600052602060002090810192821561116d579160200282015b8281111561116c578251825591602001919060010190611151565b5b50905061117a9190611208565b5090565b8280548282559060005260206000209081019282156111f7579160200282015b828111156111f65782518260006101000a81548173ffffffffffffffffffffffffffffffffffffffff021916908373ffffffffffffffffffffffffffffffffffffffff1602179055509160200191906001019061119e565b5b5090506112049190611208565b5090565b5b80821115611221576000816000905550600101611209565b5090565b6000611238611233846119e0565b6119af565b9050808382526020820190508285602086028201111561125757600080fd5b60005b85811015611287578161126d88826112e5565b84526020840193506020830192505060018101905061125a565b5050509392505050565b6000813590506112a081611bd4565b92915050565b600082601f8301126112b757600080fd5b81356112c7848260208601611225565b91505092915050565b6000815190506112df81611beb565b92915050565b6000813590506112f481611c02565b92915050565b60008151905061130981611c02565b92915050565b60006020828403121561132157600080fd5b600061132f84828501611291565b91505092915050565b60006020828403121561134a57600080fd5b600082013567ffffffffffffffff81111561136457600080fd5b611370848285016112a6565b91505092915050565b60006020828403121561138b57600080fd5b6000611399848285016112e5565b91505092915050565b600080604083850312156113b557600080fd5b60006113c3858286016112e5565b92505060206113d485828601611291565b9150509250929050565b600080604083850312156113f157600080fd5b60006113ff858286016112e5565b925050602083013567ffffffffffffffff81111561141c57600080fd5b611428858286016112a6565b9150509250929050565b60008060006060848603121561144757600080fd5b6000611455868287016112e5565b9350506020611466868287016112e5565b9250506040611477868287016112e5565b9150509250925092565b600080600080600060a0868803121561149957600080fd5b60006114a7888289016112fa565b95505060206114b8888289016112fa565b94505060406114c9888289016112fa565b93505060606114da888289016112fa565b92505060806114eb888289016112d0565b9150509295509295909350565b60006115048383611528565b60208301905092915050565b600061151c83836117c3565b60208301905092915050565b61153181611ae5565b82525050565b61154081611ae5565b82525050565b600061155182611a2c565b61155b8185611a5c565b935061156683611a0c565b8060005b8381101561159757815161157e88826114f8565b975061158983611a42565b92505060018101905061156a565b5085935050505092915050565b60006115af82611a37565b6115b98185611a6d565b93506115c483611a1c565b8060005b838110156115f55781516115dc8882611510565b97506115e783611a4f565b9250506001810190506115c8565b5085935050505092915050565b61160b81611af7565b82525050565b600061161e602683611a7e565b91507f4f776e61626c653a206e6577206f776e657220697320746865207a65726f206160008301527f64647265737300000000000000000000000000000000000000000000000000006020830152604082019050919050565b6000611684601183611a7e565b91507f494e56414c494420454e545259204645450000000000000000000000000000006000830152602082019050919050565b60006116c4603183611a7e565b91507f594f55204841564520454e54455245442041204341524420544841542049532060008301527f414c524541445920494e20412047414d450000000000000000000000000000006020830152604082019050919050565b600061172a602183611a7e565b91507f594f55204841564520414c5245414459204a4f494e454420544849532047414d60008301527f45000000000000000000000000000000000000000000000000000000000000006020830152604082019050919050565b6000611790602083611a7e565b91507f4f776e61626c653a2063616c6c6572206973206e6f7420746865206f776e65726000830152602082019050919050565b6117cc81611b23565b82525050565b6117db81611b23565b82525050565b60006020820190506117f66000830184611537565b92915050565b600060208201905081810360008301526118168184611546565b905092915050565b6000602082019050818103600083015261183881846115a4565b905092915050565b6000602082019050818103600083015261185981611611565b9050919050565b6000602082019050818103600083015261187981611677565b9050919050565b60006020820190508181036000830152611899816116b7565b9050919050565b600060208201905081810360008301526118b98161171d565b9050919050565b600060208201905081810360008301526118d981611783565b9050919050565b60006020820190506118f560008301846117d2565b92915050565b600060808201905061191060008301876117d2565b61191d60208301866117d2565b61192a60408301856117d2565b61193760608301846117d2565b95945050505050565b600060e082019050611955600083018a6117d2565b61196260208301896117d2565b61196f60408301886117d2565b61197c60608301876117d2565b6119896080830186611602565b61199660a0830185611602565b6119a360c0830184611537565b98975050505050505050565b6000604051905081810181811067ffffffffffffffff821117156119d6576119d5611ba5565b5b8060405250919050565b600067ffffffffffffffff8211156119fb576119fa611ba5565b5b602082029050602081019050919050565b6000819050602082019050919050565b6000819050602082019050919050565b600081519050919050565b600081519050919050565b6000602082019050919050565b6000602082019050919050565b600082825260208201905092915050565b600082825260208201905092915050565b600082825260208201905092915050565b6000611a9a82611b23565b9150611aa583611b23565b9250827fffffffffffffffffffffffffffffffffffffffffffffffffffffffffffffffff03821115611ada57611ad9611b76565b5b828201905092915050565b6000611af082611b03565b9050919050565b60008115159050919050565b600073ffffffffffffffffffffffffffffffffffffffff82169050919050565b6000819050919050565b6000611b3882611b23565b91507fffffffffffffffffffffffffffffffffffffffffffffffffffffffffffffffff821415611b6b57611b6a611b76565b5b600182019050919050565b7f4e487b7100000000000000000000000000000000000000000000000000000000600052601160045260246000fd5b7f4e487b7100000000000000000000000000000000000000000000000000000000600052604160045260246000fd5b611bdd81611ae5565b8114611be857600080fd5b50565b611bf481611af7565b8114611bff57600080fd5b50565b611c0b81611b23565b8114611c1657600080fd5b5056fea2646970667358221220414abf7a967d4aad8859c1d4ae8ac0573d41a48330baba67e7b086d49ab6e48864736f6c63430008000033",
  "immutableReferences": {},
  "source": "// SPDX-License-Identifier: UNLICENSED\npragma solidity ^0.8.0;\n\nimport \"@openzeppelin/contracts/access/Ownable.sol\";\n\nabstract contract CardAuction {\n    struct Card {\n        uint cardId;\n        uint playerId;\n        uint attributeHash;\n        uint cardType;\n        bool inUse;\n    }\n\n   function cardIdToCard(uint _cardId) virtual public returns(uint256, uint256, uint256, uint256, bool);\n   function setCardIsInUse(uint _cardId) virtual public;\n}\n\ncontract CardGame is Ownable {\n\n    CardAuction cardAuction;\n    uint public gameId;\n    mapping(uint => Game) public gameIdToGame;\n    mapping(uint => mapping(address => uint[])) gameIdToPlayerCards;\n    mapping(uint => bool) cardIsPlayable;\n\n    constructor(address _auctionAddress) {\n        cardAuction = CardAuction(_auctionAddress);\n    }\n\n    struct Game {\n        uint gameId;\n        uint numberOfPlayers;\n        uint numberOfCardsPerPlayer;\n        uint entryFee;\n        address[] players;\n        bool open;\n        bool active; \n        address winner;\n    }\n\n    struct Card {\n        uint cardId;\n        uint playerId;\n        uint attributeHash;\n        uint cardType;\n        bool inUse;\n    }\n\n    event GameCreated(uint gameId, uint playerCount, uint cardCount, uint entryFee);\n    event GameJoined(uint gameId, address indexed player);\n\n    modifier checkPlayersInGame(uint _gameId, address _player) {\n        bool playerInGame = false;\n        address[] memory players = gameIdToGame[_gameId].players;\n        for(uint i = 0; i < players.length; i++){\n            if(players[i] == _player) {\n                playerInGame = true;\n            }\n        }\n        require(!playerInGame, \"YOU HAVE ALREADY JOINED THIS GAME\");\n        _;\n    }\n\n    modifier checkCardAvailability(uint[] memory _cardIds, address _player) {\n        bool canPlay = true;\n        for(uint i = 0; i < _cardIds.length; i++) {\n            (,,,,bool inUse) = cardAuction.cardIdToCard(_cardIds[i]);\n            if(inUse) {\n                canPlay = false;\n            }\n        }\n        require(canPlay, \"YOU HAVE ENTERED A CARD THAT IS ALREADY IN A GAME\");\n        _;\n    }\n\n    function createGame(uint _playerCount, uint _cardCount, uint _entryFee) external onlyOwner {\n        gameIdToGame[gameId] = Game(gameId, _playerCount, _cardCount, _entryFee, new address[](_playerCount), true, true, address(0));\n        emit GameCreated(gameId, _playerCount, _cardCount, _entryFee);\n        gameId = gameId + 1;\n    }\n\n    function joinGame(uint _gameId, uint[] memory _cardIds) external payable checkPlayersInGame(_gameId, msg.sender) checkCardAvailability(_cardIds, msg.sender) {\n        require(gameIdToGame[_gameId].entryFee == msg.value, \"INVALID ENTRY FEE\");\n\n        gameIdToPlayerCards[_gameId][msg.sender] = _cardIds;\n        for(uint i = 0; i < _cardIds.length; i++) {\n            cardAuction.setCardIsInUse(_cardIds[i]);\n        }\n        gameIdToGame[_gameId].players.push(msg.sender);\n        if(gameIdToGame[_gameId].players.length == gameIdToGame[_gameId].numberOfPlayers) {\n            gameIdToGame[_gameId].open = false;\n        }\n        emit GameJoined(_gameId, msg.sender);\n    }\n\n    function closeGames(uint[] memory _gameIds) external onlyOwner {\n        for(uint i = 0; i < _gameIds.length; i++) {\n            gameIdToGame[_gameIds[i]].open = false;\n        }\n    }\n\n    function endGames(uint[] memory _gameIds) external onlyOwner {\n        for(uint i = 0; i < _gameIds.length; i++) {\n            gameIdToGame[_gameIds[i]].active = false;\n        }\n    }\n\n    function getPlayersByGameId(uint _gameId) external view returns(address[] memory) {\n        return gameIdToGame[_gameId].players;\n    }\n\n    function getCardEntriesByPlayer(uint _gameId, address _user) external view returns(uint[] memory) {\n        return gameIdToPlayerCards[_gameId][_user];\n    }\n}",
  "sourcePath": "/Users/tkma4fr/Development/solidity-app/contracts/card-game.sol",
  "compiler": {
    "name": "solc",
    "version": "0.8.0+commit.c7dfd78e.Emscripten.clang"
  },
  "schemaVersion": "3.4.2",
  "updatedAt": "2021-10-22T15:56:41.538Z",
  "networkType": "ethereum",
  "devdoc": {
    "kind": "dev",
    "methods": {
      "owner()": {
        "details": "Returns the address of the current owner."
      },
      "renounceOwnership()": {
        "details": "Leaves the contract without owner. It will not be possible to call `onlyOwner` functions anymore. Can only be called by the current owner. NOTE: Renouncing ownership will leave the contract without an owner, thereby removing any functionality that is only available to the owner."
      },
      "transferOwnership(address)": {
        "details": "Transfers ownership of the contract to a new account (`newOwner`). Can only be called by the current owner."
      }
    },
    "version": 1
  },
  "userdoc": {
    "kind": "user",
    "methods": {},
    "version": 1
  }
}