{
  "contractName": "CardOwnership",
  "abi": [
    {
      "anonymous": false,
      "inputs": [
        {
          "indexed": true,
          "internalType": "address",
          "name": "_owner",
          "type": "address"
        },
        {
          "indexed": true,
          "internalType": "address",
          "name": "_approved",
          "type": "address"
        },
        {
          "indexed": true,
          "internalType": "uint256",
          "name": "_tokenId",
          "type": "uint256"
        }
      ],
      "name": "Approval",
      "type": "event"
    },
    {
      "anonymous": false,
      "inputs": [
        {
          "indexed": true,
          "internalType": "address",
          "name": "_owner",
          "type": "address"
        },
        {
          "indexed": true,
          "internalType": "address",
          "name": "_operator",
          "type": "address"
        },
        {
          "indexed": false,
          "internalType": "bool",
          "name": "_approved",
          "type": "bool"
        }
      ],
      "name": "ApprovalForAll",
      "type": "event"
    },
    {
      "anonymous": false,
      "inputs": [
        {
          "indexed": false,
          "internalType": "uint256",
          "name": "cardId",
          "type": "uint256"
        },
        {
          "indexed": false,
          "internalType": "uint256",
          "name": "cardType",
          "type": "uint256"
        },
        {
          "indexed": false,
          "internalType": "uint256",
          "name": "playerId",
          "type": "uint256"
        },
        {
          "indexed": false,
          "internalType": "uint256",
          "name": "attributeHash",
          "type": "uint256"
        },
        {
          "indexed": false,
          "internalType": "address",
          "name": "owner",
          "type": "address"
        }
      ],
      "name": "CardCreated",
      "type": "event"
    },
    {
      "anonymous": false,
      "inputs": [
        {
          "indexed": false,
          "internalType": "uint256",
          "name": "playerId",
          "type": "uint256"
        },
        {
          "indexed": false,
          "internalType": "string",
          "name": "name",
          "type": "string"
        }
      ],
      "name": "NewPlayer",
      "type": "event"
    },
    {
      "anonymous": false,
      "inputs": [
        {
          "indexed": true,
          "internalType": "address",
          "name": "previousOwner",
          "type": "address"
        },
        {
          "indexed": true,
          "internalType": "address",
          "name": "newOwner",
          "type": "address"
        }
      ],
      "name": "OwnershipTransferred",
      "type": "event"
    },
    {
      "anonymous": false,
      "inputs": [
        {
          "indexed": true,
          "internalType": "address",
          "name": "_from",
          "type": "address"
        },
        {
          "indexed": true,
          "internalType": "address",
          "name": "_to",
          "type": "address"
        },
        {
          "indexed": true,
          "internalType": "uint256",
          "name": "_tokenId",
          "type": "uint256"
        }
      ],
      "name": "Transfer",
      "type": "event"
    },
    {
      "inputs": [
        {
          "internalType": "uint256",
          "name": "",
          "type": "uint256"
        }
      ],
      "name": "cardIdToOwner",
      "outputs": [
        {
          "internalType": "address",
          "name": "",
          "type": "address"
        }
      ],
      "stateMutability": "view",
      "type": "function",
      "constant": true
    },
    {
      "inputs": [
        {
          "internalType": "uint256",
          "name": "",
          "type": "uint256"
        }
      ],
      "name": "cards",
      "outputs": [
        {
          "internalType": "uint256",
          "name": "cardId",
          "type": "uint256"
        },
        {
          "internalType": "uint256",
          "name": "playerId",
          "type": "uint256"
        },
        {
          "internalType": "uint256",
          "name": "attributeHash",
          "type": "uint256"
        },
        {
          "internalType": "uint256",
          "name": "cardType",
          "type": "uint256"
        }
      ],
      "stateMutability": "view",
      "type": "function",
      "constant": true
    },
    {
      "inputs": [
        {
          "internalType": "string",
          "name": "_name",
          "type": "string"
        },
        {
          "internalType": "uint8",
          "name": "_teamId",
          "type": "uint8"
        },
        {
          "internalType": "uint8",
          "name": "_position",
          "type": "uint8"
        },
        {
          "internalType": "uint16",
          "name": "_season",
          "type": "uint16"
        }
      ],
      "name": "createPlayer",
      "outputs": [],
      "stateMutability": "nonpayable",
      "type": "function"
    },
    {
      "inputs": [
        {
          "internalType": "address",
          "name": "",
          "type": "address"
        }
      ],
      "name": "existingUser",
      "outputs": [
        {
          "internalType": "bool",
          "name": "",
          "type": "bool"
        }
      ],
      "stateMutability": "view",
      "type": "function",
      "constant": true
    },
    {
      "inputs": [],
      "name": "owner",
      "outputs": [
        {
          "internalType": "address",
          "name": "",
          "type": "address"
        }
      ],
      "stateMutability": "view",
      "type": "function",
      "constant": true
    },
    {
      "inputs": [
        {
          "internalType": "address",
          "name": "",
          "type": "address"
        }
      ],
      "name": "ownerCardCount",
      "outputs": [
        {
          "internalType": "uint256",
          "name": "",
          "type": "uint256"
        }
      ],
      "stateMutability": "view",
      "type": "function",
      "constant": true
    },
    {
      "inputs": [
        {
          "internalType": "uint256",
          "name": "",
          "type": "uint256"
        }
      ],
      "name": "playerIdToPlayer",
      "outputs": [
        {
          "internalType": "string",
          "name": "name",
          "type": "string"
        },
        {
          "internalType": "uint8",
          "name": "teamId",
          "type": "uint8"
        },
        {
          "internalType": "uint8",
          "name": "position",
          "type": "uint8"
        },
        {
          "internalType": "uint16",
          "name": "season",
          "type": "uint16"
        }
      ],
      "stateMutability": "view",
      "type": "function",
      "constant": true
    },
    {
      "inputs": [
        {
          "internalType": "uint256",
          "name": "",
          "type": "uint256"
        }
      ],
      "name": "players",
      "outputs": [
        {
          "internalType": "string",
          "name": "name",
          "type": "string"
        },
        {
          "internalType": "uint8",
          "name": "teamId",
          "type": "uint8"
        },
        {
          "internalType": "uint8",
          "name": "position",
          "type": "uint8"
        },
        {
          "internalType": "uint16",
          "name": "season",
          "type": "uint16"
        }
      ],
      "stateMutability": "view",
      "type": "function",
      "constant": true
    },
    {
      "inputs": [],
      "name": "purchaseCardPack",
      "outputs": [],
      "stateMutability": "payable",
      "type": "function",
      "payable": true
    },
    {
      "inputs": [],
      "name": "renounceOwnership",
      "outputs": [],
      "stateMutability": "nonpayable",
      "type": "function"
    },
    {
      "inputs": [
        {
          "internalType": "uint256",
          "name": "_fee",
          "type": "uint256"
        }
      ],
      "name": "setCardPackFee",
      "outputs": [],
      "stateMutability": "nonpayable",
      "type": "function"
    },
    {
      "inputs": [
        {
          "internalType": "uint256",
          "name": "_quantity",
          "type": "uint256"
        }
      ],
      "name": "setCardPackQuantity",
      "outputs": [],
      "stateMutability": "nonpayable",
      "type": "function"
    },
    {
      "inputs": [
        {
          "internalType": "uint256",
          "name": "_newOdds",
          "type": "uint256"
        }
      ],
      "name": "setExotixCardOdds",
      "outputs": [],
      "stateMutability": "nonpayable",
      "type": "function"
    },
    {
      "inputs": [
        {
          "internalType": "uint256",
          "name": "_newOdds",
          "type": "uint256"
        }
      ],
      "name": "setLegendaryCardOdds",
      "outputs": [],
      "stateMutability": "nonpayable",
      "type": "function"
    },
    {
      "inputs": [
        {
          "internalType": "uint256",
          "name": "_newOdds",
          "type": "uint256"
        }
      ],
      "name": "setRareCardOdds",
      "outputs": [],
      "stateMutability": "nonpayable",
      "type": "function"
    },
    {
      "inputs": [
        {
          "internalType": "uint256",
          "name": "_count",
          "type": "uint256"
        }
      ],
      "name": "setTotalPlayers",
      "outputs": [],
      "stateMutability": "nonpayable",
      "type": "function"
    },
    {
      "inputs": [
        {
          "internalType": "address",
          "name": "newOwner",
          "type": "address"
        }
      ],
      "name": "transferOwnership",
      "outputs": [],
      "stateMutability": "nonpayable",
      "type": "function"
    },
    {
      "inputs": [
        {
          "internalType": "address",
          "name": "_owner",
          "type": "address"
        }
      ],
      "name": "balanceOf",
      "outputs": [
        {
          "internalType": "uint256",
          "name": "",
          "type": "uint256"
        }
      ],
      "stateMutability": "view",
      "type": "function",
      "constant": true
    },
    {
      "inputs": [
        {
          "internalType": "uint256",
          "name": "_tokenId",
          "type": "uint256"
        }
      ],
      "name": "ownerOf",
      "outputs": [
        {
          "internalType": "address",
          "name": "",
          "type": "address"
        }
      ],
      "stateMutability": "view",
      "type": "function",
      "constant": true
    },
    {
      "inputs": [
        {
          "internalType": "address",
          "name": "_from",
          "type": "address"
        },
        {
          "internalType": "address",
          "name": "_to",
          "type": "address"
        },
        {
          "internalType": "uint256",
          "name": "_tokenId",
          "type": "uint256"
        }
      ],
      "name": "safeTransferFrom",
      "outputs": [],
      "stateMutability": "payable",
      "type": "function",
      "payable": true
    },
    {
      "inputs": [
        {
          "internalType": "address",
          "name": "_from",
          "type": "address"
        },
        {
          "internalType": "address",
          "name": "_to",
          "type": "address"
        },
        {
          "internalType": "uint256",
          "name": "_tokenId",
          "type": "uint256"
        },
        {
          "internalType": "bytes",
          "name": "_data",
          "type": "bytes"
        }
      ],
      "name": "safeTransferFrom",
      "outputs": [],
      "stateMutability": "payable",
      "type": "function",
      "payable": true
    },
    {
      "inputs": [
        {
          "internalType": "address",
          "name": "_from",
          "type": "address"
        },
        {
          "internalType": "address",
          "name": "_to",
          "type": "address"
        },
        {
          "internalType": "uint256",
          "name": "_tokenId",
          "type": "uint256"
        }
      ],
      "name": "transferFrom",
      "outputs": [],
      "stateMutability": "payable",
      "type": "function",
      "payable": true
    },
    {
      "inputs": [
        {
          "internalType": "address",
          "name": "_approved",
          "type": "address"
        },
        {
          "internalType": "uint256",
          "name": "_tokenId",
          "type": "uint256"
        }
      ],
      "name": "approve",
      "outputs": [],
      "stateMutability": "payable",
      "type": "function",
      "payable": true
    },
    {
      "inputs": [
        {
          "internalType": "address",
          "name": "_operator",
          "type": "address"
        },
        {
          "internalType": "bool",
          "name": "_approved",
          "type": "bool"
        }
      ],
      "name": "setApprovalForAll",
      "outputs": [],
      "stateMutability": "nonpayable",
      "type": "function"
    },
    {
      "inputs": [
        {
          "internalType": "uint256",
          "name": "_tokenId",
          "type": "uint256"
        }
      ],
      "name": "getApproved",
      "outputs": [
        {
          "internalType": "address",
          "name": "",
          "type": "address"
        }
      ],
      "stateMutability": "view",
      "type": "function",
      "constant": true
    },
    {
      "inputs": [
        {
          "internalType": "address",
          "name": "_owner",
          "type": "address"
        },
        {
          "internalType": "address",
          "name": "_operator",
          "type": "address"
        }
      ],
      "name": "isApprovedForAll",
      "outputs": [
        {
          "internalType": "bool",
          "name": "",
          "type": "bool"
        }
      ],
      "stateMutability": "view",
      "type": "function",
      "constant": true
    },
    {
      "inputs": [
        {
          "internalType": "address",
          "name": "_to",
          "type": "address"
        },
        {
          "internalType": "uint256",
          "name": "_playerId",
          "type": "uint256"
        },
        {
          "internalType": "uint256",
          "name": "_type",
          "type": "uint256"
        },
        {
          "internalType": "uint256",
          "name": "_attributes",
          "type": "uint256"
        }
      ],
      "name": "mintCustomCard",
      "outputs": [],
      "stateMutability": "nonpayable",
      "type": "function"
    }
  ],
  "bytecode": "0x60806040526000600455600060055560bd6006556611c37937e08000600955600a80556003600b556019600c556064600d553480156200003e57600080fd5b506200005f620000536200006560201b60201c565b6200006d60201b60201c565b62000131565b600033905090565b60008060009054906101000a900473ffffffffffffffffffffffffffffffffffffffff169050816000806101000a81548173ffffffffffffffffffffffffffffffffffffffff021916908373ffffffffffffffffffffffffffffffffffffffff1602179055508173ffffffffffffffffffffffffffffffffffffffff168173ffffffffffffffffffffffffffffffffffffffff167f8be0079c531659141344cd1fd0a4f28419497f9722a3daafe3b4186f6b6457e060405160405180910390a35050565b6133c980620001416000396000f3fe60806040526004361061019c5760003560e01c8063804c4b25116100ec578063b780acc51161008a578063e25d13a811610064578063e25d13a814610593578063e985e9c5146105bc578063f2fde38b146105f9578063f71d96cb146106225761019c565b8063b780acc514610525578063b88d4fde1461054e578063c75f384b1461056a5761019c565b80638dc10768116100c65780638dc107681461043f578063a22cb4651461047f578063a3d2065f146104a8578063b53794c9146104e55761019c565b8063804c4b25146103ae578063828c730c146103eb5780638da5cb5b146104145761019c565b80634199414011610159578063552788da11610133578063552788da146102f45780636352211e1461031d57806370a082311461035a578063715018a6146103975761019c565b8063419941401461027257806342842e0e146102af5780634ccf0174146102cb5761019c565b8063081812fc146101a1578063095ea7b3146101de57806323b872dd146101fa5780632cfae8d31461021657806336185bdf1461022057806341845a1414610249575b600080fd5b3480156101ad57600080fd5b506101c860048036038101906101c391906129b5565b610662565b6040516101d59190612d15565b60405180910390f35b6101f860048036038101906101f39190612872565b610744565b005b610214600480360381019061020f9190612767565b610a3f565b005b61021e610c61565b005b34801561022c57600080fd5b50610247600480360381019061024291906129b5565b610caf565b005b34801561025557600080fd5b50610270600480360381019061026b91906129b5565b610d35565b005b34801561027e57600080fd5b50610299600480360381019061029491906129b5565b610dbb565b6040516102a69190612d15565b60405180910390f35b6102c960048036038101906102c49190612767565b610dee565b005b3480156102d757600080fd5b506102f260048036038101906102ed919061293a565b610e0e565b005b34801561030057600080fd5b5061031b600480360381019061031691906129b5565b61105a565b005b34801561032957600080fd5b50610344600480360381019061033f91906129b5565b6110e0565b6040516103519190612d15565b60405180910390f35b34801561036657600080fd5b50610381600480360381019061037c9190612702565b61111d565b60405161038e9190612ee3565b60405180910390f35b3480156103a357600080fd5b506103ac611166565b005b3480156103ba57600080fd5b506103d560048036038101906103d09190612702565b6111ee565b6040516103e29190612ee3565b60405180910390f35b3480156103f757600080fd5b50610412600480360381019061040d91906128ae565b611206565b005b34801561042057600080fd5b506104296112b7565b6040516104369190612d15565b60405180910390f35b34801561044b57600080fd5b50610466600480360381019061046191906129b5565b6112e0565b6040516104769493929190612f2e565b60405180910390f35b34801561048b57600080fd5b506104a660048036038101906104a19190612836565b611320565b005b3480156104b457600080fd5b506104cf60048036038101906104ca9190612702565b61141d565b6040516104dc9190612d7c565b60405180910390f35b3480156104f157600080fd5b5061050c600480360381019061050791906129b5565b61143d565b60405161051c9493929190612d97565b60405180910390f35b34801561053157600080fd5b5061054c600480360381019061054791906129b5565b61151d565b005b610568600480360381019061056391906127b6565b6115a3565b005b34801561057657600080fd5b50610591600480360381019061058c91906129b5565b6115fa565b005b34801561059f57600080fd5b506105ba60048036038101906105b591906129b5565b611680565b005b3480156105c857600080fd5b506105e360048036038101906105de919061272b565b611706565b6040516105f09190612d7c565b60405180910390f35b34801561060557600080fd5b50610620600480360381019061061b9190612702565b61179a565b005b34801561062e57600080fd5b50610649600480360381019061064491906129b5565b611892565b6040516106599493929190612d97565b60405180910390f35b600081600073ffffffffffffffffffffffffffffffffffffffff166008600083815260200190815260200160002060009054906101000a900473ffffffffffffffffffffffffffffffffffffffff1673ffffffffffffffffffffffffffffffffffffffff161415610708576040517f08c379a00000000000000000000000000000000000000000000000000000000081526004016106ff90612e03565b60405180910390fd5b6010600084815260200190815260200160002060009054906101000a900473ffffffffffffffffffffffffffffffffffffffff16915050919050565b8060006008600083815260200190815260200160002060009054906101000a900473ffffffffffffffffffffffffffffffffffffffff1690503373ffffffffffffffffffffffffffffffffffffffff168173ffffffffffffffffffffffffffffffffffffffff16148061083d5750601160008273ffffffffffffffffffffffffffffffffffffffff1673ffffffffffffffffffffffffffffffffffffffff16815260200190815260200160002060003373ffffffffffffffffffffffffffffffffffffffff1673ffffffffffffffffffffffffffffffffffffffff16815260200190815260200160002060009054906101000a900460ff165b61084657600080fd5b82600073ffffffffffffffffffffffffffffffffffffffff166008600083815260200190815260200160002060009054906101000a900473ffffffffffffffffffffffffffffffffffffffff1673ffffffffffffffffffffffffffffffffffffffff1614156108ea576040517f08c379a00000000000000000000000000000000000000000000000000000000081526004016108e190612e03565b60405180910390fd5b6008600085815260200190815260200160002060009054906101000a900473ffffffffffffffffffffffffffffffffffffffff1673ffffffffffffffffffffffffffffffffffffffff163373ffffffffffffffffffffffffffffffffffffffff161461098b576040517f08c379a000000000000000000000000000000000000000000000000000000000815260040161098290612ec3565b60405180910390fd5b846010600086815260200190815260200160002060006101000a81548173ffffffffffffffffffffffffffffffffffffffff021916908373ffffffffffffffffffffffffffffffffffffffff160217905550838573ffffffffffffffffffffffffffffffffffffffff163373ffffffffffffffffffffffffffffffffffffffff167f8c5be1e5ebec7d5bd14f71427d1e84f3dd0314c0f7b2291e5b200ac8c7c3b92560405160405180910390a45050505050565b8060006008600083815260200190815260200160002060009054906101000a900473ffffffffffffffffffffffffffffffffffffffff1690503373ffffffffffffffffffffffffffffffffffffffff168173ffffffffffffffffffffffffffffffffffffffff161480610b1057503373ffffffffffffffffffffffffffffffffffffffff166010600084815260200190815260200160002060009054906101000a900473ffffffffffffffffffffffffffffffffffffffff1673ffffffffffffffffffffffffffffffffffffffff16145b80610ba15750601160008273ffffffffffffffffffffffffffffffffffffffff1673ffffffffffffffffffffffffffffffffffffffff16815260200190815260200160002060003373ffffffffffffffffffffffffffffffffffffffff1673ffffffffffffffffffffffffffffffffffffffff16815260200190815260200160002060009054906101000a900460ff165b610baa57600080fd5b82600073ffffffffffffffffffffffffffffffffffffffff166008600083815260200190815260200160002060009054906101000a900473ffffffffffffffffffffffffffffffffffffffff1673ffffffffffffffffffffffffffffffffffffffff161415610c4e576040517f08c379a0000000000000000000000000000000000000000000000000000000008152600401610c4590612e03565b60405180910390fd5b610c59868686611982565b505050505050565b6009543414610ca5576040517f08c379a0000000000000000000000000000000000000000000000000000000008152600401610c9c90612e23565b60405180910390fd5b610cad611a6a565b565b610cb7611b3b565b73ffffffffffffffffffffffffffffffffffffffff16610cd56112b7565b73ffffffffffffffffffffffffffffffffffffffff1614610d2b576040517f08c379a0000000000000000000000000000000000000000000000000000000008152600401610d2290612e83565b60405180910390fd5b80600c8190555050565b610d3d611b3b565b73ffffffffffffffffffffffffffffffffffffffff16610d5b6112b7565b73ffffffffffffffffffffffffffffffffffffffff1614610db1576040517f08c379a0000000000000000000000000000000000000000000000000000000008152600401610da890612e83565b60405180910390fd5b80600b8190555050565b60086020528060005260406000206000915054906101000a900473ffffffffffffffffffffffffffffffffffffffff1681565b610e0983838360405180602001604052806000815250611b43565b505050565b610e16611b3b565b73ffffffffffffffffffffffffffffffffffffffff16610e346112b7565b73ffffffffffffffffffffffffffffffffffffffff1614610e8a576040517f08c379a0000000000000000000000000000000000000000000000000000000008152600401610e8190612e83565b60405180910390fd5b600060405180608001604052808681526020018560ff1681526020018460ff1681526020018361ffff16815250905060028190806001815401808255809150506001900390600052602060002090600202016000909190919091506000820151816000019080519060200190610f0192919061252f565b5060208201518160010160006101000a81548160ff021916908360ff16021790555060408201518160010160016101000a81548160ff021916908360ff16021790555060608201518160010160026101000a81548161ffff021916908361ffff1602179055505050806003600060015481526020019081526020016000206000820151816000019080519060200190610f9b92919061252f565b5060208201518160010160006101000a81548160ff021916908360ff16021790555060408201518160010160016101000a81548160ff021916908360ff16021790555060608201518160010160026101000a81548161ffff021916908361ffff1602179055509050507fc617f3fbc3f6a35c0509a5f01fb4907e9c6e94cff260c3fe739bafd93cf2240560015486604051611037929190612efe565b60405180910390a16001805461104d919061305f565b6001819055505050505050565b611062611b3b565b73ffffffffffffffffffffffffffffffffffffffff166110806112b7565b73ffffffffffffffffffffffffffffffffffffffff16146110d6576040517f08c379a00000000000000000000000000000000000000000000000000000000081526004016110cd90612e83565b60405180910390fd5b8060098190555050565b60006008600083815260200190815260200160002060009054906101000a900473ffffffffffffffffffffffffffffffffffffffff169050919050565b6000600e60008373ffffffffffffffffffffffffffffffffffffffff1673ffffffffffffffffffffffffffffffffffffffff168152602001908152602001600020549050919050565b61116e611b3b565b73ffffffffffffffffffffffffffffffffffffffff1661118c6112b7565b73ffffffffffffffffffffffffffffffffffffffff16146111e2576040517f08c379a00000000000000000000000000000000000000000000000000000000081526004016111d990612e83565b60405180910390fd5b6111ec6000611f18565b565b600e6020528060005260406000206000915090505481565b61120e611b3b565b73ffffffffffffffffffffffffffffffffffffffff1661122c6112b7565b73ffffffffffffffffffffffffffffffffffffffff1614611282576040517f08c379a000000000000000000000000000000000000000000000000000000000815260040161127990612e83565b60405180910390fd5b600061128f848484611fdc565b905061129b85826120a8565b60016004546112aa919061305f565b6004819055505050505050565b60008060009054906101000a900473ffffffffffffffffffffffffffffffffffffffff16905090565b600781815481106112f057600080fd5b90600052602060002090600402016000915090508060000154908060010154908060020154908060030154905084565b80601160003373ffffffffffffffffffffffffffffffffffffffff1673ffffffffffffffffffffffffffffffffffffffff16815260200190815260200160002060008473ffffffffffffffffffffffffffffffffffffffff1673ffffffffffffffffffffffffffffffffffffffff16815260200190815260200160002060006101000a81548160ff0219169083151502179055508173ffffffffffffffffffffffffffffffffffffffff163373ffffffffffffffffffffffffffffffffffffffff167f17307eab39ab6107e8899845ad3d59bd9653f200f220920489ca2b5937696c31836040516114119190612d7c565b60405180910390a35050565b600f6020528060005260406000206000915054906101000a900460ff1681565b600360205280600052604060002060009150905080600001805461146090613186565b80601f016020809104026020016040519081016040528092919081815260200182805461148c90613186565b80156114d95780601f106114ae576101008083540402835291602001916114d9565b820191906000526020600020905b8154815290600101906020018083116114bc57829003601f168201915b5050505050908060010160009054906101000a900460ff16908060010160019054906101000a900460ff16908060010160029054906101000a900461ffff16905084565b611525611b3b565b73ffffffffffffffffffffffffffffffffffffffff166115436112b7565b73ffffffffffffffffffffffffffffffffffffffff1614611599576040517f08c379a000000000000000000000000000000000000000000000000000000000815260040161159090612e83565b60405180910390fd5b8060068190555050565b6115f385858585858080601f016020809104026020016040519081016040528093929190818152602001838380828437600081840152601f19601f82011690508083019250505050505050611b43565b5050505050565b611602611b3b565b73ffffffffffffffffffffffffffffffffffffffff166116206112b7565b73ffffffffffffffffffffffffffffffffffffffff1614611676576040517f08c379a000000000000000000000000000000000000000000000000000000000815260040161166d90612e83565b60405180910390fd5b80600d8190555050565b611688611b3b565b73ffffffffffffffffffffffffffffffffffffffff166116a66112b7565b73ffffffffffffffffffffffffffffffffffffffff16146116fc576040517f08c379a00000000000000000000000000000000000000000000000000000000081526004016116f390612e83565b60405180910390fd5b80600a8190555050565b6000601160008473ffffffffffffffffffffffffffffffffffffffff1673ffffffffffffffffffffffffffffffffffffffff16815260200190815260200160002060008373ffffffffffffffffffffffffffffffffffffffff1673ffffffffffffffffffffffffffffffffffffffff16815260200190815260200160002060009054906101000a900460ff16905092915050565b6117a2611b3b565b73ffffffffffffffffffffffffffffffffffffffff166117c06112b7565b73ffffffffffffffffffffffffffffffffffffffff1614611816576040517f08c379a000000000000000000000000000000000000000000000000000000000815260040161180d90612e83565b60405180910390fd5b600073ffffffffffffffffffffffffffffffffffffffff168173ffffffffffffffffffffffffffffffffffffffff161415611886576040517f08c379a000000000000000000000000000000000000000000000000000000000815260040161187d90612de3565b60405180910390fd5b61188f81611f18565b50565b600281815481106118a257600080fd5b90600052602060002090600202016000915090508060000180546118c590613186565b80601f01602080910402602001604051908101604052809291908181526020018280546118f190613186565b801561193e5780601f106119135761010080835404028352916020019161193e565b820191906000526020600020905b81548152906001019060200180831161192157829003601f168201915b5050505050908060010160009054906101000a900460ff16908060010160019054906101000a900460ff16908060010160029054906101000a900461ffff16905084565b6010600082815260200190815260200160002060006101000a81549073ffffffffffffffffffffffffffffffffffffffff0219169055816008600083815260200190815260200160002060006101000a81548173ffffffffffffffffffffffffffffffffffffffff021916908373ffffffffffffffffffffffffffffffffffffffff160217905550808273ffffffffffffffffffffffffffffffffffffffff168473ffffffffffffffffffffffffffffffffffffffff167fddf252ad1be2c89b69c2b068fc378daa952ba7f163c4a11628f55a4df523b3ef60405160405180910390a4505050565b6000611a7a600d5482600361229f565b9050611a8a600c5482600261229f565b9050611a9a600b5482600161229f565b9050611aa881600a54612314565b600a54600e60003373ffffffffffffffffffffffffffffffffffffffff1673ffffffffffffffffffffffffffffffffffffffff16815260200190815260200160002054611af5919061305f565b600e60003373ffffffffffffffffffffffffffffffffffffffff1673ffffffffffffffffffffffffffffffffffffffff1681526020019081526020016000208190555050565b600033905090565b8160006008600083815260200190815260200160002060009054906101000a900473ffffffffffffffffffffffffffffffffffffffff1690503373ffffffffffffffffffffffffffffffffffffffff168173ffffffffffffffffffffffffffffffffffffffff161480611c1457503373ffffffffffffffffffffffffffffffffffffffff166010600084815260200190815260200160002060009054906101000a900473ffffffffffffffffffffffffffffffffffffffff1673ffffffffffffffffffffffffffffffffffffffff16145b80611ca55750601160008273ffffffffffffffffffffffffffffffffffffffff1673ffffffffffffffffffffffffffffffffffffffff16815260200190815260200160002060003373ffffffffffffffffffffffffffffffffffffffff1673ffffffffffffffffffffffffffffffffffffffff16815260200190815260200160002060009054906101000a900460ff165b611cae57600080fd5b83600073ffffffffffffffffffffffffffffffffffffffff166008600083815260200190815260200160002060009054906101000a900473ffffffffffffffffffffffffffffffffffffffff1673ffffffffffffffffffffffffffffffffffffffff161415611d52576040517f08c379a0000000000000000000000000000000000000000000000000000000008152600401611d4990612e03565b60405180910390fd5b600073ffffffffffffffffffffffffffffffffffffffff168673ffffffffffffffffffffffffffffffffffffffff161415611dc2576040517f08c379a0000000000000000000000000000000000000000000000000000000008152600401611db990612ea3565b60405180910390fd5b611dcd878787611982565b611dec8673ffffffffffffffffffffffffffffffffffffffff16612374565b15611f0f5760008673ffffffffffffffffffffffffffffffffffffffff1663150b7a02338a89896040518563ffffffff1660e01b8152600401611e329493929190612d30565b602060405180830381600087803b158015611e4c57600080fd5b505af1158015611e60573d6000803e3d6000fd5b505050506040513d601f19601f82011682018060405250810190611e849190612911565b905063150b7a0260e01b7bffffffffffffffffffffffffffffffffffffffffffffffffffffffff1916817bffffffffffffffffffffffffffffffffffffffffffffffffffffffff191614611f0d576040517f08c379a0000000000000000000000000000000000000000000000000000000008152600401611f0490612e63565b60405180910390fd5b505b50505050505050565b60008060009054906101000a900473ffffffffffffffffffffffffffffffffffffffff169050816000806101000a81548173ffffffffffffffffffffffffffffffffffffffff021916908373ffffffffffffffffffffffffffffffffffffffff1602179055508173ffffffffffffffffffffffffffffffffffffffff168173ffffffffffffffffffffffffffffffffffffffff167f8be0079c531659141344cd1fd0a4f28419497f9722a3daafe3b4186f6b6457e060405160405180910390a35050565b6000806040518060800160405280600454815260200186815260200184815260200185815250905060078190806001815401808255809150506001900390600052602060002090600402016000909190919091506000820151816000015560208201518160010155604082015181600201556060820151816003015550507fa47f2b648fe6fee6023b9227628b751649f165f204c8a6e75d3146aca5b1b8a660045485878633604051612093959493929190612f73565b60405180910390a16004549150509392505050565b600073ffffffffffffffffffffffffffffffffffffffff168273ffffffffffffffffffffffffffffffffffffffff161415612118576040517f08c379a000000000000000000000000000000000000000000000000000000000815260040161210f90612ea3565b60405180910390fd5b600073ffffffffffffffffffffffffffffffffffffffff166008600083815260200190815260200160002060009054906101000a900473ffffffffffffffffffffffffffffffffffffffff1673ffffffffffffffffffffffffffffffffffffffff16146121ba576040517f08c379a00000000000000000000000000000000000000000000000000000000081526004016121b190612e43565b60405180910390fd5b816008600083815260200190815260200160002060006101000a81548173ffffffffffffffffffffffffffffffffffffffff021916908373ffffffffffffffffffffffffffffffffffffffff1602179055506001600e60008473ffffffffffffffffffffffffffffffffffffffff1673ffffffffffffffffffffffffffffffffffffffff16815260200190815260200160002054612258919061305f565b600e60008473ffffffffffffffffffffffffffffffffffffffff1673ffffffffffffffffffffffffffffffffffffffff168152602001908152602001600020819055505050565b6000808390506000856122b06123bf565b6122ba919061320b565b14156123095760006006546122cd6123bf565b6122d7919061320b565b905060016005546122e8919061305f565b6005819055506122f881856123f6565b600185612305919061305f565b9150505b809150509392505050565b60008290505b8181101561236f57600060065461232f6123bf565b612339919061320b565b9050600160055461234a919061305f565b60058190555061235b8160006123f6565b508080612367906131b8565b91505061231a565b505050565b60008060007fc5d2460186f7233c927e7db2dcc703c0e500b653ca82273b7bfad8045d85a47060001b9050833f91506000801b82141580156123b65750808214155b92505050919050565b600044426005546040516020016123d893929190612cd8565b6040516020818303038152906040528051906020012060001c905090565b60006124006123bf565b905060006040518060800160405280600454815260200185815260200183815260200184815250905060078190806001815401808255809150506001900390600052602060002090600402016000909190919091506000820151816000015560208201518160010155604082015181600201556060820151816003015550507fa47f2b648fe6fee6023b9227628b751649f165f204c8a6e75d3146aca5b1b8a6600454848685336040516124b8959493929190612f73565b60405180910390a13360086000600454815260200190815260200160002060006101000a81548173ffffffffffffffffffffffffffffffffffffffff021916908373ffffffffffffffffffffffffffffffffffffffff1602179055506001600454612523919061305f565b60048190555050505050565b82805461253b90613186565b90600052602060002090601f01602090048101928261255d57600085556125a4565b82601f1061257657805160ff19168380011785556125a4565b828001600101855582156125a4579182015b828111156125a3578251825591602001919060010190612588565b5b5090506125b191906125b5565b5090565b5b808211156125ce5760008160009055506001016125b6565b5090565b60006125e56125e084612ff7565b612fc6565b9050828152602081018484840111156125fd57600080fd5b612608848285613144565b509392505050565b60008135905061261f81613309565b92915050565b60008135905061263481613320565b92915050565b60008151905061264981613337565b92915050565b60008083601f84011261266157600080fd5b8235905067ffffffffffffffff81111561267a57600080fd5b60208301915083600182028301111561269257600080fd5b9250929050565b600082601f8301126126aa57600080fd5b81356126ba8482602086016125d2565b91505092915050565b6000813590506126d28161334e565b92915050565b6000813590506126e781613365565b92915050565b6000813590506126fc8161337c565b92915050565b60006020828403121561271457600080fd5b600061272284828501612610565b91505092915050565b6000806040838503121561273e57600080fd5b600061274c85828601612610565b925050602061275d85828601612610565b9150509250929050565b60008060006060848603121561277c57600080fd5b600061278a86828701612610565b935050602061279b86828701612610565b92505060406127ac868287016126d8565b9150509250925092565b6000806000806000608086880312156127ce57600080fd5b60006127dc88828901612610565b95505060206127ed88828901612610565b94505060406127fe888289016126d8565b935050606086013567ffffffffffffffff81111561281b57600080fd5b6128278882890161264f565b92509250509295509295909350565b6000806040838503121561284957600080fd5b600061285785828601612610565b925050602061286885828601612625565b9150509250929050565b6000806040838503121561288557600080fd5b600061289385828601612610565b92505060206128a4858286016126d8565b9150509250929050565b600080600080608085870312156128c457600080fd5b60006128d287828801612610565b94505060206128e3878288016126d8565b93505060406128f4878288016126d8565b9250506060612905878288016126d8565b91505092959194509250565b60006020828403121561292357600080fd5b60006129318482850161263a565b91505092915050565b6000806000806080858703121561295057600080fd5b600085013567ffffffffffffffff81111561296a57600080fd5b61297687828801612699565b9450506020612987878288016126ed565b9350506040612998878288016126ed565b92505060606129a9878288016126c3565b91505092959194509250565b6000602082840312156129c757600080fd5b60006129d5848285016126d8565b91505092915050565b6129e7816130b5565b82525050565b6129f6816130c7565b82525050565b6000612a0782613027565b612a11818561303d565b9350612a21818560208601613153565b612a2a816132f8565b840191505092915050565b6000612a4082613032565b612a4a818561304e565b9350612a5a818560208601613153565b612a63816132f8565b840191505092915050565b6000612a7b60268361304e565b91507f4f776e61626c653a206e6577206f776e657220697320746865207a65726f206160008301527f64647265737300000000000000000000000000000000000000000000000000006020830152604082019050919050565b6000612ae1600c8361304e565b91507f494e56414c4944204341524400000000000000000000000000000000000000006000830152602082019050919050565b6000612b2160208361304e565b91507f56414c55452053454e54204e4f5420455155414c20544f2043415244204645456000830152602082019050919050565b6000612b6160138361304e565b91507f4341524420414c524541445920455849535453000000000000000000000000006000830152602082019050919050565b6000612ba160128361304e565b91507f43414e4e4f542052454345495645204e465400000000000000000000000000006000830152602082019050919050565b6000612be160208361304e565b91507f4f776e61626c653a2063616c6c6572206973206e6f7420746865206f776e65726000830152602082019050919050565b6000612c21600c8361304e565b91507f5a45524f204144445245535300000000000000000000000000000000000000006000830152602082019050919050565b6000612c6160178361304e565b91507f4e4f542043555252454e5420544f4b454e204f574e45520000000000000000006000830152602082019050919050565b612c9d816130ff565b82525050565b612cac8161312d565b82525050565b612cc3612cbe8261312d565b613201565b82525050565b612cd281613137565b82525050565b6000612ce48286612cb2565b602082019150612cf48285612cb2565b602082019150612d048284612cb2565b602082019150819050949350505050565b6000602082019050612d2a60008301846129de565b92915050565b6000608082019050612d4560008301876129de565b612d5260208301866129de565b612d5f6040830185612ca3565b8181036060830152612d7181846129fc565b905095945050505050565b6000602082019050612d9160008301846129ed565b92915050565b60006080820190508181036000830152612db18187612a35565b9050612dc06020830186612cc9565b612dcd6040830185612cc9565b612dda6060830184612c94565b95945050505050565b60006020820190508181036000830152612dfc81612a6e565b9050919050565b60006020820190508181036000830152612e1c81612ad4565b9050919050565b60006020820190508181036000830152612e3c81612b14565b9050919050565b60006020820190508181036000830152612e5c81612b54565b9050919050565b60006020820190508181036000830152612e7c81612b94565b9050919050565b60006020820190508181036000830152612e9c81612bd4565b9050919050565b60006020820190508181036000830152612ebc81612c14565b9050919050565b60006020820190508181036000830152612edc81612c54565b9050919050565b6000602082019050612ef86000830184612ca3565b92915050565b6000604082019050612f136000830185612ca3565b8181036020830152612f258184612a35565b90509392505050565b6000608082019050612f436000830187612ca3565b612f506020830186612ca3565b612f5d6040830185612ca3565b612f6a6060830184612ca3565b95945050505050565b600060a082019050612f886000830188612ca3565b612f956020830187612ca3565b612fa26040830186612ca3565b612faf6060830185612ca3565b612fbc60808301846129de565b9695505050505050565b6000604051905081810181811067ffffffffffffffff82111715612fed57612fec6132c9565b5b8060405250919050565b600067ffffffffffffffff821115613012576130116132c9565b5b601f19601f8301169050602081019050919050565b600081519050919050565b600081519050919050565b600082825260208201905092915050565b600082825260208201905092915050565b600061306a8261312d565b91506130758361312d565b9250827fffffffffffffffffffffffffffffffffffffffffffffffffffffffffffffffff038211156130aa576130a961323c565b5b828201905092915050565b60006130c08261310d565b9050919050565b60008115159050919050565b60007fffffffff0000000000000000000000000000000000000000000000000000000082169050919050565b600061ffff82169050919050565b600073ffffffffffffffffffffffffffffffffffffffff82169050919050565b6000819050919050565b600060ff82169050919050565b82818337600083830152505050565b60005b83811015613171578082015181840152602081019050613156565b83811115613180576000848401525b50505050565b6000600282049050600182168061319e57607f821691505b602082108114156131b2576131b161329a565b5b50919050565b60006131c38261312d565b91507fffffffffffffffffffffffffffffffffffffffffffffffffffffffffffffffff8214156131f6576131f561323c565b5b600182019050919050565b6000819050919050565b60006132168261312d565b91506132218361312d565b9250826132315761323061326b565b5b828206905092915050565b7f4e487b7100000000000000000000000000000000000000000000000000000000600052601160045260246000fd5b7f4e487b7100000000000000000000000000000000000000000000000000000000600052601260045260246000fd5b7f4e487b7100000000000000000000000000000000000000000000000000000000600052602260045260246000fd5b7f4e487b7100000000000000000000000000000000000000000000000000000000600052604160045260246000fd5b6000601f19601f8301169050919050565b613312816130b5565b811461331d57600080fd5b50565b613329816130c7565b811461333457600080fd5b50565b613340816130d3565b811461334b57600080fd5b50565b613357816130ff565b811461336257600080fd5b50565b61336e8161312d565b811461337957600080fd5b50565b61338581613137565b811461339057600080fd5b5056fea2646970667358221220c81a81a10f889bebf75d51d9c522fbffbeb622afd5776af76f93cb04d616cd7f64736f6c63430008000033",
  "immutableReferences": {},
  "source": "// SPDX-License-Identifier: UNLICENSED\npragma solidity ^0.8.0;\n\nimport \"./card-pack-factory.sol\";\nimport \"./erc721.sol\";\nimport \"../utils/address-utils.sol\";\nimport \"./erc721-token-receiver.sol\";\n\ncontract CardOwnership is CardPackFactory, ERC721 {\n\n    using AddressUtils for address;\n\n    bytes4 internal constant MAGIC_ON_ERC721_RECEIVED = 0x150b7a02;\n\n    mapping (uint256 => address) internal idToApproval;\n    mapping (address => mapping (address => bool)) internal ownerToOperators;\n\n    modifier canOperate(uint256 _tokenId) {\n        address owner = cardIdToOwner[_tokenId];\n        require(owner == msg.sender || ownerToOperators[owner][msg.sender]);\n        _;\n    }\n\n    modifier canTransfer(uint256 _tokenId) {\n        address owner = cardIdToOwner[_tokenId];\n        require(owner == msg.sender || idToApproval[_tokenId] == msg.sender || ownerToOperators[owner][msg.sender]);\n        _;\n    }\n\n    modifier isValidCard(uint _cardId) {\n        require(cardIdToOwner[_cardId] != address(0), \"INVALID CARD\");\n        _;\n    }\n\n    function balanceOf(address _owner) external override view returns(uint) {\n        return ownerCardCount[_owner];\n    }\n\n    function ownerOf(uint _tokenId) external override view returns(address) {\n        return cardIdToOwner[_tokenId];\n    }\n\n    function safeTransferFrom(address _from, address _to, uint256 _tokenId) external payable override {\n        _safeTransferFrom(_from, _to, _tokenId, \"\");\n    }\n\n    function safeTransferFrom(address _from, address _to, uint256 _tokenId, bytes calldata _data) external payable override {\n        _safeTransferFrom(_from, _to, _tokenId, _data);\n    }\n\n    function transferFrom(address _from, address _to, uint256 _tokenId) external payable override canTransfer(_tokenId) isValidCard(_tokenId) {\n        _transfer(_from, _to, _tokenId);\n    }\n\n    function approve(address _approved, uint256 _tokenId) external payable override canOperate(_tokenId) isValidCard(_tokenId) {\n        require(msg.sender == cardIdToOwner[_tokenId], \"NOT CURRENT TOKEN OWNER\");\n        idToApproval[_tokenId] = _approved;\n        emit Approval(msg.sender, _approved, _tokenId);\n    }\n\n    function setApprovalForAll(address _operator, bool _approved) external override {\n        ownerToOperators[msg.sender][_operator] = _approved;\n        emit ApprovalForAll(msg.sender, _operator, _approved);\n    }\n\n    function getApproved(uint256 _tokenId) external override view isValidCard(_tokenId) returns(address) {\n        return idToApproval[_tokenId];\n    }\n\n    function isApprovedForAll(address _owner, address _operator) external override view returns(bool) {\n        return ownerToOperators[_owner][_operator];\n    }\n\n    function _transfer(address _from, address _to, uint256 _tokenId) private {\n        delete idToApproval[_tokenId];\n        cardIdToOwner[_tokenId] = _to;\n        emit Transfer(_from, _to, _tokenId);\n    }\n\n    function _safeTransferFrom(address _from, address _to, uint256 _tokenId, bytes memory _data) private canTransfer(_tokenId) isValidCard(_tokenId) {\n        require(_to != address(0), \"ZERO ADDRESS\");\n        _transfer(_from, _to, _tokenId);\n        if(_to.isContract()) {\n            bytes4 retval = ERC721TokenReceiver(_to).onERC721Received(msg.sender, _from, _tokenId, _data);\n            require(retval == MAGIC_ON_ERC721_RECEIVED, \"CANNOT RECEIVE NFT\");\n        }\n    }\n\n    function mintCustomCard(address _to, uint _playerId, uint _type, uint _attributes) external onlyOwner {\n        uint tokenId = createCustomCard(_playerId, _type, _attributes);\n        _mint(_to, tokenId);\n        _tokenId = _tokenId + 1;\n    }\n\n    function _mint(address _to, uint256 _tokenId) internal {\n        require(_to != address(0), \"ZERO ADDRESS\");\n        require(cardIdToOwner[_tokenId] == address(0), \"CARD ALREADY EXISTS\");\n\n        cardIdToOwner[_tokenId] = _to;\n        ownerCardCount[_to] = ownerCardCount[_to] + 1;\n    }\n    \n}",
  "sourcePath": "/Users/tkma4fr/Development/solidity-app/contracts/card-ownership.sol",
  "compiler": {
    "name": "solc",
    "version": "0.8.0+commit.c7dfd78e.Emscripten.clang"
  },
  "schemaVersion": "3.4.2",
  "updatedAt": "2021-09-30T01:05:58.921Z",
  "networkType": "ethereum",
  "devdoc": {
    "kind": "dev",
    "methods": {
      "approve(address,uint256)": {
        "details": "The zero address indicates there is no approved address.  Throws unless `msg.sender` is the current NFT owner, or an authorized  operator of the current owner.",
        "params": {
          "_approved": "The new approved NFT controller",
          "_tokenId": "The NFT to approve"
        }
      },
      "balanceOf(address)": {
        "details": "NFTs assigned to the zero address are considered invalid, and this  function throws for queries about the zero address.",
        "params": {
          "_owner": "An address for whom to query the balance"
        },
        "returns": {
          "_0": "The number of NFTs owned by `_owner`, possibly zero"
        }
      },
      "getApproved(uint256)": {
        "details": "Throws if `_tokenId` is not a valid NFT.",
        "params": {
          "_tokenId": "The NFT to find the approved address for"
        },
        "returns": {
          "_0": "The approved address for this NFT, or the zero address if there is none"
        }
      },
      "isApprovedForAll(address,address)": {
        "params": {
          "_operator": "The address that acts on behalf of the owner",
          "_owner": "The address that owns the NFTs"
        },
        "returns": {
          "_0": "True if `_operator` is an approved operator for `_owner`, false otherwise"
        }
      },
      "owner()": {
        "details": "Returns the address of the current owner."
      },
      "ownerOf(uint256)": {
        "details": "NFTs assigned to zero address are considered invalid, and queries  about them do throw.",
        "params": {
          "_tokenId": "The identifier for an NFT"
        },
        "returns": {
          "_0": "The address of the owner of the NFT"
        }
      },
      "renounceOwnership()": {
        "details": "Leaves the contract without owner. It will not be possible to call `onlyOwner` functions anymore. Can only be called by the current owner. NOTE: Renouncing ownership will leave the contract without an owner, thereby removing any functionality that is only available to the owner."
      },
      "safeTransferFrom(address,address,uint256)": {
        "details": "This works identically to the other function with an extra data parameter,  except this function just sets data to \"\".",
        "params": {
          "_from": "The current owner of the NFT",
          "_to": "The new owner",
          "_tokenId": "The NFT to transfer"
        }
      },
      "setApprovalForAll(address,bool)": {
        "details": "Emits the ApprovalForAll event. The contract MUST allow  multiple operators per owner.",
        "params": {
          "_approved": "True if the operator is approved, false to revoke approval",
          "_operator": "Address to add to the set of authorized operators"
        }
      },
      "transferFrom(address,address,uint256)": {
        "details": "Throws unless `msg.sender` is the current owner, an authorized  operator, or the approved address for this NFT. Throws if `_from` is  not the current owner. Throws if `_to` is the zero address. Throws if  `_tokenId` is not a valid NFT.",
        "params": {
          "_from": "The current owner of the NFT",
          "_to": "The new owner",
          "_tokenId": "The NFT to transfer"
        }
      },
      "transferOwnership(address)": {
        "details": "Transfers ownership of the contract to a new account (`newOwner`). Can only be called by the current owner."
      }
    },
    "version": 1
  },
  "userdoc": {
    "kind": "user",
    "methods": {
      "approve(address,uint256)": {
        "notice": "Change or reaffirm the approved address for an NFT"
      },
      "balanceOf(address)": {
        "notice": "Count all NFTs assigned to an owner"
      },
      "getApproved(uint256)": {
        "notice": "Get the approved address for a single NFT"
      },
      "isApprovedForAll(address,address)": {
        "notice": "Query if an address is an authorized operator for another address"
      },
      "ownerOf(uint256)": {
        "notice": "Find the owner of an NFT"
      },
      "safeTransferFrom(address,address,uint256)": {
        "notice": "Transfers the ownership of an NFT from one address to another address"
      },
      "setApprovalForAll(address,bool)": {
        "notice": "Enable or disable approval for a third party (\"operator\") to manage  all of `msg.sender`'s assets"
      },
      "transferFrom(address,address,uint256)": {
        "notice": "Transfer ownership of an NFT -- THE CALLER IS RESPONSIBLE  TO CONFIRM THAT `_to` IS CAPABLE OF RECEIVING NFTS OR ELSE  THEY MAY BE PERMANENTLY LOST"
      }
    },
    "version": 1
  }
}