{
  "contractName": "CardGame",
  "abi": [
    {
      "inputs": [
        {
          "internalType": "address",
          "name": "_auctionAddress",
          "type": "address"
        }
      ],
      "stateMutability": "nonpayable",
      "type": "constructor"
    },
    {
      "anonymous": false,
      "inputs": [
        {
          "indexed": false,
          "internalType": "uint256",
          "name": "gameId",
          "type": "uint256"
        },
        {
          "indexed": false,
          "internalType": "uint256",
          "name": "playerCount",
          "type": "uint256"
        },
        {
          "indexed": false,
          "internalType": "uint256",
          "name": "cardCount",
          "type": "uint256"
        },
        {
          "indexed": false,
          "internalType": "uint256",
          "name": "entryFee",
          "type": "uint256"
        }
      ],
      "name": "GameCreated",
      "type": "event"
    },
    {
      "anonymous": false,
      "inputs": [
        {
          "indexed": false,
          "internalType": "uint256",
          "name": "gameId",
          "type": "uint256"
        },
        {
          "indexed": true,
          "internalType": "address",
          "name": "winner",
          "type": "address"
        },
        {
          "indexed": false,
          "internalType": "uint256",
          "name": "prize",
          "type": "uint256"
        }
      ],
      "name": "GameEnded",
      "type": "event"
    },
    {
      "anonymous": false,
      "inputs": [
        {
          "indexed": false,
          "internalType": "uint256",
          "name": "gameId",
          "type": "uint256"
        },
        {
          "indexed": true,
          "internalType": "address",
          "name": "player",
          "type": "address"
        }
      ],
      "name": "GameJoined",
      "type": "event"
    },
    {
      "anonymous": false,
      "inputs": [
        {
          "indexed": true,
          "internalType": "address",
          "name": "previousOwner",
          "type": "address"
        },
        {
          "indexed": true,
          "internalType": "address",
          "name": "newOwner",
          "type": "address"
        }
      ],
      "name": "OwnershipTransferred",
      "type": "event"
    },
    {
      "inputs": [],
      "name": "gameId",
      "outputs": [
        {
          "internalType": "uint256",
          "name": "",
          "type": "uint256"
        }
      ],
      "stateMutability": "view",
      "type": "function",
      "constant": true
    },
    {
      "inputs": [
        {
          "internalType": "uint256",
          "name": "",
          "type": "uint256"
        }
      ],
      "name": "gameIdToGame",
      "outputs": [
        {
          "internalType": "uint256",
          "name": "gameId",
          "type": "uint256"
        },
        {
          "internalType": "uint256",
          "name": "numberOfPlayers",
          "type": "uint256"
        },
        {
          "internalType": "uint256",
          "name": "numberOfCardsPerPlayer",
          "type": "uint256"
        },
        {
          "internalType": "uint256",
          "name": "entryFee",
          "type": "uint256"
        },
        {
          "internalType": "uint256",
          "name": "playerCount",
          "type": "uint256"
        },
        {
          "internalType": "uint256",
          "name": "week",
          "type": "uint256"
        },
        {
          "internalType": "bool",
          "name": "active",
          "type": "bool"
        },
        {
          "internalType": "address",
          "name": "winner",
          "type": "address"
        }
      ],
      "stateMutability": "view",
      "type": "function",
      "constant": true
    },
    {
      "inputs": [],
      "name": "owner",
      "outputs": [
        {
          "internalType": "address",
          "name": "",
          "type": "address"
        }
      ],
      "stateMutability": "view",
      "type": "function",
      "constant": true
    },
    {
      "inputs": [],
      "name": "renounceOwnership",
      "outputs": [],
      "stateMutability": "nonpayable",
      "type": "function"
    },
    {
      "inputs": [
        {
          "internalType": "address",
          "name": "newOwner",
          "type": "address"
        }
      ],
      "name": "transferOwnership",
      "outputs": [],
      "stateMutability": "nonpayable",
      "type": "function"
    },
    {
      "inputs": [
        {
          "internalType": "uint256",
          "name": "_playerCount",
          "type": "uint256"
        },
        {
          "internalType": "uint256",
          "name": "_cardCount",
          "type": "uint256"
        },
        {
          "internalType": "uint256",
          "name": "_entryFee",
          "type": "uint256"
        },
        {
          "internalType": "uint256",
          "name": "_week",
          "type": "uint256"
        }
      ],
      "name": "createGame",
      "outputs": [],
      "stateMutability": "nonpayable",
      "type": "function"
    },
    {
      "inputs": [
        {
          "internalType": "uint256",
          "name": "_gameId",
          "type": "uint256"
        },
        {
          "internalType": "uint256[]",
          "name": "_cardIds",
          "type": "uint256[]"
        },
        {
          "internalType": "string",
          "name": "_secret",
          "type": "string"
        }
      ],
      "name": "joinGame",
      "outputs": [],
      "stateMutability": "payable",
      "type": "function",
      "payable": true
    },
    {
      "inputs": [
        {
          "internalType": "uint256[]",
          "name": "_gameIds",
          "type": "uint256[]"
        },
        {
          "internalType": "address[]",
          "name": "_winners",
          "type": "address[]"
        }
      ],
      "name": "endGames",
      "outputs": [],
      "stateMutability": "nonpayable",
      "type": "function"
    },
    {
      "inputs": [
        {
          "internalType": "uint256",
          "name": "_gameId",
          "type": "uint256"
        }
      ],
      "name": "getPlayersByGameId",
      "outputs": [
        {
          "internalType": "address[]",
          "name": "",
          "type": "address[]"
        }
      ],
      "stateMutability": "view",
      "type": "function",
      "constant": true
    },
    {
      "inputs": [
        {
          "internalType": "uint256",
          "name": "_gameId",
          "type": "uint256"
        },
        {
          "internalType": "address",
          "name": "_user",
          "type": "address"
        }
      ],
      "name": "getCardEntriesByPlayer",
      "outputs": [
        {
          "internalType": "uint256[]",
          "name": "",
          "type": "uint256[]"
        }
      ],
      "stateMutability": "view",
      "type": "function",
      "constant": true
    },
    {
      "inputs": [
        {
          "internalType": "string",
          "name": "_secret",
          "type": "string"
        }
      ],
      "name": "setSecret",
      "outputs": [],
      "stateMutability": "nonpayable",
      "type": "function"
    }
  ],
  "bytecode": "0x60806040523480156200001157600080fd5b50604051620027ae380380620027ae833981810160405281019062000037919062000182565b620000576200004b6200009f60201b60201c565b620000a760201b60201c565b80600160006101000a81548173ffffffffffffffffffffffffffffffffffffffff021916908373ffffffffffffffffffffffffffffffffffffffff16021790555050620001fc565b600033905090565b60008060009054906101000a900473ffffffffffffffffffffffffffffffffffffffff169050816000806101000a81548173ffffffffffffffffffffffffffffffffffffffff021916908373ffffffffffffffffffffffffffffffffffffffff1602179055508173ffffffffffffffffffffffffffffffffffffffff168173ffffffffffffffffffffffffffffffffffffffff167f8be0079c531659141344cd1fd0a4f28419497f9722a3daafe3b4186f6b6457e060405160405180910390a35050565b6000815190506200017c81620001e2565b92915050565b6000602082840312156200019557600080fd5b6000620001a5848285016200016b565b91505092915050565b6000620001bb82620001c2565b9050919050565b600073ffffffffffffffffffffffffffffffffffffffff82169050919050565b620001ed81620001ae565b8114620001f957600080fd5b50565b6125a2806200020c6000396000f3fe60806040526004361061009c5760003560e01c8063b3df526811610064578063b3df52681461016c578063bdaae1e7146101a9578063c44d503d146101d2578063d7c81b551461020f578063f2fde38b1461023a578063f54622e0146102635761009c565b806333f70f38146100a15780633727dbf9146100bd578063715018a6146101015780637ed6c926146101185780638da5cb5b14610141575b600080fd5b6100bb60048036038101906100b69190611938565b61028c565b005b3480156100c957600080fd5b506100e460048036038101906100df91906118d3565b6108df565b6040516100f89897969594939291906120a0565b60405180910390f35b34801561010d57600080fd5b50610116610954565b005b34801561012457600080fd5b5061013f600480360381019061013a9190611892565b6109dc565b005b34801561014d57600080fd5b50610156610a72565b6040516101639190611ed8565b60405180910390f35b34801561017857600080fd5b50610193600480360381019061018e91906118fc565b610a9b565b6040516101a09190611f15565b60405180910390f35b3480156101b557600080fd5b506101d060048036038101906101cb91906119b7565b610b44565b005b3480156101de57600080fd5b506101f960048036038101906101f491906118d3565b610dbe565b6040516102069190611ef3565b60405180910390f35b34801561021b57600080fd5b50610224610e62565b6040516102319190612017565b60405180910390f35b34801561024657600080fd5b50610261600480360381019061025c91906117fd565b610e68565b005b34801561026f57600080fd5b5061028a60048036038101906102859190611826565b610f60565b005b82336000806004600085815260200190815260200160002060060180548060200260200160405190810160405280929190818152602001828054801561032757602002820191906000526020600020905b8160009054906101000a900473ffffffffffffffffffffffffffffffffffffffff1673ffffffffffffffffffffffffffffffffffffffff16815260200190600101908083116102dd575b5050505050905060005b81518110156103c6578373ffffffffffffffffffffffffffffffffffffffff1682828151811061038a577f4e487b7100000000000000000000000000000000000000000000000000000000600052603260045260246000fd5b602002602001015173ffffffffffffffffffffffffffffffffffffffff1614156103b357600192505b80806103be90612422565b915050610331565b508115610408576040517f08c379a00000000000000000000000000000000000000000000000000000000081526004016103ff90611fb7565b60405180910390fd5b853360006001905060005b8351811015610530576000600160009054906101000a900473ffffffffffffffffffffffffffffffffffffffff1673ffffffffffffffffffffffffffffffffffffffff1663a0dd6b34868481518110610495577f4e487b7100000000000000000000000000000000000000000000000000000000600052603260045260246000fd5b60200260200101516040518263ffffffff1660e01b81526004016104b99190612017565b60a060405180830381600087803b1580156104d357600080fd5b505af11580156104e7573d6000803e3d6000fd5b505050506040513d601f19601f8201168201806040525081019061050b9190611a1a565b945050505050801561051c57600092505b50808061052890612422565b915050610413565b5080610571576040517f08c379a000000000000000000000000000000000000000000000000000000000815260040161056890611f97565b60405180910390fd5b34600460008c815260200190815260200160002060030154146105c9576040517f08c379a00000000000000000000000000000000000000000000000000000000081526004016105c090611f57565b60405180910390fd5b6105d288611376565b610611576040517f08c379a000000000000000000000000000000000000000000000000000000000815260040161060890611ff7565b60405180910390fd5b600460008b815260200190815260200160002060010154600460008c8152602001908152602001600020600401541061067f576040517f08c379a000000000000000000000000000000000000000000000000000000000815260040161067690611f77565b60405180910390fd5b88600560008c815260200190815260200160002060003373ffffffffffffffffffffffffffffffffffffffff1673ffffffffffffffffffffffffffffffffffffffff16815260200190815260200160002090805190602001906106e392919061149b565b5060005b89518110156107d057600160009054906101000a900473ffffffffffffffffffffffffffffffffffffffff1673ffffffffffffffffffffffffffffffffffffffff166321f0c5518b8381518110610767577f4e487b7100000000000000000000000000000000000000000000000000000000600052603260045260246000fd5b60200260200101516040518263ffffffff1660e01b815260040161078b9190612017565b600060405180830381600087803b1580156107a557600080fd5b505af11580156107b9573d6000803e3d6000fd5b5050505080806107c890612422565b9150506106e7565b506001600460008c8152602001908152602001600020600401546107f49190612285565b600460008c815260200190815260200160002060040181905550600460008b8152602001908152602001600020600601339080600181540180825580915050600190039060005260206000200160009091909190916101000a81548173ffffffffffffffffffffffffffffffffffffffff021916908373ffffffffffffffffffffffffffffffffffffffff1602179055503373ffffffffffffffffffffffffffffffffffffffff167f45c4f9cbafe186141862608c493f28b823fde4c2142bedc3f5169961a73fdd228b6040516108cb9190612017565b60405180910390a250505050505050505050565b60046020528060005260406000206000915090508060000154908060010154908060020154908060030154908060040154908060050154908060070160009054906101000a900460ff16908060070160019054906101000a900473ffffffffffffffffffffffffffffffffffffffff16905088565b61095c6113cf565b73ffffffffffffffffffffffffffffffffffffffff1661097a610a72565b73ffffffffffffffffffffffffffffffffffffffff16146109d0576040517f08c379a00000000000000000000000000000000000000000000000000000000081526004016109c790611fd7565b60405180910390fd5b6109da60006113d7565b565b6109e46113cf565b73ffffffffffffffffffffffffffffffffffffffff16610a02610a72565b73ffffffffffffffffffffffffffffffffffffffff1614610a58576040517f08c379a0000000000000000000000000000000000000000000000000000000008152600401610a4f90611fd7565b60405180910390fd5b8060039080519060200190610a6e9291906114e8565b5050565b60008060009054906101000a900473ffffffffffffffffffffffffffffffffffffffff16905090565b60606005600084815260200190815260200160002060008373ffffffffffffffffffffffffffffffffffffffff1673ffffffffffffffffffffffffffffffffffffffff168152602001908152602001600020805480602002602001604051908101604052809291908181526020018280548015610b3757602002820191906000526020600020905b815481526020019060010190808311610b23575b5050505050905092915050565b610b4c6113cf565b73ffffffffffffffffffffffffffffffffffffffff16610b6a610a72565b73ffffffffffffffffffffffffffffffffffffffff1614610bc0576040517f08c379a0000000000000000000000000000000000000000000000000000000008152600401610bb790611fd7565b60405180910390fd5b6040518061012001604052806002548152602001858152602001848152602001838152602001600081526020018281526020018567ffffffffffffffff811115610c33577f4e487b7100000000000000000000000000000000000000000000000000000000600052604160045260246000fd5b604051908082528060200260200182016040528015610c615781602001602082028036833780820191505090505b508152602001600115158152602001600073ffffffffffffffffffffffffffffffffffffffff16815250600460006002548152602001908152602001600020600082015181600001556020820151816001015560408201518160020155606082015181600301556080820151816004015560a0820151816005015560c0820151816006019080519060200190610cf892919061156e565b5060e08201518160070160006101000a81548160ff0219169083151502179055506101008201518160070160016101000a81548173ffffffffffffffffffffffffffffffffffffffff021916908373ffffffffffffffffffffffffffffffffffffffff1602179055509050507f80b55cf2f646df8d85b80ac067c88c4aa6354a860d6cb55c7e234cf23861627f600254858585604051610d9b949392919061205b565b60405180910390a16001600254610db29190612285565b60028190555050505050565b606060046000838152602001908152602001600020600601805480602002602001604051908101604052809291908181526020018280548015610e5657602002820191906000526020600020905b8160009054906101000a900473ffffffffffffffffffffffffffffffffffffffff1673ffffffffffffffffffffffffffffffffffffffff1681526020019060010190808311610e0c575b50505050509050919050565b60025481565b610e706113cf565b73ffffffffffffffffffffffffffffffffffffffff16610e8e610a72565b73ffffffffffffffffffffffffffffffffffffffff1614610ee4576040517f08c379a0000000000000000000000000000000000000000000000000000000008152600401610edb90611fd7565b60405180910390fd5b600073ffffffffffffffffffffffffffffffffffffffff168173ffffffffffffffffffffffffffffffffffffffff161415610f54576040517f08c379a0000000000000000000000000000000000000000000000000000000008152600401610f4b90611f37565b60405180910390fd5b610f5d816113d7565b50565b610f686113cf565b73ffffffffffffffffffffffffffffffffffffffff16610f86610a72565b73ffffffffffffffffffffffffffffffffffffffff1614610fdc576040517f08c379a0000000000000000000000000000000000000000000000000000000008152600401610fd390611fd7565b60405180910390fd5b60005b825181101561137157600060046000858481518110611027577f4e487b7100000000000000000000000000000000000000000000000000000000600052603260045260246000fd5b6020026020010151815260200190815260200160002060070160006101000a81548160ff021916908315150217905550818181518110611090577f4e487b7100000000000000000000000000000000000000000000000000000000600052603260045260246000fd5b6020026020010151600460008584815181106110d5577f4e487b7100000000000000000000000000000000000000000000000000000000600052603260045260246000fd5b6020026020010151815260200190815260200160002060070160016101000a81548173ffffffffffffffffffffffffffffffffffffffff021916908373ffffffffffffffffffffffffffffffffffffffff1602179055506000828281518110611167577f4e487b7100000000000000000000000000000000000000000000000000000000600052603260045260246000fd5b602002602001015190506000600a6009600460008887815181106111b4577f4e487b7100000000000000000000000000000000000000000000000000000000600052603260045260246000fd5b60200260200101518152602001908152602001600020600401546111d8919061230c565b6111e291906122db565b6004600087868151811061121f577f4e487b7100000000000000000000000000000000000000000000000000000000600052603260045260246000fd5b6020026020010151815260200190815260200160002060030154611243919061230c565b90508173ffffffffffffffffffffffffffffffffffffffff166108fc829081150290604051600060405180830381858888f1935050505015801561128b573d6000803e3d6000fd5b508383815181106112c5577f4e487b7100000000000000000000000000000000000000000000000000000000600052603260045260246000fd5b602002602001015173ffffffffffffffffffffffffffffffffffffffff167ff1898de79c348962fab7695532341027e5bceb0ea2a8785790fa7d7efeeee12986858151811061133d577f4e487b7100000000000000000000000000000000000000000000000000000000600052603260045260246000fd5b602002602001015183604051611354929190612032565b60405180910390a25050808061136990612422565b915050610fdf565b505050565b6000600360405160200161138a9190611ec1565b60405160208183030381529060405280519060200120826040516020016113b19190611eaa565b60405160208183030381529060405280519060200120149050919050565b600033905090565b60008060009054906101000a900473ffffffffffffffffffffffffffffffffffffffff169050816000806101000a81548173ffffffffffffffffffffffffffffffffffffffff021916908373ffffffffffffffffffffffffffffffffffffffff1602179055508173ffffffffffffffffffffffffffffffffffffffff168173ffffffffffffffffffffffffffffffffffffffff167f8be0079c531659141344cd1fd0a4f28419497f9722a3daafe3b4186f6b6457e060405160405180910390a35050565b8280548282559060005260206000209081019282156114d7579160200282015b828111156114d65782518255916020019190600101906114bb565b5b5090506114e491906115f8565b5090565b8280546114f4906123f0565b90600052602060002090601f016020900481019282611516576000855561155d565b82601f1061152f57805160ff191683800117855561155d565b8280016001018555821561155d579182015b8281111561155c578251825591602001919060010190611541565b5b50905061156a91906115f8565b5090565b8280548282559060005260206000209081019282156115e7579160200282015b828111156115e65782518260006101000a81548173ffffffffffffffffffffffffffffffffffffffff021916908373ffffffffffffffffffffffffffffffffffffffff1602179055509160200191906001019061158e565b5b5090506115f491906115f8565b5090565b5b808211156116115760008160009055506001016115f9565b5090565b60006116286116238461214f565b61211e565b9050808382526020820190508285602086028201111561164757600080fd5b60005b85811015611677578161165d888261172b565b84526020840193506020830192505060018101905061164a565b5050509392505050565b600061169461168f8461217b565b61211e565b905080838252602082019050828560208602820111156116b357600080fd5b60005b858110156116e357816116c988826117d3565b8452602084019350602083019250506001810190506116b6565b5050509392505050565b60006117006116fb846121a7565b61211e565b90508281526020810184848401111561171857600080fd5b6117238482856123ae565b509392505050565b60008135905061173a81612527565b92915050565b600082601f83011261175157600080fd5b8135611761848260208601611615565b91505092915050565b600082601f83011261177b57600080fd5b813561178b848260208601611681565b91505092915050565b6000815190506117a38161253e565b92915050565b600082601f8301126117ba57600080fd5b81356117ca8482602086016116ed565b91505092915050565b6000813590506117e281612555565b92915050565b6000815190506117f781612555565b92915050565b60006020828403121561180f57600080fd5b600061181d8482850161172b565b91505092915050565b6000806040838503121561183957600080fd5b600083013567ffffffffffffffff81111561185357600080fd5b61185f8582860161176a565b925050602083013567ffffffffffffffff81111561187c57600080fd5b61188885828601611740565b9150509250929050565b6000602082840312156118a457600080fd5b600082013567ffffffffffffffff8111156118be57600080fd5b6118ca848285016117a9565b91505092915050565b6000602082840312156118e557600080fd5b60006118f3848285016117d3565b91505092915050565b6000806040838503121561190f57600080fd5b600061191d858286016117d3565b925050602061192e8582860161172b565b9150509250929050565b60008060006060848603121561194d57600080fd5b600061195b868287016117d3565b935050602084013567ffffffffffffffff81111561197857600080fd5b6119848682870161176a565b925050604084013567ffffffffffffffff8111156119a157600080fd5b6119ad868287016117a9565b9150509250925092565b600080600080608085870312156119cd57600080fd5b60006119db878288016117d3565b94505060206119ec878288016117d3565b93505060406119fd878288016117d3565b9250506060611a0e878288016117d3565b91505092959194509250565b600080600080600060a08688031215611a3257600080fd5b6000611a40888289016117e8565b9550506020611a51888289016117e8565b9450506040611a62888289016117e8565b9350506060611a73888289016117e8565b9250506080611a8488828901611794565b9150509295509295909350565b6000611a9d8383611ac1565b60208301905092915050565b6000611ab58383611e8c565b60208301905092915050565b611aca81612366565b82525050565b611ad981612366565b82525050565b6000611aea8261220c565b611af48185612247565b9350611aff836121d7565b8060005b83811015611b30578151611b178882611a91565b9750611b228361222d565b925050600181019050611b03565b5085935050505092915050565b6000611b4882612217565b611b528185612258565b9350611b5d836121e7565b8060005b83811015611b8e578151611b758882611aa9565b9750611b808361223a565b925050600181019050611b61565b5085935050505092915050565b611ba481612378565b82525050565b6000611bb582612222565b611bbf818561227a565b9350611bcf8185602086016123bd565b80840191505092915050565b60008154611be8816123f0565b611bf2818661227a565b94506001821660008114611c0d5760018114611c1e57611c51565b60ff19831686528186019350611c51565b611c27856121f7565b60005b83811015611c4957815481890152600182019150602081019050611c2a565b838801955050505b50505092915050565b6000611c67602683612269565b91507f4f776e61626c653a206e6577206f776e657220697320746865207a65726f206160008301527f64647265737300000000000000000000000000000000000000000000000000006020830152604082019050919050565b6000611ccd601183612269565b91507f494e56414c494420454e545259204645450000000000000000000000000000006000830152602082019050919050565b6000611d0d600c83612269565b91507f47414d452049532046554c4c00000000000000000000000000000000000000006000830152602082019050919050565b6000611d4d603183612269565b91507f594f55204841564520454e54455245442041204341524420544841542049532060008301527f414c524541445920494e20412047414d450000000000000000000000000000006020830152604082019050919050565b6000611db3602183612269565b91507f594f55204841564520414c5245414459204a4f494e454420544849532047414d60008301527f45000000000000000000000000000000000000000000000000000000000000006020830152604082019050919050565b6000611e19602083612269565b91507f4f776e61626c653a2063616c6c6572206973206e6f7420746865206f776e65726000830152602082019050919050565b6000611e59601e83612269565b91507f494e56414c494420534543524554205553454420494e205245515545535400006000830152602082019050919050565b611e95816123a4565b82525050565b611ea4816123a4565b82525050565b6000611eb68284611baa565b915081905092915050565b6000611ecd8284611bdb565b915081905092915050565b6000602082019050611eed6000830184611ad0565b92915050565b60006020820190508181036000830152611f0d8184611adf565b905092915050565b60006020820190508181036000830152611f2f8184611b3d565b905092915050565b60006020820190508181036000830152611f5081611c5a565b9050919050565b60006020820190508181036000830152611f7081611cc0565b9050919050565b60006020820190508181036000830152611f9081611d00565b9050919050565b60006020820190508181036000830152611fb081611d40565b9050919050565b60006020820190508181036000830152611fd081611da6565b9050919050565b60006020820190508181036000830152611ff081611e0c565b9050919050565b6000602082019050818103600083015261201081611e4c565b9050919050565b600060208201905061202c6000830184611e9b565b92915050565b60006040820190506120476000830185611e9b565b6120546020830184611e9b565b9392505050565b60006080820190506120706000830187611e9b565b61207d6020830186611e9b565b61208a6040830185611e9b565b6120976060830184611e9b565b95945050505050565b6000610100820190506120b6600083018b611e9b565b6120c3602083018a611e9b565b6120d06040830189611e9b565b6120dd6060830188611e9b565b6120ea6080830187611e9b565b6120f760a0830186611e9b565b61210460c0830185611b9b565b61211160e0830184611ad0565b9998505050505050505050565b6000604051905081810181811067ffffffffffffffff82111715612145576121446124f8565b5b8060405250919050565b600067ffffffffffffffff82111561216a576121696124f8565b5b602082029050602081019050919050565b600067ffffffffffffffff821115612196576121956124f8565b5b602082029050602081019050919050565b600067ffffffffffffffff8211156121c2576121c16124f8565b5b601f19601f8301169050602081019050919050565b6000819050602082019050919050565b6000819050602082019050919050565b60008190508160005260206000209050919050565b600081519050919050565b600081519050919050565b600081519050919050565b6000602082019050919050565b6000602082019050919050565b600082825260208201905092915050565b600082825260208201905092915050565b600082825260208201905092915050565b600081905092915050565b6000612290826123a4565b915061229b836123a4565b9250827fffffffffffffffffffffffffffffffffffffffffffffffffffffffffffffffff038211156122d0576122cf61246b565b5b828201905092915050565b60006122e6826123a4565b91506122f1836123a4565b9250826123015761230061249a565b5b828204905092915050565b6000612317826123a4565b9150612322836123a4565b9250817fffffffffffffffffffffffffffffffffffffffffffffffffffffffffffffffff048311821515161561235b5761235a61246b565b5b828202905092915050565b600061237182612384565b9050919050565b60008115159050919050565b600073ffffffffffffffffffffffffffffffffffffffff82169050919050565b6000819050919050565b82818337600083830152505050565b60005b838110156123db5780820151818401526020810190506123c0565b838111156123ea576000848401525b50505050565b6000600282049050600182168061240857607f821691505b6020821081141561241c5761241b6124c9565b5b50919050565b600061242d826123a4565b91507fffffffffffffffffffffffffffffffffffffffffffffffffffffffffffffffff8214156124605761245f61246b565b5b600182019050919050565b7f4e487b7100000000000000000000000000000000000000000000000000000000600052601160045260246000fd5b7f4e487b7100000000000000000000000000000000000000000000000000000000600052601260045260246000fd5b7f4e487b7100000000000000000000000000000000000000000000000000000000600052602260045260246000fd5b7f4e487b7100000000000000000000000000000000000000000000000000000000600052604160045260246000fd5b61253081612366565b811461253b57600080fd5b50565b61254781612378565b811461255257600080fd5b50565b61255e816123a4565b811461256957600080fd5b5056fea264697066735822122064a3ce3bc39fa40f90d09681fb414df84ac9b572c80a6f1251e427a9f463f36c64736f6c63430008000033",
  "immutableReferences": {},
  "source": "// SPDX-License-Identifier: UNLICENSED\npragma solidity ^0.8.0;\n\nimport \"@openzeppelin/contracts/access/Ownable.sol\";\n\nabstract contract CardAuction {\n    struct Card {\n        uint cardId;\n        uint playerId;\n        uint attributeHash;\n        uint cardType;\n        bool inUse;\n    }\n\n   function cardIdToCard(uint _cardId) virtual public returns(uint256, uint256, uint256, uint256, bool);\n   function setCardIsInUse(uint _cardId) virtual public;\n}\n\ncontract CardGame is Ownable {\n\n    CardAuction cardAuction;\n    uint public gameId;\n    string private secret;\n    mapping(uint => Game) public gameIdToGame;\n    mapping(uint => mapping(address => uint[])) gameIdToPlayerCards;\n    mapping(uint => bool) cardIsPlayable;\n\n    constructor(address _auctionAddress) {\n        cardAuction = CardAuction(_auctionAddress);\n    }\n\n    struct Game {\n        uint gameId;\n        uint numberOfPlayers;\n        uint numberOfCardsPerPlayer;\n        uint entryFee;\n        uint playerCount;\n        uint week;\n        address[] players;\n        bool active; \n        address winner;\n    }\n\n    struct Card {\n        uint cardId;\n        uint playerId;\n        uint attributeHash;\n        uint cardType;\n        bool inUse;\n    }\n\n    event GameCreated(uint gameId, uint playerCount, uint cardCount, uint entryFee);\n    event GameJoined(uint gameId, address indexed player);\n    event GameEnded(uint gameId, address indexed winner, uint prize);\n\n    modifier checkPlayersInGame(uint _gameId, address _player) {\n        bool playerInGame = false;\n        address[] memory players = gameIdToGame[_gameId].players;\n        for(uint i = 0; i < players.length; i++){\n            if(players[i] == _player) {\n                playerInGame = true;\n            }\n        }\n        require(!playerInGame, \"YOU HAVE ALREADY JOINED THIS GAME\");\n        _;\n    }\n\n    modifier checkCardAvailability(uint[] memory _cardIds, address _player) {\n        bool canPlay = true;\n        for(uint i = 0; i < _cardIds.length; i++) {\n            (,,,,bool inUse) = cardAuction.cardIdToCard(_cardIds[i]);\n            if(inUse) {\n                canPlay = false;\n            }\n        }\n        require(canPlay, \"YOU HAVE ENTERED A CARD THAT IS ALREADY IN A GAME\");\n        _;\n    }\n\n    function createGame(uint _playerCount, uint _cardCount, uint _entryFee, uint _week) external onlyOwner {\n        gameIdToGame[gameId] = Game(gameId, _playerCount, _cardCount, _entryFee, 0, _week, new address[](_playerCount), true, address(0));\n        emit GameCreated(gameId, _playerCount, _cardCount, _entryFee);\n        gameId = gameId + 1;\n    }\n\n    function joinGame(uint _gameId, uint[] memory _cardIds, string memory _secret) external payable checkPlayersInGame(_gameId, msg.sender) checkCardAvailability(_cardIds, msg.sender) {\n        require(gameIdToGame[_gameId].entryFee == msg.value, \"INVALID ENTRY FEE\");\n        require(compareSecret(_secret), \"INVALID SECRET USED IN REQUEST\");\n        require(gameIdToGame[_gameId].playerCount < gameIdToGame[_gameId].numberOfPlayers, \"GAME IS FULL\");\n        \n        gameIdToPlayerCards[_gameId][msg.sender] = _cardIds;\n        for(uint i = 0; i < _cardIds.length; i++) {\n            cardAuction.setCardIsInUse(_cardIds[i]);\n        }\n        gameIdToGame[_gameId].playerCount = gameIdToGame[_gameId].playerCount + 1;\n        gameIdToGame[_gameId].players.push(msg.sender);\n        emit GameJoined(_gameId, msg.sender);\n    }\n\n    function endGames(uint[] memory _gameIds, address[] memory _winners) external onlyOwner {\n        for(uint i = 0; i < _gameIds.length; i++) {\n            gameIdToGame[_gameIds[i]].active = false;\n            gameIdToGame[_gameIds[i]].winner = _winners[i];\n            address payable payoutAddress = payable(_winners[i]);\n            uint payoutAmount = gameIdToGame[_gameIds[i]].entryFee * ((gameIdToGame[_gameIds[i]].playerCount * 9) / 10);\n            payoutAddress.transfer(payoutAmount);\n            emit GameEnded(_gameIds[i], _winners[i], payoutAmount);\n        }\n    }\n\n    function getPlayersByGameId(uint _gameId) external view returns(address[] memory) {\n        return gameIdToGame[_gameId].players;\n    }\n\n    function getCardEntriesByPlayer(uint _gameId, address _user) external view returns(uint[] memory) {\n        return gameIdToPlayerCards[_gameId][_user];\n    }\n\n    function compareSecret(string memory _secret) private view returns(bool) {\n        return (keccak256(abi.encodePacked((_secret))) == keccak256(abi.encodePacked((secret))));\n    }\n\n    function setSecret(string memory _secret) external onlyOwner {\n        secret = _secret;\n    }\n}",
  "sourcePath": "/Users/tkma4fr/Development/solidity-app/contracts/card-game.sol",
  "compiler": {
    "name": "solc",
    "version": "0.8.0+commit.c7dfd78e.Emscripten.clang"
  },
  "schemaVersion": "3.4.2",
  "updatedAt": "2021-10-26T22:39:04.847Z",
  "networkType": "ethereum",
  "devdoc": {
    "kind": "dev",
    "methods": {
      "owner()": {
        "details": "Returns the address of the current owner."
      },
      "renounceOwnership()": {
        "details": "Leaves the contract without owner. It will not be possible to call `onlyOwner` functions anymore. Can only be called by the current owner. NOTE: Renouncing ownership will leave the contract without an owner, thereby removing any functionality that is only available to the owner."
      },
      "transferOwnership(address)": {
        "details": "Transfers ownership of the contract to a new account (`newOwner`). Can only be called by the current owner."
      }
    },
    "version": 1
  },
  "userdoc": {
    "kind": "user",
    "methods": {},
    "version": 1
  }
}