{
  "contractName": "CardGame",
  "abi": [
    {
      "inputs": [
        {
          "internalType": "address",
          "name": "_auctionAddress",
          "type": "address"
        }
      ],
      "stateMutability": "nonpayable",
      "type": "constructor"
    },
    {
      "anonymous": false,
      "inputs": [
        {
          "indexed": false,
          "internalType": "uint256",
          "name": "gameId",
          "type": "uint256"
        },
        {
          "indexed": false,
          "internalType": "uint256",
          "name": "playerCount",
          "type": "uint256"
        },
        {
          "indexed": false,
          "internalType": "uint256",
          "name": "cardCount",
          "type": "uint256"
        },
        {
          "indexed": false,
          "internalType": "uint256",
          "name": "entryFee",
          "type": "uint256"
        }
      ],
      "name": "GameCreated",
      "type": "event"
    },
    {
      "anonymous": false,
      "inputs": [
        {
          "indexed": false,
          "internalType": "uint256",
          "name": "gameId",
          "type": "uint256"
        },
        {
          "indexed": true,
          "internalType": "address",
          "name": "player",
          "type": "address"
        }
      ],
      "name": "GameJoined",
      "type": "event"
    },
    {
      "anonymous": false,
      "inputs": [
        {
          "indexed": true,
          "internalType": "address",
          "name": "previousOwner",
          "type": "address"
        },
        {
          "indexed": true,
          "internalType": "address",
          "name": "newOwner",
          "type": "address"
        }
      ],
      "name": "OwnershipTransferred",
      "type": "event"
    },
    {
      "inputs": [],
      "name": "gameId",
      "outputs": [
        {
          "internalType": "uint256",
          "name": "",
          "type": "uint256"
        }
      ],
      "stateMutability": "view",
      "type": "function",
      "constant": true
    },
    {
      "inputs": [
        {
          "internalType": "uint256",
          "name": "",
          "type": "uint256"
        }
      ],
      "name": "gameIdToGame",
      "outputs": [
        {
          "internalType": "uint256",
          "name": "gameId",
          "type": "uint256"
        },
        {
          "internalType": "uint256",
          "name": "numberOfPlayers",
          "type": "uint256"
        },
        {
          "internalType": "uint256",
          "name": "numberOfCardsPerPlayer",
          "type": "uint256"
        },
        {
          "internalType": "uint256",
          "name": "entryFee",
          "type": "uint256"
        },
        {
          "internalType": "bool",
          "name": "open",
          "type": "bool"
        },
        {
          "internalType": "bool",
          "name": "active",
          "type": "bool"
        },
        {
          "internalType": "address",
          "name": "winner",
          "type": "address"
        }
      ],
      "stateMutability": "view",
      "type": "function",
      "constant": true
    },
    {
      "inputs": [],
      "name": "owner",
      "outputs": [
        {
          "internalType": "address",
          "name": "",
          "type": "address"
        }
      ],
      "stateMutability": "view",
      "type": "function",
      "constant": true
    },
    {
      "inputs": [],
      "name": "renounceOwnership",
      "outputs": [],
      "stateMutability": "nonpayable",
      "type": "function"
    },
    {
      "inputs": [
        {
          "internalType": "address",
          "name": "newOwner",
          "type": "address"
        }
      ],
      "name": "transferOwnership",
      "outputs": [],
      "stateMutability": "nonpayable",
      "type": "function"
    },
    {
      "inputs": [
        {
          "internalType": "uint256",
          "name": "_playerCount",
          "type": "uint256"
        },
        {
          "internalType": "uint256",
          "name": "_cardCount",
          "type": "uint256"
        },
        {
          "internalType": "uint256",
          "name": "_entryFee",
          "type": "uint256"
        }
      ],
      "name": "createGame",
      "outputs": [],
      "stateMutability": "nonpayable",
      "type": "function"
    },
    {
      "inputs": [
        {
          "internalType": "uint256",
          "name": "_gameId",
          "type": "uint256"
        },
        {
          "internalType": "uint256[]",
          "name": "_cardIds",
          "type": "uint256[]"
        },
        {
          "internalType": "string",
          "name": "_secret",
          "type": "string"
        }
      ],
      "name": "joinGame",
      "outputs": [],
      "stateMutability": "payable",
      "type": "function",
      "payable": true
    },
    {
      "inputs": [
        {
          "internalType": "uint256[]",
          "name": "_gameIds",
          "type": "uint256[]"
        }
      ],
      "name": "closeGames",
      "outputs": [],
      "stateMutability": "nonpayable",
      "type": "function"
    },
    {
      "inputs": [
        {
          "internalType": "uint256[]",
          "name": "_gameIds",
          "type": "uint256[]"
        }
      ],
      "name": "endGames",
      "outputs": [],
      "stateMutability": "nonpayable",
      "type": "function"
    },
    {
      "inputs": [
        {
          "internalType": "uint256",
          "name": "_gameId",
          "type": "uint256"
        }
      ],
      "name": "getPlayersByGameId",
      "outputs": [
        {
          "internalType": "address[]",
          "name": "",
          "type": "address[]"
        }
      ],
      "stateMutability": "view",
      "type": "function",
      "constant": true
    },
    {
      "inputs": [
        {
          "internalType": "uint256",
          "name": "_gameId",
          "type": "uint256"
        },
        {
          "internalType": "address",
          "name": "_user",
          "type": "address"
        }
      ],
      "name": "getCardEntriesByPlayer",
      "outputs": [
        {
          "internalType": "uint256[]",
          "name": "",
          "type": "uint256[]"
        }
      ],
      "stateMutability": "view",
      "type": "function",
      "constant": true
    },
    {
      "inputs": [
        {
          "internalType": "string",
          "name": "_secret",
          "type": "string"
        }
      ],
      "name": "setSecret",
      "outputs": [],
      "stateMutability": "nonpayable",
      "type": "function"
    }
  ],
  "bytecode": "0x60806040523480156200001157600080fd5b506040516200235d3803806200235d833981810160405281019062000037919062000182565b620000576200004b6200009f60201b60201c565b620000a760201b60201c565b80600160006101000a81548173ffffffffffffffffffffffffffffffffffffffff021916908373ffffffffffffffffffffffffffffffffffffffff16021790555050620001fc565b600033905090565b60008060009054906101000a900473ffffffffffffffffffffffffffffffffffffffff169050816000806101000a81548173ffffffffffffffffffffffffffffffffffffffff021916908373ffffffffffffffffffffffffffffffffffffffff1602179055508173ffffffffffffffffffffffffffffffffffffffff168173ffffffffffffffffffffffffffffffffffffffff167f8be0079c531659141344cd1fd0a4f28419497f9722a3daafe3b4186f6b6457e060405160405180910390a35050565b6000815190506200017c81620001e2565b92915050565b6000602082840312156200019557600080fd5b6000620001a5848285016200016b565b91505092915050565b6000620001bb82620001c2565b9050919050565b600073ffffffffffffffffffffffffffffffffffffffff82169050919050565b620001ed81620001ae565b8114620001f957600080fd5b50565b612151806200020c6000396000f3fe6080604052600436106100a75760003560e01c8063b3df526811610064578063b3df52681461019f578063c2741521146101dc578063c44d503d14610205578063d7c81b5514610242578063d82d63011461026d578063f2fde38b14610296576100a7565b8063245767fa146100ac57806333f70f38146100d55780633727dbf9146100f1578063715018a6146101345780637ed6c9261461014b5780638da5cb5b14610174575b600080fd5b3480156100b857600080fd5b506100d360048036038101906100ce9190611592565b6102bf565b005b6100ef60048036038101906100ea9190611679565b6103cd565b005b3480156100fd57600080fd5b5061011860048036038101906101139190611614565b6109dc565b60405161012b9796959493929190611d44565b60405180910390f35b34801561014057600080fd5b50610149610a58565b005b34801561015757600080fd5b50610172600480360381019061016d91906115d3565b610ae0565b005b34801561018057600080fd5b50610189610b76565b6040516101969190611bc5565b60405180910390f35b3480156101ab57600080fd5b506101c660048036038101906101c1919061163d565b610b9f565b6040516101d39190611c02565b60405180910390f35b3480156101e857600080fd5b5061020360048036038101906101fe91906116f8565b610c48565b005b34801561021157600080fd5b5061022c60048036038101906102279190611614565b610ec8565b6040516102399190611be0565b60405180910390f35b34801561024e57600080fd5b50610257610f6c565b6040516102649190611ce4565b60405180910390f35b34801561027957600080fd5b50610294600480360381019061028f9190611592565b610f72565b005b3480156102a257600080fd5b506102bd60048036038101906102b89190611569565b611080565b005b6102c7611178565b73ffffffffffffffffffffffffffffffffffffffff166102e5610b76565b73ffffffffffffffffffffffffffffffffffffffff161461033b576040517f08c379a000000000000000000000000000000000000000000000000000000000815260040161033290611ca4565b60405180910390fd5b60005b81518110156103c957600060046000848481518110610386577f4e487b7100000000000000000000000000000000000000000000000000000000600052603260045260246000fd5b6020026020010151815260200190815260200160002060050160016101000a81548160ff02191690831515021790555080806103c190612000565b91505061033e565b5050565b82336000806004600085815260200190815260200160002060040180548060200260200160405190810160405280929190818152602001828054801561046857602002820191906000526020600020905b8160009054906101000a900473ffffffffffffffffffffffffffffffffffffffff1673ffffffffffffffffffffffffffffffffffffffff168152602001906001019080831161041e575b5050505050905060005b8151811015610507578373ffffffffffffffffffffffffffffffffffffffff168282815181106104cb577f4e487b7100000000000000000000000000000000000000000000000000000000600052603260045260246000fd5b602002602001015173ffffffffffffffffffffffffffffffffffffffff1614156104f457600192505b80806104ff90612000565b915050610472565b508115610549576040517f08c379a000000000000000000000000000000000000000000000000000000000815260040161054090611c84565b60405180910390fd5b853360006001905060005b8351811015610671576000600160009054906101000a900473ffffffffffffffffffffffffffffffffffffffff1673ffffffffffffffffffffffffffffffffffffffff1663a0dd6b348684815181106105d6577f4e487b7100000000000000000000000000000000000000000000000000000000600052603260045260246000fd5b60200260200101516040518263ffffffff1660e01b81526004016105fa9190611ce4565b60a060405180830381600087803b15801561061457600080fd5b505af1158015610628573d6000803e3d6000fd5b505050506040513d601f19601f8201168201806040525081019061064c9190611747565b945050505050801561065d57600092505b50808061066990612000565b915050610554565b50806106b2576040517f08c379a00000000000000000000000000000000000000000000000000000000081526004016106a990611c64565b60405180910390fd5b34600460008c8152602001908152602001600020600301541461070a576040517f08c379a000000000000000000000000000000000000000000000000000000000815260040161070190611c44565b60405180910390fd5b61071388611180565b610752576040517f08c379a000000000000000000000000000000000000000000000000000000000815260040161074990611cc4565b60405180910390fd5b88600560008c815260200190815260200160002060003373ffffffffffffffffffffffffffffffffffffffff1673ffffffffffffffffffffffffffffffffffffffff16815260200190815260200160002090805190602001906107b692919061129d565b5060005b89518110156108a357600160009054906101000a900473ffffffffffffffffffffffffffffffffffffffff1673ffffffffffffffffffffffffffffffffffffffff166321f0c5518b838151811061083a577f4e487b7100000000000000000000000000000000000000000000000000000000600052603260045260246000fd5b60200260200101516040518263ffffffff1660e01b815260040161085e9190611ce4565b600060405180830381600087803b15801561087857600080fd5b505af115801561088c573d6000803e3d6000fd5b50505050808061089b90612000565b9150506107ba565b50600460008b8152602001908152602001600020600401339080600181540180825580915050600190039060005260206000200160009091909190916101000a81548173ffffffffffffffffffffffffffffffffffffffff021916908373ffffffffffffffffffffffffffffffffffffffff160217905550600460008b815260200190815260200160002060010154600460008c8152602001908152602001600020600401805490501415610982576000600460008c815260200190815260200160002060050160006101000a81548160ff0219169083151502179055505b3373ffffffffffffffffffffffffffffffffffffffff167f45c4f9cbafe186141862608c493f28b823fde4c2142bedc3f5169961a73fdd228b6040516109c89190611ce4565b60405180910390a250505050505050505050565b60046020528060005260406000206000915090508060000154908060010154908060020154908060030154908060050160009054906101000a900460ff16908060050160019054906101000a900460ff16908060050160029054906101000a900473ffffffffffffffffffffffffffffffffffffffff16905087565b610a60611178565b73ffffffffffffffffffffffffffffffffffffffff16610a7e610b76565b73ffffffffffffffffffffffffffffffffffffffff1614610ad4576040517f08c379a0000000000000000000000000000000000000000000000000000000008152600401610acb90611ca4565b60405180910390fd5b610ade60006111d9565b565b610ae8611178565b73ffffffffffffffffffffffffffffffffffffffff16610b06610b76565b73ffffffffffffffffffffffffffffffffffffffff1614610b5c576040517f08c379a0000000000000000000000000000000000000000000000000000000008152600401610b5390611ca4565b60405180910390fd5b8060039080519060200190610b729291906112ea565b5050565b60008060009054906101000a900473ffffffffffffffffffffffffffffffffffffffff16905090565b60606005600084815260200190815260200160002060008373ffffffffffffffffffffffffffffffffffffffff1673ffffffffffffffffffffffffffffffffffffffff168152602001908152602001600020805480602002602001604051908101604052809291908181526020018280548015610c3b57602002820191906000526020600020905b815481526020019060010190808311610c27575b5050505050905092915050565b610c50611178565b73ffffffffffffffffffffffffffffffffffffffff16610c6e610b76565b73ffffffffffffffffffffffffffffffffffffffff1614610cc4576040517f08c379a0000000000000000000000000000000000000000000000000000000008152600401610cbb90611ca4565b60405180910390fd5b60405180610100016040528060025481526020018481526020018381526020018281526020018467ffffffffffffffff811115610d2a577f4e487b7100000000000000000000000000000000000000000000000000000000600052604160045260246000fd5b604051908082528060200260200182016040528015610d585781602001602082028036833780820191505090505b508152602001600115158152602001600115158152602001600073ffffffffffffffffffffffffffffffffffffffff16815250600460006002548152602001908152602001600020600082015181600001556020820151816001015560408201518160020155606082015181600301556080820151816004019080519060200190610de4929190611370565b5060a08201518160050160006101000a81548160ff02191690831515021790555060c08201518160050160016101000a81548160ff02191690831515021790555060e08201518160050160026101000a81548173ffffffffffffffffffffffffffffffffffffffff021916908373ffffffffffffffffffffffffffffffffffffffff1602179055509050507f80b55cf2f646df8d85b80ac067c88c4aa6354a860d6cb55c7e234cf23861627f600254848484604051610ea69493929190611cff565b60405180910390a16001600254610ebd9190611eee565b600281905550505050565b606060046000838152602001908152602001600020600401805480602002602001604051908101604052809291908181526020018280548015610f6057602002820191906000526020600020905b8160009054906101000a900473ffffffffffffffffffffffffffffffffffffffff1673ffffffffffffffffffffffffffffffffffffffff1681526020019060010190808311610f16575b50505050509050919050565b60025481565b610f7a611178565b73ffffffffffffffffffffffffffffffffffffffff16610f98610b76565b73ffffffffffffffffffffffffffffffffffffffff1614610fee576040517f08c379a0000000000000000000000000000000000000000000000000000000008152600401610fe590611ca4565b60405180910390fd5b60005b815181101561107c57600060046000848481518110611039577f4e487b7100000000000000000000000000000000000000000000000000000000600052603260045260246000fd5b6020026020010151815260200190815260200160002060050160006101000a81548160ff021916908315150217905550808061107490612000565b915050610ff1565b5050565b611088611178565b73ffffffffffffffffffffffffffffffffffffffff166110a6610b76565b73ffffffffffffffffffffffffffffffffffffffff16146110fc576040517f08c379a00000000000000000000000000000000000000000000000000000000081526004016110f390611ca4565b60405180910390fd5b600073ffffffffffffffffffffffffffffffffffffffff168173ffffffffffffffffffffffffffffffffffffffff16141561116c576040517f08c379a000000000000000000000000000000000000000000000000000000000815260040161116390611c24565b60405180910390fd5b611175816111d9565b50565b600033905090565b600060036040516020016111949190611bae565b60405160208183030381529060405280519060200120826040516020016111bb9190611b97565b60405160208183030381529060405280519060200120149050919050565b60008060009054906101000a900473ffffffffffffffffffffffffffffffffffffffff169050816000806101000a81548173ffffffffffffffffffffffffffffffffffffffff021916908373ffffffffffffffffffffffffffffffffffffffff1602179055508173ffffffffffffffffffffffffffffffffffffffff168173ffffffffffffffffffffffffffffffffffffffff167f8be0079c531659141344cd1fd0a4f28419497f9722a3daafe3b4186f6b6457e060405160405180910390a35050565b8280548282559060005260206000209081019282156112d9579160200282015b828111156112d85782518255916020019190600101906112bd565b5b5090506112e691906113fa565b5090565b8280546112f690611fce565b90600052602060002090601f016020900481019282611318576000855561135f565b82601f1061133157805160ff191683800117855561135f565b8280016001018555821561135f579182015b8281111561135e578251825591602001919060010190611343565b5b50905061136c91906113fa565b5090565b8280548282559060005260206000209081019282156113e9579160200282015b828111156113e85782518260006101000a81548173ffffffffffffffffffffffffffffffffffffffff021916908373ffffffffffffffffffffffffffffffffffffffff16021790555091602001919060010190611390565b5b5090506113f691906113fa565b5090565b5b808211156114135760008160009055506001016113fb565b5090565b600061142a61142584611de4565b611db3565b9050808382526020820190508285602086028201111561144957600080fd5b60005b85811015611479578161145f888261153f565b84526020840193506020830192505060018101905061144c565b5050509392505050565b600061149661149184611e10565b611db3565b9050828152602081018484840111156114ae57600080fd5b6114b9848285611f8c565b509392505050565b6000813590506114d0816120d6565b92915050565b600082601f8301126114e757600080fd5b81356114f7848260208601611417565b91505092915050565b60008151905061150f816120ed565b92915050565b600082601f83011261152657600080fd5b8135611536848260208601611483565b91505092915050565b60008135905061154e81612104565b92915050565b60008151905061156381612104565b92915050565b60006020828403121561157b57600080fd5b6000611589848285016114c1565b91505092915050565b6000602082840312156115a457600080fd5b600082013567ffffffffffffffff8111156115be57600080fd5b6115ca848285016114d6565b91505092915050565b6000602082840312156115e557600080fd5b600082013567ffffffffffffffff8111156115ff57600080fd5b61160b84828501611515565b91505092915050565b60006020828403121561162657600080fd5b60006116348482850161153f565b91505092915050565b6000806040838503121561165057600080fd5b600061165e8582860161153f565b925050602061166f858286016114c1565b9150509250929050565b60008060006060848603121561168e57600080fd5b600061169c8682870161153f565b935050602084013567ffffffffffffffff8111156116b957600080fd5b6116c5868287016114d6565b925050604084013567ffffffffffffffff8111156116e257600080fd5b6116ee86828701611515565b9150509250925092565b60008060006060848603121561170d57600080fd5b600061171b8682870161153f565b935050602061172c8682870161153f565b925050604061173d8682870161153f565b9150509250925092565b600080600080600060a0868803121561175f57600080fd5b600061176d88828901611554565b955050602061177e88828901611554565b945050604061178f88828901611554565b93505060606117a088828901611554565b92505060806117b188828901611500565b9150509295509295909350565b60006117ca83836117ee565b60208301905092915050565b60006117e28383611b79565b60208301905092915050565b6117f781611f44565b82525050565b61180681611f44565b82525050565b600061181782611e75565b6118218185611eb0565b935061182c83611e40565b8060005b8381101561185d57815161184488826117be565b975061184f83611e96565b925050600181019050611830565b5085935050505092915050565b600061187582611e80565b61187f8185611ec1565b935061188a83611e50565b8060005b838110156118bb5781516118a288826117d6565b97506118ad83611ea3565b92505060018101905061188e565b5085935050505092915050565b6118d181611f56565b82525050565b60006118e282611e8b565b6118ec8185611ee3565b93506118fc818560208601611f9b565b80840191505092915050565b6000815461191581611fce565b61191f8186611ee3565b9450600182166000811461193a576001811461194b5761197e565b60ff1983168652818601935061197e565b61195485611e60565b60005b8381101561197657815481890152600182019150602081019050611957565b838801955050505b50505092915050565b6000611994602683611ed2565b91507f4f776e61626c653a206e6577206f776e657220697320746865207a65726f206160008301527f64647265737300000000000000000000000000000000000000000000000000006020830152604082019050919050565b60006119fa601183611ed2565b91507f494e56414c494420454e545259204645450000000000000000000000000000006000830152602082019050919050565b6000611a3a603183611ed2565b91507f594f55204841564520454e54455245442041204341524420544841542049532060008301527f414c524541445920494e20412047414d450000000000000000000000000000006020830152604082019050919050565b6000611aa0602183611ed2565b91507f594f55204841564520414c5245414459204a4f494e454420544849532047414d60008301527f45000000000000000000000000000000000000000000000000000000000000006020830152604082019050919050565b6000611b06602083611ed2565b91507f4f776e61626c653a2063616c6c6572206973206e6f7420746865206f776e65726000830152602082019050919050565b6000611b46601e83611ed2565b91507f494e56414c494420534543524554205553454420494e205245515545535400006000830152602082019050919050565b611b8281611f82565b82525050565b611b9181611f82565b82525050565b6000611ba382846118d7565b915081905092915050565b6000611bba8284611908565b915081905092915050565b6000602082019050611bda60008301846117fd565b92915050565b60006020820190508181036000830152611bfa818461180c565b905092915050565b60006020820190508181036000830152611c1c818461186a565b905092915050565b60006020820190508181036000830152611c3d81611987565b9050919050565b60006020820190508181036000830152611c5d816119ed565b9050919050565b60006020820190508181036000830152611c7d81611a2d565b9050919050565b60006020820190508181036000830152611c9d81611a93565b9050919050565b60006020820190508181036000830152611cbd81611af9565b9050919050565b60006020820190508181036000830152611cdd81611b39565b9050919050565b6000602082019050611cf96000830184611b88565b92915050565b6000608082019050611d146000830187611b88565b611d216020830186611b88565b611d2e6040830185611b88565b611d3b6060830184611b88565b95945050505050565b600060e082019050611d59600083018a611b88565b611d666020830189611b88565b611d736040830188611b88565b611d806060830187611b88565b611d8d60808301866118c8565b611d9a60a08301856118c8565b611da760c08301846117fd565b98975050505050505050565b6000604051905081810181811067ffffffffffffffff82111715611dda57611dd96120a7565b5b8060405250919050565b600067ffffffffffffffff821115611dff57611dfe6120a7565b5b602082029050602081019050919050565b600067ffffffffffffffff821115611e2b57611e2a6120a7565b5b601f19601f8301169050602081019050919050565b6000819050602082019050919050565b6000819050602082019050919050565b60008190508160005260206000209050919050565b600081519050919050565b600081519050919050565b600081519050919050565b6000602082019050919050565b6000602082019050919050565b600082825260208201905092915050565b600082825260208201905092915050565b600082825260208201905092915050565b600081905092915050565b6000611ef982611f82565b9150611f0483611f82565b9250827fffffffffffffffffffffffffffffffffffffffffffffffffffffffffffffffff03821115611f3957611f38612049565b5b828201905092915050565b6000611f4f82611f62565b9050919050565b60008115159050919050565b600073ffffffffffffffffffffffffffffffffffffffff82169050919050565b6000819050919050565b82818337600083830152505050565b60005b83811015611fb9578082015181840152602081019050611f9e565b83811115611fc8576000848401525b50505050565b60006002820490506001821680611fe657607f821691505b60208210811415611ffa57611ff9612078565b5b50919050565b600061200b82611f82565b91507fffffffffffffffffffffffffffffffffffffffffffffffffffffffffffffffff82141561203e5761203d612049565b5b600182019050919050565b7f4e487b7100000000000000000000000000000000000000000000000000000000600052601160045260246000fd5b7f4e487b7100000000000000000000000000000000000000000000000000000000600052602260045260246000fd5b7f4e487b7100000000000000000000000000000000000000000000000000000000600052604160045260246000fd5b6120df81611f44565b81146120ea57600080fd5b50565b6120f681611f56565b811461210157600080fd5b50565b61210d81611f82565b811461211857600080fd5b5056fea26469706673582212208dfc4d27114f42d3caf241587f591651188df7ecd60b74f70b7a39aa2282a83a64736f6c63430008000033",
  "immutableReferences": {},
  "source": "// SPDX-License-Identifier: UNLICENSED\npragma solidity ^0.8.0;\n\nimport \"@openzeppelin/contracts/access/Ownable.sol\";\n\nabstract contract CardAuction {\n    struct Card {\n        uint cardId;\n        uint playerId;\n        uint attributeHash;\n        uint cardType;\n        bool inUse;\n    }\n\n   function cardIdToCard(uint _cardId) virtual public returns(uint256, uint256, uint256, uint256, bool);\n   function setCardIsInUse(uint _cardId) virtual public;\n}\n\ncontract CardGame is Ownable {\n\n    CardAuction cardAuction;\n    uint public gameId;\n    string private secret;\n    mapping(uint => Game) public gameIdToGame;\n    mapping(uint => mapping(address => uint[])) gameIdToPlayerCards;\n    mapping(uint => bool) cardIsPlayable;\n\n    constructor(address _auctionAddress) {\n        cardAuction = CardAuction(_auctionAddress);\n    }\n\n    struct Game {\n        uint gameId;\n        uint numberOfPlayers;\n        uint numberOfCardsPerPlayer;\n        uint entryFee;\n        address[] players;\n        bool open;\n        bool active; \n        address winner;\n    }\n\n    struct Card {\n        uint cardId;\n        uint playerId;\n        uint attributeHash;\n        uint cardType;\n        bool inUse;\n    }\n\n    event GameCreated(uint gameId, uint playerCount, uint cardCount, uint entryFee);\n    event GameJoined(uint gameId, address indexed player);\n\n    modifier checkPlayersInGame(uint _gameId, address _player) {\n        bool playerInGame = false;\n        address[] memory players = gameIdToGame[_gameId].players;\n        for(uint i = 0; i < players.length; i++){\n            if(players[i] == _player) {\n                playerInGame = true;\n            }\n        }\n        require(!playerInGame, \"YOU HAVE ALREADY JOINED THIS GAME\");\n        _;\n    }\n\n    modifier checkCardAvailability(uint[] memory _cardIds, address _player) {\n        bool canPlay = true;\n        for(uint i = 0; i < _cardIds.length; i++) {\n            (,,,,bool inUse) = cardAuction.cardIdToCard(_cardIds[i]);\n            if(inUse) {\n                canPlay = false;\n            }\n        }\n        require(canPlay, \"YOU HAVE ENTERED A CARD THAT IS ALREADY IN A GAME\");\n        _;\n    }\n\n    function createGame(uint _playerCount, uint _cardCount, uint _entryFee) external onlyOwner {\n        gameIdToGame[gameId] = Game(gameId, _playerCount, _cardCount, _entryFee, new address[](_playerCount), true, true, address(0));\n        emit GameCreated(gameId, _playerCount, _cardCount, _entryFee);\n        gameId = gameId + 1;\n    }\n\n    function joinGame(uint _gameId, uint[] memory _cardIds, string memory _secret) external payable checkPlayersInGame(_gameId, msg.sender) checkCardAvailability(_cardIds, msg.sender) {\n        require(gameIdToGame[_gameId].entryFee == msg.value, \"INVALID ENTRY FEE\");\n        require(compareSecret(_secret), \"INVALID SECRET USED IN REQUEST\");\n        \n        gameIdToPlayerCards[_gameId][msg.sender] = _cardIds;\n        for(uint i = 0; i < _cardIds.length; i++) {\n            cardAuction.setCardIsInUse(_cardIds[i]);\n        }\n        gameIdToGame[_gameId].players.push(msg.sender);\n        if(gameIdToGame[_gameId].players.length == gameIdToGame[_gameId].numberOfPlayers) {\n            gameIdToGame[_gameId].open = false;\n        }\n        emit GameJoined(_gameId, msg.sender);\n    }\n\n    function closeGames(uint[] memory _gameIds) external onlyOwner {\n        for(uint i = 0; i < _gameIds.length; i++) {\n            gameIdToGame[_gameIds[i]].open = false;\n        }\n    }\n\n    function endGames(uint[] memory _gameIds) external onlyOwner {\n        for(uint i = 0; i < _gameIds.length; i++) {\n            gameIdToGame[_gameIds[i]].active = false;\n        }\n    }\n\n    function getPlayersByGameId(uint _gameId) external view returns(address[] memory) {\n        return gameIdToGame[_gameId].players;\n    }\n\n    function getCardEntriesByPlayer(uint _gameId, address _user) external view returns(uint[] memory) {\n        return gameIdToPlayerCards[_gameId][_user];\n    }\n\n    function compareSecret(string memory _secret) private view returns(bool) {\n        return (keccak256(abi.encodePacked((_secret))) == keccak256(abi.encodePacked((secret))));\n    }\n\n    function setSecret(string memory _secret) external onlyOwner {\n        secret = _secret;\n    }\n}",
  "sourcePath": "/Users/tkma4fr/Development/solidity-app/contracts/card-game.sol",
  "compiler": {
    "name": "solc",
    "version": "0.8.0+commit.c7dfd78e.Emscripten.clang"
  },
  "schemaVersion": "3.4.2",
  "updatedAt": "2021-10-25T20:00:30.647Z",
  "networkType": "ethereum",
  "devdoc": {
    "kind": "dev",
    "methods": {
      "owner()": {
        "details": "Returns the address of the current owner."
      },
      "renounceOwnership()": {
        "details": "Leaves the contract without owner. It will not be possible to call `onlyOwner` functions anymore. Can only be called by the current owner. NOTE: Renouncing ownership will leave the contract without an owner, thereby removing any functionality that is only available to the owner."
      },
      "transferOwnership(address)": {
        "details": "Transfers ownership of the contract to a new account (`newOwner`). Can only be called by the current owner."
      }
    },
    "version": 1
  },
  "userdoc": {
    "kind": "user",
    "methods": {},
    "version": 1
  }
}