{
  "contractName": "CardGame",
  "abi": [
    {
      "inputs": [
        {
          "internalType": "address",
          "name": "_auctionAddress",
          "type": "address"
        }
      ],
      "stateMutability": "nonpayable",
      "type": "constructor"
    },
    {
      "anonymous": false,
      "inputs": [
        {
          "indexed": false,
          "internalType": "uint256",
          "name": "gameId",
          "type": "uint256"
        },
        {
          "indexed": false,
          "internalType": "uint256",
          "name": "playerCount",
          "type": "uint256"
        },
        {
          "indexed": false,
          "internalType": "uint256",
          "name": "cardCount",
          "type": "uint256"
        },
        {
          "indexed": false,
          "internalType": "uint256",
          "name": "entryFee",
          "type": "uint256"
        }
      ],
      "name": "GameCreated",
      "type": "event"
    },
    {
      "anonymous": false,
      "inputs": [
        {
          "indexed": false,
          "internalType": "uint256",
          "name": "gameId",
          "type": "uint256"
        },
        {
          "indexed": true,
          "internalType": "address",
          "name": "winner",
          "type": "address"
        },
        {
          "indexed": false,
          "internalType": "uint256",
          "name": "prize",
          "type": "uint256"
        }
      ],
      "name": "GameEnded",
      "type": "event"
    },
    {
      "anonymous": false,
      "inputs": [
        {
          "indexed": false,
          "internalType": "uint256",
          "name": "gameId",
          "type": "uint256"
        },
        {
          "indexed": true,
          "internalType": "address",
          "name": "player",
          "type": "address"
        }
      ],
      "name": "GameJoined",
      "type": "event"
    },
    {
      "anonymous": false,
      "inputs": [
        {
          "indexed": true,
          "internalType": "address",
          "name": "previousOwner",
          "type": "address"
        },
        {
          "indexed": true,
          "internalType": "address",
          "name": "newOwner",
          "type": "address"
        }
      ],
      "name": "OwnershipTransferred",
      "type": "event"
    },
    {
      "inputs": [],
      "name": "gameId",
      "outputs": [
        {
          "internalType": "uint256",
          "name": "",
          "type": "uint256"
        }
      ],
      "stateMutability": "view",
      "type": "function",
      "constant": true
    },
    {
      "inputs": [
        {
          "internalType": "uint256",
          "name": "",
          "type": "uint256"
        }
      ],
      "name": "gameIdToGame",
      "outputs": [
        {
          "internalType": "uint256",
          "name": "gameId",
          "type": "uint256"
        },
        {
          "internalType": "uint256",
          "name": "numberOfPlayers",
          "type": "uint256"
        },
        {
          "internalType": "uint256",
          "name": "numberOfCardsPerPlayer",
          "type": "uint256"
        },
        {
          "internalType": "uint256",
          "name": "entryFee",
          "type": "uint256"
        },
        {
          "internalType": "uint256",
          "name": "playerCount",
          "type": "uint256"
        },
        {
          "internalType": "uint256",
          "name": "week",
          "type": "uint256"
        },
        {
          "internalType": "bool",
          "name": "active",
          "type": "bool"
        },
        {
          "internalType": "address",
          "name": "winner",
          "type": "address"
        }
      ],
      "stateMutability": "view",
      "type": "function",
      "constant": true
    },
    {
      "inputs": [],
      "name": "owner",
      "outputs": [
        {
          "internalType": "address",
          "name": "",
          "type": "address"
        }
      ],
      "stateMutability": "view",
      "type": "function",
      "constant": true
    },
    {
      "inputs": [],
      "name": "renounceOwnership",
      "outputs": [],
      "stateMutability": "nonpayable",
      "type": "function"
    },
    {
      "inputs": [
        {
          "internalType": "address",
          "name": "newOwner",
          "type": "address"
        }
      ],
      "name": "transferOwnership",
      "outputs": [],
      "stateMutability": "nonpayable",
      "type": "function"
    },
    {
      "inputs": [
        {
          "internalType": "uint256",
          "name": "_playerCount",
          "type": "uint256"
        },
        {
          "internalType": "uint256",
          "name": "_cardCount",
          "type": "uint256"
        },
        {
          "internalType": "uint256",
          "name": "_entryFee",
          "type": "uint256"
        },
        {
          "internalType": "uint256",
          "name": "_week",
          "type": "uint256"
        }
      ],
      "name": "createGame",
      "outputs": [],
      "stateMutability": "nonpayable",
      "type": "function"
    },
    {
      "inputs": [
        {
          "internalType": "uint256",
          "name": "_gameId",
          "type": "uint256"
        },
        {
          "internalType": "uint256[]",
          "name": "_cardIds",
          "type": "uint256[]"
        },
        {
          "internalType": "string",
          "name": "_secret",
          "type": "string"
        }
      ],
      "name": "joinGame",
      "outputs": [],
      "stateMutability": "payable",
      "type": "function",
      "payable": true
    },
    {
      "inputs": [
        {
          "internalType": "uint256[]",
          "name": "_gameIds",
          "type": "uint256[]"
        },
        {
          "internalType": "address[]",
          "name": "_winners",
          "type": "address[]"
        }
      ],
      "name": "endGames",
      "outputs": [],
      "stateMutability": "nonpayable",
      "type": "function"
    },
    {
      "inputs": [
        {
          "internalType": "uint256",
          "name": "_gameId",
          "type": "uint256"
        }
      ],
      "name": "getPlayersByGameId",
      "outputs": [
        {
          "internalType": "address[]",
          "name": "",
          "type": "address[]"
        }
      ],
      "stateMutability": "view",
      "type": "function",
      "constant": true
    },
    {
      "inputs": [
        {
          "internalType": "uint256",
          "name": "_gameId",
          "type": "uint256"
        },
        {
          "internalType": "address",
          "name": "_user",
          "type": "address"
        }
      ],
      "name": "getCardEntriesByPlayer",
      "outputs": [
        {
          "internalType": "uint256[]",
          "name": "",
          "type": "uint256[]"
        }
      ],
      "stateMutability": "view",
      "type": "function",
      "constant": true
    },
    {
      "inputs": [
        {
          "internalType": "string",
          "name": "_secret",
          "type": "string"
        }
      ],
      "name": "setSecret",
      "outputs": [],
      "stateMutability": "nonpayable",
      "type": "function"
    }
  ],
  "bytecode": "0x60806040523480156200001157600080fd5b5060405162002a6038038062002a60833981810160405281019062000037919062000182565b620000576200004b6200009f60201b60201c565b620000a760201b60201c565b80600160006101000a81548173ffffffffffffffffffffffffffffffffffffffff021916908373ffffffffffffffffffffffffffffffffffffffff16021790555050620001fc565b600033905090565b60008060009054906101000a900473ffffffffffffffffffffffffffffffffffffffff169050816000806101000a81548173ffffffffffffffffffffffffffffffffffffffff021916908373ffffffffffffffffffffffffffffffffffffffff1602179055508173ffffffffffffffffffffffffffffffffffffffff168173ffffffffffffffffffffffffffffffffffffffff167f8be0079c531659141344cd1fd0a4f28419497f9722a3daafe3b4186f6b6457e060405160405180910390a35050565b6000815190506200017c81620001e2565b92915050565b6000602082840312156200019557600080fd5b6000620001a5848285016200016b565b91505092915050565b6000620001bb82620001c2565b9050919050565b600073ffffffffffffffffffffffffffffffffffffffff82169050919050565b620001ed81620001ae565b8114620001f957600080fd5b50565b612854806200020c6000396000f3fe60806040526004361061009c5760003560e01c8063b3df526811610064578063b3df52681461016c578063bdaae1e7146101a9578063c44d503d146101d2578063d7c81b551461020f578063f2fde38b1461023a578063f54622e0146102635761009c565b806333f70f38146100a15780633727dbf9146100bd578063715018a6146101015780637ed6c926146101185780638da5cb5b14610141575b600080fd5b6100bb60048036038101906100b69190611bc1565b61028c565b005b3480156100c957600080fd5b506100e460048036038101906100df9190611b5c565b6108e2565b6040516100f8989796959493929190612352565b60405180910390f35b34801561010d57600080fd5b50610116610957565b005b34801561012457600080fd5b5061013f600480360381019061013a9190611b1b565b6109df565b005b34801561014d57600080fd5b50610156610a75565b6040516101639190612161565b60405180910390f35b34801561017857600080fd5b50610193600480360381019061018e9190611b85565b610a9e565b6040516101a0919061219e565b60405180910390f35b3480156101b557600080fd5b506101d060048036038101906101cb9190611c40565b610b47565b005b3480156101de57600080fd5b506101f960048036038101906101f49190611b5c565b610dc2565b604051610206919061217c565b60405180910390f35b34801561021b57600080fd5b50610224610e66565b60405161023191906122a0565b60405180910390f35b34801561024657600080fd5b50610261600480360381019061025c9190611a86565b610e6c565b005b34801561026f57600080fd5b5061028a60048036038101906102859190611aaf565b610f64565b005b82336000806004600085815260200190815260200160002060060180548060200260200160405190810160405280929190818152602001828054801561032757602002820191906000526020600020905b8160009054906101000a900473ffffffffffffffffffffffffffffffffffffffff1673ffffffffffffffffffffffffffffffffffffffff16815260200190600101908083116102dd575b5050505050905060005b81518110156103c6578373ffffffffffffffffffffffffffffffffffffffff1682828151811061038a577f4e487b7100000000000000000000000000000000000000000000000000000000600052603260045260246000fd5b602002602001015173ffffffffffffffffffffffffffffffffffffffff1614156103b357600192505b80806103be906126d4565b915050610331565b508115610408576040517f08c379a00000000000000000000000000000000000000000000000000000000081526004016103ff90612240565b60405180910390fd5b853360006001905060005b8351811015610530576000600160009054906101000a900473ffffffffffffffffffffffffffffffffffffffff1673ffffffffffffffffffffffffffffffffffffffff1663a0dd6b34868481518110610495577f4e487b7100000000000000000000000000000000000000000000000000000000600052603260045260246000fd5b60200260200101516040518263ffffffff1660e01b81526004016104b991906122a0565b60a060405180830381600087803b1580156104d357600080fd5b505af11580156104e7573d6000803e3d6000fd5b505050506040513d601f19601f8201168201806040525081019061050b9190611ca3565b945050505050801561051c57600092505b508080610528906126d4565b915050610413565b5080610571576040517f08c379a000000000000000000000000000000000000000000000000000000000815260040161056890612220565b60405180910390fd5b34600460008c815260200190815260200160002060030154146105c9576040517f08c379a00000000000000000000000000000000000000000000000000000000081526004016105c0906121e0565b60405180910390fd5b6105d28861150c565b610611576040517f08c379a000000000000000000000000000000000000000000000000000000000815260040161060890612280565b60405180910390fd5b600460008b815260200190815260200160002060010154600460008c8152602001908152602001600020600401541061067f576040517f08c379a000000000000000000000000000000000000000000000000000000000815260040161067690612200565b60405180910390fd5b88600560008c815260200190815260200160002060003373ffffffffffffffffffffffffffffffffffffffff1673ffffffffffffffffffffffffffffffffffffffff16815260200190815260200160002090805190602001906106e3929190611724565b5060005b89518110156107d357600160009054906101000a900473ffffffffffffffffffffffffffffffffffffffff1673ffffffffffffffffffffffffffffffffffffffff16637223fec38b8381518110610767577f4e487b7100000000000000000000000000000000000000000000000000000000600052603260045260246000fd5b602002602001015160016040518363ffffffff1660e01b815260040161078e9291906122bb565b600060405180830381600087803b1580156107a857600080fd5b505af11580156107bc573d6000803e3d6000fd5b5050505080806107cb906126d4565b9150506106e7565b506001600460008c8152602001908152602001600020600401546107f79190612537565b600460008c815260200190815260200160002060040181905550600460008b8152602001908152602001600020600601339080600181540180825580915050600190039060005260206000200160009091909190916101000a81548173ffffffffffffffffffffffffffffffffffffffff021916908373ffffffffffffffffffffffffffffffffffffffff1602179055503373ffffffffffffffffffffffffffffffffffffffff167f45c4f9cbafe186141862608c493f28b823fde4c2142bedc3f5169961a73fdd228b6040516108ce91906122a0565b60405180910390a250505050505050505050565b60046020528060005260406000206000915090508060000154908060010154908060020154908060030154908060040154908060050154908060070160009054906101000a900460ff16908060070160019054906101000a900473ffffffffffffffffffffffffffffffffffffffff16905088565b61095f611565565b73ffffffffffffffffffffffffffffffffffffffff1661097d610a75565b73ffffffffffffffffffffffffffffffffffffffff16146109d3576040517f08c379a00000000000000000000000000000000000000000000000000000000081526004016109ca90612260565b60405180910390fd5b6109dd600061156d565b565b6109e7611565565b73ffffffffffffffffffffffffffffffffffffffff16610a05610a75565b73ffffffffffffffffffffffffffffffffffffffff1614610a5b576040517f08c379a0000000000000000000000000000000000000000000000000000000008152600401610a5290612260565b60405180910390fd5b8060039080519060200190610a71929190611771565b5050565b60008060009054906101000a900473ffffffffffffffffffffffffffffffffffffffff16905090565b60606005600084815260200190815260200160002060008373ffffffffffffffffffffffffffffffffffffffff1673ffffffffffffffffffffffffffffffffffffffff168152602001908152602001600020805480602002602001604051908101604052809291908181526020018280548015610b3a57602002820191906000526020600020905b815481526020019060010190808311610b26575b5050505050905092915050565b610b4f611565565b73ffffffffffffffffffffffffffffffffffffffff16610b6d610a75565b73ffffffffffffffffffffffffffffffffffffffff1614610bc3576040517f08c379a0000000000000000000000000000000000000000000000000000000008152600401610bba90612260565b60405180910390fd5b604051806101200160405280600254815260200185815260200184815260200183815260200160008152602001828152602001600067ffffffffffffffff811115610c37577f4e487b7100000000000000000000000000000000000000000000000000000000600052604160045260246000fd5b604051908082528060200260200182016040528015610c655781602001602082028036833780820191505090505b508152602001600115158152602001600073ffffffffffffffffffffffffffffffffffffffff16815250600460006002548152602001908152602001600020600082015181600001556020820151816001015560408201518160020155606082015181600301556080820151816004015560a0820151816005015560c0820151816006019080519060200190610cfc9291906117f7565b5060e08201518160070160006101000a81548160ff0219169083151502179055506101008201518160070160016101000a81548173ffffffffffffffffffffffffffffffffffffffff021916908373ffffffffffffffffffffffffffffffffffffffff1602179055509050507f80b55cf2f646df8d85b80ac067c88c4aa6354a860d6cb55c7e234cf23861627f600254858585604051610d9f949392919061230d565b60405180910390a16001600254610db69190612537565b60028190555050505050565b606060046000838152602001908152602001600020600601805480602002602001604051908101604052809291908181526020018280548015610e5a57602002820191906000526020600020905b8160009054906101000a900473ffffffffffffffffffffffffffffffffffffffff1673ffffffffffffffffffffffffffffffffffffffff1681526020019060010190808311610e10575b50505050509050919050565b60025481565b610e74611565565b73ffffffffffffffffffffffffffffffffffffffff16610e92610a75565b73ffffffffffffffffffffffffffffffffffffffff1614610ee8576040517f08c379a0000000000000000000000000000000000000000000000000000000008152600401610edf90612260565b60405180910390fd5b600073ffffffffffffffffffffffffffffffffffffffff168173ffffffffffffffffffffffffffffffffffffffff161415610f58576040517f08c379a0000000000000000000000000000000000000000000000000000000008152600401610f4f906121c0565b60405180910390fd5b610f618161156d565b50565b610f6c611565565b73ffffffffffffffffffffffffffffffffffffffff16610f8a610a75565b73ffffffffffffffffffffffffffffffffffffffff1614610fe0576040517f08c379a0000000000000000000000000000000000000000000000000000000008152600401610fd790612260565b60405180910390fd5b60005b82518110156115075760006004600085848151811061102b577f4e487b7100000000000000000000000000000000000000000000000000000000600052603260045260246000fd5b6020026020010151815260200190815260200160002060070160006101000a81548160ff021916908315150217905550818181518110611094577f4e487b7100000000000000000000000000000000000000000000000000000000600052603260045260246000fd5b6020026020010151600460008584815181106110d9577f4e487b7100000000000000000000000000000000000000000000000000000000600052603260045260246000fd5b6020026020010151815260200190815260200160002060070160016101000a81548173ffffffffffffffffffffffffffffffffffffffff021916908373ffffffffffffffffffffffffffffffffffffffff160217905550600082828151811061116b577f4e487b7100000000000000000000000000000000000000000000000000000000600052603260045260246000fd5b602002602001015190506000600460008685815181106111b4577f4e487b7100000000000000000000000000000000000000000000000000000000600052603260045260246000fd5b6020026020010151815260200190815260200160002060060180548060200260200160405190810160405280929190818152602001828054801561124d57602002820191906000526020600020905b8160009054906101000a900473ffffffffffffffffffffffffffffffffffffffff1673ffffffffffffffffffffffffffffffffffffffff1681526020019060010190808311611203575b5050505050905060005b8151811015611305576112f26112ed87868151811061129f577f4e487b7100000000000000000000000000000000000000000000000000000000600052603260045260246000fd5b60200260200101518484815181106112e0577f4e487b7100000000000000000000000000000000000000000000000000000000600052603260045260246000fd5b6020026020010151610a9e565b611631565b80806112fd906126d4565b915050611257565b506000600a600960046000898881518110611349577f4e487b7100000000000000000000000000000000000000000000000000000000600052603260045260246000fd5b6020026020010151815260200190815260200160002060040154600460008a89815181106113a0577f4e487b7100000000000000000000000000000000000000000000000000000000600052603260045260246000fd5b60200260200101518152602001908152602001600020600301546113c491906125be565b6113ce91906125be565b6113d8919061258d565b90508273ffffffffffffffffffffffffffffffffffffffff166108fc829081150290604051600060405180830381858888f19350505050158015611420573d6000803e3d6000fd5b5084848151811061145a577f4e487b7100000000000000000000000000000000000000000000000000000000600052603260045260246000fd5b602002602001015173ffffffffffffffffffffffffffffffffffffffff167ff1898de79c348962fab7695532341027e5bceb0ea2a8785790fa7d7efeeee1298786815181106114d2577f4e487b7100000000000000000000000000000000000000000000000000000000600052603260045260246000fd5b6020026020010151836040516114e99291906122e4565b60405180910390a250505080806114ff906126d4565b915050610fe3565b505050565b60006003604051602001611520919061214a565b60405160208183030381529060405280519060200120826040516020016115479190612133565b60405160208183030381529060405280519060200120149050919050565b600033905090565b60008060009054906101000a900473ffffffffffffffffffffffffffffffffffffffff169050816000806101000a81548173ffffffffffffffffffffffffffffffffffffffff021916908373ffffffffffffffffffffffffffffffffffffffff1602179055508173ffffffffffffffffffffffffffffffffffffffff168173ffffffffffffffffffffffffffffffffffffffff167f8be0079c531659141344cd1fd0a4f28419497f9722a3daafe3b4186f6b6457e060405160405180910390a35050565b60005b815181101561172057600160009054906101000a900473ffffffffffffffffffffffffffffffffffffffff1673ffffffffffffffffffffffffffffffffffffffff16637223fec38383815181106116b4577f4e487b7100000000000000000000000000000000000000000000000000000000600052603260045260246000fd5b602002602001015160006040518363ffffffff1660e01b81526004016116db9291906122bb565b600060405180830381600087803b1580156116f557600080fd5b505af1158015611709573d6000803e3d6000fd5b505050508080611718906126d4565b915050611634565b5050565b828054828255906000526020600020908101928215611760579160200282015b8281111561175f578251825591602001919060010190611744565b5b50905061176d9190611881565b5090565b82805461177d906126a2565b90600052602060002090601f01602090048101928261179f57600085556117e6565b82601f106117b857805160ff19168380011785556117e6565b828001600101855582156117e6579182015b828111156117e55782518255916020019190600101906117ca565b5b5090506117f39190611881565b5090565b828054828255906000526020600020908101928215611870579160200282015b8281111561186f5782518260006101000a81548173ffffffffffffffffffffffffffffffffffffffff021916908373ffffffffffffffffffffffffffffffffffffffff16021790555091602001919060010190611817565b5b50905061187d9190611881565b5090565b5b8082111561189a576000816000905550600101611882565b5090565b60006118b16118ac84612401565b6123d0565b905080838252602082019050828560208602820111156118d057600080fd5b60005b8581101561190057816118e688826119b4565b8452602084019350602083019250506001810190506118d3565b5050509392505050565b600061191d6119188461242d565b6123d0565b9050808382526020820190508285602086028201111561193c57600080fd5b60005b8581101561196c57816119528882611a5c565b84526020840193506020830192505060018101905061193f565b5050509392505050565b600061198961198484612459565b6123d0565b9050828152602081018484840111156119a157600080fd5b6119ac848285612660565b509392505050565b6000813590506119c3816127d9565b92915050565b600082601f8301126119da57600080fd5b81356119ea84826020860161189e565b91505092915050565b600082601f830112611a0457600080fd5b8135611a1484826020860161190a565b91505092915050565b600081519050611a2c816127f0565b92915050565b600082601f830112611a4357600080fd5b8135611a53848260208601611976565b91505092915050565b600081359050611a6b81612807565b92915050565b600081519050611a8081612807565b92915050565b600060208284031215611a9857600080fd5b6000611aa6848285016119b4565b91505092915050565b60008060408385031215611ac257600080fd5b600083013567ffffffffffffffff811115611adc57600080fd5b611ae8858286016119f3565b925050602083013567ffffffffffffffff811115611b0557600080fd5b611b11858286016119c9565b9150509250929050565b600060208284031215611b2d57600080fd5b600082013567ffffffffffffffff811115611b4757600080fd5b611b5384828501611a32565b91505092915050565b600060208284031215611b6e57600080fd5b6000611b7c84828501611a5c565b91505092915050565b60008060408385031215611b9857600080fd5b6000611ba685828601611a5c565b9250506020611bb7858286016119b4565b9150509250929050565b600080600060608486031215611bd657600080fd5b6000611be486828701611a5c565b935050602084013567ffffffffffffffff811115611c0157600080fd5b611c0d868287016119f3565b925050604084013567ffffffffffffffff811115611c2a57600080fd5b611c3686828701611a32565b9150509250925092565b60008060008060808587031215611c5657600080fd5b6000611c6487828801611a5c565b9450506020611c7587828801611a5c565b9350506040611c8687828801611a5c565b9250506060611c9787828801611a5c565b91505092959194509250565b600080600080600060a08688031215611cbb57600080fd5b6000611cc988828901611a71565b9550506020611cda88828901611a71565b9450506040611ceb88828901611a71565b9350506060611cfc88828901611a71565b9250506080611d0d88828901611a1d565b9150509295509295909350565b6000611d268383611d4a565b60208301905092915050565b6000611d3e8383612115565b60208301905092915050565b611d5381612618565b82525050565b611d6281612618565b82525050565b6000611d73826124be565b611d7d81856124f9565b9350611d8883612489565b8060005b83811015611db9578151611da08882611d1a565b9750611dab836124df565b925050600181019050611d8c565b5085935050505092915050565b6000611dd1826124c9565b611ddb818561250a565b9350611de683612499565b8060005b83811015611e17578151611dfe8882611d32565b9750611e09836124ec565b925050600181019050611dea565b5085935050505092915050565b611e2d8161262a565b82525050565b6000611e3e826124d4565b611e48818561252c565b9350611e5881856020860161266f565b80840191505092915050565b60008154611e71816126a2565b611e7b818661252c565b94506001821660008114611e965760018114611ea757611eda565b60ff19831686528186019350611eda565b611eb0856124a9565b60005b83811015611ed257815481890152600182019150602081019050611eb3565b838801955050505b50505092915050565b6000611ef060268361251b565b91507f4f776e61626c653a206e6577206f776e657220697320746865207a65726f206160008301527f64647265737300000000000000000000000000000000000000000000000000006020830152604082019050919050565b6000611f5660118361251b565b91507f494e56414c494420454e545259204645450000000000000000000000000000006000830152602082019050919050565b6000611f96600c8361251b565b91507f47414d452049532046554c4c00000000000000000000000000000000000000006000830152602082019050919050565b6000611fd660318361251b565b91507f594f55204841564520454e54455245442041204341524420544841542049532060008301527f414c524541445920494e20412047414d450000000000000000000000000000006020830152604082019050919050565b600061203c60218361251b565b91507f594f55204841564520414c5245414459204a4f494e454420544849532047414d60008301527f45000000000000000000000000000000000000000000000000000000000000006020830152604082019050919050565b60006120a260208361251b565b91507f4f776e61626c653a2063616c6c6572206973206e6f7420746865206f776e65726000830152602082019050919050565b60006120e2601e8361251b565b91507f494e56414c494420534543524554205553454420494e205245515545535400006000830152602082019050919050565b61211e81612656565b82525050565b61212d81612656565b82525050565b600061213f8284611e33565b915081905092915050565b60006121568284611e64565b915081905092915050565b60006020820190506121766000830184611d59565b92915050565b600060208201905081810360008301526121968184611d68565b905092915050565b600060208201905081810360008301526121b88184611dc6565b905092915050565b600060208201905081810360008301526121d981611ee3565b9050919050565b600060208201905081810360008301526121f981611f49565b9050919050565b6000602082019050818103600083015261221981611f89565b9050919050565b6000602082019050818103600083015261223981611fc9565b9050919050565b600060208201905081810360008301526122598161202f565b9050919050565b6000602082019050818103600083015261227981612095565b9050919050565b60006020820190508181036000830152612299816120d5565b9050919050565b60006020820190506122b56000830184612124565b92915050565b60006040820190506122d06000830185612124565b6122dd6020830184611e24565b9392505050565b60006040820190506122f96000830185612124565b6123066020830184612124565b9392505050565b60006080820190506123226000830187612124565b61232f6020830186612124565b61233c6040830185612124565b6123496060830184612124565b95945050505050565b600061010082019050612368600083018b612124565b612375602083018a612124565b6123826040830189612124565b61238f6060830188612124565b61239c6080830187612124565b6123a960a0830186612124565b6123b660c0830185611e24565b6123c360e0830184611d59565b9998505050505050505050565b6000604051905081810181811067ffffffffffffffff821117156123f7576123f66127aa565b5b8060405250919050565b600067ffffffffffffffff82111561241c5761241b6127aa565b5b602082029050602081019050919050565b600067ffffffffffffffff821115612448576124476127aa565b5b602082029050602081019050919050565b600067ffffffffffffffff821115612474576124736127aa565b5b601f19601f8301169050602081019050919050565b6000819050602082019050919050565b6000819050602082019050919050565b60008190508160005260206000209050919050565b600081519050919050565b600081519050919050565b600081519050919050565b6000602082019050919050565b6000602082019050919050565b600082825260208201905092915050565b600082825260208201905092915050565b600082825260208201905092915050565b600081905092915050565b600061254282612656565b915061254d83612656565b9250827fffffffffffffffffffffffffffffffffffffffffffffffffffffffffffffffff038211156125825761258161271d565b5b828201905092915050565b600061259882612656565b91506125a383612656565b9250826125b3576125b261274c565b5b828204905092915050565b60006125c982612656565b91506125d483612656565b9250817fffffffffffffffffffffffffffffffffffffffffffffffffffffffffffffffff048311821515161561260d5761260c61271d565b5b828202905092915050565b600061262382612636565b9050919050565b60008115159050919050565b600073ffffffffffffffffffffffffffffffffffffffff82169050919050565b6000819050919050565b82818337600083830152505050565b60005b8381101561268d578082015181840152602081019050612672565b8381111561269c576000848401525b50505050565b600060028204905060018216806126ba57607f821691505b602082108114156126ce576126cd61277b565b5b50919050565b60006126df82612656565b91507fffffffffffffffffffffffffffffffffffffffffffffffffffffffffffffffff8214156127125761271161271d565b5b600182019050919050565b7f4e487b7100000000000000000000000000000000000000000000000000000000600052601160045260246000fd5b7f4e487b7100000000000000000000000000000000000000000000000000000000600052601260045260246000fd5b7f4e487b7100000000000000000000000000000000000000000000000000000000600052602260045260246000fd5b7f4e487b7100000000000000000000000000000000000000000000000000000000600052604160045260246000fd5b6127e281612618565b81146127ed57600080fd5b50565b6127f98161262a565b811461280457600080fd5b50565b61281081612656565b811461281b57600080fd5b5056fea2646970667358221220e535cfe885135653840c4ae59e0843398d0acfab4b786c9590c1dcb971fdef5964736f6c63430008000033",
  "immutableReferences": {},
  "source": "// SPDX-License-Identifier: UNLICENSED\npragma solidity ^0.8.0;\n\nimport \"@openzeppelin/contracts/access/Ownable.sol\";\n\nabstract contract CardAuction {\n    struct Card {\n        uint cardId;\n        uint playerId;\n        uint attributeHash;\n        uint cardType;\n        bool inUse;\n    }\n\n   function cardIdToCard(uint _cardId) virtual public returns(uint256, uint256, uint256, uint256, bool);\n   function setCardUseStatus(uint _cardId, bool _isInUse) virtual public;\n}\n\ncontract CardGame is Ownable {\n\n    CardAuction cardAuction;\n    uint public gameId;\n    string private secret;\n    mapping(uint => Game) public gameIdToGame;\n    mapping(uint => mapping(address => uint[])) gameIdToPlayerCards;\n    mapping(uint => bool) cardIsPlayable;\n\n    constructor(address _auctionAddress) {\n        cardAuction = CardAuction(_auctionAddress);\n    }\n\n    struct Game {\n        uint gameId;\n        uint numberOfPlayers;\n        uint numberOfCardsPerPlayer;\n        uint entryFee;\n        uint playerCount;\n        uint week;\n        address[] players;\n        bool active; \n        address winner;\n    }\n\n    struct Card {\n        uint cardId;\n        uint playerId;\n        uint attributeHash;\n        uint cardType;\n        bool inUse;\n    }\n\n    event GameCreated(uint gameId, uint playerCount, uint cardCount, uint entryFee);\n    event GameJoined(uint gameId, address indexed player);\n    event GameEnded(uint gameId, address indexed winner, uint prize);\n\n    modifier checkPlayersInGame(uint _gameId, address _player) {\n        bool playerInGame = false;\n        address[] memory players = gameIdToGame[_gameId].players;\n        for(uint i = 0; i < players.length; i++){\n            if(players[i] == _player) {\n                playerInGame = true;\n            }\n        }\n        require(!playerInGame, \"YOU HAVE ALREADY JOINED THIS GAME\");\n        _;\n    }\n\n    modifier checkCardAvailability(uint[] memory _cardIds, address _player) {\n        bool canPlay = true;\n        for(uint i = 0; i < _cardIds.length; i++) {\n            (,,,,bool inUse) = cardAuction.cardIdToCard(_cardIds[i]);\n            if(inUse) {\n                canPlay = false;\n            }\n        }\n        require(canPlay, \"YOU HAVE ENTERED A CARD THAT IS ALREADY IN A GAME\");\n        _;\n    }\n\n    function createGame(uint _playerCount, uint _cardCount, uint _entryFee, uint _week) external onlyOwner {\n        gameIdToGame[gameId] = Game(gameId, _playerCount, _cardCount, _entryFee, 0, _week, new address[](0), true, address(0));\n        emit GameCreated(gameId, _playerCount, _cardCount, _entryFee);\n        gameId = gameId + 1;\n    }\n\n    function joinGame(uint _gameId, uint[] memory _cardIds, string memory _secret) external payable checkPlayersInGame(_gameId, msg.sender) checkCardAvailability(_cardIds, msg.sender) {\n        require(gameIdToGame[_gameId].entryFee == msg.value, \"INVALID ENTRY FEE\");\n        require(compareSecret(_secret), \"INVALID SECRET USED IN REQUEST\");\n        require(gameIdToGame[_gameId].playerCount < gameIdToGame[_gameId].numberOfPlayers, \"GAME IS FULL\");\n        \n        gameIdToPlayerCards[_gameId][msg.sender] = _cardIds;\n        for(uint i = 0; i < _cardIds.length; i++) {\n            cardAuction.setCardUseStatus(_cardIds[i], true);\n        }\n        gameIdToGame[_gameId].playerCount = gameIdToGame[_gameId].playerCount + 1;\n        gameIdToGame[_gameId].players.push(msg.sender);\n        emit GameJoined(_gameId, msg.sender);\n    }\n\n    function endGames(uint[] memory _gameIds, address[] memory _winners) external onlyOwner {\n        for(uint i = 0; i < _gameIds.length; i++) {\n            gameIdToGame[_gameIds[i]].active = false;\n            gameIdToGame[_gameIds[i]].winner = _winners[i];\n            address payable payoutAddress = payable(_winners[i]);\n            address[] memory players = gameIdToGame[_gameIds[i]].players;\n            for(uint j = 0; j < players.length; j++) {\n                setCardsNotInUse(getCardEntriesByPlayer(_gameIds[i], players[j]));\n            }\n            uint payoutAmount = (gameIdToGame[_gameIds[i]].entryFee * gameIdToGame[_gameIds[i]].playerCount * 9) / 10;\n            payoutAddress.transfer(payoutAmount);\n            emit GameEnded(_gameIds[i], _winners[i], payoutAmount);\n        }\n    }\n\n    function setCardsNotInUse(uint[] memory _cardIds) internal {\n        for(uint i = 0; i < _cardIds.length; i++) {\n            cardAuction.setCardUseStatus(_cardIds[i], false);\n        }\n    }\n\n    function getPlayersByGameId(uint _gameId) external view returns(address[] memory) {\n        return gameIdToGame[_gameId].players;\n    }\n\n    function getCardEntriesByPlayer(uint _gameId, address _user) public view returns(uint[] memory) {\n        return gameIdToPlayerCards[_gameId][_user];\n    }\n\n    function compareSecret(string memory _secret) private view returns(bool) {\n        return (keccak256(abi.encodePacked((_secret))) == keccak256(abi.encodePacked((secret))));\n    }\n\n    function setSecret(string memory _secret) external onlyOwner {\n        secret = _secret;\n    }\n}",
  "sourcePath": "/Users/tkma4fr/Development/solidity-app/contracts/card-game.sol",
  "compiler": {
    "name": "solc",
    "version": "0.8.0+commit.c7dfd78e.Emscripten.clang"
  },
  "schemaVersion": "3.4.2",
  "updatedAt": "2021-10-27T15:26:32.417Z",
  "networkType": "ethereum",
  "devdoc": {
    "kind": "dev",
    "methods": {
      "owner()": {
        "details": "Returns the address of the current owner."
      },
      "renounceOwnership()": {
        "details": "Leaves the contract without owner. It will not be possible to call `onlyOwner` functions anymore. Can only be called by the current owner. NOTE: Renouncing ownership will leave the contract without an owner, thereby removing any functionality that is only available to the owner."
      },
      "transferOwnership(address)": {
        "details": "Transfers ownership of the contract to a new account (`newOwner`). Can only be called by the current owner."
      }
    },
    "version": 1
  },
  "userdoc": {
    "kind": "user",
    "methods": {},
    "version": 1
  }
}